:100000000C9459000C9481000C9481000C94810094
:100010000C9481000C9481000C9481000C9481005C
:100020000C9481000C9481000C9481000C9481004C
:100030000C9481000C9481000C9481000C9481003C
:100040000C943B050C9481000C9481000C9481006D
:100050000C9481000C9481000C9481000C9481001C
:100060000C94AA030C948100000000070002010018
:100070000003040600000000000000000102040864
:100080001020408001020408102001020408102002
:10009000040404040404040402020202020203032E
:1000A0000303030300000000250028002B000201C9
:1000B000C70211241FBECFEFD8E0DEBFCDBF11E0D5
:1000C000A0E0B1E0EAE4FCE002C005900D92A031AE
:1000D000B107D9F711E0A0E1B1E001C01D92A33E44
:1000E000B107E1F710E0C2EBD0E004C02297FE01B7
:1000F0000E941F06CE3AD107C9F70E9410060C9441
:1001000023060C94000085E191E00C941501CF9337
:10011000DF9385E191E00E9415018B3FA1F120F46E
:10012000873F09F067C04CC08D3FC1F08E3F09F09A
:1001300061C061E080E191E00E943501C7E0D0E05C
:1001400061E080E191E00E94C80162E370E080E03C
:1001500090E00E94AF05219799F74CC060E880E1DC
:1001600091E00E943501C7E0D0E061E080E191E0DC
:100170000E949F0162E370E080E090E00E94AF0582
:10018000219799F737C0C0E041E06C2F80E191E002
:100190000E94500162E370E080E090E00E94AF05B1
:1001A00040E06C2F80E191E00E94500162E370E03A
:1001B00080E090E00E94AF05CF5FC83029F71AC0F9
:1001C000C0E06C2F80E191E00E94810162E370E069
:1001D00080E090E00E94AF056C2F80E191E00E94EA
:1001E000810162E370E080E090E00E94AF05CF5FA4
:1001F000C83039F764E670E080E090E0DF91CF919D
:100200000C94AF056AE370E085E191E00E940E0175
:100210006BE370E080E191E00C940E01FC017183CE
:1002200060838AE191E00C948B02CF93DF93EC0121
:10023000688179818AE191E00E94AF0268817981C9
:1002400041E050E08AE191E00E94A2028AE191E05F
:100250000E94F8018A838AE191E00E94C4028B83A4
:100260001C828A81DF91CF9108951F93CF93DF93F2
:10027000EC01162F688179818AE191E00E94AF023A
:100280001A83612F8AE191E00E944B028AE191E09A
:100290000E94C4028B831C82DF91CF911F9108952D
:1002A0000F931F93CF93DF9300D0CDB7DEB78C01B0
:1002B0004A8369830E941501F80152814A8169814C
:1002C00041110BC021E030E0062E01C0220F0A943C
:1002D000EAF720952523228309C081E090E001C040
:1002E000880F6A95EAF7852BF8018283F80162810D
:1002F000C8010F900F90DF91CF911F910F910C9437
:1003000035010F931F93CF93DF931F92CDB7DEB7C5
:100310008C0169830E94150181E090E0698101C030
:10032000880F6A95EAF7F801628168276283C8013D
:100330000F90DF91CF911F910F910C9435010F9386
:100340001F93CF93DF931F92CDB7DEB78C01862F1B
:1003500081508730B8F4C80169830E941501F80103
:10036000828190E0698102C0959587956A95E2F750
:100370008283682FC8010F90DF91CF911F910F9159
:100380000C9435010F90DF91CF911F910F9108953B
:100390000F931F93CF93DF931F92CDB7DEB78C01DE
:1003A000862F81508730A8F4C80169830E94150107
:1003B000F8018281698101C0880F6A95EAF782831A
:1003C000682FC8010F90DF91CF911F910F910C946E
:1003D00035010F90DF91CF911F910F9108952091DA
:1003E0004A0130E080914B01281B3109C901089571
:1003F00080914B0190914A01891750F4E82FF0E069
:10040000E45BFE4F208130E08F5F80934B0102C0A0
:100410002FEF3FEFC9010895E0914B0180914A0110
:10042000E81730F4F0E0E45BFE4F208130E002C0DA
:100430002FEF3FEFC90108950895CF92DF92EF9219
:10044000FF920F931F93CF93DF937C01CB018A011F
:1004500020912601222391F0EB016B01C40ED51EE1
:1004600009C06991D701ED91FC910190F081E02DD7
:10047000C7010995CC15DD05A1F703C0642F0E94C3
:100480008103C801DF91CF911F910F91FF90EF90F1
:10049000DF90CF900895CF93DF931F92CDB7DEB753
:1004A0006983209126012223D1F020912701203257
:1004B00040F021E030E0FC013383228320E030E093
:1004C00015C080912801E82FF0E0E75DFE4F99818B
:1004D00090838F5F809328018093270105C061E09E
:1004E000CE0101960E94810321E030E0C9010F9006
:1004F000DF91CF910895FC011382128248EE53E000
:1005000060E070E0448355836683778384E091E004
:1005100091838083089510924B0110924A011092AA
:100520002801109227010C94CB02862F413208F04B
:1005300040E26CE471E00E94E90210924B0180936A
:100540004A01089521E00C94950281E080932601F0
:1005500060934901109228011092270108950C948C
:10056000A5020F93062F21E04091270169E271E077
:10057000809149010E942E031092280110922701B8
:10058000109226010F91089561E00C94B1028AE166
:1005900091E00C947B021092750181E080937301CD
:1005A0001092720161E082E10E94040561E083E142
:1005B0000E940405E9EBF0E080818E7F80838081DA
:1005C0008D7F808388E48093B80085E48093BC00AD
:1005D0000895413208F03FC0909175019111FCCF10
:1005E00091E090937501209373012FEF20936C019C
:1005F00010927101242F2150209370019093740167
:1006000090917401880F892B8093740180917201FD
:10061000813041F410927201809174018093BB008B
:1006200085EC01C085EE8093BC008091750181301E
:10063000E1F380917101841710F44091710126E774
:1006400031E0FB01D90102C08D9181938A2F821B79
:100650008417D0F301C040E0842F08950F934132F6
:1006600008F046C0909175019111FCCF92E09093F3
:100670007501009373019FEF90936C0110927101CB
:1006800040937001FB0166E771E0DB0102C09191CC
:100690009D939A2F961B9417D0F31092740190910A
:1006A0007401880F892B80937401809172018130CD
:1006B00041F410927201809174018093BB0085EC2B
:1006C00001C085EE8093BC00222321F0809175014A
:1006D0008230E1F380916C018F3F61F080916C0179
:1006E000803251F080916C01803341F483E007C087
:1006F00081E005C080E003C082E001C084E00F918A
:100700000895613298F420917501243089F4609342
:100710006E01FC0186E991E0DC0102C021912D937C
:100720002A2F281B2617D0F380E0089581E0089532
:1007300082E0089585ED8093BC008091BC0084FD2B
:10074000FCCF10927501089585EC8093BC00109247
:10075000750108951F920F920FB60F9211242F93D7
:100760003F934F935F936F937F938F939F93AF9339
:10077000BF93EF93FF938091B900887F803609F48F
:100780009FC058F5883209F45BC090F4803109F4B9
:1007900052C038F4882309F4F8C0883009F0F9C051
:1007A0004AC0883109F44CC0803209F0F2C05CC004
:1007B000803409F46BC038F4803309F455C08833B1
:1007C00009F0E7C054C0803509F454C0883509F4F5
:1007D00062C0883409F0DDC0DAC0883909F4CBC0C2
:1007E000A8F4883709F46CC038F4883609F468C076
:1007F000803709F0CEC064C0883809F4BCC08039A5
:1008000009F464C0803809F0C4C060C0803B09F4BA
:100810008AC038F4803A09F46BC0883A09F0B9C04C
:1008200082C0803C09F4ABC0883C09F4A8C0883B76
:1008300009F0AFC08DC0809174018093BB0012C0DD
:100840009091710180917001981788F580917101E4
:10085000E82FF0E0EA58FE4F90819093BB008F5F45
:100860008093710185EC88C080936C0190C0809367
:100870006C0156C0809171019091BB00E82FF0E0AF
:10088000EA58FE4F90838F5F8093710190917101C0
:10089000809170016DC0809171019091BB00E82F33
:1008A000F0E0EA58FE4F90838F5F80937101809152
:1008B000730181116CC081E08093720184EA60C091
:1008C00083E08093750110926D01CCCF80916D0112
:1008D000803208F050C080916D019091BB00E82FEC
:1008E000F0E0E654FE4F90838F5F80936D01BACFA6
:1008F00080916D01803230F4E0916D01F0E0E654BA
:10090000FE4F10820E949A0360916D01E091B60142
:10091000F091B70170E08AEB91E0099510926D01BA
:100920000E94A40336C084E08093750110926F0189
:1009300010926E01E091B801F091B9010995809192
:100940006E01811105C081E080936E0110929601C5
:1009500080916F01E82FF0E0EA56FE4F908190936E
:10096000BB008F5F80936F0190916F0180916E014A
:10097000981708F477CF85E88093BC000AC085EC0F
:100980008093BC001092750104C010926C010E940B
:100990009A03FF91EF91BF91AF919F918F917F91BA
:1009A0006F915F914F913F912F910F900FBE0F90DC
:1009B0001F901895833069F028F48130A1F08230BF
:1009C00011F514C08630B1F08730C1F08430D9F40D
:1009D00004C0809180008F7703C0809180008F7D5C
:1009E00080938000089584B58F7702C084B58F7D91
:1009F00084BD08958091B0008F7703C08091B000CE
:100A00008F7D8093B00008950F931F93CF93DF9352
:100A10001F92CDB7DEB7282F30E0F901E859FF4F1C
:100A20008491F901E458FF4F1491F901E057FF4F09
:100A300004910023D1F0882321F069830E94DA0415
:100A40006981E02FF0E0EE0FFF1FEC55FF4F85911D
:100A50009491DC019FB7F8948C91611103C01095BB
:100A6000812301C0812B8C939FBF0F90DF91CF9189
:100A70001F910F9108951F920F920FB60F9211249C
:100A80002F933F938F939F93AF93BF938091DA01FE
:100A90009091DB01A091DC01B091DD013091E20188
:100AA000232F2D5F2D3720F40196A11DB11D05C008
:100AB000232F2A570296A11DB11D2093E201809396
:100AC000DA019093DB01A093DC01B093DD0180910A
:100AD000DE019091DF01A091E001B091E10101966A
:100AE000A11DB11D8093DE019093DF01A093E00171
:100AF000B093E101BF91AF919F918F913F912F9161
:100B00000F900FBE0F901F9018950F931F939FB7D4
:100B1000F8940091DE011091DF012091E001309105
:100B2000E10186B5A89B06C08F3F21F00F5F1F4FE4
:100B30002F4F3F4F9FBF322F212F102F0027080F1D
:100B4000111D211D311D42E0000F111F221F331FF7
:100B50004A95D1F7B801C9011F910F910895CF921D
:100B6000DF92EF92FF92CF93DF936B017C010E94A3
:100B70008505EB010EC00E9485056C1B7D0B683E50
:100B8000734038F081E0C81AD108E108F108C85173
:100B9000DC4FC114D104E104F10469F7DF91CF9176
:100BA000FF90EF90DF90CF900895789484B58260A5
:100BB00084BD84B5816084BD85B5826085BD85B501
:100BC000816085BDEEE6F0E0808181608083E1E8B0
:100BD000F0E01082808182608083808181608083E8
:100BE000E0E8F0E0808181608083E1EBF0E08081EB
:100BF00084608083E0EBF0E0808181608083EAE7BD
:100C0000F0E0808184608083808182608083808145
:100C1000816080838081806880831092C100089504
:100C20000E94D5050E948300C0E0D0E00E948700AA
:100C30002097E1F30E940000F9CFEE0FFF1F05900F
:0A0C4000F491E02D0994F894FFCF21
:100C4A00000000004B021D02EF01F8010C021C0219
:00000001FF
