:100000000C9415010C943D010C943D010C942005B9
:100010000C9420050C9420050C943D010C943D019A
:100020000C943D010C943D010C943D010C943D0158
:100030000C943D010C943D010C943D010C943D0148
:100040000C942D080C943D010C949D080C94770899
:100050000C943D010C943D010C943D010C943D0128
:100060000C943D010C943D01707265706172696E73
:100070006720726573706F6E7365206D6573736151
:1000800067652E2E2E2000202D206572726F7265FE
:10009000206E6F6E206964656E7469666963617451
:1000A0006F3A20007263766452436F64653A2000B1
:1000B00000000000240027002A00000000080002C1
:1000C0000100000304070000000000000000434D91
:1000D000442020726177202D202020202020005DE8
:1000E000202D200066756C6C20726177202D206CAD
:1000F000656E3A5B00434D442F737562434D442057
:10010000203078203A2000434D445F52436F6465AD
:100110002020203078203A20005345514E4F202097
:1001200020202020203078203A20004352432052C3
:1001300065632F43616C203078203A20005D202DCC
:100140002000636F6D6D616E644461746120617342
:1001500063202D206C656E3A5B005D202D200063CE
:100160006F6D6D616E644461746120686578202DE7
:10017000206C656E3A5B005D202D200066756C6C0E
:100180004461746120202020686578202D206C65F2
:100190006E3A5B00202D205B72637664436F64656A
:1001A0003A2000202D205B69742773204E4F542085
:1001B000666F72206D652E2E2E5D00202D205B5700
:1001C0004F57206974277320666F72206D652E2E3D
:1001D0002E5D00202D205365714E4F3A20002D2DAD
:1001E0003E307800202D20307800000000002500EF
:1001F00028002B0000000000230026002900040432
:1002000004040404040402020202020203030303BE
:10021000030301020408102040800102040810209A
:1002200001020408102026101C1011241FBECFEF5D
:10023000D8E0DEBFCDBF12E0A0E0B1E0E6E9F2E237
:1002400002C005900D92A039B107D9F724E0A0E9CA
:10025000B2E001C01D92A43BB207E1F711E0C4E196
:10026000D1E004C02197FE010E942B11C331D107B8
:10027000C9F70E94BB0D0C943E110C940000BF9274
:10028000CF92DF92EF92FF920F931F93CF93DF9362
:100290007C01162FEA01262F30E084E03595279562
:1002A0008A95E1F70FE0822F802794E0220F331F19
:1002B0009A95E1F7B82EB22A8B2DF70109956E01B8
:1002C000F8E7CF0ED11CF60180818F5F8083FE019D
:1002D000E80FF11DE858FF4FB0821F70F0E11F9F3B
:1002E000C00111241027182B812FF7010995F60161
:1002F00080818F5F8083C80FD11DC858DF4F18835E
:10030000DF91CF911F910F91FF90EF90DF90CF90F1
:10031000BF9008952091DE023091DF02281739073F
:1003200071F49091DD028091DC02981741F0E09128
:10033000DD02F0E0E456FD4F808190E008958FEFFC
:100340009FEF089508951F93CF93DF93DC015C9690
:100350002D913C915D972115310539F481E090E0B4
:1003600013969C938E9312973DC05196ED91FC91FC
:10037000529750969C915097892F80951FB75E9603
:100380004C915E9741FB772770F941FD6095F89499
:100390004081772311F0492B01C048234083E901B4
:1003A0002197F1F748E0508160FF02C0592B01C04E
:1003B00058235083E9012197F1F76695415099F749
:1003C000772321F090818923808303C08081982B3B
:1003D00090831FBF5C968D919C915D970197F1F77B
:1003E00021E030E0C901DF91CF911F910895209164
:1003F000DE023091DF022817390771F48091DC02A8
:100400002091DD0290E0805C9F4F821B910960E4A7
:1004100070E00E94F510089580E090E0089520912A
:10042000DE023091DF0228173907B9F49091DD021E
:100430008091DC02981789F0E091DD02F0E0E4564B
:10044000FD4F80812091DD0230E02F5F3F4F2F7301
:1004500033272093DD0290E008958FEF9FEF0895FA
:10046000E091DE02F091DF02E817F90769F4A38951
:10047000B4899C918589809589238C931092DF02A1
:100480001092DE0281E0089580E00895833081F0CB
:1004900028F4813099F08230A1F008958730A9F0D6
:1004A0008830B9F08430D1F4809180008F7D03C012
:1004B000809180008F7780938000089584B58F7736
:1004C00002C084B58F7D84BD08958091B0008F7780
:1004D00003C08091B0008F7D8093B0000895CF93CA
:1004E000DF93282F30E0F901E654FF4F8491F901A2
:1004F000EE5EFD4FD491F901E250FE4FC491CC2342
:1005000091F081110E944602EC2FF0E0EE0FFF1FE8
:10051000EC50FE4FA591B491EC91ED2381E090E079
:1005200021F480E002C080E090E0DF91CF91089557
:100530003FB7F8948091980290919902A0919A0205
:10054000B0919B0226B5A89B05C02F3F19F00196DC
:10055000A11DB11D3FBFBA2FA92F982F8827820F49
:10056000911DA11DB11DBC01CD0142E0660F771F99
:10057000881F991F4A95D1F708958F929F92AF9245
:10058000BF92CF92DF92EF92FF926B017C010E94AB
:1005900098024B015C01C114D104E104F104F1F0B3
:1005A0000E949802DC01CB0188199909AA09BB09AC
:1005B000883E9340A105B10570F321E0C21AD1082D
:1005C000E108F10888EE880E83E0981EA11CB11C9A
:1005D000C114D104E104F10419F7DDCFFF90EF90CD
:1005E000DF90CF90BF90AF909F908F90089581E85B
:1005F00093E00C940F0281E893E00C94F701682FCC
:1006000081E893E00C94A301CF92DF92EF92FF92E6
:100610000F931F93CF93DF936C017A018B01C0E09E
:10062000D0E0CE15DF0589F0D8016D918D01D6019E
:10063000ED91FC910190F081E02DC6010995892B87
:1006400011F47E0102C02196ECCFC701DF91CF915A
:100650001F910F91FF90EF90DF90CF900895FC01D4
:10066000918D828D981761F0828DDF01A80FB11DE9
:100670005D968C91928D9F5F9F73928F90E008950D
:100680008FEF9FEF089584EE92E00C942F03FC010E
:10069000918D828D981731F0828DE80FF11D858D37
:1006A00090E008958FEF9FEF0895FC01918D228DCA
:1006B000892F90E0805C9F4F821B91098F7399274F
:1006C000089584EE92E00C94550384EE92E00E942B
:1006D000550321E0892B09F420E0822F0895FC01C5
:1006E000848DDF01A80FB11DA35ABF4F2C91848DBB
:1006F00090E001968F739927848FA689B7892C93F0
:10070000A089B1898C9180648C93938D848D98138A
:1007100006C00288F389E02D80818F7D8083089553
:10072000EF92FF920F931F93CF93DF93EC0181E041
:10073000888F9B8D8C8D981305C0E889F9898081FD
:1007400085FD24C0F62E0B8D10E00F5F1F4F0F7339
:100750001127E02E8C8DE8120CC00FB607FCFACFE3
:10076000E889F989808185FFF5CFCE010E946F036A
:10077000F1CF8B8DFE01E80FF11DE35AFF4FF082A0
:100780000B8FEA89FB898081806207C0EE89FF892F
:100790006083E889F98980818064808381E090E0CA
:1007A000DF91CF911F910F91FF90EF900895682FE7
:1007B00084EE92E00C949003CF93DF93EC01888D4C
:1007C0008823C9F0EA89FB89808185FD05C0A88955
:1007D000B9898C9186FD0FC00FB607FCF5CF8081DB
:1007E00085FFF2CFA889B9898C9185FFEDCFCE0125
:1007F0000E946F03E7CFDF91CF91089580E090E0F2
:10080000892B29F00E94650381110C940000089542
:10081000EF92FF920F931F93CF9392EF980F8E302A
:1008200008F0892F8770C82FC0648AE0E82EF12C69
:1008300000E010E0C0937C0080917A008064809397
:100840007A0080917A0086FDFCCF2091780080911B
:10085000790030E0382B020F131F64E670E080E06F
:1008600090E00E94BD0281E0E81AF10819F7C80182
:100870006AE070E00E94F510CB01CF911F910F91BB
:10088000FF90EF900895262FFC01A4E0B1E00596BB
:1008900031913D93E817F907D9F763E0822F90E093
:1008A0000E946F09FC01808180930A0181818093FD
:1008B0000B01828180930C010895EF92FF920F93B8
:1008C0001F93CF93DF937A018C01C62FD0E020973E
:1008D00091F0F80181918F01082E000C990B0E9474
:1008E000E3080E94E108C130D10519F0C7010E9458
:1008F000E1082197ECCFDF91CF911F910F91FF90ED
:10090000EF9008950E943111582FFC0180E07CE89F
:100910009E2F951B961788F4419198E0A42FA82745
:10092000282F30E035952795822FA0FF02C0872F12
:1009300082274695915091F7EBCF08959F92AF9201
:10094000BF92CF92DF92EF92FF920F931F93CF93BC
:10095000DF93CDB7DEB727970FB6F894DEBF0FBE93
:10096000CDBF8C016B0187E0E6E4F1E0DE0111967A
:1009700001900D928A95E1F7F80194AC692DC801B8
:10098000CD960E948404A82EF801EE50FF4F80837C
:100990007801F8E7EF0EF11CF701108282E0F60112
:1009A0000995F70190819F5F9083F801E90FF11D90
:1009B000E858FF4F82E08083BB24B3949B1450F02F
:1009C000F801EB0DF11DA80164ADC6010E943F01C5
:1009D000B394F4CFA8016A2DC6010E943F0183E0C1
:1009E000F6010995F70180818F5F8083F801E80F98
:1009F000F11DE858FF4F83E08083F801E750FF4F77
:100A00008081882331F0A80160E0CE0101960E9428
:100A10003C0A27960FB6F894DEBF0FBECDBFDF911C
:100A2000CF911F910F91FF90EF90DF90CF90BF90EB
:100A3000AF909F90089590E00E94E3080C94E10825
:100A40001F920F920FB60F9211242F933F934F9343
:100A50005F936F937F938F939F93AF93BF93EF9326
:100A6000FF93E091DE02F091DF02309709F451C06C
:100A7000968DA685B785858591FF04C09C918923B5
:100A800029F447C09C91892309F043C0A389B48904
:100A90009C918589809589238C9386899789019774
:100AA000F1F7608D718DA685B785558538E020E01A
:100AB000CB010197F1F7822F90E095958795282F2C
:100AC0004C91452309F02068315091F7868D81FDC6
:100AD00020958091DC0290E001968F7399273091E8
:100AE000DD02381749F0A091DC02B0E0A456BD4FFA
:100AF0002C938093DC0203C0868D8160868F828D6B
:100B0000938D0197F1F7A389B4899C918589892BED
:100B10008C93FF91EF91BF91AF919F918F917F91B6
:100B20006F915F914F913F912F910F900FBE0F905A
:100B30001F9018951F93CF93DF93282F30E0F90172
:100B4000E654FF4F8491F901EE5EFD4FD491F90117
:100B5000E250FE4FC491CC23C9F0162F81110E94A0
:100B60004602EC2FF0E0EE0FFF1FE651FE4FA5917D
:100B7000B4918FB7F894111105C09C91ED2FE095B9
:100B8000E92302C0EC91ED2BEC938FBFDF91CF9165
:100B90001F910895CF93DF9390E0FC01EE5EFD4F2F
:100BA0002491FC01E250FE4F8491882361F190E092
:100BB000880F991FFC01E055FF4FC591D491FC01AE
:100BC000E651FE4FA591B491611109C09FB7F89409
:100BD0008881209582238883EC912E230BC062307C
:100BE00061F49FB7F8943881822F8095832388839E
:100BF000EC912E2B2C939FBF06C08FB7F894E88101
:100C00002E2B28838FBFDF91CF9108957F928F92F3
:100C10009F92AF92BF92CF92DF92EF92FF920F938B
:100C20001F93CF93DF93CDB7DEB7C157D1090FB66E
:100C3000F894DEBF0FBECDBFFC0171801085018529
:100C40009281809194029813F3C17F016F018CE32C
:100C5000C80ED11C80E1E5E8F1E0DE01D5960190F7
:100C60000D928A95E1F780E1E5E9F1E0DE019596E4
:100C700001900D928A95E1F787E0E5EAF1E0DE0167
:100C8000A559BF4F01900D928A95E1F788E0ECEAF3
:100C9000F1E0DE01AD59BF4F01900D928A95E1F769
:100CA0008FE0E4EBF1E0DE01AC5ABF4F01900D9212
:100CB0008A95E1F78FE0E3ECF1E0DE01AB5BBF4F3B
:100CC00001900D928A95E1F780E1E2EDF1E0DE011D
:100CD000559601900D928A95E1F7C7010E94200C6C
:100CE000F7018681813379F038F4833009F454C1F7
:100CF000813209F47BC16EC1823309F49BC0833316
:100D000009F474C167C1F7018781853021F186300C
:100D100009F449C0843009F080C0AE014C5A5F4FDD
:100D2000BE016D597F4F82E191E00E94C609612F9B
:100D300070E080E090E04AE00E94E409812F0E9488
:100D40006F0289834FE0BE016C5A7F4FC6010E943B
:100D5000250A11E063C0AE014B5B5F4FBE016D59C8
:100D60007F4F82E191E00E94C609812F90E0A0E0D0
:100D7000B0E04AE0BC01CD010E94E409812F0E944D
:100D80006F02B82E081721F0602F812F0E949A055C
:100D90006AE070E080E090E00E94BD02812F0E9436
:100DA0006F02B98229C0AE014B5E5F4FBE016D5923
:100DB0007F4F82E191E00E94C609812F90E0A0E080
:100DC000B0E04AE0BC01CD010E94E409812F0E94FD
:100DD0006F02082F811102C061E001C060E0812F25
:100DE0000E949A056AE070E080E090E00E94BD02F7
:100DF000812F0E946F0209838A8340E651E0BA0185
:100E00008DE491E00E94C6094CE551E062E0CE011C
:100E100001960E945D0412E001C010E0412FBE0166
:100E20006F5F7F4FC6010E94250AF701EF5BFF4FFE
:100E30001082DDC08EE591E00E94E10882E191E040
:100E40000E94E108CE0185599F4F0E94E10881E68A
:100E500091E00E94E10861E070E080E090E022EF24
:100E6000210F283018F060E070E0CB014AE00E94CA
:100E7000E409F7018781843019F0853091F085C04D
:100E8000CE018C5A9F4F0E94E108612F70E080E0F4
:100E900090E04AE00E94E4090E94B709812F90E0A7
:100EA00071C0CE018B5B9F4F0E94E108812F90E0C3
:100EB000A0E0B0E04AE0BC01CD010E94E4090E943C
:100EC000B709802E912C61E0812F0E94CA05A12EC6
:100ED000B12C8114910409F448C0FFEF8F169104DE
:100EE00009F445C0F501E654FF4FE491E330F9F011
:100EF00048F4E130B9F0E230A1F584B5806284BDF8
:100F000008BD39C0E730E9F0E83019F1E43049F5BF
:100F10008091800080628093800090928B0080920C
:100F20008A0029C084B5806884BD07BD24C0809133
:100F30008000806880938000909289008092880071
:100F40001AC08091B00080688093B0000093B30015
:100F500012C08091B00080628093B0000093B40012
:100F60000AC080E88816910414F460E001C061E0D2
:100F7000812F0E949A0564EF71E080E090E00E946A
:100F8000BD02C5010E94080401C080E0898341E0E0
:100F9000BE016F5F7F4F16C0F7018781823031F548
:100FA0008FE591E00E94E10882E191E00E94E10872
:100FB00088E690E00E9496090E94B70940E1BE01D0
:100FC0006B5C7F4FC6010E94250AF701EF5BFF4F64
:100FD00010820CC040E1BE016B5D7F4FC6010E94D4
:100FE000250A87E0F701EF5BFF4F808310E0F701F0
:100FF00076AE8091940285AF40E651E064E771E0FF
:1010000082E191E00E94C6094FE252E0612FCE01D9
:1010100001960E945D0461E084E00E949A056FEFF2
:1010200072E0C7010E949E0460E084E00E949A057D
:10103000CF58DF4F0FB6F894DEBF0FBECDBFDF91A4
:10104000CF911F910F91FF90EF90DF90CF90BF90C5
:10105000AF909F908F907F9008951F920F920FB640
:101060000F9211242F933F938F939F93AF93BF932E
:101070008091E0029091E102A091E202B091E3023E
:101080003091970223E0230F2D3720F40196A11D04
:10109000B11D05C026E8230F0296A11DB11D2093A6
:1010A00097028093E0029093E102A093E202B09352
:1010B000E3028091980290919902A0919A02B091D6
:1010C0009B020196A11DB11D8093980290939902F5
:1010D000A0939A02B0939B02BF91AF919F918F9181
:1010E0003F912F910F900FBE0F901F9018951F9258
:1010F0000F920FB60F9211242F933F934F935F934C
:101100006F937F938F939F93AF93BF93EF93FF93CF
:1011100084EE92E00E946F03FF91EF91BF91AF9137
:101120009F918F917F916F915F914F913F912F91FF
:101130000F900FBE0F901F9018951F920F920FB631
:101140000F9211242F938F939F93EF93FF93E0912E
:10115000F402F091F5028081E091FA02F091FB0235
:1011600082FD12C090818091FD028F5F8F7320916C
:10117000FE02821751F0E091FD02F0E0EC51FD4FCC
:10118000958F8093FD0201C08081FF91EF919F9127
:101190008F912F910F900FBE0F901F901895009771
:1011A00069F0FC0101900020E9F73197AF01481B7D
:1011B000590BBC0184EE92E00C94040380E090E0B3
:1011C00008950C94CF08CF93DF93CDB7DEB7619726
:1011D0000FB6F894DEBF0FBECDBF21E1E8E0F2E02C
:1011E000DE01119601900D922A95E1F7AAEAB4E08A
:1011F00012961C921297BC0124E0769567952A9569
:10120000E1F79C012F70332741E050E04C0F5D1F48
:10121000240F351FF901208111962C931197892FE6
:101220009927E4E0880F991FEA95E1F7FB01E81B95
:10123000F90BE40FF51F80818C93CD0161960FB6F9
:10124000F894DEBF0FBECDBFDF91CF910895EF922E
:10125000FF921F93CF93DF931F92CDB7DEB761113B
:1012600007C0382FFC016E2F631B21912111FBCF8A
:10127000182F7C018E2D811B861788F4F701819130
:101280007F01082E000C990B69830E94E3080E94DD
:10129000E1088FE292E00E94E1086981EBCF80E6ED
:1012A00091E00F90DF91CF911F91FF90EF900C9400
:1012B000E108CF93DF931F92CDB7DEB769830E9419
:1012C000E1086981862F90E00E94E3080E94E1080E
:1012D00080E691E00F90DF91CF910C94E108CF93DD
:1012E000DF931092A904E8EAF4E0262F2E1BCAE04F
:1012F000D0E0322F3E0F009741F0BE010E94E11076
:10130000805D8083CB013197F4CF832FDF0111966D
:1013100090E3815010F09E93FCCF81E090E0831B1E
:1013200091098E0F9F1FDF91CF9108950F931F9307
:10133000CF93DF938C01C0E0D0E0F801EC0FFD1FEC
:101340006491662371F0E091E402F091E50201906E
:10135000F081E02D84EE92E00995892B11F0219621
:10136000ECCFCE01DF91CF911F910F91089583E3D0
:1013700092E00C94CF08E091E402F091E502019034
:10138000F081E02D682F84EE92E009940F931F9373
:10139000CF93DF938B01EA010E94E108C8010E940C
:1013A000E108CE010E94E10880E691E00E94E10898
:1013B00080E691E00E94E10880E691E0DF91CF9124
:1013C0001F910F910C94E1088F929F92AF92BF9260
:1013D0000F931F93CF93DF93CDB7DEB7A1970FB6CF
:1013E000F894DEBF0FBECDBF19A2423008F44AE028
:1013F0008E010F5D1F4F842E912CA12CB12CA501C5
:1014000094010E940911E62FB901CA010150110986
:10141000EA3014F4E05D01C0E95CD801EC93232BC1
:10142000242B252B61F7C8010E94CF08A1960FB687
:10143000F894DEBF0FBECDBFDF91CF911F910F910A
:10144000BF90AF909F908F900895CF93DF93DC0172
:10145000FB01EC012896485F98E0941305C04150C9
:101460004C93DF91CF910895943421F09F5F819147
:101470008993F3CF44E4F3CF2F923F924F925F9240
:101480006F927F928F929F92AF92BF92CF92DF9294
:10149000EF92FF920F931F93CF93DF9300D000D072
:1014A00000D0CDB7DEB726E0EBE2F2E0DE01119628
:1014B00001900D922A95E1F7FA01E450FF4F408028
:1014C000DA01A650BF4F33973C912081230F6A0168
:1014D0003BEFC30ED11CF6013081230F240D09F41C
:1014E00096C1FC012081243539F47A01FCE3EF0E2A
:1014F000F11CFA0154AC06C0223509F088C17A010A
:10150000FA0150808A01262E5C013A01F8E76F0E3D
:10151000711CF3013080552009F436C1F701848134
:101520008380912C982C8824880E911C0E94B709E6
:10153000F801E250FF4F808191810E94E108C501CE
:101540000E94E10884EE91E00E949609F7018181F2
:101550000E941B058EED91E00E949609F7018281A1
:101560000E941B0583ED91E00E94960965E0C4018D
:101570000E946F090E94E108F801E350FF4F2081AB
:1015800091E0F7018181281390E081E0F701328139
:10159000231380E0890F39F08BEB91E00E949609CC
:1015A000DD24D39406C083EA91E00E949609F601F7
:1015B000D080F5018081823589F484E991E00E9430
:1015C0009609E22DF0E0EE0FFF1FE85EFE4F8081EE
:1015D00091810E94E1088DE50E94BB09DD2009F49C
:1015E000D3C00E94B709CE0101960E94E1088CE7A2
:1015F00091E00E94960963E0852D90E00E946F09BA
:101600000E94E10887E791E00E949609F701608156
:10161000C70101960E942709F9EF5F0ECE010196DE
:101620000E94E1088FE591E00E949609852C912C9B
:1016300063E0C4010E946F090E94E1088AE591E01D
:101640000E94960995E1D92E80E20E94BB09DA94A6
:10165000D110FACF670128E0C20ED11C652DC6015A
:101660000E942709CE0101960E94E10882E491E0E0
:101670000E94960963E0C4010E946F090E94E1087C
:101680008DE391E00E94960985E1982E80E20E9408
:10169000BB099A949110FACF8BE50E94BB095110B7
:1016A00007C09C2DF6015E2E591A81918111FBCF46
:1016B0002C2C4601882D8219851558F4F40181914E
:1016C0004F0190EE980F9F3508F080E20E94BB0911
:1016D000F1CF8DE50E94BB090E94B709F501808119
:1016E0008235C9F4CE0101960E94E1088BE291E0B7
:1016F0000E949609F801EC50FF4F80810E941B0563
:101700008FE292E00E94E108F801ED50FF4F8081E6
:101710000E941B050CC0CE0101960E94E108F80151
:10172000EE50FF4F608189E192E00E945909CE019D
:1017300001960E94E10889E191E00E94960962E029
:10174000C70103960E942709CE0101960E94E10875
:1017500087E091E00E949609F70185810E941B05B0
:10176000CE0101960E94E10885EF90E00E94960963
:10177000F70186810E941B058FE292E00E94E1083A
:10178000F70187810E941B05442009F440C03320E3
:10179000F1F10E94B709CE0101960E94E10884EEA2
:1017A00090E00E949609F301808163E090E00E943E
:1017B0006F090E94E1088FED90E00E949609CE012A
:1017C00001960E94E108F3016081C80187589F4F8C
:1017D0000E9427090E94B709CE0101960E94E108E4
:1017E0008EEC90E00E949609F301808163E090E026
:1017F0000E946F090E94E108CE0101960E94E10853
:101800006EEE630DC80188579F4F0E9427092696E8
:101810000FB6F894DEBF0FBECDBFDF91CF911F9101
:101820000F91FF90EF90DF90CF90BF90AF909F907F
:101830008F907F906F905F904F903F902F90089582
:10184000DC018C9190E0FD01E90FF11D208124AFB6
:101850009F5F8917C0F708952F923F924F925F9232
:101860006F927F928F929F92AF92BF92CF92DF92B0
:10187000EF92FF920F931F93CF93DF93CDB7DEB715
:101880002E970FB6F894DEBF0FBECDBF8C017C87BC
:101890006B871A0188E0E5E5F2E0DE011196019020
:1018A0000D928A95E1F78FB7F8948090E0029090BE
:1018B000E102A090E202B090E3028FBF780188E7D6
:1018C000E80EF11CF7011082F8011082512C412C16
:1018D000C8018B509F4F9E878D87E750FF4FFA8737
:1018E000E9873801FEEF6F0E711C2FB7F8948091D5
:1018F000E0029091E102A091E202B091E3022FBFD9
:1019000088199909AA09BB09ED85FE854081518195
:101910006281738184179507A607B70708F0FEC098
:10192000F10109951816190604F7EB85FC85099550
:101930006C01F70180818A3708F072C08F5F808365
:10194000F801E80FF11DE858FF4FC082C601992742
:101950008936910509F4B8C09CF58E31910509F4DA
:10196000B3C0E4F48330910509F455C08F3091057C
:1019700009F4AAC0029709F0AEC081E0F7018083A4
:101980008FB7F8948090E0029090E102A090E2027C
:10199000B090E3028FBF44244394A7CF8C339105CA
:1019A00009F492C024F48D9709F095C08DC08B3452
:1019B000910509F489C08A35910509F08CC084C06D
:1019C000843B910509F480C09CF48738910509F4A3
:1019D0007BC02CF48837910509F07DC075C086392D
:1019E000910509F471C0853A910509F074C06CC085
:1019F000823D910509F468C02CF4833C910509F0FF
:101A00006AC062C0813E910509F45EC0803F9105C5
:101A100009F061C059C0F701508192E060E00EC04A
:101A2000F801E750FF4F8081882309F484C0A801A2
:101A300061E0CE0101960E943C0A7DC09517A8F492
:101A40006F5FD801A60FB11D9801290F311DF90153
:101A5000E758FF4F8081482F42954F703197808122
:101A6000807F842B8C939E5FE9CFF801E60FF11DF8
:101A7000F080F801EC50FF4FF0826150F801619363
:101A8000CF010E948404F801ED50FF4F8083369609
:101A90008F1559F08081882309F44FC0A80162E0B6
:101AA000CE0101960E943C0A48C08081882309F437
:101AB00046C081E392E00E94E108A80160E0CE0107
:101AC00001960E943C0A3BC041100FCFF701808174
:101AD000815080830ACFF70180818150808351102B
:101AE00011C0E985FA858081882361F00E94B709D9
:101AF000F301808191810E94E1086C2D86E392E0E0
:101B00000E945909E985FA858081882329F06C2D86
:101B10008FE292E00E9459095394E7CEF801E75012
:101B2000FF4F8081882369F0A80164E0CE0101960F
:101B30000E943C0A06C081E005C082E003C080E04C
:101B400001C084E02E960FB6F894DEBF0FBECDBF65
:101B5000DF91CF911F910F91FF90EF90DF90CF9089
:101B6000BF90AF909F908F907F906F905F904F90BD
:101B70003F902F900895CF93DF93CDB7DEB76A974C
:101B80000FB6F894DEBF0FBECDBF789484B58260E7
:101B900084BD84B5816084BD85B5826085BD85B511
:101BA000816085BD80916E00816080936E0010928F
:101BB000810080918100826080938100809181000A
:101BC000816080938100809180008160809380009B
:101BD0008091B10084608093B1008091B0008160F9
:101BE0008093B00080917A00846080937A00809125
:101BF0007A00826080937A0080917A00816080937D
:101C00007A0080917A00806880937A001092C100F7
:101C100060E081E00E94CA0560E087E00E94CA059A
:101C200060E088E00E94CA0561E08AE00E94CA057F
:101C300061E08BE00E94CA0561E08CE00E94CA0569
:101C400061E08DE00E94CA0510929C0310929B03F4
:101C500010929A031092990310929803109297038E
:101C60008DE991E090939E0380939D0390918D0365
:101C7000963108F057C02DEB30E030939803209355
:101C800097032BE931E030939A03209399032CE2D8
:101C900031E030939C0320939B032091680098309F
:101CA00050F031E09E3008F430E081E001C0880F50
:101CB0003A95EAF701C084E0822B8093680098305F
:101CC00038F09E3040F0963148F020E030E008C017
:101CD0002DE630E005C02BE630E002C02CE630E017
:101CE0003093950320939403983030F481E001C041
:101CF000880F9A95EAF70EC0292F30E09E3018F42D
:101D00002850310902C02E50310981E001C0880FEE
:101D10002A95EAF78093960380919D0390919E0304
:101D20000197F1F780919B0390919C03892B21F1FE
:101D30008091DE029091DF0223E081389207E1F08A
:101D4000009711F00E94300280919F038E7F809354
:101D50009F031092DC021092DD0281E893E09093E1
:101D6000DF028093DE02E0919403F091950390816D
:101D700080919603892B808380EA93E0909396026A
:101D80008093950261E084E00E94CA0560E084E0EF
:101D90000E949A05E091F402F091F50282E08083BE
:101DA000E091F002F091F1021082E091F202F091E4
:101DB000F3028FEC80831092FC02E091F802F09124
:101DC000F90286E08083E091F602F091F7028081CB
:101DD00080618083E091F602F091F7028081886053
:101DE0008083E091F602F091F70280818068808321
:101DF000E091F602F091F70280818F7D808380E090
:101E000090E00E9436118093940290EDC92E97E0E5
:101E1000D92EE12CF12CBB24B3942AE1A22E37E079
:101E2000932E009195021091960260919402F80110
:101E3000E350FF4F60838091000138973F016B3082
:101E400008F0ACC0882399F082EE91E00E94430430
:101E500081E091E0F801E250FF4F91838083359754
:101E60001082319610823196108231961082F301E1
:101E7000C082D182E282F382F801108241E653E00F
:101E800063E473E0C8010E942C0C782E0091950247
:101E9000109196021093930200939202C801CC967F
:101EA0009093910280939002F4E07F1609F4BFC0F2
:101EB000C8010E94200C67ED73E0C8010E949E04D7
:101EC0007110B5C0E0919202F091930292818091DD
:101ED00094020091950210919602981302C0C801D5
:101EE0008AC0C8010E94200C61E084E00E949A052B
:101EF0006FEF72E0C8010E949E0460E084E00E94DF
:101F00009A050091950210919602F801EB50FF4F4F
:101F1000C082D182E282F3824BEF52E067EF72E03F
:101F2000C8010E942C0C882361F1F80192819183F1
:101F3000B282EEEEF1E0DE0111969A2D01900D9243
:101F40009A95E1F7E82FF0E0EE0FFF1FE85EFE4FF5
:101F50008081A82FB181292D281B922F9A0F8D9156
:101F6000882341F0E1E0F0E0EC0FFD1FE90FF11DE7
:101F70008083F3CF4AE1BE016F5F7F4FC8010E94AB
:101F8000250A0091950210919602C8010E94200C2A
:101F900067ED73E0C8010E949E0449C08823C1F028
:101FA00088EE91E00E944304E0919502F091960240
:101FB000E250FF4F81E091E091838083F801E75088
:101FC000FF4FB0823196B0823196108231961082E6
:101FD000F301C082D182E282F3824BEF52E067EFDD
:101FE00072E0C8010E942C0C182F809195029091EC
:101FF0009602111103C00E94060619C0FC018081DF
:102000008823A9F081E091E00E94E10884EA90E051
:102010000E949609612F70E080E090E04AE00E9403
:10202000E40987E890E00E9496090E94B70910929F
:1020300000010E94FE03F5CE8AE391E090938203B3
:102040008093810381E893E00C9430021092E702C0
:102050001092E60288EE93E0A0E0B0E08093E80200
:102060009093E902A093EA02B093EB022AE231E0F6
:102070003093E5022093E40225EC30E03093F10246
:102080002093F00224EC30E03093F3022093F2022C
:1020900020EC30E03093F5022093F40221EC30E0A4
:1020A0003093F7022093F60222EC30E03093F902ED
:1020B0002093F80226EC30E03093FB022093FA02E2
:1020C0001092FD021092FE021092FF021092000385
:1020D0008093950490939604A0939704B0939804EA
:1020E0001092990410929A0410929B0410929C04EE
:1020F0001092840310928303809385039093860348
:10210000A0938703B09388038AE391E090938203BE
:1021100080938103109298031092970310929A0370
:102120001092990310929C0310929B0310929E03AD
:1021300010929D0360919F036E7F6D7F60939F035C
:102140006695617081E0682782E00E949A0561E0EF
:1021500082E00E94CA05E4E1F2E0E491E093910399
:10216000E0E0F2E0E491F0E0EE0FFF1FE651FE4FF9
:1021700085919491909393038093920360E083E020
:102180000E94CA0580919F0381FD04C061E083E045
:102190000E949A0583E080938D03E5E1F2E0E491EB
:1021A000E0938E03E1E0F2E0E491F0E0EE0FFF1F38
:1021B000EC50FE4F859194919093900380938F0300
:1021C0000895AA1BBB1B51E107C0AA1FBB1FA6177E
:1021D000B70710F0A61BB70B881F991F5A95A9F7D0
:1021E00080959095BC01CD01089597FB072E16F4BC
:1021F000009407D077FD09D00E94E11007FC05D0BC
:102200003EF4909581959F4F0895709561957F4F0D
:102210000895A1E21A2EAA1BBB1BFD010DC0AA1F27
:10222000BB1FEE1FFF1FA217B307E407F50720F03F
:10223000A21BB30BE40BF50B661F771F881F991FBA
:102240001A9469F760957095809590959B01AC0103
:10225000BD01CF010895EE0FFF1F0590F491E02D11
:10226000099481E090E0F8940C943E11F999FECF26
:1022700092BD81BDF89A992780B5089511E0C4E117
:10228000D1E004C0FE010E942B112196C531D10777
:06229000C9F7F894FFCF2E
:10229600010D0A5B59595959592D7878785D202DC9
:1022A60020000A20202020005D02600269027102DF
:1022B6007A0282028A02000000009003040355039A
:1022C6002F034703DC0300000000A3010403F7010A
:1022D6000F028A01A20154582D6C696200206265C2
:1022E600666F72652F616674657220002F000A0A98
:1022F600002069732070696E20416E616C6F673FC4
:10230600202D3E0072657475726E696E6720446199
:1023160074613A2000506F6C6C696E6720616E7351
:102326007765722100554E4B4E4F574E20636F6DA9
:102336006D616E6400414E414C4F47004449474928
:1023460054414C00202D2072656164202070696E16
:102356003A2000202D2077726974652070696E3AE4
:102366002000202D20746F67676C652070696E3AB7
:10237600200052656C617900536C617665004552A8
:10238600524F523A202E2E2E2E2E2E2E2E206F6398
:1023960063757272656421003031323334353637F5
:1023A600383941424344454600784D697474656442
:1023B60020435243203078203A20000A2020202053
:1023C600000D0A0D0A006C696252454356202D2005
:1023D600756E6578706578746564206279746528B1
:1023E60073293A200052582D64617461004F4B00E6
:1023F6004F564552464C4F57004241442D43524397
:10240600004241442D434841520054494D454F55E1
:1024160054005041594C4F414400444542554700F1
:00000001FF
