:100000000C9464000C948C000C948C000C948C0068
:100010000C948C000C948C000C948C000C948C0030
:100020000C948C000C948C000C948C000C948C0020
:100030000C948C000C948C000C948C000C948C0010
:100040000C94B9090C948C000C941E0C0C945A0C52
:100050000C948C000C948C000C948C000C948C00F0
:100060000C94C7070C948C000000000700020100EC
:100070000003040600000000000000000102040864
:100080001020408001020408102001020408102002
:10009000040404040404040402020202020203032E
:1000A00003030303000000002300260029000000D2
:1000B0000000250028002B0000000000240027007D
:1000C0002A000506E406150D11241FBECFEFD8E067
:1000D000DEBFCDBF12E0A0E0B1E0E0E5FBE102C091
:1000E00005900D92AE37B107D9F713E0AEE7B2E055
:1000F00001C01D92A63FB107E1F710E0C8ECD0E0C7
:1001000004C02297FE010E94A20DC23CD107C9F78C
:100110000E94650D0C94A60D0C940000DC01ED917D
:10012000FC910190F081E02D09946AE00E94720D2B
:1001300020E1829F900D1124892F0895CF93DF93A2
:10014000D82FC62F68E670E086E892E00E94CC06C1
:100150006D2F86E892E00E9465068C2F0E94950024
:10016000682F86E892E00E94650686E892E0DF91BB
:10017000CF910C94E106982F92959F708F702AE092
:10018000929F800D112408956F927F928F929F927B
:10019000AF92BF92CF92DF92EF92FF920F931F9395
:1001A000CF93DF934C015B01EA01390168E670E00F
:1001B00086E892E00E94CC0660E070E086E892E07B
:1001C0000E948E0086E892E00E94E10647E050E03F
:1001D00068E670E086E892E00E94BF0686E892E05A
:1001E0000E9412068F770E94BB00F401808386E88C
:1001F00092E00E9412060E94BB00F501808386E80F
:1002000092E00E9412068F730E94BB00888386E8EA
:1002100092E00E9412060E94BB00F301808386E8F0
:1002200092E00E9412060E94BB00F801808386E8DB
:1002300092E00E9412060E94BB00F701808386E8CC
:1002400092E00E9412060E94BB00F6018083DF91BB
:10025000CF911F910F91FF90EF90DF90CF90BF90C3
:10026000AF909F908F907F906F900895CF92DF9284
:10027000EF92FF920F931F93CF93DF93CDB7DEB72B
:1002800027970FB6F894DEBF0FBECDBFCC24C39422
:10029000D12CCC0EDD1E22E0E22EF12CEC0EFD1E48
:1002A0008E010D5F1F4F9E012C5F3F4FAE014B5FD4
:1002B0005F4FBE016A5F7F4FCE0107960E94C40068
:1002C00063E671E08FE493E00E94C60A4AE050E0E2
:1002D0006D818FE493E00E94620B69E671E08FE428
:1002E00093E00E94C60A8E818A3030F46BE671E09A
:1002F0008FE493E00E94C60A4AE050E06E818FE4EA
:1003000093E00E94620B69E671E08FE493E00E9443
:10031000C60A8F818A3030F46BE671E08FE493E097
:100320000E94C60A4AE050E06F818FE493E00E9489
:10033000620B6DE671E08FE493E00E94C60A6B8168
:100340006A3050F46BE671E08FE493E00E94C60AD5
:100350004AE050E06B8102C04AE050E08FE493E055
:100360000E94620B65E771E08FE493E00E94C60A89
:100370006A816A3050F46BE671E08FE493E00E948A
:10038000C60A4AE050E06A8102C04AE050E08FE4C9
:1003900093E00E94620B65E771E08FE493E00E94B6
:1003A000C60A4AE050E069818FE493E00E94620B44
:1003B00067E771E08FE493E00E94C60A8C81843085
:1003C000B1F030F4823069F078F48130F9F406C08D
:1003D000863099F078F08730C9F412C064E871E093
:1003E00011C06DE871E00EC065E971E00BC06EE907
:1003F00071E008C069EA71E005C062EB71E002C01B
:100400006BEB71E08FE493E00E94C60A27960FB66B
:10041000F894DEBF0FBECDBFDF91CF911F910F913A
:10042000FF90EF90DF90CF900895CF92DF92EF9200
:10043000FF920F931F93CF93DF93CDB7DEB727972C
:100440000FB6F894DEBF0FBECDBF61E082E00E9420
:10045000210961E082E00E94590961E083E00E9485
:10046000210961E083E00E94590961E084E00E9473
:10047000210961E084E00E94590962E085E00E9460
:10048000210962E086E00E94210962E087E00E9483
:10049000210962E088E00E94210986E892E00E943A
:1004A000A50661E08DE00E94210940E855E260E088
:1004B00070E08FE493E00E94950CE12C00E020E0D6
:1004C00040E06EE870E085E892E00E94580564E044
:1004D00070E085E892E00E94DD0560ED77E080E065
:1004E00090E00E942D0A41E062E085E892E00E94DF
:1004F000B90568EE73E080E090E00E942D0ACC24FC
:10050000C394D12CCC0EDD1E42E0E42EF12CEC0E77
:10051000FD1E8E010D5F1F4F9E012C5F3F4FAE01F0
:100520004B5F5F4FBE016A5F7F4FCE0107960E940F
:10053000C4008F81809384028E81809383028D8199
:10054000809382028C81809381028B8180938002D0
:100550008A8180937F02898180937E0262EC71E0C0
:100560008FE493E00E94C60A4AE050E06F818FE476
:1005700093E00E94690B6BEC71E08FE493E00E94C2
:10058000C60A4AE050E06E818FE493E00E94690B56
:1005900064ED71E08FE493E00E94C60A4AE050E007
:1005A0006D818FE493E00E94690B6DED71E08FE443
:1005B00093E00E94C60A4AE050E06C818FE493E029
:1005C0000E94690B66EE71E08FE493E00E94C60A18
:1005D0004AE050E06B818FE493E00E94690B6FEE7C
:1005E00071E08FE493E00E94C60A4AE050E06A811D
:1005F0008FE493E00E94690B68EF71E08FE493E071
:100600000E94C60A4AE050E069818FE493E00E94AC
:10061000690B27960FB6F894DEBF0FBECDBFDF91F2
:10062000CF911F910F91FF90EF90DF90CF900895A1
:10063000CF93DF9360E082E00E94590985E00E9439
:100640009009892B41F485E00E949009892BD9F308
:10065000C1E0D0E002C0C3E6D0E086E00E9490098D
:10066000892B39F486E00E949009892BD9F3C4E0E4
:10067000D0E087E00E949009892B39F487E00E943E
:100680009009892BD9F3C7E0D0E088E00E94900957
:10069000892B39F488E00E949009892BD9F3CBE0AB
:1006A000D0E061E082E00E94590960E083E00E94AE
:1006B000590985E00E949009892B39F485E00E9450
:1006C0009009892BD9F3C2E0D0E086E00E9490091E
:1006D000892B39F486E00E949009892BD9F3C5E073
:1006E000D0E087E00E949009892B39F487E00E94CE
:1006F0009009892BD9F3C8E0D0E088E00E949009E6
:10070000892B39F488E00E949009892BD9F3C0E045
:10071000D0E061E083E00E94590960E084E00E943B
:10072000590985E00E949009892B39F485E00E94DF
:100730009009892BD9F3C3E0D0E086E00E949009AC
:10074000892B39F486E00E949009892BD9F3C6E001
:10075000D0E087E00E949009892B39F487E00E945D
:100760009009892BD9F3C9E0D0E088E00E94900974
:10077000892B39F488E00E949009892BD9F3CCE0C9
:10078000D0E061E084E00E945909CE01DF91CF9171
:100790000895AF92BF92CF92DF92EF92FF920F93A4
:1007A0001F93CF93DF93CDB7DEB727970FB6F8949B
:1007B000DEBF0FBECDBF0E9418035C0183369105DA
:1007C00009F4D7C0CC24C394D12CCC0EDD1E62E03A
:1007D000E62EF12CEC0EFD1E8E010D5F1F4F9E01CB
:1007E0002C5F3F4FAE014B5F5F4FBE016A5F7F4F93
:1007F000CE0107960E94C4008F81809384029E815F
:10080000909383022D81209382023C813093810258
:100810003B81309380023A8130937F02398130935B
:100820007E0235E0A316B10409F460C0A4F482E0AE
:10083000A816B104A1F12CF4AA94AB2809F099C030
:100840001CC033E0A316B104E1F184E0A816B104A2
:1008500009F08FC039C097E0A916B10409F45FC050
:100860000CF456C098E0A916B10409F468C03BE046
:10087000A316B10409F07DC074C0215018F0209374
:10088000820203C087E1809382026091820282E04B
:100890000E949E000E94360161E072E066C02F5FF8
:1008A000283119F02093820202C0109282026091D6
:1008B000820282E00E949E000E9436016FE072E098
:1008C00054C06DE172E026C0915018F090938302FD
:1008D00003C08BE3809383026091830281E00E94D6
:1008E0009E000E94360165E272E03FC09F5F9C332C
:1008F00019F09093830202C01092830260918302E8
:1009000081E00E949E000E94360163E372E02DC0E8
:1009100062EB71E08FE493E00E94C60A2AC0815026
:1009200008F001C08BE3809384026091840280E030
:100930000E949E000E94360161E472E016C08F5F43
:100940008C3319F08093840202C01092840260916B
:10095000840280E00E949E000E9436016FE472E0F3
:1009600004C00E9436016BED71E08FE493E00E94B9
:10097000E50A68E270E080E090E00E942D0A279688
:100980000FB6F894DEBF0FBECDBFDF91CF911F91A0
:100990000F91FF90EF90DF90CF90BF90AF900895B0
:1009A000EF92FF920F931F93CF93DF931F92CDB7D8
:1009B000DEB7F62E142F022F68E670E086E892E08C
:1009C00059830E94CC066F2D86E892E00E9465064E
:1009D000E12E5981F52E07C0F70161917F0186E86C
:1009E00092E00E9465068E2D811B8017A8F386E891
:1009F00092E00F90DF91CF911F910F91FF90EF90B8
:100A00000C94E106CF93DF931F92CDB7DEB74983F5
:100A100021E0AE014F5F5F4F0E94D0040F90DF9145
:100A2000CF910895EF92FF920F931F93CF93DF938F
:100A3000C62FF42EE52E022F68E670E086E892E0DD
:100A40000E94CC066C2F86E892E00E94650686E83C
:100A500092E00E94E106182F811112C0402F68E633
:100A600086E892E00E94BC06CF2DDE2D05C086E808
:100A700092E00E94120689938C2F8F198017B8F389
:100A8000812FDF91CF911F910F91FF90EF900895EB
:100A9000CF93DF931F92CDB7DEB721E0AE014F5F5A
:100AA0005F4F0E94120589810F90DF91CF910895C9
:100AB000CF92DF92EF92FF920F931F93CF93DF932A
:100AC0001F92CDB7DEB76C01562F342FEAE0842F8A
:100AD0006E2F0E94720D482F440F480F440F430F92
:100AE000822F0E94720D382F330F380F330F320FC1
:100AF000802F0E94720D182F110F180F110F100F59
:100B00008E2D0E94720D082F000F080F000F0E0D82
:100B100050FD406851FD306852FD106854FD10646E
:100B200053FD006857FD09C067E0C60139830E9484
:100B3000020528E0F22E398102C09BE0F92E432FF6
:100B40006F2DC6010E9402056F2D6F5F412FC601F8
:100B50000E9402056F2D6E5F402FC6010F90DF913E
:100B6000CF911F910F91FF90EF90DF90CF900C9459
:100B700002050F931F93CF93DF93EC01162F042FE1
:100B80006EE00E944805612F70E06150710921E01C
:100B900030E001C0220F6A95EAF7002319F0482FD0
:100BA000422B03C0422F409548236EE0CE01DF91D7
:100BB000CF911F910F910C940205EF92FF921F931A
:100BC000CF93DF931F92CDB7DEB77C01162F6EE077
:100BD00079830E944805212F7981372F482F2430AF
:100BE000310514F0446007C0437E53E0220F331FE9
:100BF0005A95E1F7422B6EE0C7010F90DF91CF913C
:100C00001F91FF90EF900C94020586E892E00C94FF
:100C1000A5062091B60230E08091B702281B310969
:100C2000C90108958091B7029091B602891750F4D6
:100C3000E82FF0E0E854FD4F208130E08F5F809393
:100C4000B70202C02FEF3FEFC9010895E091B7024C
:100C50008091B602E81730F4F0E0E854FD4F2081AF
:100C600030E002C02FEF3FEFC90108950895CF9201
:100C7000DF92EF92FF920F931F93CF93DF937C014C
:100C8000CB018A0120919202222391F0EB016B01AA
:100C9000C40ED51E09C06991D701ED91FC91019058
:100CA000F081E02DC7010995CC15DD05A1F703C042
:100CB000642F0E949E07C801DF91CF911F910F9171
:100CC000FF90EF90DF90CF900895CF93DF931F9226
:100CD000CDB7DEB76983209192022223D1F0209113
:100CE0009302203240F021E030E0FC013383228384
:100CF00020E030E015C080919402E82FF0E0EB5640
:100D0000FD4F998190838F5F80939402809393022B
:100D100005C061E0CE0101960E949E0721E030E00F
:100D2000C9010F90DF91CF910895FC0113821282C7
:100D300048EE53E060E070E0448355836683778338
:100D400081E692E09183808308951092B702109219
:100D5000B60210929402109293020C94E806862F29
:100D6000413208F040E268EB72E00E940607109200
:100D7000B7028093B602089521E00C94AF0621E0FB
:100D80000C94AF0681E0809392026093B5021092BA
:100D900094021092930208950C94C2060F93062FAA
:100DA00021E04091930265E972E08091B5020E94D2
:100DB0004B071092940210929302109292020F919C
:100DC000089561E00C94CE0686E892E00C949506B6
:100DD0001092E10281E08093DF021092DE0261E076
:100DE00082E10E94590961E083E10E945909E9EB1F
:100DF000F0E080818E7F808380818D7F808388E496
:100E00008093B80085E48093BC000895413208F0D7
:100E10003FC09091E1029111FCCF91E09093E102EB
:100E20002093DF022FEF2093D8021092DD02242FAF
:100E300021502093DC029093E0029091E002880F11
:100E4000892B8093E0028091DE02813041F4109280
:100E5000DE028091E0028093BB0085EC01C085EE4C
:100E60008093BC008091E1028130E1F38091DD024A
:100E7000841710F44091DD0222EE32E0FB01D9012B
:100E800002C08D9181938A2F821B8417D0F301C0F9
:100E900040E0842F08950F93413208F046C09091AE
:100EA000E1029111FCCF92E09093E1020093DF0206
:100EB0009FEF9093D8021092DD024093DC02FB0179
:100EC00062EE72E0DB0102C091919D939A2F961B16
:100ED0009417D0F31092E0029091E002880F892BD2
:100EE0008093E0028091DE02813041F41092DE02B4
:100EF0008091E0028093BB0085EC01C085EE809379
:100F0000BC00222321F08091E1028230E1F3809144
:100F1000D8028F3F61F08091D802803251F08091E9
:100F2000D802803341F483E007C081E005C080E04F
:100F300003C082E001C084E00F910895613298F40B
:100F40002091E102243089F46093DA02FC0182E00E
:100F500093E0DC0102C021912D932A2F281B261734
:100F6000D0F380E0089581E0089582E0089585ED52
:100F70008093BC008091BC0084FDFCCF1092E10204
:100F8000089585EC8093BC001092E10208951F92B1
:100F90000F920FB60F9211242F933F934F935F93AD
:100FA0006F937F938F939F93AF93BF93EF93FF9331
:100FB0008091B900887F803609F49FC058F5883247
:100FC00009F45BC090F4803109F452C038F48823EE
:100FD00009F4F8C0883009F0F9C04AC0883109F432
:100FE0004CC0803209F0F2C05CC0803409F46BC0A0
:100FF00038F4803309F455C0883309F0E7C054C091
:10100000803509F454C0883509F462C0883409F089
:10101000DDC0DAC0883909F4CBC0A8F4883709F4F8
:101020006CC038F4883609F468C0803709F0CEC047
:1010300064C0883809F4BCC0803909F464C08038C1
:1010400009F0C4C060C0803B09F48AC038F4803A1B
:1010500009F46BC0883A09F0B9C082C0803C09F439
:10106000ABC0883C09F4A8C0883B09F0AFC08DC074
:101070008091E0028093BB0012C09091DD028091CC
:10108000DC02981788F58091DD02E82FF0E0EE5140
:10109000FD4F90819093BB008F5F8093DD0285ECC4
:1010A00088C08093D80290C08093D80256C08091A7
:1010B000DD029091BB00E82FF0E0EE51FD4F9083F0
:1010C0008F5F8093DD029091DD028091DC026DC024
:1010D0008091DD029091BB00E82FF0E0EE51FD4FD2
:1010E00090838F5F8093DD028091DF0281116CC05D
:1010F00081E08093DE0284EA60C083E08093E102B5
:101100001092D902CCCF8091D902803208F050C021
:101110008091D9029091BB00E82FF0E0EA5DFC4F8E
:1011200090838F5F8093D902BACF8091D9028032A9
:1011300030F4E091D902F0E0EA5DFC4F10820E94A9
:10114000B7076091D902E0912203F091230370E088
:1011500086E293E009951092D9020E94C10736C039
:1011600084E08093E1021092DB021092DA02E091B7
:101170002403F091250309958091DA02811105C0BD
:1011800081E08093DA02109202038091DB02E82F63
:10119000F0E0EE5FFC4F90819093BB008F5F8093F7
:1011A000DB029091DB028091DA02981708F477CF86
:1011B00085E88093BC000AC085EC8093BC00109247
:1011C000E10204C01092D8020E94B707FF91EF918C
:1011D000BF91AF919F918F917F916F915F914F914F
:1011E0003F912F910F900FBE0F901F901895833055
:1011F00069F028F48130A1F0823011F514C08630F6
:10120000B1F08730C1F08430D9F404C080918000FF
:101210008F7703C0809180008F7D80938000089538
:1012200084B58F7702C084B58F7D84BD0895809189
:10123000B0008F7703C08091B0008F7D8093B000A5
:101240000895CF93DF9390E0FC01E458FF4F449161
:10125000FC01E057FF4F8491882341F190E0880F13
:10126000991FFC01E854FF4F25913491D901825513
:101270009F4FFC0185919491C82FD92F9FB7F89467
:101280008C91611106C0409584238C9388818423BE
:1012900008C0623041F4242F209582238C938881EA
:1012A000842B888302C0842B8C939FBFDF91CF91C6
:1012B00008950F931F93CF93DF931F92CDB7DEB79F
:1012C000282F30E0F901E859FF4F8491F901E458E3
:1012D000FF4F1491F901E057FF4F04910023D1F023
:1012E000882321F069830E94F7086981E02FF0E0EC
:1012F000EE0FFF1FE255FF4F85919491DC019FB7E0
:10130000F8948C91611103C01095812301C0812B49
:101310008C939FBF0F90DF91CF911F910F910895F4
:10132000CF93DF93282F30E0F901E859FF4F8491E4
:10133000F901E458FF4FD491F901E057FF4FC491F0
:10134000CC2389F081110E94F708EC2FF0E0EE0F1A
:10135000FF1FEC55FF4F85919491DC018C918D23FB
:1013600021E030E011F420E030E0C901DF91CF91BD
:1013700008951F920F920FB60F9211242F933F934F
:101380008F939F93AF93BF938091460390914703B0
:10139000A0914803B091490330914E03232F2D5F54
:1013A0002D3720F40196A11DB11D05C0232F2A570A
:1013B0000296A11DB11D20934E0380934603909386
:1013C0004703A0934803B093490380914A03909147
:1013D0004B03A0914C03B0914D030196A11DB11D8B
:1013E00080934A0390934B03A0934C03B0934D0317
:1013F000BF91AF919F918F913F912F910F900FBE11
:101400000F901F9018950F931F939FB7F89400911A
:101410004A0310914B0320914C0330914D0386B544
:10142000A89B06C08F3F21F00F5F1F4F2F4F3F4FEC
:101430009FBF322F212F102F0027080F111D211DB4
:10144000311D42E0000F111F221F331F4A95D1F7B3
:10145000B801C9011F910F910895CF92DF92EF92C9
:10146000FF92CF93DF936B017C010E94030AEB0193
:101470000EC00E94030A6C1B7D0B683E734038F05F
:1014800081E0C81AD108E108F108C851DC4FC11445
:10149000D104E104F10469F7DF91CF91FF90EF905F
:1014A000DF90CF900895789484B5826084BD84B530
:1014B000816084BD85B5826085BD85B5816085BD4F
:1014C000EEE6F0E0808181608083E1E8F0E0108268
:1014D000808182608083808181608083E0E8F0E0A9
:1014E000808181608083E1EBF0E080818460808393
:1014F000E0EBF0E0808181608083EAE7F0E08081CA
:101500008460808380818260808380818160808329
:101510008081806880831092C1000895CF92DF920D
:10152000EF92FF920F931F93CF93DF936C01EB0128
:101530007A01E60EF71E00E010E00BC06991D601BB
:10154000ED91FC910190F081E02DC6010995080F05
:10155000191FCE15DF0591F7C801DF91CF911F91BB
:101560000F91FF90EF90DF90CF900895DB010D90E9
:101570000020E9F7AD0141505109461B570BDC0132
:10158000ED91FC910280F381E02D09940C94B60A50
:10159000DC01ED91FC910190F081E02D09940F9315
:1015A0001F93CF93DF93EC016DE00E94C80A8C017A
:1015B0006AE0CE010E94C80A9C01200F311FC901B8
:1015C000DF91CF911F910F9108950F931F93CF93A8
:1015D000DF93EC010E94B60A8C01CE010E94CF0A73
:1015E0009801280F391FC901DF91CF911F910F91E9
:1015F00008954F925F926F927F929F92AF92BF92A7
:10160000CF92DF92EF92FF920F931F93CF93DF93CE
:10161000CDB7DEB7A1970FB6F894DEBF0FBECDBF32
:101620005C016A017B01922E19A281E0821710F001
:101630008AE0982E8E010F5D1F4F492C512C612C92
:10164000712CC701B601A30192010E947E0D8C2D61
:10165000929E80191124015011098A3014F4805D82
:1016600001C0895CF801808369017A01C114D10449
:10167000E104F10431F7B801C5010E94B60AA19650
:101680000FB6F894DEBF0FBECDBFDF91CF911F9193
:101690000F91FF90EF90DF90CF90BF90AF909F9011
:1016A0007F906F905F904F9008952115310541F420
:1016B000DC01ED91FC910190F081E02D642F099403
:1016C0000C94F90A9A01462F50E060E070E00C9407
:1016D000550B0F931F93CF93DF93EC019A01462F85
:1016E00050E060E070E00E94550B8C01CE010E943A
:1016F000CF0A9801280F391FC901DF91CF911F919F
:101700000F910895FC0184859585FC01E05CFF4FF5
:1017100020813181FC01EE5BFF4F80819181281B8C
:10172000390B2F733327C9010895FC0184859585F2
:10173000FC01E05CFF4F40815181FC01EE5BFF4FFB
:10174000208131814217530741F00190F081E02D53
:10175000E80FF91F208130E002C02FEF3FEFC901F1
:101760000895FC0184859585FC01E05CFF4F408174
:101770005181FC01EE5BFF4F2081318142175307FD
:1017800081F0A081B181A80FB91F8C912081318196
:101790002F5F3F4F2F73332731832083282F30E073
:1017A00002C02FEF3FEFC9010895FC0186859785A0
:1017B000FC01E05CFF4FDC01AE5BBF4F408151811B
:1017C0002D913C91119742175307C1F70895CF937C
:1017D000DF93FC0186859785DC01A05CBF4F2D91CE
:1017E0003C9111972F5F3F4F2F733327EC01CE5B56
:1017F000DF4F4881598124173507D9F30D90BC91EB
:10180000A02DA80FB91F6C93A685B785A05CBF4F0C
:1018100011963C932E93A689B7892C9181E090E094
:10182000058C02C0880F991F0A94E2F7282B2C938D
:1018300081E090E0DF91CF91089508951F920F927B
:101840000FB60F9211242F933F934F938F939F9333
:10185000EF93FF934091C6008091F2039091F303C0
:1018600001968F7399272091F4033091F503821725
:10187000930759F0E091F203F091F303EE54FC4F1B
:1018800040839093F3038093F203FF91EF919F9134
:101890008F914F913F912F910F900FBE0F901F90FE
:1018A00018958FE493E00E94820B892B11F00C9421
:1018B0001D0C08951F920F920FB60F9211242F93B3
:1018C0003F938F939F93EF93FF932091AE033091BB
:1018D000AF038091B0039091B1032817390731F419
:1018E0008091C1008F7D8093C10014C0E091B0034E
:1018F000F091B103E259FC4F20818091B0039091A7
:10190000B10301968F7399279093B1038093B0032D
:101910002093C600FF91EF919F918F913F912F915E
:101920000F900FBE0F901F901895CF92DF92EF92FD
:10193000FF92CF93DF93EC016A017B01411581EEA9
:10194000580761057105F9F0EC89FD8981E090E0A7
:101950000E8C02C0880F991F0A94E2F7808360E022
:1019600079E08DE390E0A70196010E947E0D215061
:101970003109410951095695479537952795211504
:1019800080E1380798F0EC89FD89108260E874E8FE
:101990008EE190E0A70196010E947E0D2150310951
:1019A000410951095695479537952795E889F98951
:1019B0003083EA89FB892083EE89FF89408181E0B9
:1019C00090E09C010A8C02C0220F331F0A94E2F7B8
:1019D000422B4083EE89FF8940819C010B8C02C021
:1019E000220F331F0A94E2F7422B4083EE89FF89CE
:1019F00040819C010C8C02C0220F331F0A94E2F735
:101A0000422B4083EE89FF8920810D8C02C0880F14
:101A1000991F0A94E2F7809582238083DF91CF910A
:101A2000FF90EF90DF90CF900895109252031092A4
:101A3000510388EE93E0A0E0B0E0809353039093CD
:101A40005403A0935503B093560381E792E090931B
:101A5000500380934F0382EB93E090935C03809359
:101A60005B038EE693E090935E0380935D0385ECC9
:101A700090E09093600380935F0384EC90E09093F8
:101A800062038093610380EC90E090936403809301
:101A9000630381EC90E0909366038093650386EC8A
:101AA00090E0909368038093670384E080936903D8
:101AB00083E080936A0387E080936B0385E08093E3
:101AC0006C0381E080936D0308950E94530A0E9485
:101AD0001502C1E5DCE00E94C9032097E1F30E94F2
:101AE000510CF9CF991B79E004C0991F961708F0A3
:101AF000961B881F7A95C9F780950895A1E21A2E42
:101B0000AA1BBB1BFD010DC0AA1FBB1FEE1FFF1FA1
:101B1000A217B307E407F50720F0A21BB30BE40BF1
:101B2000F50B661F771F881F991F1A9469F7609538
:101B30007095809590959B01AC01BD01CF010895F2
:101B4000EE0FFF1F0590F491E02D0994F894FFCF5C
:101B5000202020205265675F30373A200020202067
:101B6000205265675F30383A2000202020205265DF
:101B7000675F30393A2000202020205265675F30AF
:101B8000413A2000202020205265675F30453A20EE
:101B900000202020205265675F30463A2000203A1E
:101BA0002000202020202020205265676973747255
:101BB0006F2000206F726520003A003000202D2039
:101BC00064656C20002F00202D20204F676769205E
:101BD00065272000446F6D656E696361004C756E0A
:101BE00065646927004D61727465646927004D65FD
:101BF00072636F6C656469270047696F7665646915
:101C0000270056656E6572646927005361626174CE
:101C10006F007365636F6E646920006D696E757423
:101C2000692020006F726520202020200067206F2F
:101C30006620776B200067696F726E6F2020006DE1
:101C40006573652020202000616E6E6F20202020AB
:101C5000002020202020746173746F203120002028
:101C600020202020746173746F203220007461730F
:101C7000746F2033002020202020746173746F2043
:101C80003420002020202020746173746F203520C0
:101C9000002020202020746173746F2037200020E2
:101CA00020202020746173746F2038200000000011
:101CB00000650637060906120626063606000000ED
:0E1CC00000E70B8E0A820BB10B950BD50B00C3
:00000001FF
