:100000000C9435000C945D000C945D000C945D0024
:100010000C945D000C945D000C945D000C945D00EC
:100020000C945D000C945D000C945D000C945D00DC
:100030000C945D000C945D000C945D000C945D00CC
:100040000C94FF020C945D000C946F030C94490314
:100050000C945D000C945D000C945D000C945D00AC
:100060000C945D000C945D00370511241FBECFEF8A
:10007000D8E0DEBFCDBF12E0A0E0B1E0EEE9FFE0E6
:1000800002C005900D92A63CB107D9F723E0A6EC7B
:10009000B2E001C01D92AC36B207E1F710E0C5E353
:1000A000D0E004C02197FE010E948605C433D10729
:1000B000C9F70E94A1030C94CD070C940000E091B5
:1000C000CF02F091D0020190F081E02D682F8FECEB
:1000D00092E00994CF92DF92EF92FF920F931F93D9
:1000E000CF93DF936C017A018B01C0E0D0E0CE1595
:1000F000DF0589F0D8016D918D01D601ED91FC915C
:100100000190F081E02DC6010995892B11F47E0143
:1001100002C02196ECCFC701DF91CF911F910F91C3
:10012000FF90EF90DF90CF900895089580E090E0E9
:100130000895FC01538D448D252F30E0842F90E0ED
:10014000821B930B541710F0CF96089501970895D2
:10015000FC01918D828D981761F0828DDF01A80FCF
:10016000B11D5D968C91928D9F5F9F73928F90E0F1
:1001700008958FEF9FEF0895FC01918D828D981760
:1001800031F0828DE80FF11D858D90E008958FEF9D
:100190009FEF0895FC01918D228D892F90E0805C66
:1001A0009F4F821B91098F73992708958FEC92E0DE
:1001B0000E94CA0021E0892B09F420E0822F0895D3
:1001C000FC01848DDF01A80FB11DA35ABF4F2C91F4
:1001D000848D90E001968F739927848FA689B789C3
:1001E0002C93A089B1898C9180648C93938D848D9C
:1001F000981306C00288F389E02D80818F7D80836B
:100200000895EF92FF920F931F93CF93DF93EC012A
:1002100081E0888F9B8D8C8D981305C0E889F989C2
:10022000808185FD24C0F62E0B8D10E00F5F1F4FDF
:100230000F731127E02E8C8DE8120CC00FB607FC4F
:10024000FACFE889F989808185FFF5CFCE010E9438
:10025000E000F1CF8B8DFE01E80FF11DE35AFF4F57
:10026000F0820B8FEA89FB898081806207C0EE896A
:10027000FF896083E889F98980818064808381E0D7
:1002800090E0DF91CF911F910F91FF90EF90089533
:10029000CF93DF93EC01888D8823C9F0EA89FB892D
:1002A000808185FD05C0A889B9898C9186FD0FC024
:1002B0000FB607FCF5CF808185FFF2CFA889B989F9
:1002C0008C9185FFEDCFCE010E94E000E7CFDF915A
:1002D000CF91089580E090E0892B29F00E94D6000C
:1002E00081110C9400000895009769F0FC010190C1
:1002F0000020E9F73197AF01481B590BBC018FEC87
:1003000092E00C946A0080E090E008958F929F92B2
:10031000AF92BF920F931F93CF93DF93CDB7DEB70A
:10032000A1970FB6F894DEBF0FBECDBF19A2423021
:1003300008F44AE08E010F5D1F4F842E912CA12CF2
:10034000B12CA50194010E946405E62FB901CA01F0
:1003500001501109EA3014F4E05D01C0E95CD801F4
:10036000EC93232B242B252B61F7C8010E947401E9
:10037000A1960FB6F894DEBF0FBECDBFDF91CF912F
:100380001F910F91BF90AF909F908F9008950C9404
:100390007401CF93DF930E947401EC0182E191E03C
:1003A0000E9474018C0F9D1FDF91CF910895CF9310
:1003B000DF93BC0180E090E04AE00E948601EC01FE
:1003C00082E191E00E9474018C0F9D1FDF91CF911B
:1003D0000895CF93DF9340E10E948601EC0182E112
:1003E00091E00E9474018C0F9D1FDF91CF910895C1
:1003F000CF92DF92EF92FF92CF93DF936C01990F30
:10040000EE08FF08F7FE12C08DE20E945F00EC01CB
:1004100066277727CB016C197D098E099F094AE071
:100420000E9486017C01EC0EFD1E06C04AE0C70159
:10043000B6010E9486017C0182E191E00E94740174
:100440008E0D9F1DDF91CF91FF90EF90DF90CF90A9
:1004500008954F925F926F927F928F929F92AF9288
:10046000BF92CF92DF92EF92FF926B017C01B42E8C
:100470009B01AC010E94C307882319F085E191E03C
:1004800027C026013701E89477F82FEF3FEF4FE7B9
:100490005FE7C301B2010E94C30781110DC02FEFB6
:1004A0003FEF4FE75FE7C301B2010E94F90518165D
:1004B0001CF489E191E00CC02FEF3FEF4FE75FE4C0
:1004C000C701B6010E945107181684F48DE191E02E
:1004D000FF90EF90DF90CF90BF90AF909F908F9064
:1004E0007F906F905F904F900C9474012FEF3FEFCF
:1004F0004FE75FECC701B6010E94F90587FDE6CF23
:1005000020E030E0A901C701B6010E94F90587FF8C
:1005100009C08DE20E945F004C01F7FAF094F7F8F1
:10052000F09402C0812C912CA12C60E070E080E05E
:100530009FE3AB1441F020E030E040E251E40E9440
:10054000FE05A394F6CF9B01AC01C701B6010E9442
:100550008D052B013C010E9470066B017C010E94FD
:100560009F069B01AC01C301B2010E948C052B01C7
:100570003C014AE0C701B6010E9486017C01E80CFB
:10058000F91CBB2029F08EE20E945F00E80EF91EE4
:10059000DB2CDD2021F120E030E040E251E4C3011A
:1005A000B2010E9456072B013C010E9470064B01CC
:1005B000A12CB12C4AE0C501B4010E948601E80ECD
:1005C000F91EC501B4010E949F069B01AC01C30145
:1005D000B2010E948C052B013C01DA94DACFC701ED
:1005E000FF90EF90DF90CF90BF90AF909F908F9053
:1005F0007F906F905F904F9008950E94C8071F9260
:100600000F920FB60F9211242F933F938F939F93C6
:10061000AF93BF938091CB029091CC02A091CD0279
:10062000B091CE023091CA0223E0230F2D3720F47F
:100630000196A11DB11D05C026E8230F0296A11D3C
:10064000B11D2093CA028093CB029093CC02A09359
:10065000CD02B093CE028091C6029091C702A091C4
:10066000C802B091C9020196A11DB11D8093C602B6
:100670009093C702A093C802B093C902BF91AF91F3
:100680009F918F913F912F910F900FBE0F901F90D0
:1006900018951F920F920FB60F9211242F933F932C
:1006A0004F935F936F937F938F939F93AF93BF937A
:1006B000EF93FF938FEC92E00E94E000FF91EF91A7
:1006C000BF91AF919F918F917F916F915F914F916A
:1006D0003F912F910F900FBE0F901F9018951F9272
:1006E0000F920FB60F9211242F938F939F93EF9336
:1006F000FF93E091DF02F091E0028081E091E5025A
:10070000F091E60282FD12C090818091E8028F5F35
:100710008F732091E902821751F0E091E802F0E036
:10072000E153FD4F958F8093E80201C08081FF91D6
:10073000EF919F918F912F910F900FBE0F901F906F
:100740001895CF93DF93CDB7DEB7CF5CD1090FB645
:10075000F894DEBF0FBECDBF789484B5826084BDAF
:1007600084B5816084BD85B5826085BD85B58160B5
:1007700085BD80916E00816080936E001092810033
:1007800080918100826080938100809181008160EE
:1007900080938100809180008160809380008091AF
:1007A000B10084608093B1008091B000816080933B
:1007B000B00080917A00846080937A0080917A0002
:1007C000826080937A0080917A00816080937A00C1
:1007D00080917A00806880937A001092C100E09145
:1007E000DF02F091E00282E08083E091DB02F09191
:1007F000DC021082E091DD02F091DE028FEC80835A
:100800001092E702E091E302F091E40286E0808337
:10081000E091E102F091E202808180618083E091C9
:10082000E102F091E202808188608083E091E10240
:10083000F091E202808180688083E091E102F09192
:10084000E20280818F7D80832E018DEC480E511C49
:100850008AE090E0F201918380834E01FFEC8F0EDD
:10086000911C8AE5F40180838E0107531F4F8EE9A6
:100870009EE0A9E4B0E4F80180839183A283B3836E
:1008800089E090E09C838B8382E792E00E94C9011B
:1008900081E291E00E94C701F201608171816B01E8
:1008A000770FEE08FF08F7FE0CC08DE20E945F0094
:1008B00066277727CB016C197D098E099F094AE0CD
:1008C00003C04AE0C701B6010E9486018DE491E0B1
:1008D0000E94C701F201808191810E94F80181E5A7
:1008E00091E00E94C701052C000C6608770840E1E2
:1008F000C301B2010E9486018DE491E00E94C7010C
:10090000C301B2010E94E90182E792E00E94C9019D
:1009100085E791E00E94C701F40180810E945F0099
:100920008DE491E00E94C701F40180810E945F0084
:1009300082E191E00E94740181EA91E00E94C70186
:10094000092C000CAA08BB0840E1C501B4010E94B3
:1009500086018DE491E00E94C701C501B4010E94A7
:10096000E90182E792E00E94C90185EC91E00E94D2
:10097000C701F801608171818281938142E00E9408
:1009800029028DE491E00E94C701F8016081718124
:100990008281938142E00E94290282E191E00E94DB
:1009A000740181EF91E00E94C7016801110FEE0808
:1009B000FF0840E1C701B6010E9486018DE491E085
:1009C0000E94C701C701B6010E94E90182E792E0D7
:1009D0000E94C9018EE092E00E94C7018B819C8138
:1009E0000E94F80181E392E00E94C70181EF91E04B
:1009F0000E94C701CE0101966C01990FEE08FF0815
:100A0000C701B6010E94E9018DE492E00E94C7018E
:100A1000C701B6010E94E90184E191E00E94C90189
:100A20008DE692E00E94C90185E792E00E94C7012D
:100A300082E090E00E94D70189E892E00E94C7011D
:100A400081E090E00E94D7018DE992E00E94C70109
:100A500084E090E00E94D70181EB92E00E94C70100
:100A600088EC90E00E94D7010E946A01FDCFEFEC74
:100A7000F2E01382128288EE93E0A0E0B0E084837B
:100A80009583A683B78384E091E09183808385EC8E
:100A900090E09587848784EC90E09787868780EC48
:100AA00090E0918B808B81EC90E0938B828B82EC39
:100AB00090E0958B848B86EC90E0978B868B118EE3
:100AC000128E138E148E0895A1E21A2EAA1BBB1B40
:100AD000FD010DC0AA1FBB1FEE1FFF1FA217B3070A
:100AE000E407F50720F0A21BB30BE40BF50B661F20
:100AF000771F881F991F1A9469F7609570958095E4
:100B000090959B01AC01BD01CF010895EE0FFF1F31
:100B10000590F491E02D09945058BB27AA270E9414
:100B2000A4050C9417070E94090738F00E941007CB
:100B300020F039F49F3F19F426F40C9406070EF4C4
:100B4000E095E7FB0C940007E92F0E94280758F373
:100B5000BA17620773078407950720F079F4A6F5A2
:100B60000C944A070EF4E0950B2EBA2FA02D0B0122
:100B7000B90190010C01CA01A0011124FF27591BE2
:100B800099F0593F50F4503E68F11A16F040A22FE8
:100B9000232F342F4427585FF3CF46953795279559
:100BA000A795F0405395C9F77EF41F16BA0B620B58
:100BB000730B840BBAF09150A1F0FF0FBB1F661F9F
:100BC000771F881FC2F70EC0BA0F621F731F841FE2
:100BD00048F4879577956795B795F7959E3F08F008
:100BE000B0CF9395880F08F09927EE0F97958795CA
:100BF00008950E94DC0608F481E008950E94120620
:100C00000C9417070E94100758F00E94090740F043
:100C100029F45F3F29F00C94000751110C944B0705
:100C20000C9406070E94280768F39923B1F3552313
:100C300091F3951B550BBB27AA27621773078407EF
:100C400038F09F5F5F4F220F331F441FAA1FA9F385
:100C500035D00E2E3AF0E0E832D091505040E69573
:100C6000001CCAF72BD0FE2F29D0660F771F881FD4
:100C7000BB1F261737074807AB07B0E809F0BB0BC7
:100C8000802DBF01FF2793585F4F3AF09E3F5105DB
:100C900078F00C9400070C944B075F3FE4F3983E08
:100CA000D4F3869577956795B795F7959F5FC9F7C4
:100CB000880F911D9695879597F90895E1E0660F45
:100CC000771F881FBB1F621773078407BA0720F0BE
:100CD000621B730B840BBA0BEE1F88F7E095089527
:100CE0000E94300788F09F5798F0B92F9927B75185
:100CF000B0F0E1F0660F771F881F991F1AF0BA95C0
:100D0000C9F714C0B13091F00E944A07B1E00895CC
:100D10000C944A07672F782F8827B85F39F0B93FBE
:100D2000CCF3869577956795B395D9F73EF4909572
:100D30008095709561957F4F8F4F9F4F0895E894F0
:100D400009C097FB3EF490958095709561957F4F13
:100D50008F4F9F4F9923A9F0F92F96E9BB279395C1
:100D6000F695879577956795B795F111F8CFFAF4D1
:100D7000BB0F11F460FF1BC06F5F7F4F8F4F9F4F02
:100D800016C0882311F096E911C0772321F09EE860
:100D9000872F762F05C0662371F096E8862F70E0C6
:100DA00060E02AF09A95660F771F881FDAF7880FA0
:100DB0009695879597F90895990F0008550FAA0BF6
:100DC000E0E8FEEF16161706E807F907C0F012165E
:100DD0001306E407F50798F0621B730B840B950B61
:100DE00039F40A2661F0232B242B252B21F40895B6
:100DF0000A2609F4A140A6958FEF811D811D089553
:100E000097F99F6780E870E060E008959FEF80ECBD
:100E1000089500240A941616170618060906089560
:100E200000240A9412161306140605060895092EC6
:100E30000394000C11F4882352F0BB0F40F4BF2B35
:100E400011F460FF04C06F5F7F4F8F4F9F4F089575
:100E500057FD9058440F551F59F05F3F71F047956B
:100E6000880F97FB991F61F09F3F79F08795089550
:100E7000121613061406551FF2CF4695F1DF08C06F
:100E8000161617061806991FF1CF8695710561058C
:100E900008940895E894BB2766277727CB0197F934
:100EA00008950E94DC0608F48FEF08950E946907F8
:100EB0000C9417070E94090738F00E94100720F0D1
:100EC000952311F00C9400070C94060711240C9440
:100ED0004B070E94280770F3959FC1F3950F50E0D0
:100EE000551F629FF001729FBB27F00DB11D639FDC
:100EF000AA27F00DB11DAA1F649F6627B00DA11D82
:100F0000661F829F2227B00DA11D621F739FB00D27
:100F1000A11D621F839FA00D611D221F749F332797
:100F2000A00D611D231F849F600D211D822F762F30
:100F30006A2F11249F5750409AF0F1F088234AF00D
:100F4000EE0FFF1FBB1F661F771F881F9150504079
:100F5000A9F79E3F510580F00C9400070C944B07B5
:100F60005F3FE4F3983ED4F3869577956795B79500
:100F7000F795E7959F5FC1F7FE2B880F911D96951A
:100F8000879597F908950E94DC06880B990B0895C0
:0E0F900081E090E0F8940C94CD07F894FFCF28
:100F9E000000000001016A0099004801CA00A80083
:100FAE00BC000D0A006E616E00696E66006F76669B
:100FBE000020436F6E74656E75746F2064656C6C83
:100FCE006120766172696162696C65207465737403
:100FDE0031202F202A70747231203D2000202F20C6
:100FEE00002050747231202F2026746573743120C6
:100FFE0020696E206D656D6F72696120696E204883
:10100E0065783A200020436F6E74656E75746F209C
:10101E0064656C6C6120766172696162696C6520D1
:10102E007465737432202F202A70747232203D2022
:10103E00002050747232202F202674657374322073
:10104E0020696E206D656D6F72696120696E204832
:10105E0065783A200020436F6E74656E75746F204C
:10106E0064656C6C6120766172696162696C652081
:10107E007465737433202F202A70747233203D20D0
:10108E000020506F696E74657220696E206D656DFB
:10109E006F72696120696E204865783A200020439E
:1010AE006F6E74656E75746F2064656C6C612076FE
:1010BE006172696162696C652061727261793D204D
:1010CE0000203D2020636F6E74656E75746F206412
:1010DE00656C20706F696E7465723A2000203D2039
:1010EE0020706F696E74657220696E206D656D6F0C
:1010FE0072696120696E204865783A20002D2D2A8C
:10110E002A2A2D2D002073697A656F662064692066
:10111E007465737431203A20002073697A656F66A6
:10112E00206469207465737432203A20002073693C
:10113E007A656F66206469207465737433203A2073
:10114E00002073697A656F6620646920617272612E
:06115E0079203A20000098
:00000001FF
