:100000000C9462000C948A000C948A000C948A0070
:100010000C948A000C948A000C948A000C948A0038
:100020000C948A000C948A000C948A000C948A0028
:100030000C948A000C948A000C948A000C948A0018
:100040000C949B100C948A000C949A030C947403E7
:100050000C948A000C948A000C948A000C948A00F8
:100060000C9417040C948A00000000002400270060
:100070002A0000000000250028002B0000000000DE
:1000800023002600290004040404040404040202DA
:100090000202020203030303030301020408102007
:1000A0004080010204081020010204081020000012
:1000B0000008000201000003040700000000000027
:1000C0000000CF1811241FBECFEFD8E0DEBFCDBF98
:1000D00013E0A0E0B1E0E4ECFBE302C005900D9278
:1000E000A434B107D9F724E0A4E4B3E001C01D9221
:1000F000AA3BB207E1F710E0C2E6D0E004C02197C6
:10010000FE010E944519C136D107C9F70E94E510CA
:100110000C94E01D0C940000CF92DF92EF92FF92BE
:100120000F931F93CF93DF936C017A018B01C0E093
:10013000D0E0CE15DF0589F0D8016D918D01D60193
:10014000ED91FC910190F081E02DC6010995892B7C
:1001500011F47E0102C02196ECCFC701DF91CF914F
:100160001F910F91FF90EF90DF90CF900895FC01C9
:10017000538D448D252F30E0842F90E0821B930B0C
:10018000541710F0CF96089501970895FC01918DB2
:10019000828D981761F0828DDF01A80FB11D5D96E9
:1001A0008C91928D9F5F9F73928F90E008958FEF57
:1001B0009FEF0895FC01918D828D981731F0828D0B
:1001C000E80FF11D858D90E008958FEF9FEF089562
:1001D000FC01918D228D892F90E0805C9F4F821BC6
:1001E00091098F739927089587EF93E00E94E800A3
:1001F00021E0892B09F420E0822F0895FC01848DF1
:10020000DF01A80FB11DA35ABF4F2C91848D90E040
:1002100001968F739927848FA689B7892C93A0891B
:10022000B1898C9180648C93938D848D981306C0D2
:100230000288F389E02D80818F7D80830895EF927D
:10024000FF920F931F93CF93DF93EC0181E0888F90
:100250009B8D8C8D981305C0E889F989808185FD77
:1002600024C0F62E0B8D10E00F5F1F4F0F73112768
:10027000E02E8C8DE8120CC00FB607FCFACFE8898F
:10028000F989808185FFF5CFCE010E94FE00F1CF74
:100290008B8DFE01E80FF11DE35AFF4FF0820B8FAB
:1002A000EA89FB898081806207C0EE89FF896083CB
:1002B000E889F98980818064808381E090E0DF9122
:1002C000CF911F910F91FF90EF900895CF93DF93FF
:1002D000EC01888D8823C9F0EA89FB89808185FD3E
:1002E00005C0A889B9898C9186FD0FC00FB607FC9F
:1002F000F5CF808185FFF2CFA889B9898C9185FFE0
:10030000EDCFCE010E94FE00E7CFDF91CF9108959F
:1003100080E090E0892B29F00E94F40081110C9478
:100320000000089585ED8093BC008091BC0084FDA1
:10033000FCCF1092D303089540916603262F30E03E
:10034000240F311D21323105DCF42091D3032430F8
:10035000C9F4FC0180E090E0861758F43091660300
:100360002191DC01AC5BBC4FA30FB11D2C93019616
:10037000F3CF80916603680F6093660380E0089571
:1003800081E0089582E008950895E0918C038091C2
:100390008B03E81730F4F0E0E357FC4F808190E0E6
:1003A00008958FEF9FEF089590918C0380918B03B8
:1003B000981750F4E92FF0E0E357FC4F208130E02C
:1003C0009F5F90938C0302C02FEF3FEFC901089508
:1003D00080918B0390E020918C03821B91090895FA
:1003E000CF92DF92EF92FF920F931F93CF93DF9301
:1003F0007C01262F972F8A018091D403882391F0C6
:10040000C62FD72F6E01C40ED51ECC15DD0571F099
:100410006991D701ED91FC910190F081E02DC70128
:100420000995F3CF642F822F0E949C01C801DF91B0
:10043000CF911F910F91FF90EF90DF90CF90089593
:10044000CF93DF931F92CDB7DEB769832091D4039A
:100450002223D1F02091F603203240F021E030E059
:10046000FC013383228380E090E015C08091D503A6
:10047000E82FF0E0EA52FC4F998190838F5F8093E0
:10048000D5038093F60305C061E0CE0101960E947A
:100490009C0181E090E00F90DF91CF910895089545
:1004A00080E090E008950E94EA1B0F931F93CF9382
:1004B000DF93EC0188819981009729F02A813B81A3
:1004C0002617370788F48B016F5F7F4F0E94201B30
:1004D000009761F0998388831B830A832C813D8177
:1004E000232B11F4FC01108281E001C080E0DF9138
:1004F000CF911F910F910895CF93DF93EC018881E5
:100500009981009711F00E94881A198218821D8221
:100510001C821B821A82DF91CF910895EF92FF9285
:100520000F931F93CF93DF93EC01FB01848195819F
:10053000E080F1800C811D81E114F104B1F000979D
:10054000B9F0080F191FB801CE010E945502882387
:1005500061F0288139818C819D81B701820F931FC1
:100560000E94F81B1D830C8303C0CE010E947C02F5
:10057000CE01DF91CF911F910F91FF90EF900895E1
:10058000EF92FF920F931F93CF93DF93EC017B01C8
:100590008A01BA010E945502811104C0CE010E9455
:1005A0007C0207C01D830C83B701888199810E945A
:1005B000F81BCE01DF91CF911F910F91FF90EF902B
:1005C0000895CF93DF93EC01FB018617970761F045
:1005D000608171816115710529F0448155810E9406
:1005E000C00202C00E947C02CE01DF91CF9108952B
:1005F000FC0111821082138212821582148261150D
:10060000710551F0FB0101900020E9F73197AF012E
:10061000461B570B0C94C0020895DC01ED91FC9130
:100620000190F081E02D09946115710579F0FB01CD
:1006300001900020E9F73197AF01461B570BDC0111
:10064000ED91FC910280F381E02D099480E090E02F
:1006500008954F925F926F927F92EF92FF920F9365
:100660001F93CF93DF93CDB7DEB7A1970FB6F89462
:10067000DEBF0FBECDBF7C01FA01CB0119A2223033
:1006800008F42AE08E010F5D1F4F422E512C612C81
:10069000712CBF01A30192010E942319F901CA0123
:1006A000015011096A3014F4605D01C0695CD80121
:1006B0006C93232B242B252B61F7B801C7010E94D3
:1006C0001403A1960FB6F894DEBF0FBECDBFDF9125
:1006D000CF911F910F91FF90EF907F906F905F905F
:1006E0004F9008950C9414031F920F920FB60F921F
:1006F00011242F933F934F935F936F937F938F9327
:100700009F93AF93BF93EF93FF9387EF93E00E9484
:10071000FE00FF91EF91BF91AF919F918F917F91DB
:100720006F915F914F913F912F910F900FBE0F905E
:100730001F9018951F920F920FB60F9211242F93AE
:100740008F939F93EF93FF93E0910704F091080438
:100750008081E0910D04F0910E0482FD12C0908121
:10076000809110048F5F8F7320911104821751F0D4
:10077000E0911004F0E0E950FC4F958F8093100455
:1007800001C08081FF91EF919F918F912F910F90E8
:100790000FBE0F901F9018950F931F93CF93DF9369
:1007A0001F92CDB7DEB78C01FC01848169830E9462
:1007B000D20CF80183856981862B90E00E94700C31
:1007C0000F90DF91CF911F910F910C94750C0F93A7
:1007D0001F93CF938C01C62F0E94CC036C2F6460B3
:1007E000C8010E94CC036C2F6B7FC8010E94CC0310
:1007F00083EC90E00197F1F7CF911F910F9108954D
:100800000F931F93CF938C01C62F607F61600E946E
:10081000E70380E1C89FB00111246160C8010E9414
:10082000E70380E090E0CF911F910F9108951F9210
:100830000F920FB60F9211242F933F934F935F9314
:100840006F937F938F939F93AF93BF93EF93FF9398
:100850008091B900887F803609F49CC068F58832A1
:1008600009F45BC090F4803109F454C038F4882353
:1008700009F4F6C0883009F44DC0F6C0883109F497
:100880004CC0803209F45DC0EFC0803409F468C008
:1008900048F4803309F455C0883309F0E5C08093EB
:1008A000D103D8C0803509F44FC0883509F45DC044
:1008B000883409F0D9C0D6C0883909F4C7C0A8F473
:1008C000883709F467C038F4883609F463C0803784
:1008D00009F460C0C9C0883809F4B8C0803909F487
:1008E0005FC0803809F0C0C05BC0803B09F486C09F
:1008F00038F4803A09F466C0883A09F47FC0B4C07D
:10090000803C09F4A7C0883C09F4A4C0883B09F4E2
:100910008AC0AAC08091AE0310C09091D00380918C
:10092000CF03981770F5E091D00381E08E0F80938C
:10093000D003F0E0E155FC4F80818093BB0085EC53
:1009400086C08093D1038EC0E091D00381E08E0FEA
:100950008093D0038091BB00F0E0E155FC4F808391
:100960009091D0038091CF036EC0E091D00381E0DD
:100970008E0F8093D0038091BB00F0E0E155FC4FD7
:1009800080838091D20381116DC081E08093AD039B
:1009900084EA61C083E08093D30310928A03CFCFAF
:1009A00080918A03803208F051C0E0918A0381E08F
:1009B0008E0F80938A038091BB00F0E0E659FC4FD4
:1009C0008083BDCF85EC8093BC001092D3038091CF
:1009D0008A03803230F4E0918A03F0E0E659FC4F5C
:1009E000108260918A0370E0E0916803F0916903DE
:1009F0008AE693E0099510928A0336C084E08093DA
:100A0000D3031092670310926603E0916403F091A0
:100A10006503099580916603811105C081E080938B
:100A2000660310924403E091670381E08E0F809388
:100A30006703F0E0EC5BFC4F80818093BB009091FA
:100A4000670380916603981708F479CF85E880934F
:100A5000BC000AC085EC8093BC001092D30304C094
:100A60001092D1030E949201FF91EF91BF91AF913B
:100A70009F918F917F916F915F914F913F912F91B6
:100A80000F900FBE0F901F9018950C949B1DAF9266
:100A9000BF92DF92EF92FF920F931F93CF93DF935A
:100AA0001F92CDB7DEB7D62EFC0101900020E9F7EA
:100AB0008F01081B190B025011095C01E12CF12C6C
:100AC0000E151F0594F0642F8D2D8E0D49830E9405
:100AD000ED0CF50161915F0180EA94E00E940D0345
:100AE000FFEFEF1AFF0A4981EBCF0F90DF91CF9113
:100AF0001F910F91FF90EF90DF90BF90AF900895FE
:100B0000CF93DF93CDB7DEB761970FB6F894DEBF12
:100B10000FBECDBF0E942A0D81E1E8E9F1E0DE01C0
:100B2000119601900D928A95E1F740E050E060E067
:100B300070E0CE0101960E9447050E94BC0E6196AE
:100B40000FB6F894DEBF0FBECDBFDF91CF910895F1
:100B5000EF92FF921F93CF93DF9388E00E94CC0F18
:100B6000892B19F418E0D1E002C010E0D0E0C0E019
:100B700089E00E94CC0F892B39F4EE24E394F12C08
:100B800019E0D2E0C0E002C0ED2EFC2E8AE00E9407
:100B9000CC0F892B31F4EE24E394F12C1AE0D4E04D
:100BA000C0E08BE00E94CC0F892B21F0EA94EF2863
:100BB00081F403C01BE0D8E0C0E0812F0E94CC0F7D
:100BC000019739F064E670E080E090E00E946110E7
:100BD000F4CF8D2F9C2FDF91CF911F91FF90EF903D
:100BE00008956F927F928F929F92AF92BF92CF9211
:100BF000DF92EF92FF920F931F93CF93DF93CDB7C6
:100C0000DEB7CB55D1090FB6F894DEBF0FBECDBF0E
:100C10006C01F62E81E1E9EAF1E0DE01AA5BBF4F4B
:100C200001900D928A95E1F781E1EAEBF1E0DE01B6
:100C3000D59601900D928A95E1F78AE18E01055EC5
:100C40001F4FF801982F11929A95E9F7E6E4F1E029
:100C5000DE01119601900D928A95E1F76C962FAF07
:100C60006C976B963FAF6B9769964FAF69976A9693
:100C70005FAF6A9768967FAF68970E942A0D61E020
:100C800080E00E94ED0C67E080EA94E00E940D0392
:100C900061E082E00E94ED0C65E080EA94E00E9451
:100CA0000D0361E084E00E94ED0C66E080EA94E0D0
:100CB0000E940D0361E086E00E94ED0C64E080EA92
:100CC00094E00E940D036C962FAD6C976B963FAD30
:100CD0006B9769964FAD69976A965FAD6A9768960C
:100CE0007FAD6897E1E0CE16D104A9F4EF2DF72F80
:100CF000D801CE01C596219131912D933D93A8172E
:100D0000B907C9F788248394912CA12CB12CEAE06F
:100D1000EE2EF12C72C0F2E0CF16D10461F4FA018C
:100D2000D801CE01C596219131912D933D93A817FD
:100D3000B907C9F7E7CF83E0C816D10419F7F9015D
:100D4000D801CE01C596219131912D933D93A817DD
:100D5000B907C9F7D7CF40E050E060E070E0CE01BE
:100D60008A5B9F4F0E94470560E087E00E94ED0C80
:100D7000B60180EA94E00E94320DCE014D967C01CE
:100D80002AE060E0822F6C962FAF6C970E94ED0CEA
:100D9000F701619171917F0180EA94E00E94320D28
:100DA0006C962FAD6C972F5F203159F70E94210D63
:100DB00060E08AE00E94ED0CAA24A394B12C4AE0E2
:100DC000E42EF12C0E94A8053C0166E970E080E069
:100DD00090E00E946110F2E06F16710409F453C0B4
:100DE0000CF048C06A94672869F78FEF881A980A50
:100DF00094E08916910409F495C091E08916910454
:100E000009F4A9CFE2E08E169104E1F640E050E04B
:100E100060E070E0CE01C5960E94470560E087E083
:100E20000E94ED0CB60180EA94E00E94320DCE01E2
:100E300089967C012AE060E0822F6C962FAF6C9738
:100E40000E94ED0CF701619171917F0180EA94E0BD
:100E50000E94320D6C962FAD6C972F5F203159F7A1
:100E60000E94210D60E08AE00E94ED0C57E0A52E63
:100E7000B12CA5CFE4E06E167104D9F0F8E06F163E
:100E80007104D1F19FCFC501880F991FE1E0F0E017
:100E9000EC0FFD1FE80FF91F228D338D2150310912
:100EA000338F228F37FF1BC020813181338F228FF8
:100EB00016C0C501880F991FE1E0F0E0EC0FFD1F9F
:100EC000E80FF91F228D338D2F5F3F4F338F228F15
:100ED000408151814217530714F4138E128EE1E0C2
:100EE000F0E0EC0FFD1FE80FF91F628D738D80EAB3
:100EF00094E00E94320D11C08FEFE81AF80A90E1D9
:100F0000E916F10424F4EFEFAE1ABE0A06C0AA24D3
:100F1000A394B12C9AE0E92EF12C60E08E2D0E9472
:100F2000ED0C50CFF1E0CF16D10491F4780100E040
:100F300010E0F7016081F2E0EF0EF11CC80140966D
:100F40000E9445050F5F1F4F0D30110591F72BC013
:100F500082E0C816D10491F4780100E010E0F701B6
:100F60006081F2E0EF0EF11CC80180960E944505F9
:100F70000F5F1F4F0D30110591F715C083E0C816A4
:100F8000D10489F4780100E010E0F7016081F2E01B
:100F9000EF0EF11CC801C0960E9445050F5F1F4F60
:100FA0000D30110591F7C55ADF4F0FB6F894DEBF2B
:100FB0000FBECDBFDF91CF911F910F91FF90EF90AA
:100FC000DF90CF90BF90AF909F908F907F906F9069
:100FD00008952F923F924F925F926F927F928F92DD
:100FE0009F92AF92BF92CF92DF92EF92FF920F93B8
:100FF0001F93CF93DF93CDB7DEB7C659D1090FB694
:10100000F894DEBF0FBECDBFC057DF4F99838883F2
:10101000C059D040FE01319688E2DF011D928A95C9
:10102000E9F782E090E09C838B8389E090E09E83E7
:101030008D8325E030E038872F839A8789873C8726
:101040002B879E878D8723E030E0388F2F8B9A8FF8
:10105000898F21E030E03C8F2B8F9E8F8D8F98A35E
:101060008F8F9AA389A381E1E2E9F2E0DE01AF5A12
:10107000BF4F01900D928A95E1F789E0E6EFF1E02C
:10108000DE01AE59BF4F01900D928A95E1F787E0DE
:10109000E3EAF2E0DE01AE58BF4F01900D928A956F
:1010A000E1F787E0EAEAF2E0DE01A559BF4F0190DF
:1010B0000D928A95E1F7FE01E758FF4F6F018E010F
:1010C00006581F4F78010F5F1F4F9E0124583F4F56
:1010D000AE0143585F4FBE0162587F4FCE01815829
:1010E0009F4F0E94D90DEE968FADEE97482F50E09E
:1010F0008A3028F41CA61BA65EA74DA711C06AE083
:101100000E941719282F30E03CA72BA766EF620337
:10111000C001639F900D1124840F951F9EA78DA77A
:10112000EF968FADEF97482F50E08A3028F418AA39
:101130001FA65AAB49AB11C06AE00E941719282FAD
:1011400030E038AB2FA766EF6203C001639F900DBC
:101150001124840F951F9AAB89ABC158DF4F88814A
:10116000CF57D040482F50E08A3028F41CAA1BAA41
:101170005EAB4DAB11C06AE00E941719282F30E01A
:101180003CAB2BAB66EF6203C001639F900D112453
:10119000840F951F9EAB8DABEC968FADEC97482FCF
:1011A00050E08A3048F421961FAE1EAE2197239658
:1011B0005FAF4EAF239715C06AE00E941719282F22
:1011C00030E021963FAF2EAF219766EF6203C0015A
:1011D000639F900D1124840F951F23969FAF8EAFB0
:1011E0002397EB968FADEB97482F50E08A3048F469
:1011F00025961FAE1EAE259727965FAF4EAF279759
:1012000015C06AE00E941719282F30E025963FAFDD
:101210002EAF259766EF6203C001639F900D1124E6
:10122000840F951F27969FAF8EAF2797EA963FAD05
:10123000EA972AE0832F622F0E941719782F482FF0
:1012400050E029965FAF4EAF299766EF6403100117
:10125000659F300C1124230E311C2B963FAE2EAE11
:101260002B9725968EAD9FAD2597289FA001299F8E
:10127000500D112427968EAD9FAD27977A01E80E69
:10128000F91EC058DF4FF982E882C058D04080E88C
:101290009EEDE89E2001E99E500CF89E500C112412
:1012A000052C000C6608770821968EAD9FAD21971E
:1012B000289FA001299F500D112423968EAD9FAD2C
:1012C00023978A01080F191FCE57DF4F1983088310
:1012D000C258D04080E891E5089F4001099F900CDA
:1012E000189F900C1124092C000CAA08BB088BA590
:1012F0009CA5289FA001299F500D11248DA59EA576
:101300007A01E80EF91ECC57DF4FF982E882C45803
:10131000D04040E15EE0E49EC001E59E900DF49E69
:10132000900D11247C01990F000B110BCA57DF4F50
:10133000E882F9820A831B83C658D0408FA598A9FA
:10134000289FA001299F500D112489A99AA98A01DB
:10135000080F191FC657DF4F19830883CA58D0409A
:101360003CE3309FC001319F900D11247C01990F07
:10137000000B110BC457DF4FE882F9820A831B83ED
:10138000CC58D0408BA99CA9289FA001299F500D23
:1013900011248DA99EA98A01080F191F9801012EF9
:1013A000000C440B550B73016201C80CD91CEA1CDC
:1013B000FB1CC20ED31EE41EF51ECA57DF4F8881E8
:1013C0009981AA81BB81C658D040C80ED91EEA1E99
:1013D000FB1EC457DF4F88819981AA81BB81CC58FD
:1013E000D040C80ED91EEA1EFB1E8BEC91E0CD56F4
:1013F000DF4F2883C359D040CC56DF4F3883C459C0
:10140000D040CB56DF4F4883C559D040CA56DF4F36
:101410005883C659D040CE56DF4F7883C259D0404A
:101420000E947D0DCE56DF4F7881C259D040D10148
:10143000EAE07E9FA00DB11D1124BD0187EF93E06E
:101440000E94320D60EF71E087EF93E00E9472031B
:10145000C058DF4F68817981C058D04087EF93E052
:101460000E94320D60EF71E087EF93E00E947203FB
:10147000CE57DF4F68817981C258D04087EF93E023
:101480000E94320D64EF71E087EF93E00E947203D7
:10149000CC57DF4F68817981C458D04087EF93E003
:1014A0000E94320D6FEF71E087EF93E00E947203AC
:1014B000C657DF4F68817981CA58D04087EF93E0E3
:1014C0000E94320D6FEF71E087EF93E00E9472038C
:1014D000B80187EF93E00E94320D8CEF91E00E94FB
:1014E0007D0D8CEF91E00E947D0D63E072E087EF4F
:1014F00093E00E947203C701B6010E94680D6AE181
:1015000072E087EF93E00E947203C301B2010E9470
:10151000680D62E372E087EF93E00E947203C501F9
:10152000B4010E94680D6AE472E087EF93E00E94C4
:101530007203CA57DF4F688179818A819B81C658BF
:10154000D0400E94680D62E672E087EF93E00E944F
:101550007203C457DF4F688179818A819B81CC589F
:10156000D0400E94680D6AE772E087EF93E00E9426
:101570007203CD56DF4F2881C359D040CC56DF4F80
:101580003881C459D040CB56DF4F4881C559D0402F
:10159000CA56DF4F5881C659D040CA01B9010E94CE
:1015A000680D0E942A0D61E080E00E94ED0C67E06A
:1015B00080EA94E00E940D0361E082E00E94ED0C5D
:1015C00065E080EA94E00E940D0361E084E00E94FF
:1015D000ED0C66E080EA94E00E940D0361E086E095
:1015E0000E94ED0C64E080EA94E00E940D0340E06C
:1015F00050E060E070E0CE018F5A9F4F0E94470597
:10160000C057DF4F08811981C059D0400130110502
:1016100069F441E050E06AE070E0CE018E589F4FDF
:101620000E944705EE24E394F12C1AC0C057DF4F07
:1016300048815981C059D0404230510579F441E088
:1016400050E06AE070E0CE0185599F4F0E94470547
:101650005BE0E52EF12C0AE010E004C0E12CF12C57
:1016600000E010E060E08AE00E94ED0C000F111F26
:10167000C12CD12CF601E00FF11F89E290E08C0F14
:101680009D1FE80FF91F6281738180EA94E00E9438
:10169000320D92E0C90ED11CAEE0CA16D10451F74A
:1016A0000E94210D60E08AE00E94ED0C0AE010E04B
:1016B0000E94A8056C016AEF70E080E090E00E9453
:1016C0006110B2E0CB16D10409F4BEC00CF0B3C077
:1016D000CA94CD2869F728968FAD28972A960FAD22
:1016E0002A975AE0859F000D112424968FAD2497E8
:1016F0002696FFAC26979AE0899FF00C11248FADB7
:101700002296EFAC2297AAE08A9FE00C11248BA5C9
:10171000DDA4BAE08B9FD00C11248FA5C9A8EAE004
:101720008E9FC00C11248BA9BDA8FAE08F9FB00C2E
:10173000112488E60E94D20C80E090E00E94700C98
:101740001AE08B2D612F0E941719692F20E1829FCB
:10175000600D112484E994E00E9420028C2D612FF9
:101760000E941719692F40E1849F600D112484E9BC
:1017700094E00E9420028D2D612F0E941719692F7D
:1017800050E1859F600D112484E994E00E942002BD
:1017900061E084E994E00E9420028E2D612F0E9476
:1017A0001719692FA0E18A9F600D112484E994E044
:1017B0000E9420028F2D612F0E941719692FB0E11E
:1017C0008B9F600D112484E994E00E942002802FF9
:1017D000612F0E941719692FE0E18E9F600D11247F
:1017E00084E994E00E9420020E94750C0E94190D69
:1017F00041E050E06AE070E0CE018E599F4F0E94B8
:101800004705CA56DF4F0FB6F894DEBF0FBECDBFF7
:10181000DF91CF911F910F91FF90EF90DF90CF90CC
:10182000BF90AF909F908F907F906F905F904F9000
:101830003F902F90089524E0C216D104D9F048E0DB
:10184000C416D104D1F134CFC701880F991FE1E04C
:10185000F0E0EC0FFD1FE80FF91F20A531A5215086
:10186000310931A720A737FF1BC02081318131A763
:1018700020A716C0C701880F991FE1E0F0E0EC0F28
:10188000FD1FE80FF91F20A531A52F5F3F4F31A79E
:1018900020A7408151814217530714F411A610A6C6
:1018A000E1E0F0E0EC0FFD1FE80FF91F60A571A566
:1018B00080EA94E00E94320D0EC00F5F1F4F00318E
:1018C000110524F4FFEFEF1AFF0A05C0EE24E3949C
:1018D000F12C0AE010E060E0802F0E94ED0CE8CED1
:1018E000682F84E994E00C9420022091F6039091F3
:1018F000AC04213208F04AC08091D3038111FCCF9F
:1019000032E03093D30331E03093D2033FEF309392
:10191000D1031092D0032093CF03A6EDB3E04FEA9A
:1019200053E0FA013E2F341B321718F43D913193E6
:10193000F9CF1092AE032091AE03990F922B9093A2
:10194000AE039091AD03913061F41092AD0390918C
:10195000AE039093BB009091BC0093FDF8CF95EC43
:1019600001C095EE9093BC009091D3039230E1F3C7
:101970009091D1039F3F79F08091D103803241F063
:101980008091D103803331F084E005C081E003C051
:1019900082E001C083E01092D5031092F60310920A
:1019A000D403089591E09093D4038093AC041092F3
:1019B000D5031092F6030895CF93C82F682F607F48
:1019C00080EA94E00E94E70380E1C89FB0011124FF
:1019D00080EA94E0CF910C94E703CF93DF93CDB7E7
:1019E000DEB728970FB6F894DEBF0FBECDBF98E0E4
:1019F000E0E6F1E0DE01119601900D929A95E1F793
:101A00009091A804961710F46FEF690FFE013196BC
:101A1000E60FF11DE60FF11D9081890F8068289671
:101A20000FB6F894DEBF0FBECDBFDF91CF910C94FF
:101A3000DC0CE0EAF4E086818E7F868388600C947B
:101A4000DC0CE0EAF4E08681982F9160968389604F
:101A50000C94DC0C81E00E94DC0C8BE39FE101978D
:101A6000F1F70895CF92DF92EF92FF920F931F93B9
:101A7000CF93DF936B01770FEE08FF08F7FE1BC0D3
:101A8000EC016DE20E940D038C0144275527BA0139
:101A90004C195D096E097F092AE0CE010E942903D5
:101AA000800F911FDF91CF911F910F91FF90EF90C9
:101AB000DF90CF9008952AE0B701A601DF91CF9182
:101AC0001F910F91FF90EF90DF90CF900C9429031E
:101AD000CF93DF93AB01BC012AE087EF93E00E9434
:101AE0002903EC016FE373E087EF93E00E94140396
:101AF0008C0F9D1FDF91CF910895CF93DF93BC0191
:101B000087EF93E00E941403EC016FE373E087EF2B
:101B100093E00E9414038C0F9D1FDF91CF910895D5
:101B20009091D3039111FCCF813208F080E291E0D3
:101B30009093D3039093D2032FEF2093D10310926D
:101B4000D003280F2093CF039093AE039091AE0360
:101B5000906D9093AE039091AD03913061F410922B
:101B6000AD039091AE039093BB009091BC0093FDA8
:101B7000F8CF95EC01C095EE9093BC009091D30303
:101B80009130E1F39091D003981710F48091D00335
:101B9000AFEAB3E02DE833E0F9019E2F921B9817CE
:101BA00018F49D919193F9CF10928C0380938B033D
:101BB00008956F927F928F929F92AF92BF92CF9231
:101BC000DF92EF92FF920F931F93CF93DF934C011D
:101BD0005B01EA01390188E60E94D20C80E090E0C6
:101BE0000E94700C0E94750C87E090E00E94900D9E
:101BF00084E994E00E94D401982F96959695969545
:101C00009E70292F220F220F920F8F70890FF401DF
:101C1000808384E994E00E94D401982F92959F706C
:101C20008F70FAE09F9F800D1124F501808384E975
:101C300094E00E94D401982F96959695969596706B
:101C4000292F220F220F920F8F70890F888384E92A
:101C500094E00E94D401982F92959F708F70FAE0C3
:101C60009F9F800D1124F301808384E994E00E94FA
:101C7000D401982F92959F708F70FAE09F9F800DEE
:101C80001124F801808384E994E00E94D401982F04
:101C900092959F708F70FAE09F9F800D1124F7013D
:101CA000808384E994E00E94D401982F92959F70DC
:101CB0008F70FAE09F9F800D1124F6018083DF91E1
:101CC000CF911F910F91FF90EF90DF90CF90BF9039
:101CD000AF909F908F907F906F900895833081F0A8
:101CE00028F4813099F08230A1F008958730A9F06E
:101CF0008830B9F08430D1F4809180008F7D03C0AA
:101D0000809180008F7780938000089584B58F77CD
:101D100002C084B58F7D84BD08958091B0008F7717
:101D200003C08091B0008F7D8093B00008953FB7CD
:101D3000F8948091B2049091B304A091B404B0914E
:101D4000B50426B5A89B05C02F3F19F00196A11D2B
:101D5000B11D3FBFBA2FA92F982F8827820F911D41
:101D6000A11DB11DBC01CD0142E0660F771F881F88
:101D7000991F4A95D1F70895CF92DF92EF92FF9283
:101D80000F931F93CF93DF93CDB7DEB727970FB68F
:101D9000F894DEBF0FBECDBFCE0101966C01019657
:101DA0007C018E010D5F1F4F9E012C5F3F4FAE01E6
:101DB0004B5F5F4FBE016A5F7F4F05960E94D90D52
:101DC00061E087E00E94ED0C61E080EA94E00E940F
:101DD0000D0361E08AE00E94ED0C60E672E080EAAB
:101DE00094E00E94720361E08DE00E94ED0C60E6D9
:101DF00072E080EA94E00E94720361E088E00E9451
:101E0000ED0C8D818A3080F462E473E080EA94E026
:101E10000E9472034D8150E060E070E02AE080EAA9
:101E200094E00E9429031AC01AE0612F0E9417193A
:101E3000682F70E080EA94E00E94320D2D81822F9D
:101E4000612F0E941719382F46EF4303B001112468
:101E5000620F711D80EA94E00E94320D61E08BE018
:101E60000E94ED0C8E818A3080F462E473E080EA97
:101E700094E00E9472034E8150E060E070E02AE03E
:101E800080EA94E00E9429031AC01AE0612F0E94A0
:101E90001719682F70E080EA94E00E94320D2E81BD
:101EA000822F612F0E941719382F46EF4303B0018C
:101EB0001124620F711D80EA94E00E94320D61E0EE
:101EC0008EE00E94ED0C8F818A3080F462E473E032
:101ED00080EA94E00E9472034F8150E060E070E07D
:101EE0002AE080EA94E00E9429031AC01AE0612FD8
:101EF0000E941719682F70E080EA94E00E94320D6A
:101F00002F81822F612F0E941719382F46EF43032C
:101F1000B0011124620F711D80EA94E00E94320D1D
:101F200027960FB6F894DEBF0FBECDBFDF91CF91DD
:101F30001F910F91FF90EF90DF90CF900895EF9257
:101F4000FF920F931F93CF93DF9300D0CDB7DEB7EF
:101F5000877028E0829FC0011124806469837A839E
:101F60000E94DC0C6981E62E7A81F72E8701085FDA
:101F70001F4FF70161917F0180EA94E00E94000405
:101F8000E016F106B1F70F900F90DF91CF911F91FE
:101F90000F91FF90EF900895CF93DF93282F30E0BB
:101FA000F901E255FF4F8491F901E656FF4FD491B4
:101FB000F901EA57FF4FC491CC2391F081110E949F
:101FC0006E0EEC2FF0E0EE0FFF1FE458FF4FA591CF
:101FD000B491EC91ED2381E090E021F480E002C027
:101FE00080E090E0DF91CF9108951F93CF93DF932E
:101FF000282F30E0F901E255FF4F8491F901E656B0
:10200000FF4FD491F901EA57FF4FC491CC23C9F097
:10201000162F81110E946E0EEC2FF0E0EE0FFF1FC5
:10202000EE58FF4FA591B4918FB7F894111105C0E8
:102030009C91ED2FE095E92302C0EC91ED2BEC9300
:102040008FBFDF91CF911F910895CF93DF9390E0E1
:10205000FC01E656FF4F2491FC01EA57FF4F8491A3
:10206000882361F190E0880F991FFC01E859FF4F28
:10207000C591D491FC01EE58FF4FA591B491611127
:1020800009C09FB7F8948881209582238883EC91BA
:102090002E230BC0623061F49FB7F8943881822FF1
:1020A000809583238883EC912E2B2C939FBF06C0B1
:1020B0008FB7F894E8812E2B28838FBFDF91CF91C3
:1020C00008958F929F92AF92BF92CF92DF92EF923C
:1020D000FF926B017C010E94970E4B015C01C114C1
:1020E000D104E104F104F1F00E94970EDC01CB0170
:1020F00088199909AA09BB09883E9340A105B10531
:1021000070F321E0C21AD108E108F10888EE880EC8
:1021100083E0981EA11CB11CC114D104E104F10498
:1021200019F7DDCFFF90EF90DF90CF90BF90AF9089
:102130009F908F9008951F920F920FB60F921124C7
:102140002F933F938F939F93AF93BF938091AE0450
:102150009091AF04A091B004B091B1043091AD045E
:1021600023E0230F2D3720F40196A11DB11D05C0DA
:1021700026E8230F0296A11DB11D2093AD04809384
:10218000AE049093AF04A093B004B093B1048091D7
:10219000B2049091B304A091B404B091B504019637
:1021A000A11DB11D8093B2049093B304A093B40415
:1021B000B093B504BF91AF919F918F913F912F91B3
:1021C0000F900FBE0F901F901895CF93DF93CDB750
:1021D000DEB7C85BD1090FB6F894DEBF0FBECDBF26
:1021E000789484B5826084BD84B5816084BD85B5F2
:1021F000826085BD85B5816085BD80916E008160FE
:1022000080936E00109281008091810082608093A3
:1022100081008091810081608093810080918000A5
:102220008160809380008091B10084608093B100D0
:102230008091B00081608093B00080917A008460CA
:1022400080937A0080917A00826080937A008091F6
:102250007A00816080937A0080917A008068809310
:102260007A001092C10081E1EFEBF2E09E012F5F56
:102270003F4F5901D90101900D928A95E1F7E09104
:102280000704F091080482E08083E0910304F09158
:1022900004041082E0910504F09106048FEC808321
:1022A00010920F04E0910B04F0910C0486E08083FF
:1022B000E0910904F0910A04808180618083E091BB
:1022C0000904F0910A04808188608083E091090408
:1022D000F0910A04808180688083E0910904F09184
:1022E0000A0480818F7D808310928C0310928B036F
:1022F0001092D5031092F6031092D30381E08093DD
:10230000D2031092AD0361E082E10E94F50F61E01B
:1023100083E10E94F50F8091B9008E7F8093B90010
:102320008091B9008D7F8093B90088E48093B800D4
:1023300085E48093BC001092A5048091AA048230A9
:1023400018F098E09093A5048093A80462E370E0ED
:1023500080E090E00E9461106091AB0480EA94E01C
:102360000E94CC0368EE73E080E090E00E94611070
:1023700060E380EA94E00E94E7030BE416E4C801FE
:102380000197F1F760E380EA94E00E94E703C80157
:102390000197F1F760E380EA94E00E94E70383E5A8
:1023A00092E00197F1F760E280EA94E00E94E7038F
:1023B0008091A50480620E94DC0C84E08093A604D6
:1023C0008CE00E94DC0C0E942A0D82E08093A7041E
:1023D00086E00E94DC0C82E00E94DC0C8BE39FE133
:1023E0000197F1F761E085E00E94251061E086E049
:1023F0000E94251061E087E00E94251060E088E0DF
:102400000E94251060E089E00E94251060E08AE0CB
:102410000E94251060E08BE00E94251061E08CE0B6
:102420000E94251068E371E080E00E949F0F60E346
:1024300071E081E00E949F0F68E271E082E00E94FB
:102440009F0F60E271E083E00E949F0F68E171E0FE
:1024500084E00E949F0F60E171E085E00E949F0F81
:1024600068E071E086E00E949F0F60E071E087E025
:102470000E949F0F88E60E94D20C87E090E00E94A5
:10248000700C80E890E00E94700C80E890E00E9460
:10249000700C80E890E00E94700C80E890E00E9450
:1024A000700C80E090E00E94700C80E090E00E9450
:1024B000700C80E090E00E94700C0E94750C88E621
:1024C0000E94D20C8EE090E00E94700C81E090E0BF
:1024D0000E94900D90918B0380918C03981771F05E
:1024E00084E994E00E94D40121E0892B09F420E0E2
:1024F000822F90E005960E94700CECCF0E94750C24
:1025000040E050E060E070E0C5010E94470568EEE1
:1025100073E080E090E00E9461100E948005CE018F
:102520008396CB54DF4F99838883C55BD040FE01EF
:10253000FD96C954DF4FF983E883C75BD0404E0155
:10254000F7E58F0E911C9C016C014A967C01840179
:102550002B5B3F4FAE0147585F4FBE0166577F4F21
:10256000825A9F4F0E94D90DEA968FADEA97082FA5
:1025700010E08A3018F4412C512C09C06AE00E9406
:102580001719482E9AE0899F001911091124C6577E
:10259000DF4F8881CA58D040C82ED12C8A3018F419
:1025A000E12CF12C0AC06AE00E941719E82EF12CE8
:1025B000EAE08E9FC018D1081124C556DF4F8881EC
:1025C000CB59D040682E712C8A3018F4212C312C34
:1025D00009C06AE00E941719282EFAE08F9F601840
:1025E00071081124642D81E190E00E944505642D5D
:1025F00081E290E00E944505642D81E390E00E9415
:102600004505642D87E190E00E944505642D87E231
:1026100090E00E944505642D87E390E00E94450507
:10262000622D85E190E00E944505622D85E290E0F3
:102630000E944505622D85E390E00E944505622DCC
:102640008BE190E00E944505622D8BE290E00E94B4
:102650004505622D8BE390E00E944505662D86E1DD
:1026600090E00E944505662D86E290E00E944505B7
:10267000662D86E390E00E944505662D8CE190E092
:102680000E944505662D8CE290E00E944505662D6E
:102690008CE390E00E944505260122E0420E511C89
:1026A0003AE0431651044CF0260188E0481A5108DC
:1026B00037019FEF691A790A01C03701E6E06E160B
:1026C00071043CF0F5E06F1A7108B8016F5F7F4F3D
:1026D00001C0B80182E190E00E944505662D83E1CA
:1026E00090E00E944505642D84E190E00E9445053C
:1026F000360124E0620E711C3AE06316710474F036
:10270000160186E0281A310827019FEF491A590A55
:10271000E6E04E1651040CF42EC506C0F6E0EF16A6
:10272000F10474F113012701B8016F5F7F4F88E155
:1027300090E00E944505B2016550710989E190E081
:102740000E944505622D8AE190E00E944505FAE06D
:102750006F1671044CF0360126E0621A71082701E9
:102760003FEF431A530A01C0270186E0481651047F
:10277000BCF095E0491A5108B8016F5F7F4F11C056
:10278000602F88E190E00E9445056E2D89E190E080
:102790000E944505662D8AE190E00E9445052701CB
:1027A000B80182E290E00E944505642D83E290E04A
:1027B0000E944505662D84E290E00E9445052601B1
:1027C000E6E04E0E511CFAE04F1651044CF0260183
:1027D00024E0421A510837013FEF631A730A01C01F
:1027E000370186E0681671043CF095E0691A7108BB
:1027F000B8016F5F7F4F01C0B80188E290E00E948E
:102800004505662D89E290E00E944505642D8AE227
:1028100090E00E9445052601E5E04E0E511CFAE0CD
:102820004F1651044CF0260125E0421A5108370199
:102830003FEF631A730A01C0370186E0681671041E
:102840003CF095E0691A7108B8016F5F7F4F01C0D5
:10285000B80182E390E00E944505662D83E390E095
:102860000E944505642D84E390E00E9445053601F1
:10287000E7E06E0E711CFAE06F1671043CF0360151
:1028800023E0621A71083FEFE31AF30A86E0E816C4
:10289000F1042CF095E0E91AF1080F5F1F4F602F4B
:1028A00088E390E00E9445056E2D89E390E00E9448
:1028B0004505662D8AE390E00E94450561E085E0CC
:1028C0000E94F50F61E086E00E94F50F61E087E06D
:1028D0000E94F50F60E273E080E090E00E946110DA
:1028E00060E085E00E94F50F60E273E080E090E038
:1028F0000E94611060E086E00E94F50F60E273E0E4
:1029000080E090E00E94611060E087E00E94F50F97
:102910000E94A805892B09F493C20E942A0D61E048
:1029200080E00E94ED0C67E080EA94E00E940D03D5
:1029300061E082E00E94ED0C61EB72E080EA94E0DD
:102940000E94720361E084E00E94ED0C61EB72E092
:1029500080EA94E00E94720361E086E00E94ED0C40
:1029600064E080EA94E00E940D0381E1E0EDF2E092
:10297000DE01A556BF4F01900D928A95E1F740E028
:1029800050E060E070E0CE0185569F4F0E94470501
:102990000E94A8050097E1F3019721F481E090E0FF
:1029A0000E94E90781E1E1EEF2E0DE01A657BF4FA8
:1029B00001900D928A95E1F740E050E060E070E010
:1029C000CE0186579F4F0E9447050E94A805009799
:1029D000E1F3019721F482E090E00E94E90781E1B0
:1029E000E2EFF2E0DE01A758BF4F01900D928A9509
:1029F000E1F740E050E060E070E0CE0187589F4F83
:102A00000E9447050E94A8050097E1F3019709F08D
:102A10002BC188E0F40111928A95E9F781E1E3E0A6
:102A2000F3E0D50101900D928A95E1F789E0E4E1A8
:102A3000F3E0DE01DD9601900D928A95E1F789E0E1
:102A4000E6EFF1E0DE01939601900D928A95E1F7B1
:102A500080E190E00E94931DC82ED12CF401D38216
:102A6000C28280E290E00E94931DE82EF12CF401D6
:102A7000F582E48280E390E00E94931D082F10E02D
:102A8000F401178306830E942A0D61E080E00E9412
:102A9000ED0C67E080EA94E00E940D0361E082E0C3
:102AA0000E94ED0C62E080EA94E00E940D0361E078
:102AB00084E00E94ED0C61EB72E080EA94E00E94F9
:102AC000720361E086E00E94ED0C64E080EA94E02D
:102AD0000E940D0340E050E060E070E0C5010E94FC
:102AE000470541E050E068E070E0CE01CD960E94DD
:102AF000470560E08DE00E94ED0CCD2839F463EBD2
:102B000072E080EA94E00E94720305C063E080EA0C
:102B100094E00E940D03EF2839F463EB72E080EA41
:102B200094E00E94720305C063E080EA94E00E9492
:102B30000D03012B39F463EB72E080EA94E00E940C
:102B4000720305C063E080EA94E00E940D0360E038
:102B50008DE00E94ED0C0E94210DEE24E394F12CF7
:102B60000DE010E066246394712C0E94A8056C01AE
:102B70006AEF70E080E090E00E946110F4E0CF1610
:102B8000D104E1F128E0C216D10409F45AC0CA9474
:102B9000CD2859F76A966FAD6A9780E190E00E9460
:102BA00045056C966FAD6C9780E290E00E944505FC
:102BB0006E966FAD6E9780E390E00E9445050E948F
:102BC000190D41E050E068E070E0CE0183960E946C
:102BD000470561E082E00E94ED0C61EB72E080EA63
:102BE00094E00E94720361E084E00E94ED0C61EBCE
:102BF00072E080EA94E00E94720336C0C701880F39
:102C0000991FF401E80FF91F20813181232B19F45A
:102C10007182608202C011821082F401E80FF91FF4
:102C200080819181892B39F463EB72E080EA94E032
:102C30000E94720314C063E080EA94E00E940D03D6
:102C40000EC00F5F1F4F0031110524F48FEFE81AFB
:102C5000F80A05C0EE24E394F12C0DE010E060E0EA
:102C6000802F0E94ED0C81CF81E1EDE1F3E0DE01E8
:102C7000A859BF4F01900D928A95E1F740E050E0CE
:102C800060E070E0CE0188599F4F0E9447050E9486
:102C9000A8050097E1F3019709F0D0C089E0E6EFBD
:102CA000F1E0DE01A455BF4F01900D928A95E1F746
:102CB0008AE1C954DF4FE881F981C75BD040282FF2
:102CC00011922A95E9F7CB54DF4FE881F981C55B72
:102CD000D040282F11922A95E9F7F50111928A9593
:102CE000E9F79E01215C3F4F79018E010B5D1F4F7B
:102CF000CE0103963C0131E1C32ED12CC6010E94C6
:102D0000931D90E0F701819391937F01C601409656
:102D10000E94931D90E0F801819391938F01C60169
:102D200080960E94931D90E0F301819391933F015F
:102D3000FFEFCF1ADF0A2DE1C216D104F9F60E9487
:102D40002A0D61E080E00E94ED0C65EB72E080EA04
:102D500094E00E94720361E082E00E94ED0C67EB58
:102D600072E080EA94E00E94720361E084E00E94D5
:102D7000ED0C6BE173E080EA94E00E94720361E085
:102D800086E00E94ED0C64E080EA94E00E940D036E
:102D900081E1EEE2F3E0D40101900D928A95E1F732
:102DA00040E050E060E070E0C4010E9447050E94EE
:102DB000A8058C016AEF70E080E090E00E9461104D
:102DC0000230110511F17CF40130110581F70E94E8
:102DD000190D41E050E06AE070E0CE0184559F4F4C
:102DE0000E9447052BC004301105D9F008301105A9
:102DF000F1F69E012F5F3F4FAE014D5D5F4FBE016B
:102E0000635C7F4F81E090E017C09E012F5F3F4FD2
:102E1000AE014D5D5F4FBE01635C7F4F83E090E08C
:102E20000BC09E012F5F3F4FAE014D5D5F4FBE0156
:102E3000635C7F4F82E090E00E94F1050E94800574
:102E40000E94BC0E6AEF70E080E090E00E9461108A
:102E500088E60E94D20C8FE090E00E94700C81E026
:102E600090E00E94900D00E010E090918B03809123
:102E70008C03981749F084E994E00E94D401892BCF
:102E8000A1F301E010E0F1CF0E94750C01301105B3
:102E900009F06EC161E08CE00E94F50F88E60E94A7
:102EA000D20C8FE090E00E94700C81E090E00E94D4
:102EB000900D90918B0380918C03981771F084E9A9
:102EC00094E00E94D40121E030E0811102C020E0B2
:102ED00030E0C9010E94700CECCF0E94750C68ECC8
:102EE00070E080E090E00E94611060E08CE00E9461
:102EF000F50F61E080E00E94ED0C60E080EA94E074
:102F00000E940D0388E60E94D20C81E190E00E94AD
:102F1000700C0E94750C82E090E00E94900D84E994
:102F200094E00E94D401182F84E994E00E94D40117
:102F300026E0959587952A95E1F7682F70E080E067
:102F400090E00E94761C20E030E040E85EE30E94C2
:102F5000D51C6B017C01612F110F770B880B990B2E
:102F60000E94761C9B01AC01C701B6010E944C195E
:102F70006B017C012DB63EB661E473E0C4010E9492
:102F8000F802C701B6010E94B8192B013C011EAE20
:102F90001DAE21961FAE1EAE219723961FAE1EAE0C
:102FA0002397072E000C880B990B0E94761C9B011F
:102FB000AC01C701B6010E944B1920E030E04AE79E
:102FC00054E40E94D51C0E94B81997FF07C0909541
:102FD0008095709561957F4F8F4F9F4F2AE0A50197
:102FE0000E94191CF50101900020E9F73197AF010B
:102FF0004A195B09B501CE01CD960E94C0021CA200
:103000001BA21EA21DA218A61FA24AE0B501C20162
:103010000E940E1CF50101900020E9F73197AF01E5
:103020004A195B09B501CE0183960E94C0021A823B
:1030300019821C821B821E821D82BE016D5D7F4F24
:10304000C5010E94E1020D811E810F5F1F4FB80173
:10305000C5010E945502882309F49DC029813A8147
:103060008D819E8169EB72E0820F931F0E94F81B95
:103070001E830D83BE01635C7F4FC5010E948E02DB
:10308000BC01C4010E94E10289819A810E94881AD0
:103090008BA19CA10E94881A8DAD9EAD0E94881ABA
:1030A000F4018481958101962DB73EB7281B390B19
:1030B0000FB6F8943EBF0FBE2DBF0DB71EB70F5F02
:1030C0001F4F20E030E0A901C701B6010E94EE19B0
:1030D00087FD03C06BEB72E002C06DEB72E0C501CF
:1030E0000E94F802B401C5010E948E02BC01C40115
:1030F0000E94E10289819A810E94881AF4018481E8
:10310000958181309105D1F001151105B9F0009735
:1031100011F4F80112C07C01F2E0EF1AF1088E15EB
:103120009F0508F47C01F40160817181A701C80149
:103130000E94FF1BF801EE0DFF1D108241E050E0E0
:1031400061E070E0C8010E944705F401808191812F
:103150000E94881A0FB6F8943EBE0FBE2DBE61E0E5
:1031600087E00E94ED0C61E080EA94E00E940D038C
:103170000E948801CDCB602F88E190E00E94450538
:10318000642D89E190E00E944505622D8AE190E07E
:103190000E944505E0CAC5010E947C026BCFE7EFA3
:1031A000F3E01382128288EE93E0A0E0B0E0848323
:1031B0009583A683B7832CE631E03183208325EC09
:1031C00030E03587248724EC30E03787268720ECF1
:1031D00030E0318B208B21EC30E0338B228B22ECE2
:1031E00030E0358B248B26EC30E0378B268B118E2C
:1031F000128E138E148EE4E9F4E01382128284831B
:103200009583A683B7838EE791E091838083E0EA7C
:10321000F4E01382128280E991E09183808383E25B
:10322000848380E1818782E0828713860895991BD9
:1032300079E004C0991F961708F0961B881F7A95AD
:10324000C9F780950895A1E21A2EAA1BBB1BFD01A8
:103250000DC0AA1FBB1FEE1FFF1FA217B307E40775
:10326000F50720F0A21BB30BE40BF50B661F771FCD
:10327000881F991F1A9469F76095709580959095AD
:103280009B01AC01BD01CF010895EE0FFF1F05901A
:10329000F491E02D09945058BB27AA270E94631986
:1032A0000C94591D0E944B1D38F00E94521D20F0B5
:1032B00039F49F3F19F426F40C94481D0EF4E09560
:1032C000E7FB0C94421DE92F0E946A1D58F3BA17C0
:1032D000620773078407950720F079F4A6F50C942C
:1032E0008C1D0EF4E0950B2EBA2FA02D0B01B90109
:1032F00090010C01CA01A0011124FF27591B99F06C
:10330000593F50F4503E68F11A16F040A22F232F77
:10331000342F4427585FF3CF469537952795A795C7
:10332000F0405395C9F77EF41F16BA0B620B730B6E
:10333000840BBAF09150A1F0FF0FBB1F661F771FDF
:10334000881FC2F70EC0BA0F621F731F841F48F494
:10335000879577956795B795F7959E3F08F0B0CF1D
:103360009395880F08F09927EE0F97958795089504
:103370000E94BF196894B1110C948D1D08950E948C
:10338000721D88F09F5798F0B92F9927B751B0F068
:10339000E1F0660F771F881F991F1AF0BA95C9F7D9
:1033A00014C0B13091F00E948C1DB1E008950C94CE
:1033B0008C1D672F782F8827B85F39F0B93FCCF381
:1033C000869577956795B395D9F73EF49095809556
:1033D000709561957F4F8F4F9F4F08950E94B11C4C
:1033E00008F48FEF0895CF93DF938230910510F4A6
:1033F00082E090E0E091B804F091B90420E030E080
:10340000C0E0D0E0309711F1408151814817590751
:10341000C0F04817590761F482819381209719F011
:103420009B838A832BC09093B9048093B80426C0F1
:103430002115310519F04217530718F49A01BE01FE
:10344000DF01EF010280F381E02DDCCF2115310592
:1034500009F1281B390B2430310590F412968D9117
:103460009C9113976115710521F0FB019383828371
:1034700004C09093B9048093B804FD01329644C00F
:10348000FD01E20FF31F81939193225031092D9397
:103490003C933AC02091B6043091B704232B41F4F9
:1034A00020914201309143013093B7042093B60438
:1034B00020914001309141012115310541F42DB792
:1034C0003EB74091440150914501241B350BE091DA
:1034D000B604F091B704E217F307A0F42E1B3F0BDC
:1034E0002817390778F0AC014E5F5F4F2417350776
:1034F00048F04E0F5F1F5093B7044093B60481937A
:10350000919302C0E0E0F0E0CF01DF91CF91089508
:103510000F931F93CF93DF93009709F48CC0FC01A6
:103520003297138212820091B8041091B9040115E8
:10353000110581F420813181820F931F2091B604FF
:103540003091B7042817390779F5F093B704E09361
:10355000B60471C0D80140E050E0AE17BF0750F488
:1035600012962D913C911397AD012115310509F16A
:10357000D901F3CF9D01DA01338322836081718108
:10358000860F971F8217930769F4EC012881398110
:10359000260F371F2E5F3F4F318320838A819B8107
:1035A00093838283452B29F4F093B904E093B80404
:1035B00042C01396FC93EE931297ED0149915991F5
:1035C0009E01240F351FE217F30771F4808191816A
:1035D000840F951F029611969C938E9382819381FE
:1035E00013969C938E931297E0E0F0E0D801129628
:1035F0008D919C911397009719F0F8018C01F6CFEB
:103600008D919C9198012E5F3F4F820F931F2091C7
:10361000B6043091B7042817390769F4309729F4B4
:103620001092B9041092B80402C01382128210934F
:10363000B7040093B604DF91CF911F910F910895C5
:10364000A0E0B0E0E6E2FBE10C94AD1DEC010097D8
:1036500021F4CB010E94F319B8C0FC01E60FF71F5B
:103660009C0122503109E217F30708F4ACC0D901DC
:103670000D911C91119706171707B0F00530110531
:1036800008F49FC0C80104978617970708F499C0EB
:1036900002501109061B170B019311936D937C9334
:1036A000CF010E94881A8DC05B01A01AB10A4C019B
:1036B000800E911EA091B804B091B90440E050E092
:1036C000E12CF12C109709F44AC0A815B905D1F5E1
:1036D0006D907C901197630182E0C80ED11CCA14D2
:1036E000DB0480F1A3014A195B096A0182E0C80E7C
:1036F000D11C1296BC9012971396AC91B5E0CB16E4
:10370000D10440F0B282A38351834083D9016D93E9
:103710007C930AC00E5F1F4FC301800F911FF901F8
:1037200091838083EB2DFA2FE114F10431F0D7015E
:103730001396FC93EE93129744C0F093B904E09370
:10374000B8043FC08D919C9111974817590708F410
:10375000AC017D0112960D90BC91A02DB3CF80914C
:10376000B6049091B70488159905E1F446175707F8
:10377000C8F48091400190914101009741F48DB7C8
:103780009EB74091440150914501841B950BE81769
:10379000F907C8F4F093B704E093B604F901718314
:1037A00060830FC0CB010E94F3197C01009759F090
:1037B000A801BE010E94EF1BCE010E94881AC7011A
:1037C00004C0CE0102C080E090E0CDB7DEB7EEE0ED
:1037D0000C94C91D81E090E0F8940C94E01DFB016D
:1037E000DC0102C001900D9241505040D8F708957D
:1037F000FB01DC0101900D920020E1F70895FB012F
:10380000DC014150504048F001900D920020C9F772
:1038100001C01D9241505040E0F70895BB274A3047
:1038200031F4992322F4BDE2909581959F4F0C9439
:103830004B1CBB272A3051F4992342F4BDE29095EA
:103840008095709561957F4F8F4F9F4F0C94291CE9
:10385000BB27FA01A62F6217710581059105330B6D
:1038600030FB66F0AA27660F771F881F991FAA1FD3
:10387000A21710F0A21B63953850A9F7A05DAA33D8
:1038800008F0A95DA19336F7B111B1931082CA0176
:103890000C94641CBB27FB015527AA27880F991F8E
:1038A000AA1FA41710F0A41B83955051B9F7A05D6F
:1038B000AA3308F0A95DA193009779F7B111B193EC
:1038C0001192CB010C94641CDC01FC01672F7191F7
:1038D0007723E1F7329704C07C916D9370836291F6
:1038E000AE17BF07C8F30895E89409C097FB3EF4EC
:1038F00090958095709561957F4F8F4F9F4F99233D
:10390000A9F0F92F96E9BB279395F69587957795BA
:103910006795B795F111F8CFFAF4BB0F11F460FF7A
:103920001BC06F5F7F4F8F4F9F4F16C0882311F0D2
:1039300096E911C0772321F09EE8872F762F05C0E6
:10394000662371F096E8862F70E060E02AF09A9581
:10395000660F771F881FDAF7880F9695879597F976
:103960000895990F0008550FAA0BE0E8FEEF161610
:103970001706E807F907C0F012161306E407F50763
:1039800098F0621B730B840B950B39F40A2661F0D7
:10399000232B242B252B21F408950A2609F4A1407A
:1039A000A6958FEF811D811D08950E94E81C0C943F
:1039B000591D0E944B1D38F00E94521D20F0952386
:1039C00011F00C94421D0C94481D11240C948D1D73
:1039D0000E946A1D70F3959FC1F3950F50E0551F2B
:1039E000629FF001729FBB27F00DB11D639FAA2754
:1039F000F00DB11DAA1F649F6627B00DA11D661FA3
:103A0000829F2227B00DA11D621F739FB00DA11DC3
:103A1000621F839FA00D611D221F749F3327A00D7D
:103A2000611D231F849F600D211D822F762F6A2F19
:103A300011249F5750409AF0F1F088234AF0EE0F7E
:103A4000FF1FBB1F661F771F881F91505040A9F7AB
:103A50009E3F510580F00C94421D0C948D1D5F3FDC
:103A6000E4F3983ED4F3869577956795B795F795E7
:103A7000E7959F5FC1F7FE2B880F911D969587955F
:103A800097F9089597F99F6780E870E060E00895DE
:103A90009FEF80EC089500240A9416161706180666
:103AA0000906089500240A94121613061406050642
:103AB0000895092E0394000C11F4882352F0BB0FD3
:103AC00040F4BF2B11F460FF04C06F5F7F4F8F4F36
:103AD0009F4F089557FD9058440F551F59F05F3F71
:103AE00071F04795880F97FB991F61F09F3F79F020
:103AF00087950895121613061406551FF2CF4695A2
:103B0000F1DF08C0161617061806991FF1CF869523
:103B10007105610508940895E894BB276627772707
:103B2000CB0197F90895F999FECF92BD81BDF89A1E
:103B3000992780B50895262FF999FECF1FBA92BD17
:103B400081BD20BD0FB6F894FA9AF99A0FBE01967E
:103B500008952F923F924F925F926F927F928F9231
:103B60009F92AF92BF92CF92DF92EF92FF920F930C
:103B70001F93CF93DF93CDB7DEB7CA1BDB0B0FB616
:103B8000F894DEBF0FBECDBF09942A8839884888D3
:103B90005F846E847D848C849B84AA84B984C88469
:103BA000DF80EE80FD800C811B81AA81B981CE0F60
:103BB000D11D0FB6F894DEBF0FBECDBFED01089545
:043BC000F894FFCFA7
:103BC4000004021F02040000000404150E04000097
:103BD40000040E1504040000010105091F08040077
:103BE400000103161C080000021F1200091F080030
:103BF400000E1517110E00000C0C07080807000032
:103C04000000BA0480000000020009000500090059
:103C1400050009000200090005000900050009006B
:103C24000000400014005400000000001F018C003C
:103C3400B7006601E800C600DA00000000002002B8
:103C4400F0015002C401E801D401C50100000000E4
:103C540000048C0050024F025072656D6920756E2D
:103C640020746173746F2020005374617274205047
:103C74007820202020202020200053746F702020E2
:103C840050782020202020202020006461746120AE
:103C940065206F726120696E20204141204D4D20C6
:103CA400474720202020206868206D6D2073730012
:103CB400202F200020202020202020202020002031
:103CC4003A20002056616C6F726520636F6E7665D2
:103CD400727469746F3A20202000207365636F6EDC
:103CE4006469206E656C206D65736520202020203A
:103CF4003A00207365636F6E6469206E656C20679B
:103D0400696F726E6F2020203A00207365636F6EB6
:103D1400646920696E206F72612020202020202099
:103D24003A00207365636F6E646920696E206D6963
:103D34006E757469202020203A00207365636F6ECD
:103D4400646920696E207365636F6E646920202046
:103D54003A0043616D626961202D3E2020202020BD
:103D640020200068686D6D73730067676D6D616115
:103D7400005F007800310032002E002B002D004936
:103D840072726967617A696F6E65205631323800E4
:103D94004D6F64696669636120206F726120202021
:103DA400004D6F64696669636120206461746120F9
:103DB4002000456E612F4469736120706F6D7065DA
:103DC400202000456E612F44697361204E722E20BD
:103DD4002020200072656C65203132330043616D10
:103DE400626961206F726120706F6D70650043615C
:103DF4006D626961206F726120706F6D7061000D7A
:043E04000A00300080
:00000001FF
