:100000000C9462000C948A000C948A000C948A0070
:100010000C948A000C948A000C948A000C948A0038
:100020000C948A000C948A000C948A000C948A0028
:100030000C948A000C948A000C948A000C948A0018
:100040000C94930E0C948A000C941A030C94F402F2
:100050000C948A000C948A000C948A000C948A00F8
:100060000C9497030C948A000000000024002700E1
:100070002A0000000000250028002B0000000000DE
:1000800023002600290004040404040404040202DA
:100090000202020203030303030301020408102007
:1000A0004080010204081020010204081020000012
:1000B0000008000201000003040700000000000027
:1000C0000000A41411241FBECFEFD8E0DEBFCDBFC7
:1000D00012E0A0E0B1E0EEE6F3E302C005900D927D
:1000E000AA37B107D9F723E0AAE7B2E001C01D9211
:1000F000A03FB207E1F710E0C2E6D0E004C02197CC
:10010000FE010E941A15C136D107C9F70E94DD0E03
:100110000C94B5190C940000CF92DF92EF92FF92ED
:100120000F931F93CF93DF936C017A018B01C0E093
:10013000D0E0CE15DF0589F0D8016D918D01D60193
:10014000ED91FC910190F081E02DC6010995892B7C
:1001500011F47E0102C02196ECCFC701DF91CF914F
:100160001F910F91FF90EF90DF90CF900895FC01C9
:10017000538D448D252F30E0842F90E0821B930B0C
:10018000541710F0CF96089501970895FC01918DB2
:10019000828D981761F0828DDF01A80FB11D5D96E9
:1001A0008C91928D9F5F9F73928F90E008958FEF57
:1001B0009FEF0895FC01918D828D981731F0828D0B
:1001C000E80FF11D858D90E008958FEF9FEF089562
:1001D000FC01918D228D892F90E0805C9F4F821BC6
:1001E00091098F73992708958DE293E00E94E800AA
:1001F00021E0892B09F420E0822F0895FC01848DF1
:10020000DF01A80FB11DA35ABF4F2C91848D90E040
:1002100001968F739927848FA689B7892C93A0891B
:10022000B1898C9180648C93938D848D981306C0D2
:100230000288F389E02D80818F7D80830895EF927D
:10024000FF920F931F93CF93DF93EC0181E0888F90
:100250009B8D8C8D981305C0E889F989808185FD77
:1002600024C0F62E0B8D10E00F5F1F4F0F73112768
:10027000E02E8C8DE8120CC00FB607FCFACFE8898F
:10028000F989808185FFF5CFCE010E94FE00F1CF74
:100290008B8DFE01E80FF11DE35AFF4FF0820B8FAB
:1002A000EA89FB898081806207C0EE89FF896083CB
:1002B000E889F98980818064808381E090E0DF9122
:1002C000CF911F910F91FF90EF900895CF93DF93FF
:1002D000EC01888D8823C9F0EA89FB89808185FD3E
:1002E00005C0A889B9898C9186FD0FC00FB607FC9F
:1002F000F5CF808185FFF2CFA889B9898C9185FFE0
:10030000EDCFCE010E94FE00E7CFDF91CF9108959F
:1003100080E090E0892B29F00E94F40081110C9478
:100320000000089585ED8093BC008091BC0084FDA1
:10033000FCCF10920903089540919C02262F30E0D3
:10034000240F311D21323105DCF4209109032430C2
:10035000C9F4FC0180E090E0861758F430919C02CB
:100360002191DC01A658BD4FA30FB11D2C9301961E
:10037000F3CF80919C02680F60939C0280E0089507
:1003800081E0089582E008950895E091C20280918D
:10039000C102E81730F4F0E0ED53FD4F808190E0AA
:1003A00008958FEF9FEF08959091C2028091C1024E
:1003B000981750F4E92FF0E0ED53FD4F208130E025
:1003C0009F5F9093C20202C02FEF3FEFC9010895D3
:1003D0008091C10290E02091C202821B9109089590
:1003E000CF92DF92EF92FF920F931F93CF93DF9301
:1003F0007C01262F972F8A0180910A03882391F090
:10040000C62FD72F6E01C40ED51ECC15DD0571F099
:100410006991D701ED91FC910190F081E02DC70128
:100420000995F3CF642F822F0E949C01C801DF91B0
:10043000CF911F910F91FF90EF90DF90CF90089593
:10044000CF93DF931F92CDB7DEB7698320910A0364
:100450002223D1F020912C03203240F021E030E023
:10046000FC013383228380E090E015C080910B0370
:10047000E82FF0E0E45FFC4F998190838F5F8093D9
:100480000B0380932C0305C061E0CE0101960E940E
:100490009C0181E090E00F90DF91CF910895089545
:1004A00080E090E008950E94BF170F931F93CF93B1
:1004B000DF93EC0188819981009729F02A813B81A3
:1004C0002617370788F48B016F5F7F4F0E94F51660
:1004D000009761F0998388831B830A832C813D8177
:1004E000232B11F4FC01108281E001C080E0DF9138
:1004F000CF911F910F910895EF92FF920F931F9349
:10050000CF93DF93FC01248135816115710511F4CE
:1005100080E019C041155105A9F07B01EC018A0169
:10052000020F131FB8010E945502882389F3288106
:1005300039818C819D81B701820F931F0E94CD1755
:100540001D830C8381E0DF91CF911F910F91FF906C
:10055000EF900895CF93DF93EC0188819981009704
:1005600011F00E945D16198218821D821C821B8266
:100570001A82DF91CF910895EF92FF920F931F930C
:10058000CF93DF93EC017B018A01BA010E945502EF
:10059000811104C0CE010E94AA0207C01D830C83F2
:1005A000B701888199810E94CD17CE01DF91CF914B
:1005B0001F910F91FF90EF900895CF93DF93EC017F
:1005C000FB018617970761F06081718161157105E4
:1005D00029F0448155810E94BC0202C00E94AA02F7
:1005E000CE01DF91CF9108951F920F920FB60F9217
:1005F00011242F933F934F935F936F937F938F9328
:100600009F93AF93BF93EF93FF938DE293E00E948C
:10061000FE00FF91EF91BF91AF919F918F917F91DC
:100620006F915F914F913F912F910F900FBE0F905F
:100630001F9018951F920F920FB60F9211242F93AF
:100640008F939F93EF93FF93E0913D03F0913E03CF
:100650008081E0914303F091440382FD12C09081B8
:10066000809146038F5F8F7320914703821751F06B
:10067000E0914603F0E0E35DFC4F958F80934603E5
:1006800001C08081FF91EF919F918F912F910F90E9
:100690000FBE0F901F9018950F931F93CF93DF936A
:1006A0001F92CDB7DEB78C01FC01848169830E9463
:1006B000590BF80183856981862B90E00E94EC0A32
:1006C0000F90DF91CF911F910F910C94FC0A0F9323
:1006D0001F93CF938C01C62F0E944C036C2F646034
:1006E000C8010E944C036C2F6B7FC8010E944C0311
:1006F00083EC90E00197F1F7CF911F910F9108954E
:100700000F931F93CF938C01C62F607F61600E946F
:10071000670380E1C89FB00111246160C8010E9495
:10072000670380E090E0CF911F910F9108951F9291
:100730000F920FB60F9211242F933F934F935F9315
:100740006F937F938F939F93AF93BF93EF93FF9399
:100750008091B900887F803609F49CC068F58832A2
:1007600009F45BC090F4803109F454C038F4882354
:1007700009F4F6C0883009F44DC0F6C0883109F498
:100780004CC0803209F45DC0EFC0803409F468C009
:1007900048F4803309F455C0883309F0E5C08093EC
:1007A0000703D8C0803509F44FC0883509F45DC00F
:1007B000883409F0D9C0D6C0883909F4C7C0A8F474
:1007C000883709F467C038F4883609F463C0803785
:1007D00009F460C0C9C0883809F4B8C0803909F488
:1007E0005FC0803809F0C0C05BC0803B09F486C0A0
:1007F00038F4803A09F466C0883A09F47FC0B4C07E
:10080000803C09F4A7C0883C09F4A4C0883B09F4E3
:100810008AC0AAC08091E40210C090910603809122
:100820000503981770F5E091060381E08E0F809321
:100830000603F0E0EB51FD4F80818093BB0085EC17
:1008400086C0809307038EC0E091060381E08E0F7F
:10085000809306038091BB00F0E0EB51FD4F808355
:1008600090910603809105036EC0E091060381E03C
:100870008E0F809306038091BB00F0E0EB51FD4F9B
:1008800080838091080381116DC081E08093E30231
:1008900084EA61C083E0809309031092C002CFCF45
:1008A0008091C002803208F051C0E091C00281E026
:1008B0008E0F8093C0028091BB00F0E0E056FD4FA8
:1008C0008083BDCF85EC8093BC001092090380919A
:1008D000C002803230F4E091C002F0E0E056FD4FFB
:1008E00010826091C00270E0E0919E02F0919F0240
:1008F00080EA92E009951092C00236C084E08093AD
:10090000090310929D0210929C02E0919A02F091CC
:100910009B02099580919C02811105C081E0809322
:100920009C0210927A02E0919D0281E08E0F8093EA
:100930009D02F0E0E658FD4F80818093BB009091CE
:100940009D0280919C02981708F479CF85E88093E6
:10095000BC000AC085EC8093BC001092090304C05F
:10096000109207030E949201FF91EF91BF91AF9106
:100970009F918F917F916F915F914F913F912F91B7
:100980000F900FBE0F901F901895AF92BF92DF92FD
:10099000EF92FF920F931F93CF93DF931F92CDB7E8
:1009A000DEB7D62EFC0101900020E9F78F01081B6D
:1009B000190B025011095C01E12CF12C0E151F05D9
:1009C00084F0642F8D2D8E0D49830E94740BF501E8
:1009D00081915F010E94F10AFFEFEF1AFF0A49813E
:1009E000EDCF0F90DF91CF911F910F91FF90EF907E
:1009F000DF90BF90AF900895CF93DF93CDB7DEB770
:100A000061970FB6F894DEBF0FBECDBF0E94B30B47
:100A100081E1EAE9F1E0DE01119601900D928A95FB
:100A2000E1F740E050E060E070E0CE0101960E9406
:100A3000C50461E087E00E94740B81E00E94F10A26
:100A400061E08AE00E94740B88E991E00E94A00BAB
:100A500061E08DE00E94740B88E991E00E94A00B98
:100A60000E94C70C61960FB6F894DEBF0FBECDBFD3
:100A7000DF91CF910895EF92FF921F93CF93DF9371
:100A800088E00E949F0D892B19F418E0D1E002C084
:100A900010E0D0E0C0E089E00E949F0D892B39F47E
:100AA000EE24E394F12C19E0D2E0C0E002C0ED2E78
:100AB000FC2E8AE00E949F0D892B31F4EE24E394F2
:100AC000F12C1AE0D4E0C0E08BE00E949F0D892B4E
:100AD00021F0EA94EF2881F403C01BE0D8E0C0E0E5
:100AE000812F0E949F0D019739F064E670E080E04D
:100AF00090E00E94340EF4CF8D2F9C2FDF91CF9188
:100B00001F91FF90EF9008958F929F92AF92BF92A6
:100B1000CF92DF92EF92FF920F931F93CF93DF93C9
:100B2000CDB7DEB7CB55D1090FB6F894DEBF0FBEF7
:100B3000CDBF7C01D62E81E1EBEAF1E0DE01AA5BBC
:100B4000BF4F01900D928A95E1F781E1ECEBF1E066
:100B5000DE01D59601900D928A95E1F78AE18E012A
:100B6000055E1F4FF801982F11929A95E9F7E6E478
:100B7000F1E0DE01119601900D928A95E1F76C96F5
:100B80002FAF6C976B963FAF6B9769964FAF699796
:100B90006A965FAF6A9768967FAF68970E94B30BBB
:100BA00061E080E00E94740B87E00E94F10A61E03E
:100BB00082E00E94740B85E00E94F10A61E084E00B
:100BC0000E94740B86E00E94F10A61E086E00E94B8
:100BD000740B84E00E94F10A6C962FAD6C976B96B3
:100BE0003FAD6B9769964FAD69976A965FAD6A970F
:100BF00068967FAD6897E1E0EE16F10411F5ED2DF2
:100C0000F72FD801CE01C596219131912D933D93B7
:100C1000A817B907C9F740E050E060E070E0CE01E6
:100C20008A5B9F4F0E94C50460E087E00E94740BBE
:100C3000C7010E94BB0B6E01FDE1CF0ED11C2AE063
:100C400020C082E0E816F10461F4FA01D801CE0177
:100C5000C596219131912D933D93A817B907C9F7F6
:100C6000DACF93E0E916F104B1F6F901D801CE012B
:100C7000C596219131912D933D93A817B907C9F7D6
:100C8000CACF60E0822F6C962FAF6C970E94740BD6
:100C9000F601819191916F010E94BB0B6C962FAD73
:100CA0006C972F5F203169F70E94AA0B60E08AE001
:100CB0000E94740BAA24A394B12CBAE0CB2ED12CA1
:100CC0000E943B054C016AEF70E080E090E00E94DA
:100CD000340EF2E08F16910411F1C4F48A9489283D
:100CE00079F740E050E060E070E0CE01C5960E94E8
:100CF000C50460E087E00E94740BC7010E94BB0B33
:100D00006E0189E2C80ED11C2AE056C0E4E08E16BE
:100D10009104D9F0F8E08F169104C1F1D1CFC5014B
:100D2000880F991FE1E0F0E0EC0FFD1FE80FF91FBD
:100D3000228D338D21503109338F228F37FF1BC015
:100D400020813181338F228F16C0C501880F991FF2
:100D5000E1E0F0E0EC0FFD1FE80FF91F228D338D6D
:100D60002F5F3F4F338F228F4081518142175307AE
:100D700014F4138E128EE1E0F0E0EC0FFD1FE80F8B
:100D8000F91F828D938D0E94BB0B11C08FEFC81A83
:100D9000D80A90E1C916D10424F4EFEFAE1ABE0AC6
:100DA00006C0AA24A394B12C7AE0C72ED12C60E00F
:100DB0008C2D0E94740B84CF60E0822F6C962FAF35
:100DC0006C970E94740BF601819191916F010E94C2
:100DD000BB0B6C962FAD6C972F5F203169F70E948B
:100DE000AA0B60E08AE00E94740B47E0A42EB12CAD
:100DF0005AE0C52ED12C0E943B054C016AEF70E0F1
:100E000080E090E00E94340EF2E08F16910479F0B9
:100E10002CF48A94892809F457C0EDCFE4E08E16AB
:100E20009104D9F0F8E08F169104C1F1E4CFC50127
:100E3000880F991FE1E0F0E0EC0FFD1FE80FF91FAC
:100E4000228D338D21503109338F228F37FF1BC004
:100E500020813181338F228F16C0C501880F991FE1
:100E6000E1E0F0E0EC0FFD1FE80FF91F228D338D5C
:100E70002F5F3F4F338F228F40815181421753079D
:100E800014F4138E128EE1E0F0E0EC0FFD1FE80F7A
:100E9000F91F828D938D0E94BB0B11C08FEFC81A72
:100EA000D80A90E1C916D10424F4EFEFAE1ABE0AB5
:100EB00006C0AA24A394B12C9AE0C92ED12C60E0DC
:100EC0008C2D0E94740B97CF91E0E916F10439F54F
:100ED000780100E010E0F7016081F2E0EF0EF11C14
:100EE000C80140960E9470190F5F1F4F0D30110509
:100EF00091F70E94B30BC55ADF4F0FB6F894DEBFCF
:100F00000FBECDBFDF91CF911F910F91FF90EF905A
:100F1000DF90CF90BF90AF909F908F90089582E028
:100F2000E816F10491F4780100E010E0F701608127
:100F3000F2E0EF0EF11CC80180960E9470190F5F5D
:100F40001F4F0D30110591F7D4CF83E0E816F1045F
:100F500081F6780100E010E0F7016081F2E0EF0E29
:100F6000F11CC801C0960E9470190F5F1F4F0D3011
:100F7000110591F7BECF8F929F92AF92BF92CF9201
:100F8000DF92EF92FF920F931F93CF93DF93CDB732
:100F9000DEB7CF57D1090FB6F894DEBF0FBECDBF75
:100FA0004C01CE0101965C0188E2F50111928A950F
:100FB000E9F782E090E09C838B8329E030E03E8378
:100FC0002D8385E090E098878F833A8729879C87D7
:100FD0008B873E872D8783E090E0988F8F8B3A8FA9
:100FE000298F81E090E09C8F8B8F3E8F2D8F38A3CF
:100FF0002F8F3AA329A381E1EDECF1E0DE01AF5A96
:10100000BF4F01900D928A95E1F789E0E4ECF1E0A1
:10101000DE01AE59BF4F01900D928A95E1F787E04E
:10102000EEEDF1E0DE01AE58BF4F01900D928A95D2
:10103000E1F787E0E5EEF1E0DE01A559BF4F019051
:101040000D928A95E1F7CE0187589F4F6C01FE0102
:10105000E658FF4F7F018E0105581F4F9E0124580F
:101060003F4FAE0143585F4FBE0162587F4F069617
:101070000E94320CEE968FADEE97482F50E08A30EA
:1010800028F41CA61BA65EA74DA711C06AE00E940B
:10109000EC14282F30E03CA72BA766EF6203C001B9
:1010A000639F900D1124840F951F9EA78DA7EF9627
:1010B0008FADEF97482F50E08A3028F418AA1FA66A
:1010C0005AAB49AB11C06AE00E94EC14282F30E003
:1010D00038AB2FA766EF6203C001639F900D112408
:1010E000840F951F9AAB89ABC158DF4F8881CF57CA
:1010F000D040482F50E08A3028F41CAA1BAA5EABCF
:101100004DAB11C06AE00E94EC14282F30E03CABDC
:101110002BAB66EF6203C001639F900D1124840F17
:10112000951F9EAB8DABEC968FADEC97482F50E0A2
:101130008A3048F421961FAE1EAE219723965FAFEA
:101140004EAF239715C06AE00E94EC14282F30E0C0
:1011500021963FAF2EAF219766EF6203C001639FD8
:10116000900D1124840F951F23969FAF8EAF239768
:10117000EB968FADEB97482F50E08A3048F42596D8
:101180001FAE1EAE259727965FAF4EAF279715C0AF
:101190006AE00E94EC14282F30E025963FAF2EAF76
:1011A000259766EF6203C001639F900D1124840FA1
:1011B000951F27969FAF8EAF2797EA964FADEA9778
:1011C000842F6AE00E94EC14282F30E029963FAF6C
:1011D0002EAF299756EF5203C001539F900D112453
:1011E000840F911D2B969FAF8EAF2B970E94B30B50
:1011F00061E080E00E94740B87E00E94F10A61E0E8
:1012000082E00E94740B85E00E94F10A61E084E0B4
:101210000E94740B86E00E94F10A61E086E00E9461
:10122000740B84E00E94F10A40E050E060E070E05E
:10123000CE018F5A9F4F0E94C504F1E08F16910492
:1012400069F441E050E06AE070E0CE018E589F4FB3
:101250000E94C504EE24E394F12C15C022E082160E
:10126000910479F441E050E06AE070E0CE018559E4
:101270009F4F0E94C5045BE0E52EF12C0AE010E0D0
:1012800004C0E12CF12C00E010E060E08AE00E9454
:10129000740B000F111FC12CD12CF601E00FF11FB0
:1012A00089E290E08C0F9D1FE80FF91F82819381E6
:1012B0000E94BB0B92E0C90ED11CEEE0CE16D10409
:1012C00061F70E94AA0B60E08AE00E94740B0AE0BA
:1012D00010E00E943B056C016AEF70E080E090E056
:1012E0000E94340EF2E0CF16D10409F4B8C00CF01D
:1012F000ADC0CA94CD2869F728968FAD28972A9655
:101300000FAD2A97FAE08F9F000D112424968FAD20
:1013100024972696FFAC26972AE0829FF00C112492
:101320008FAD2296EFAC22979AE0899FE00C1124B2
:101330008BA5DDA4EAE08E9FD00C11248FA5C9A84F
:10134000FAE08F9FC00C11248BA9BDA82AE0829FD0
:10135000B00C112488E60E94590B80E090E00E94B6
:10136000EC0A1AE08B2D612F0E94EC14692FE0E14A
:101370008E9F600D11248AEC93E00E9420028C2D38
:10138000612F0E94EC14692FF0E18F9F600D1124F2
:101390008AEC93E00E9420028D2D612F0E94EC14B4
:1013A000692F20E1829F600D11248AEC93E00E9456
:1013B000200261E08AEC93E00E9420028E2D612FD2
:1013C0000E94EC14692FE0E18E9F600D11248AECDD
:1013D00093E00E9420028F2D612F0E94EC14692F50
:1013E000F0E18F9F600D11248AEC93E00E942002AF
:1013F000802F612F0E94EC14692F20E1829F600DE5
:1014000011248AEC93E00E9420020E94FC0A0E94B0
:10141000A20B41E050E06AE070E0CE018E599F4F90
:101420000E94C504C158DF4F0FB6F894DEBF0FBE4F
:10143000CDBFDF91CF911F910F91FF90EF90DF9083
:10144000CF90BF90AF909F908F90089594E0C91671
:10145000D104C1F0E8E0CE16D10479F13ACFC7014A
:10146000880F991FF501E80FF91F20A531A521501C
:10147000310931A720A737FF18C02081318131A75A
:1014800020A713C0C701880F991FF501E80FF91FA6
:1014900020A531A52F5F3F4F31A720A74081518163
:1014A0004217530714F411A610A6F501E80FF91F0F
:1014B00080A591A50E94BB0B0EC00F5F1F4F00318E
:1014C000110524F48FEFE81AF80A05C0EE24E3941E
:1014D000F12C0AE010E060E0802F0E94740BF9CE3E
:1014E000833081F028F4813099F08230A1F00895A2
:1014F0008730A9F08830B9F08430D1F48091800031
:101500008F7D03C0809180008F7780938000089545
:1015100084B58F7702C084B58F7D84BD0895809196
:10152000B0008F7703C08091B0008F7D8093B000B2
:101530000895009769F0FC0101900020E9F73197C8
:10154000AF01481B590BBC0186ED93E00C948C0055
:1015500080E090E008958F929F92AF92BF920F9398
:101560001F93CF93DF93CDB7DEB7A1970FB6F89453
:10157000DEBF0FBECDBF19A2423008F44AE08E0193
:101580000F5D1F4F842E912CA12CB12CA50194012D
:101590000E94F814E62FB901CA0101501109EA307E
:1015A00014F4E05D01C0E95CD801EC93232B242BFB
:1015B000252B61F7C8010E94990AA1960FB6F894ED
:1015C000DEBF0FBECDBFDF91CF911F910F91BF90B6
:1015D000AF909F908F900895682F8AEC93E00C94C1
:1015E0002002E091D603F091D7030190F081E02D25
:1015F000682F86ED93E0099420912C039091E203EB
:10160000213208F04AC0809109038111FCCF32E0F9
:101610003093090331E0309308033FEF3093070321
:101620001092060320930503ACE0B3E045EE52E0D0
:10163000FA013E2F341B321718F43D913193F9CF44
:101640001092E4022091E402990F922B9093E4020D
:101650009091E302913061F41092E3029091E402E0
:101660009093BB009091BC0093FDF8CF95EC01C026
:1016700095EE9093BC00909109039230E1F3909124
:1016800007039F3F79F080910703803241F08091FA
:101690000703803331F084E005C081E003C082E0BD
:1016A00001C083E010920B0310922C0310920A03E6
:1016B000089591E090930A038093E20310920B0344
:1016C00010922C030895CF93C82F682F607F86ED6A
:1016D00093E00E94670380E1C89FB001112486ED6A
:1016E00093E0CF910C946703CF93DF93CDB7DEB730
:1016F00028970FB6F894DEBF0FBECDBF98E0E0E6A6
:10170000F1E0DE01119601900D929A95E1F790912A
:10171000DE03961710F46FEF690FFE013196E60FA6
:10172000F11DE60FF11D9081890F806828960FB694
:10173000F894DEBF0FBECDBFDF91CF910C94630B49
:101740000C94990AE6EDF3E086818E7F86838860AB
:101750000C94630BE6EDF3E08681982F91609683FD
:1017600089600C94630B81E00E94630B8BE39FE123
:101770000197F1F70895CF92DF92EF92FF92CF9306
:10178000DF936C01990FEE08FF08F7FE17C08DE29A
:101790000E94F10AEC0166277727CB016C197D09BD
:1017A0008E099F094AE00E94AB0A8C0F9D1FDF91B2
:1017B000CF91FF90EF90DF90CF9008954AE0C7015E
:1017C000B601DF91CF91FF90EF90DF90CF900C9416
:1017D000AB0A909109039111FCCF813208F080E2AD
:1017E00091E090930903909308032FEF2093070350
:1017F00010920603280F209305039093E402909122
:10180000E402906D9093E4029091E302913061F4D0
:101810001092E3029091E4029093BB009091BC007F
:1018200093FDF8CF95EC01C095EE9093BC0090919C
:1018300009039130E1F390910603981710F4809119
:101840000603A5EEB2E023EC32E0F9019E2F921BD5
:10185000981718F49D919193F9CF1092C20280933A
:10186000C10208956F927F928F929F92AF92BF9222
:10187000CF92DF92EF92FF920F931F93CF93DF935C
:101880004C015B01EA01390188E60E94590B80E0B6
:1018900090E00E94EC0A0E94FC0A87E090E00E941F
:1018A000E90B8AEC93E00E94D401982F96959695C7
:1018B00096959E70292F220F220F920F8F70890FFD
:1018C000F40180838AEC93E00E94D401982F9295D2
:1018D0009F708F70FAE09F9F800D1124F501808327
:1018E0008AEC93E00E94D401982F96959695969550
:1018F0009670292F220F220F920F8F70890F8883E5
:101900008AEC93E00E94D401982F92959F708F707B
:10191000FAE09F9F800D1124F30180838AEC93E00D
:101920000E94D401982F92959F708F70FAE09F9F2C
:10193000800D1124F80180838AEC93E00E94D40189
:10194000982F92959F708F70FAE09F9F800D1124C1
:10195000F70180838AEC93E00E94D401982F92953E
:101960009F708F70FAE09F9F800D1124F601808395
:10197000DF91CF911F910F91FF90EF90DF90CF906B
:10198000BF90AF909F908F907F906F900895CF926F
:10199000DF92EF92FF920F931F93CF93DF93CDB718
:1019A000DEB727970FB6F894DEBF0FBECDBFCE01CE
:1019B00001966C0101967C018E010D5F1F4F9E0107
:1019C0002C5F3F4FAE014B5F5F4FBE016A5F7F4FA1
:1019D00005960E94320C61E088E00E94740B8D81B4
:1019E0008A3060F488E792E00E94A00B6D8170E07D
:1019F00080E090E04AE00E94AB0A15C01AE0612F37
:101A00000E94EC1490E00E94BB0B2D81822F612F6D
:101A10000E94EC14382F46EF4303C0011124820FBB
:101A2000911D0E94BB0B61E08BE00E94740B8E81C4
:101A30008A3060F488E792E00E94A00B6E8170E02B
:101A400080E090E04AE00E94AB0A15C01AE0612FE6
:101A50000E94EC1490E00E94BB0B2E81822F612F1C
:101A60000E94EC14382F46EF4303C0011124820F6B
:101A7000911D0E94BB0B61E08EE00E94740B8F8170
:101A80008A3060F488E792E00E94A00B6F8170E0DA
:101A900080E090E04AE00E94AB0A15C01AE0612F96
:101AA0000E94EC1490E00E94BB0B2F81822F612FCB
:101AB0000E94EC14382F46EF4303C0011124820F1B
:101AC000911D0E94BB0B27960FB6F894DEBF0FBE88
:101AD000CDBFDF91CF911F910F91FF90EF90DF90DD
:101AE000CF900895EF92FF920F931F93CF93DF93C0
:101AF00000D0CDB7DEB7877028E0829FC0011124E7
:101B0000806469837A830E94630B6981E62E7A81FF
:101B1000F72E8701085F1F4FF70161917F0186ED66
:101B200093E00E948003E016F106B1F70F900F904A
:101B3000DF91CF911F910F91FF90EF900895CF9378
:101B4000DF93282F30E0F901E255FF4F8491F9012E
:101B5000E656FF4FD491F901EA57FF4FC491CC23C9
:101B600091F081110E94700AEC2FF0E0EE0FFF1F40
:101B7000E458FF4FA591B491EC91ED2381E090E002
:101B800021F480E002C080E090E0DF91CF910895E1
:101B90001F93CF93DF93282F30E0F901E255FF4FD9
:101BA0008491F901E656FF4FD491F901EA57FF4FAE
:101BB000C491CC23C9F0162F81110E94700AEC2F1A
:101BC000F0E0EE0FFF1FEE58FF4FA591B4918FB7D5
:101BD000F894111105C09C91ED2FE095E92302C006
:101BE000EC91ED2BEC938FBFDF91CF911F91089576
:101BF000CF93DF9390E0FC01E656FF4F2491FC0168
:101C0000EA57FF4F8491882361F190E0880F991F74
:101C1000FC01E859FF4FC591D491FC01EE58FF4FEC
:101C2000A591B491611109C09FB7F894888120955E
:101C300082238883EC912E230BC0623061F49FB71E
:101C4000F8943881822F809583238883EC912E2B02
:101C50002C939FBF06C08FB7F894E8812E2B288362
:101C60008FBFDF91CF9108958F929F92AF92BF92D5
:101C7000CF92DF92EF92FF926B017C010E946E0E79
:101C80004B015C01C114D104E104F104F1F00E94A4
:101C90006E0EDC01CB0188199909AA09BB09883E9F
:101CA0009340A105B10570F321E0C21AD108E10803
:101CB000F10888EE880E83E0981EA11CB11CC114A7
:101CC000D104E104F10419F7DDCFFF90EF90DF902C
:101CD000CF90BF90AF909F908F9008953FB7F894AA
:101CE0008091E8039091E903A091EA03B091EB039E
:101CF00026B5A89B05C02F3F19F00196A11DB11D67
:101D00003FBFBA2FA92F982F8827820F911DA11DA1
:101D1000B11DBC01CD0142E0660F771F881F991FDE
:101D20004A95D1F708951F920F920FB60F92112482
:101D30002F933F938F939F93AF93BF938091E4032F
:101D40009091E503A091E603B091E7033091E3039E
:101D500023E0230F2D3720F40196A11DB11D05C0EE
:101D600026E8230F0296A11DB11D2093E303809363
:101D7000E4039093E503A093E603B093E703809117
:101D8000E8039091E903A091EA03B091EB03019677
:101D9000A11DB11D8093E8039093E903A093EA038A
:101DA000B093EB03BF91AF919F918F913F912F9192
:101DB0000F900FBE0F901F901895CF93DF93CDB764
:101DC000DEB7C65BD1090FB6F894DEBF0FBECDBF3C
:101DD000789484B5826084BD84B5816084BD85B506
:101DE000826085BD85B5816085BD80916E00816012
:101DF00080936E00109281008091810082608093B8
:101E000081008091810081608093810080918000B9
:101E10008160809380008091B10084608093B100E4
:101E20008091B00081608093B00080917A008460DE
:101E300080937A0080917A00826080937A0080910A
:101E40007A00816080937A0080917A008068809324
:101E50007A001092C10081E1E8EFF1E08E010F5F9E
:101E60001F4FD80101900D928A95E1F7E0913D0353
:101E7000F0913E0382E08083E0913903F0913A03D0
:101E80001082E0913B03F0913C038FEC8083109231
:101E90004503E0914103F091420386E08083E091A5
:101EA0003F03F0914003808180618083E0913F0394
:101EB000F0914003808188608083E0913F03F0913E
:101EC0004003808180688083E0913F03F09140036C
:101ED00080818F7D80831092C2021092C102109285
:101EE0000B0310922C031092090381E080930803E6
:101EF0001092E30261E082E10E94C80D61E083E19B
:101F00000E94C80D8091B9008E7F8093B9008091A6
:101F1000B9008D7F8093B90088E48093B80085E490
:101F20008093BC001092DB038091E003823018F0B4
:101F300098E09093DB038093DE0362E370E080E03F
:101F400090E00E94340E6091E10386ED93E00E94E0
:101F50004C0368EE73E080E090E00E94340E60E392
:101F600086ED93E00E946703BBE4EB2EB6E4FB2E04
:101F7000C7010197F1F760E386ED93E00E946703E4
:101F8000C7010197F1F760E386ED93E00E946703D4
:101F900083E592E00197F1F760E286ED93E00E941D
:101FA00067038091DB0380620E94630B84E080936F
:101FB000DC038CE00E94630B0E94B30B82E08093F1
:101FC000DD0386E00E94630B82E00E94630B8BE3DB
:101FD0009FE10197F1F760E088E00E94F80D60E072
:101FE00089E00E94F80D60E08AE00E94F80D60E050
:101FF0008BE00E94F80D61E08CE00E94F80D68E330
:1020000071E080E00E94720D60E371E081E00E9467
:10201000720D68E271E082E00E94720D60E271E090
:1020200083E00E94720D68E171E084E00E94720D0D
:1020300060E171E085E00E94720D68E071E086E089
:102040000E94720D60E071E087E00E94720D88E6E8
:102050000E94590B87E090E00E94EC0A80E890E033
:102060000E94EC0A80E890E00E94EC0A80E890E090
:102070000E94EC0A80E890E00E94EC0A80E090E088
:102080000E94EC0A80E090E00E94EC0A80E090E080
:102090000E94EC0A0E94FC0A88E60E94590B8EE01E
:1020A00090E00E94EC0A81E090E00E94E90B9091A0
:1020B000C1028091C202981771F08AEC93E00E94ED
:1020C000D40121E0892B09F420E0822F90E00596CD
:1020D0000E94EC0AECCF0E94FC0A40E050E060E075
:1020E00070E0C8010E94C50468EE73E080E090E0F3
:1020F0000E94340E0E94FC041E012DE3220E311CAE
:102100006E0133E2C30ED11C7E0187E5E80EF11C9F
:102110000E943B05892B09F453C20E94B30B61E076
:1021200080E00E94740B87E00E94F10A61E082E087
:102130000E94740B8CEE91E00E94A00B61E084E0A1
:102140000E94740B8CEE91E00E94A00B61E086E08F
:102150000E94740B84E00E94F10A81E1E9E0F2E060
:10216000DE01A556BF4F01900D928A95E1F740E040
:1021700050E060E070E0CE0185569F4F0E94C5049C
:102180000E943B050097E1F3019721F481E090E084
:102190000E94BB0781E1EAE1F2E0DE01A657BF4FF2
:1021A00001900D928A95E1F740E050E060E070E028
:1021B000CE0186579F4F0E94C5040E943B050097A1
:1021C000E1F3019721F482E090E00E94BB0781E1F6
:1021D000EBE2F2E0DE01A758BF4F01900D928A9525
:1021E000E1F740E050E060E070E0CE0187589F4F9B
:1021F0000E94C5040E943B050097E1F3019709F096
:102200000CC188E0F70111928A95E9F781E1ECE3CE
:10221000F2E0D80101900D928A95E1F789E0EDE4B2
:10222000F2E0D10101900D928A95E1F789E0E4ECAA
:10223000F1E0D60101900D928A95E1F780E190E0FE
:102240000E946819882E912CF7019382828280E285
:1022500090E00E946819682E712CF70175826482E3
:1022600080E390E00E946819A82EB12CF701B78294
:10227000A6820E94B30B61E080E00E94740B87E0AD
:102280000E94F10A61E082E00E94740B82E00E94E9
:10229000F10A61E084E00E94740B8CEE91E00E94F0
:1022A000A00B61E086E00E94740B84E00E94F10ABA
:1022B00040E050E060E070E0C8010E94C50441E0E9
:1022C00050E068E070E0C1010E94C50460E08DE06C
:1022D0000E94740B892829F48EEE91E00E94A00BD5
:1022E00003C083E00E94F10A672829F48EEE91E092
:1022F0000E94A00B03C083E00E94F10AAB2829F4DE
:102300008EEE91E00E94A00B03C083E00E94F10AD0
:1023100060E08DE00E94740B0E94AA0B88248394D5
:10232000912CFDE0AF2EB12C44244394512C0E94FB
:102330003B053C016AEF70E080E090E00E94340EC3
:10234000F4E06F167104A1F128E06216710409F43B
:102350004EC06A94672859F7F701628180E190E0E6
:102360000E947019F701648180E290E00E94701968
:10237000F701668180E390E00E9470190E94A20B31
:1023800041E050E068E070E0C6010E94C50461E0F1
:1023900082E00E94740B8CEE91E00E94A00B61E041
:1023A00084E00E94740B8CEE91E00E94A00B35C07B
:1023B000C401880F991FF701E80FF91F20813181AF
:1023C000232B19F45182408202C011821082F7013E
:1023D000E80FF91F80819181892B29F48EEE91E01D
:1023E0000E94A00B15C083E00E94F10A11C0FFEF0C
:1023F000AF1ABF0A20E1A216B10424F43FEF831AFA
:10240000930A06C088248394912C6DE0A62EB12CEB
:1024100060E08A2D0E94740B8ACF81E1E6E5F2E04C
:10242000DE01A859BF4F01900D928A95E1F740E077
:1024300050E060E070E0CE0188599F4F0E94C504D3
:102440000E943B050097E1F3019709F0B7C089E0CE
:10245000E4ECF1E0DE01A455BF4F01900D928A95A6
:10246000E1F78AE1F101282F11922A95E9F7F601A7
:10247000282F11922A95E9F7F80111928A95E9F728
:102480009E01215C3F4F59014E0135E2830E911CA4
:102490002E0183E0480E511C41E1642E712CC301D2
:1024A0000E94681990E0F501819391935F01C30147
:1024B00040960E94681990E0F401819391934F0136
:1024C000C30180960E94681990E0F2018193919374
:1024D0002F01FFEF6F1A7F0A2DE162167104F9F6E2
:1024E0000E94B30B61E080E00E94740B80EF91E0EA
:1024F0000E94A00B61E082E00E94740B82EF91E0E9
:102500000E94A00B61E084E00E94740B84E592E0DD
:102510000E94A00B61E086E00E94740B84E00E94A0
:10252000F10A81E1E7E6F2E0D70101900D928A9588
:10253000E1F740E050E060E070E0C7010E94C504B0
:102540000E943B055C016AEF70E080E090E00E9431
:10255000340E32E0A316B104F1F07CF4AA94AB2857
:1025600079F70E94A20B41E050E06AE070E0CE01F2
:1025700084559F4F0E94C5041BC0E4E0AE16B10411
:1025800081F0F8E0AF16B104D9F69801A601B101C7
:1025900081E090E00BC09801A601B10183E090E0DA
:1025A00005C09801A601B10182E090E00E94840577
:1025B00064EC79E080E090E00E94340E0E94FC041C
:1025C0000E94C70C6AEF70E080E090E00E94340E39
:1025D00088E60E94590B8FE090E00E94EC0A81E0AF
:1025E00090E00E94E90BA12CB12C9091C102809146
:1025F000C202981751F08AEC93E00E94D401892B13
:10260000A1F3AA24A394B12CF0CF0E94FC0AAA94AF
:10261000AB2809F092C161E08CE00E94C80D88E609
:102620000E94590B8FE090E00E94EC0A81E090E05C
:102630000E94E90B9091C1028091C202981771F03B
:102640008AEC93E00E94D40121E030E0811102C0C5
:1026500020E030E0C9010E94EC0AECCF0E94FC0AA5
:1026600068EC70E080E090E00E94340E60E08CE066
:102670000E94C80D61E080E00E94740B80E00E941F
:10268000F10A88E60E94590B81E190E00E94EC0A71
:102690000E94FC0A82E090E00E94E90B8AEC93E041
:1026A0000E94D401782E8AEC93E00E94D40126E0A7
:1026B000959587952A95E1F7682F70E080E090E086
:1026C0000E944B1820E030E040E85EE30E94AA1828
:1026D0004B015C01672D770C770B880B990B0E94DF
:1026E0004B189B01AC01C501B4010E9421154B019F
:1026F0005C018DB79EB7CB54DF4F99838883C55B50
:10270000D040F70111821082138212821582148246
:1027100040E050E06CEC71E0C7010E94BC02C501D2
:10272000B4010E948D152B013C011EAE1DAE2196F9
:102730001FAE1EAE219723961FAE1EAE2397072E07
:10274000000C880B990B0E944B189B01AC01C50132
:10275000B4010E94201520E030E04AE754E40E94D2
:10276000AA180E948D1597FF07C0909580957095C7
:1027700061957F4F8F4F9F4F2AE0A8010E94EE176F
:10278000F80101900020E9F73197AF01401B510B90
:10279000B801C1010E94BC021CA21BA21EA21DA264
:1027A00018A61FA24AE0B801C2010E94E317F8016F
:1027B00001900020E9F73197AF01401B510BB801A0
:1027C000C6010E94BC021A8219821C821B821E82D0
:1027D0001D82B601C8010E94DD026D807E80FFEF80
:1027E0006F1A7F0AB301C8010E945502882309F4B9
:1027F000A7C029813A818D819E8164EF71E0820FAB
:10280000931F0E94CD177E826D8223964EAD5FADE1
:1028100023976DAD7EADC8010E947C02811103C07B
:10282000C8010E94AA02B801C7010E94DD02898185
:102830009A810E945D168BA19CA10E945D168DADB0
:102840009EAD0E945D16F7018481958101962DB79A
:102850003EB7281B390B0FB6F8943EBF0FBE2DBFF5
:102860008DB79EB701963C0120E030E0A901C5017B
:10287000B4010E94C31587FD22C01A8219821C82EE
:102880001B821E821D8241E050E066EF71E0C801AC
:102890000E94BC02F7014481558160817181C801A9
:1028A0000E947C02811103C0C8010E94AA02B801E3
:1028B000C7010E94DD0289819A810E945D16F7019D
:1028C0008481958181309105D1F061147104B9F052
:1028D000009711F4F30112C05C01F2E0AF1AB108E5
:1028E0008A159B0508F45C01F70160817181A501DF
:1028F000C3010E94D417F301EA0DFB1D108241E0D1
:1029000050E061E070E0C3010E94C504F7018081DE
:1029100091810E945D16CB54DF4F28813981C55BC0
:10292000D0400FB6F8943EBF0FBE2DBF61E087E0E8
:102930000E94740B81E00E94F10A0E948801E8CB9A
:10294000C8010E94AA0261CFEDE2F3E01382128275
:1029500088EE93E0A0E0B0E084839583A683B783FC
:102960002CE631E03183208325EC30E03587248765
:1029700024EC30E03787268720EC30E0318B208B49
:1029800021EC30E0338B228B22EC30E0358B248B32
:1029900026EC30E0378B268B118E128E138E148E20
:1029A000EAECF3E01382128284839583A683B783D3
:1029B0008EE791E091838083E6EDF3E0138212824B
:1029C00080E991E09183808383E2848380E1818741
:1029D00082E0828713860895991B79E004C0991FCD
:1029E000961708F0961B881F7A95C9F78095089569
:1029F000A1E21A2EAA1BBB1BFD010DC0AA1FBB1F03
:102A0000EE1FFF1FA217B307E407F50720F0A21B74
:102A1000B30BE40BF50B661F771F881F991F1A94E1
:102A200069F760957095809590959B01AC01BD010B
:102A3000CF010895EE0FFF1F0590F491E02D09944A
:102A40005058BB27AA270E9438150C942E190E94B3
:102A5000201938F00E94271920F039F49F3F19F40B
:102A600026F40C941D190EF4E095E7FB0C9417194D
:102A7000E92F0E943F1958F3BA17620773078407BA
:102A8000950720F079F4A6F50C9461190EF4E09501
:102A90000B2EBA2FA02D0B01B90190010C01CA0118
:102AA000A0011124FF27591B99F0593F50F4503EC3
:102AB00068F11A16F040A22F232F342F4427585FB5
:102AC000F3CF469537952795A795F0405395C9F7CD
:102AD0007EF41F16BA0B620B730B840BBAF0915085
:102AE000A1F0FF0FBB1F661F771F881FC2F70EC024
:102AF000BA0F621F731F841F48F4879577956795F7
:102B0000B795F7959E3F08F0B0CF9395880F08F0E2
:102B10009927EE0F9795879508950E9494156894CC
:102B2000B1110C94621908950E94471988F09F57BB
:102B300098F0B92F9927B751B0F0E1F0660F771FE1
:102B4000881F991F1AF0BA95C9F714C0B13091F0D7
:102B50000E946119B1E008950C946119672F782FD4
:102B60008827B85F39F0B93FCCF38695779567959C
:102B7000B395D9F73EF490958095709561957F4F08
:102B80008F4F9F4F08950E94861808F48FEF089585
:102B9000CF93DF938230910510F482E090E0E091D2
:102BA000EE03F091EF0320E030E0C0E0D0E030979A
:102BB00011F14081518148175907C0F04817590752
:102BC00061F482819381209719F09B838A832BC0C3
:102BD0009093EF038093EE0326C02115310519F081
:102BE0004217530718F49A01BE01DF01EF0102807A
:102BF000F381E02DDCCF2115310509F1281B390BBC
:102C00002430310590F412968D919C9113976115A3
:102C1000710521F0FB019383828304C09093EF033D
:102C20008093EE03FD01329644C0FD01E20FF31FD5
:102C300081939193225031092D933C933AC0209176
:102C4000EC033091ED03232B41F4209142013091AC
:102C500043013093ED032093EC0320914001309128
:102C600041012115310541F42DB73EB74091440192
:102C700050914501241B350BE091EC03F091ED03DD
:102C8000E217F307A0F42E1B3F0B2817390778F043
:102C9000AC014E5F5F4F2417350748F04E0F5F1FA2
:102CA0005093ED034093EC038193919302C0E0E0D5
:102CB000F0E0CF01DF91CF9108950F931F93CF9351
:102CC000DF93009709F48CC0FC01329713821282C3
:102CD0000091EE031091EF030115110581F420819D
:102CE0003181820F931F2091EC033091ED0328175F
:102CF000390779F5F093ED03E093EC0371C0D80147
:102D000040E050E0AE17BF0750F412962D913C9171
:102D10001397AD012115310509F1D901F3CF9D01BB
:102D2000DA013383228360817181860F971F8217B6
:102D3000930769F4EC0128813981260F371F2E5F34
:102D40003F4F318320838A819B8193838283452BEC
:102D500029F4F093EF03E093EE0342C01396FC9343
:102D6000EE931297ED01499159919E01240F351F61
:102D7000E217F30771F480819181840F951F029609
:102D800011969C938E938281938113969C938E933C
:102D90001297E0E0F0E0D80112968D919C91139784
:102DA000009719F0F8018C01F6CF8D919C91980154
:102DB0002E5F3F4F820F931F2091EC033091ED0364
:102DC0002817390769F4309729F41092EF0310920D
:102DD000EE0302C0138212821093ED030093EC0302
:102DE000DF91CF911F910F910895A0E0B0E0EBEF3C
:102DF000F6E10C948219EC01009721F4CB010E94BA
:102E0000C815B8C0FC01E60FF71F9C01225031091C
:102E1000E217F30708F4ACC0D9010D911C9111978A
:102E200006171707B0F00530110508F49FC0C80158
:102E300004978617970708F499C002501109061BDA
:102E4000170B019311936D937C93CF010E945D1634
:102E50008DC05B01A01AB10A4C01800E911EA09199
:102E6000EE03B091EF0340E050E0E12CF12C10971D
:102E700009F44AC0A815B905D1F56D907C90119759
:102E8000630182E0C80ED11CCA14DB0480F1A301E7
:102E90004A195B096A0182E0C80ED11C1296BC90E7
:102EA00012971396AC91B5E0CB16D10440F0B282E4
:102EB000A38351834083D9016D937C930AC00E5F35
:102EC0001F4FC301800F911FF90191838083EB2D68
:102ED000FA2FE114F10431F0D7011396FC93EE932D
:102EE000129744C0F093EF03E093EE033FC08D913F
:102EF0009C9111974817590708F4AC017D0112966F
:102F00000D90BC91A02DB3CF8091EC039091ED0377
:102F100088159905E1F446175707C8F480914001D8
:102F200090914101009741F48DB79EB740914401C3
:102F300050914501841B950BE817F907C8F4F093ED
:102F4000ED03E093EC03F901718360830FC0CB01C3
:102F50000E94C8157C01009759F0A801BE010E948B
:102F6000C417CE010E945D16C70104C0CE0102C085
:102F700080E090E0CDB7DEB7EEE00C949E1981E0E2
:102F800090E0F8940C94B519FB01DC0102C00190AB
:102F90000D9241505040D8F70895FB01DC0101909B
:102FA0000D920020E1F70895FB01DC0141505040F3
:102FB00048F001900D920020C9F701C01D924150C8
:102FC0005040E0F70895BB274A3031F4992322F4AA
:102FD000BDE2909581959F4F0C942018BB272A3015
:102FE00051F4992342F4BDE29095809570956195D6
:102FF0007F4F8F4F9F4F0C94FE17BB27FA01A62FD0
:103000006217710581059105330B30FB66F0AA2725
:10301000660F771F881F991FAA1FA21710F0A21B07
:1030200063953850A9F7A05DAA3308F0A95DA19374
:1030300036F7B111B1931082CA010C943918BB272D
:10304000FB015527AA27880F991FAA1FA41710F064
:10305000A41B83955051B9F7A05DAA3308F0A95D70
:10306000A193009779F7B111B1931192CB010C9410
:103070003918DC01FC01672F71917723E1F7329752
:1030800004C07C916D9370836291AE17BF07C8F343
:103090000895E89409C097FB3EF49095809570954B
:1030A00061957F4F8F4F9F4F9923A9F0F92F96E994
:1030B000BB279395F695879577956795B795F11109
:1030C000F8CFFAF4BB0F11F460FF1BC06F5F7F4FA6
:1030D0008F4F9F4F16C0882311F096E911C07723B8
:1030E00021F09EE8872F762F05C0662371F096E8C1
:1030F000862F70E060E02AF09A95660F771F881F90
:10310000DAF7880F9695879597F90895990F000833
:10311000550FAA0BE0E8FEEF16161706E807F907A9
:10312000C0F012161306E407F50798F0621B730B44
:10313000840B950B39F40A2661F0232B242B252BC5
:1031400021F408950A2609F4A140A6958FEF811D68
:10315000811D08950E94BD180C942E190E942019FB
:1031600038F00E94271920F0952311F00C941719BC
:103170000C941D1911240C9462190E943F1970F3CC
:10318000959FC1F3950F50E0551F629FF001729F0C
:10319000BB27F00DB11D639FAA27F00DB11DAA1F1B
:1031A000649F6627B00DA11D661F829F2227B00D68
:1031B000A11D621F739FB00DA11D621F839FA00DF3
:1031C000611D221F749F3327A00D611D231F849F43
:1031D000600D211D822F762F6A2F11249F5750409A
:1031E0009AF0F1F088234AF0EE0FFF1FBB1F661F15
:1031F000771F881F91505040A9F79E3F510580F0DE
:103200000C9417190C9462195F3FE4F3983ED4F3C1
:10321000869577956795B795F795E7959F5FC1F781
:10322000FE2B880F911D9695879597F9089597F92C
:103230009F6780E870E060E008959FEF80EC08955C
:1032400000240A9416161706180609060895002485
:103250000A9412161306140605060895092E0394FF
:10326000000C11F4882352F0BB0F40F4BF2B11F473
:1032700060FF04C06F5F7F4F8F4F9F4F089557FDD2
:103280009058440F551F59F05F3F71F04795880FD4
:1032900097FB991F61F09F3F79F08795089512166B
:1032A00013061406551FF2CF4695F1DF08C0161617
:1032B00017061806991FF1CF8695710561050894C8
:1032C0000895E894BB2766277727CB0197F90895DF
:1032D000F999FECF92BD81BDF89A992780B50895DE
:1032E000262FF999FECF1FBA92BD81BD20BD0FB622
:1032F000F894FA9AF99A0FBE019608952F923F9288
:103300004F925F926F927F928F929F92AF92BF92F5
:10331000CF92DF92EF92FF920F931F93CF93DF93A1
:10332000CDB7DEB7CA1BDB0B0FB6F894DEBF0FBEFE
:10333000CDBF09942A88398848885F846E847D844B
:103340008C849B84AA84B984C884DF80EE80FD804D
:103350000C811B81AA81B981CE0FD11D0FB6F894C3
:0E336000DEBF0FBECDBFED010895F894FFCF84
:10336E000004021F02040000000404150E040000F5
:10337E0000040E1504040000010105091F080400D5
:10338E00000103161C080000021F1200091F08008E
:10339E00000E1517110E00000C0C07080807000090
:1033AE000000F00380000000020009000500090083
:1033BE0005000900020009000500090005000900CA
:1033CE000000400014005400000000001F018C009B
:1033DE00B7006601E800C600DA0000000000200217
:1033EE00F0015002C401E801D401C5010000000043
:1033FE0080038C0050024F023A005072656D6920B6
:10340E00756E20746173746F202000537461727432
:10341E0020507820202020202020200053746F7010
:10342E002020507820202020202020200043616D75
:10343E00626961202D3E2020202020202000686817
:10344E006D6D73730067676D6D6161005F0078006D
:10345E00310032002E002B004972726967617A6961
:10346E006F6E652056313237004D6F646966696341
:10347E006120206F7261202020004D6F64696669A3
:10348E006361202064617461202000456E612F44C9
:10349E0069736120706F6D7065202000456E612F1D
:1034AE0044697361204E722E202020200072656CBC
:1034BE0065203132330043616D626961206F726144
:1034CE0020706F6D70650043616D626961206F726F
:0A34DE006120706F6D706100300016
:00000001FF
