:100000000C945D000C9485000C9485000C94850084
:100010000C9485000C9485000C9485000C9485004C
:100020000C9485000C9485000C9485000C9485003C
:100030000C9485000C9485000C9485000C9485002C
:100040000C94C0040C9485000C9485000C948500DD
:100050000C9485000C9485000C9485000C9485000C
:100060000C9492030C9485000000000024002700EB
:100070002A0000000000250028002B0004040404CE
:100080000404040402020202020203030303030342
:10009000010204081020408001020408102001021F
:1000A00004081020000000080002010000030407FB
:1000B00000000000000000000A0511241FBECFEF61
:1000C000D8E0DEBFCDBF11E0A0E0B1E0E0EFFBE0A3
:1000D00002C005900D92AA32B107D9F721E0AAE239
:1000E000B1E001C01D92AB3EB207E1F710E0CDE5F3
:1000F000D0E004C02197FE010E94EB05CC35D1076A
:10010000C9F70E9435050C94F6050C94000085EDA6
:100110008093BC008091BC0084FDFCCF1092A101B3
:10012000089540917B01262F30E0240F311D2132AC
:100130003105DCF42091A1012430C9F4FC0180E0F8
:1001400090E0861758F430917B012191DC01A75A89
:10015000BE4FA30FB11D2C930196F3CF80917B016D
:10016000680F60937B0180E0089581E0089582E04C
:100170000895089581E090E0309158012091570151
:10018000321710F480E090E09195819591090895DF
:100190008091580190915701891730F48F5F8093B7
:1001A000580180E090E008958FEF9FEF08958091CF
:1001B000570190E020915801821B91090895CF9238
:1001C000DF92EF92FF920F931F93CF93DF937C0107
:1001D000262F972F8A0180915601882391F0C62FF0
:1001E000D72F6E01C40ED51ECC15DD0571F06991B7
:1001F000D701ED91FC910190F081E02DC7010995A7
:10020000F3CF642F822F0E949100C801DF91CF911C
:100210001F910F91FF90EF90DF90CF900895CF93B3
:10022000DF931F92CDB7DEB7698320915601222359
:10023000D1F020915501203240F021E030E0FC0166
:100240003383228380E090E015C080915401E82F31
:10025000F0E0EC5CFE4F998190838F5F80935401B6
:100260008093550105C061E0CE0101960E94910086
:1002700081E090E00F90DF91CF910895CF93FC0142
:10028000C48121E020935601C093330110925401A0
:10029000109255018385682B87EC91E00E940F0135
:1002A00080915501813208F046C09091A1019111D1
:1002B000FCCF92E09093A10191E09093A3019FEF76
:1002C0009093A0011092C5018093C401A4E3B1E012
:1002D00024EA31E0F9019E2F921B981718F49D91A2
:1002E0009193F9CF1092C6018091C601CC0FC82B13
:1002F000C093C6018091A201813061F41092A201E5
:100300008091C6018093BB008091BC0083FDF8CF33
:1003100085EC01C085EE8093BC008091A101823004
:10032000E1F38091A0018F3F31F08091A0018032F4
:1003300011F08091A0011092540110925501109279
:100340005601CF9108950F931F93CF938C01C62F21
:100350000E943E016C2F6460C8010E943E016C2F18
:100360006B7FC8010E943E0183EC90E00197F1F79A
:10037000CF911F910F910895FF920F931F93CF93E9
:10038000DF931F92CDB7DEB78C01F62E962F907FAC
:10039000692F642BC80149830E94A30180E1F89E64
:1003A000B00111244981642BC8010F90DF91CF91D6
:1003B0001F910F91FF900C94A301CF93DF93CDB7C2
:1003C000DEB728970FB6F894DEBF0FBECDBF28E08A
:1003D000E0E0F1E0DE01119601900D922A95E1F73F
:1003E000FC012085E22FF0E0462F50E04E175F071A
:1003F00014F06FEF620FFE013196E60FF11DE60F6C
:10040000F11D6081606840E028960FB6F894DEBF69
:100410000FBECDBFDF91CF910C94BC0140E061E0F5
:100420000E94BC018BE39FE10197F1F7089541E041
:100430000E94BC0181E090E0089590E0FC01EC5541
:10044000FF4F3491FC01E057FF4F2491FC01E45829
:10045000FF4FE491EE2309F43BC0332339F13330ED
:1004600091F038F43130A9F0323001F584B58F7D48
:1004700012C0373091F03830A1F03430B9F48091A7
:1004800080008F7D03C0809180008F7780938000F3
:100490000DC084B58F7784BD09C08091B0008F777F
:1004A00003C08091B0008F7D8093B000F0E0EE0F2C
:1004B000FF1FEE58FF4FA591B4918FB7F894EC91C0
:1004C000611103C020952E2301C02E2B2C938FBFCA
:1004D00008953FB7F89480912F0190913001A09139
:1004E0003101B091320126B5A89B05C02F3F19F00C
:1004F0000196A11DB11D3FBFBA2FA92F982F8827A4
:10050000820F911DA11DB11DBC01CD0142E0660FFE
:10051000771F881F991F4A95D1F708958F929F9250
:10052000AF92BF92CF92DF92EF92FF926B017C016C
:100530000E9469024B015C01C114D104E104F10481
:10054000F1F00E946902DC01CB0188199909AA091E
:10055000BB09883E9340A105B10570F321E0C21AA2
:10056000D108E108F10888EE880E83E0981EA11CEE
:10057000B11CC114D104E104F10419F7DDCFFF90DF
:10058000EF90DF90CF90BF90AF909F908F900895A5
:100590000F931F93CF93DF93EC01109258011092A9
:1005A000570110925401109255011092A10181E05F
:1005B0008093A3011092A20161E082E10E941D02DA
:1005C00061E083E10E941D028091B9008E7F8093DB
:1005D000B9008091B9008D7F8093B90088E4809341
:1005E000B80085E48093BC001D828A85823010F0BB
:1005F00098E09D83888762E370E080E090E00E944D
:100600008E026B85CE010E943E0168EE73E080E0B1
:1006100090E00E948E0260E3CE010E94A3010BE4F1
:1006200016E4C8010197F1F760E3CE010E94A3012F
:10063000C8010197F1F760E3CE010E94A30183E5B1
:1006400092E00197F1F760E2CE010E94A3016D8173
:10065000606240E0CE010E94BC0184E08E8340E0F5
:100660006CE0CE010E94BC01CE010E940E0282E02D
:100670008F8340E066E0CE010E94BC0140E062E072
:10068000CE010E94BC018BE39FE10197F1F7DF915E
:10069000CF911F910F910895CF92DF92EF92FF9229
:1006A0000F931F93CF93DF936C017A018B01C0E00E
:1006B000D0E0CE15DF0589F0D8016D918D01D6010E
:1006C000ED91FC910190F081E02DC6010995892BF7
:1006D00011F47E0102C02196ECCFC701DF91CF91CA
:1006E0001F910F91FF90EF90DF90CF9008950895A4
:1006F00080E090E008950E94F1056115710579F0A0
:10070000FB0101900020E9F73197AF01461B570B21
:10071000DC01ED91FC910280F381E02D099480E0F1
:1007200090E008951F920F920FB60F9211242F930D
:100730003F934F935F936F937F938F939F93AF9369
:10074000BF93EF93FF938091B900887F803609F4BF
:100750009CC068F5883209F45BC090F4803109F4DC
:1007600054C038F4882309F4F6C0883009F44DC029
:10077000F6C0883109F44CC0803209F45DC0EFC086
:10078000803409F468C048F4803309F455C08833D4
:1007900009F0E5C08093A001D8C0803509F44FC0AE
:1007A000883509F45DC0883409F0D9C0D6C08839CD
:1007B00009F4C7C0A8F4883709F467C038F488364C
:1007C00009F463C0803709F460C0C9C0883809F4EF
:1007D000B8C0803909F45FC0803809F0C0C05BC080
:1007E000803B09F486C038F4803A09F466C0883A40
:1007F00009F47FC0B4C0803C09F4A7C0883C09F468
:10080000A4C0883B09F48AC0AAC08091C60110C068
:100810009091C5018091C401981770F5E091C501D0
:1008200081E08E0F8093C501F0E0EC55FE4F808192
:100830008093BB0085EC86C08093A0018EC0E091C0
:10084000C50181E08E0F8093C5018091BB00F0E06F
:10085000EC55FE4F80839091C5018091C4016EC01C
:10086000E091C50181E08E0F8093C5018091BB00AE
:10087000F0E0EC55FE4F80838091A30181116DC0A3
:1008800081E08093A20184EA61C083E08093A101AA
:1008900010929F01CFCF80919F01803208F051C00C
:1008A000E0919F0181E08E0F80939F018091BB00BA
:1008B000F0E0E158FE4F8083BDCF85EC8093BC0013
:1008C0001092A10180919F01803230F4E0919F014C
:1008D000F0E0E158FE4F108260919F0170E0E091DE
:1008E0007D01F0917E018FE791E0099510929F01C3
:1008F00036C084E08093A10110927C0110927B01AC
:10090000E0917901F0917A01099580917B01811143
:1009100005C081E080937B0110925901E0917C0138
:1009200081E08E0F80937C01F0E0E75AFE4F8081DA
:100930008093BB0090917C0180917B01981708F413
:1009400079CF85E88093BC000AC085EC8093BC0019
:100950001092A10104C01092A0010E948700FF9193
:10096000EF91BF91AF919F918F917F916F915F9127
:100970004F913F912F910F900FBE0F901F901895A0
:100980001F920F920FB60F9211242F933F938F93C4
:100990009F93AF93BF9380912B0190912C01A091D5
:1009A0002D01B0912E0130912A0123E0230F2D3724
:1009B00020F40196A11DB11D05C026E8230F029663
:1009C000A11DB11D20932A0180932B0190932C012E
:1009D000A0932D01B0932E0180912F0190913001B1
:1009E000A0913101B09132010196A11DB11D8093FA
:1009F0002F0190933001A0933101B0933201BF9148
:100A0000AF919F918F913F912F910F900FBE0F90BB
:100A10001F901895E7ECF1E01382128288EE93E0C4
:100A2000A0E0B0E084839583A683B7838CE091E057
:100A300091838083EFEDF1E0138212822EE131E0A9
:100A40003183208380E2848390E1918782E08287F2
:100A50001386E3EDF1E0138212823183208328E3D1
:100A600024839187828713860895789484B5826061
:100A700084BD84B5816084BD85B5826085BD85B542
:100A8000816085BD80916E00816080936E001092C0
:100A9000810080918100826080938100809181003B
:100AA00081608093810080918000816080938000CC
:100AB0008091B10084608093B1008091B00081602A
:100AC0008093B00080917A00846080937A00809156
:100AD0007A00826080937A0080917A0081608093AE
:100AE0007A0080917A00806880937A001092C10029
:100AF000EDE9F0E02491E9E8F0E08491882399F0B1
:100B000090E0880F991FFC01E859FF4FA591B4911F
:100B1000FC01EE58FF4F859194918FB7F894EC91BA
:100B2000E22BEC938FBF8FED91E00E94C80283ED22
:100B300091E00E94C802C0E0D0E08FED91E00E94F9
:100B40000E0283ED91E00E940E0260E08FED91E0D5
:100B50000E94DD0166E271E08FED91E00E947D036D
:100B600060E083ED91E00E94DD0166E271E083EDDB
:100B700091E00E947D0361E08DE00E941D0264EF20
:100B800071E080E090E00E948E0261E08FED91E0E4
:100B90000E94DD0168E271E08FED91E00E947D032B
:100BA00061E083ED91E00E94DD0168E271E083ED98
:100BB00091E00E947D0360E08DE00E941D0260EDE7
:100BC00077E080E090E00E948E02209709F4B5CF94
:100BD0000E940000B2CFEE0FFF1F0590F491E02DB0
:100BE000099481E090E0F8940C94F605F894FFCF16
:100BF0000000400014005400000000000F01DF005E
:100C00007803B900D700C800BA000000000017023E
:0A0C10004C03780377034100420013
:00000001FF
