:100000000C945E000C9486000C9486000C94860080
:100010000C9486000C9486000C9486000C94860048
:100020000C9486000C9486000C9486000C94860038
:100030000C9486000C9486000C9486000C94860028
:100040000C9466040C9486000C9486000C94860034
:100050000C9486000C9486000C9486000C94860008
:100060000C9438030C948600000000002400270044
:100070002A0000000000250028002B0004040404CE
:100080000404040402020202020203030303030342
:10009000010204081020408001020408102001021F
:1000A00004081020000000080002010000030407FB
:1000B0000000000000000000B0040F0611241FBE65
:1000C000CFEFD8E0DEBFCDBF11E0A0E0B1E0E6EDBC
:1000D000F0E102C005900D92A633B107D9F721E0F7
:1000E000A6E3B1E001C01D92A33FB207E1F710E023
:1000F000CDE5D0E004C02197FE010E941506CC3565
:10010000D107C9F70E94DA040C945E080C94000031
:1001100085ED8093BC008091BC0084FDFCCF1092E3
:10012000AD01089540918701262F30E0240F311D45
:1001300021323105DCF42091AD012430C9F4FC01F9
:1001400080E090E0861758F4309187012191DC011E
:10015000AB59BE4FA30FB11D2C930196F3CF8091E5
:100160008701680F6093870180E0089581E008951A
:1001700082E00895089581E090E03091640120913B
:100180006301321710F480E090E091958195910918
:1001900008958091640190916301891730F48F5F15
:1001A0008093640180E090E008958FEF9FEF0895C1
:1001B0008091630190E020916401821B9109089570
:1001C000CF92DF92EF92FF920F931F93CF93DF9323
:1001D0007C01262F972F8A0180916201882391F05C
:1001E000C62FD72F6E01C40ED51ECC15DD0571F0BC
:1001F0006991D701ED91FC910190F081E02DC7014B
:100200000995F3CF642F822F0E949200C801DF91DD
:10021000CF911F910F91FF90EF90DF90CF900895B5
:10022000CF93DF931F92CDB7DEB769832091620130
:100230002223D1F020916101203240F021E030E012
:10024000FC013383228380E090E015C0809160013F
:10025000E82FF0E0E05CFE4F998190838F5F809300
:1002600060018093610105C061E0CE0101960E94AA
:10027000920081E090E00F90DF91CF910895CF93AD
:100280006295607F4111616021116460FC012581EC
:1002900021116860FC01C48181E080936201C093F8
:1002A0003F01109260011092610183ED91E00E9484
:1002B000100180916101813208F046C09091AD013A
:1002C0009111FCCF92E09093AD0191E09093AF013A
:1002D0009FEF9093AC011092D1018093D001A0E4E4
:1002E000B1E020EB31E0F9019E2F921B981718F432
:1002F0009D919193F9CF1092D2018091D201CC0FB0
:10030000C82BC093D2018091AE01813061F410926C
:10031000AE018091D2018093BB008091BC0083FD2F
:10032000F8CF85EC01C085EE8093BC008091AD01D3
:100330008230E1F38091AC018F3F31F08091AC01CC
:10034000803211F08091AC01109260011092610135
:1003500010926201CF9108950F931F93CF93DF9373
:10036000EC01162F042F21E00E943F0120E0402FD6
:10037000612FCE010E943F018FE890E00197F1F7D5
:10038000DF91CF911F910F9108950F931F93CF93FA
:10039000DF938C01C62FD42F62956F700E94AC0141
:1003A0006C2F6F704D2FC801DF91CF911F910F916E
:1003B0000C94AC0140E061E085EE91E00E94C50143
:1003C0008BE39FE10197F1F70895CF93DF93CDB7CA
:1003D000DEB728970FB6F894DEBF0FBECDBF88E01A
:1003E000E6E0F1E0DE01119601900D928A95E1F7C9
:1003F000E1E08091EE018111E0E0E195F0E0EE0FA7
:10040000FF1F81E090E08C0F9D1FE80FF91F6081B6
:10041000606840E085EE91E028960FB6F894DEBF64
:100420000FBECDBFDF91CF910C94C50141E00E947A
:10043000C50181E090E0089590E0FC01EC55FF4F8C
:100440003491FC01E057FF4F2491FC01E458FF4F29
:10045000E491EE2309F43BC0332339F1333091F0BA
:1004600038F43130A9F0323001F584B58F7D12C0F7
:10047000373091F03830A1F03430B9F480918000F9
:100480008F7D03C0809180008F77809380000DC0A6
:1004900084B58F7784BD09C08091B0008F7703C089
:1004A0008091B0008F7D8093B000F0E0EE0FFF1FD1
:1004B000EE58FF4FA591B4918FB7F894EC9161116C
:1004C00003C020952E2301C02E2B2C938FBF08959F
:1004D0003FB7F89480913B0190913C01A0913D0180
:1004E000B0913E0126B5A89B05C02F3F19F001969B
:1004F000A11DB11D3FBFBA2FA92F982F8827820FAA
:10050000911DA11DB11DBC01CD0142E0660F771FF9
:10051000881F991F4A95D1F708958F929F92AF92A5
:10052000BF92CF92DF92EF92FF926B017C010E940B
:1005300068024B015C01C114D104E104F104F1F043
:100540000E946802DC01CB0188199909AA09BB093C
:10055000883E9340A105B10570F321E0C21AD1088D
:10056000E108F10888EE880E83E0981EA11CB11CFA
:10057000C114D104E104F10419F7DDCFFF90EF902D
:10058000DF90CF90BF90AF909F908F900895CF92C3
:10059000DF92EF92FF920F931F93CF93DF936C0143
:1005A0007A018B01C0E0D0E0CE15DF0589F0D801DB
:1005B0006D918D01D601ED91FC910190F081E02DBE
:1005C000C6010995892B11F47E0102C02196ECCF5A
:1005D000C701DF91CF911F910F91FF90EF90DF90B6
:1005E000CF900895089580E090E008950E94120849
:1005F000EF92FF920F931F93CF93DF93EC017B0158
:100600008A0188819981009729F02A813B812417EA
:100610003507F8F4B8016F5F7F4F0E9448070097D5
:1006200059F0998388831B830A832C813D81232B76
:1006300081F4FC0110820DC088819981009711F02E
:100640000E94B006198218821D821C821B821A82A7
:1006500007C01D830C83B701888199810E942008FF
:10066000CE01DF91CF911F910F91FF90EF900895F0
:100670001F920F920FB60F9211242F933F934F9317
:100680005F936F937F938F939F93AF93BF93EF93FA
:10069000FF938091B900887F803609F49CC068F58B
:1006A000883209F45BC090F4803109F454C038F406
:1006B000882309F4F6C0883009F44DC0F6C08831AB
:1006C00009F44CC0803209F45DC0EFC0803409F4F5
:1006D00068C048F4803309F455C0883309F0E5C098
:1006E0008093AC01D8C0803509F44FC0883509F437
:1006F0005DC0883409F0D9C0D6C0883909F4C7C0B4
:10070000A8F4883709F467C038F4883609F463C060
:10071000803709F460C0C9C0883809F4B8C080398E
:1007200009F45FC0803809F0C0C05BC0803B09F4A9
:1007300086C038F4803A09F466C0883A09F47FC06C
:10074000B4C0803C09F4A7C0883C09F4A4C0883B2D
:1007500009F48AC0AAC08091D20110C09091D10141
:100760008091D001981770F5E091D10181E08E0F52
:100770008093D101F0E0E055FE4F80818093BB0073
:1007800085EC86C08093AC018EC0E091D10181E000
:100790008E0F8093D1018091BB00F0E0E055FE4FB9
:1007A00080839091D1018091D0016EC0E091D10100
:1007B00081E08E0F8093D1018091BB00F0E0E05585
:1007C000FE4F80838091AF0181116DC081E08093E5
:1007D000AE0184EA61C083E08093AD011092AB0169
:1007E000CFCF8091AB01803208F051C0E091AB01D6
:1007F00081E08E0F8093AB018091BB00F0E0E55764
:10080000FE4F8083BDCF85EC8093BC001092AD017C
:100810008091AB01803230F4E091AB01F0E0E5571C
:10082000FE4F10826091AB0170E0E0918901F09180
:100830008A018BE891E009951092AB0136C084E003
:100840008093AD011092880110928701E09185019B
:10085000F0918601099580918701811105C081E0A1
:100860008093870110926501E091880181E08E0FED
:1008700080938801F0E0EB59FE4F80818093BB00AC
:100880009091880180918701981708F479CF85E8C5
:100890008093BC000AC085EC8093BC001092AD012F
:1008A00004C01092AC010E948800FF91EF91BF91AB
:1008B000AF919F918F917F916F915F914F913F91F8
:1008C0002F910F900FBE0F901F9018951F920F92AF
:1008D0000FB60F9211242F933F938F939F93AF9353
:1008E000BF938091370190913801A0913901B09167
:1008F0003A013091360123E0230F2D3720F4019681
:10090000A11DB11D05C026E8230F0296A11DB11D32
:10091000209336018093370190933801A0933901D9
:10092000B0933A0180913B0190913C01A0913D012F
:10093000B0913E010196A11DB11D80933B019093A2
:100940003C01A0933D01B0933E01BF91AF919F91B7
:100950008F913F912F910F900FBE0F901F90189580
:10096000E3EDF1E01382128288EE93E0A0E0B0E0C4
:1009700084839583A683B78382E191E0918380830A
:10098000E5EEF1E01382128284E291E091838083AC
:1009900088E384831582EFEDF1E0118210821382E7
:1009A00012821582148240E050E065E371E0CF01CD
:1009B0000C94F802789484B5826084BD84B581601B
:1009C00084BD85B5826085BD85B5816085BD80911A
:1009D0006E00816080936E00109281008091810092
:1009E000826080938100809181008160809381008A
:1009F000809180008160809380008091B10084604C
:100A00008093B1008091B00081608093B0008091AC
:100A10007A00846080937A0080917A00826080936B
:100A20007A0080917A00816080937A0080917A00C8
:100A3000806880937A001092C100EDE9F0E0249183
:100A4000E9E8F0E08491882399F090E0880F991FFD
:100A5000FC01E859FF4FA591B491FC01EE58FF4FFE
:100A6000859194918FB7F894EC91E22BEC938FBF22
:100A700002E00093EE0188E08093EB0110926401A4
:100A80001092630110926001109261011092AD0109
:100A900011E01093AF011092AE0161E082E10E947B
:100AA0001C0261E083E10E941C028091B9008E7FEC
:100AB0008093B9008091B9008D7F8093B90088E45C
:100AC0008093B80085E48093BC0020E040E060E0C3
:100AD00085EE91E00E943F018BE39DE00197F1F7E5
:100AE00040E063E085EE91E00E94AC01CBE4D6E407
:100AF000CE010197F1F740E063E085EE91E00E94BE
:100B0000AC012197F1F740E063E085EE91E00E94AF
:100B1000AC0183E592E00197F1F740E062E085EEF9
:100B200091E00E94AC016091EB01606240E085EED3
:100B300091E00E94C50184E08093EC0140E06CE00C
:100B400085EE91E00E94C5010E94DA010093ED015B
:100B500040E066E085EE91E00E94C5011093EA0155
:100B600020E041E060E085EE91E00E943F0140E03E
:100B700062E085EE91E00E94C5018BE39FE1019761
:100B8000F1F70E94DA01C0E0D0E044E050E06CE20E
:100B900071E08FED91E00E94F8020E94DA010E945C
:100BA000E5014091E3015091E4016091DF01709112
:100BB000E00185EE91E00E94C70261E08DE00E94B5
:100BC0001C0264EF71E080E090E00E948D0244E03E
:100BD00050E061E371E08FED91E00E94F8020E9425
:100BE000DA010E94E5014091E3015091E401609136
:100BF000DF017091E00185EE91E00E94C70260E0A4
:100C00008DE00E941C0260ED77E080E090E00E94A1
:100C10008D02209709F4B9CF0E940000B6CF8091D1
:100C2000DF019091E0010C94B006EE0FFF1F0590DC
:100C3000F491E02D0994CF93DF938230910510F465
:100C400082E090E0E091F101F091F20120E030E0EB
:100C5000C0E0D0E0309711F1408151814817590729
:100C6000C0F04817590761F482819381209719F0E9
:100C70009B838A832BC09093F2018093F10126C05D
:100C80002115310519F04217530718F49A01BE01D6
:100C9000DF01EF010280F381E02DDCCF211531056A
:100CA00009F1281B390B2430310590F412968D91EF
:100CB0009C9113976115710521F0FB019383828349
:100CC00004C09093F2018093F101FD01329644C07B
:100CD000FD01E20FF31F81939193225031092D936F
:100CE0003C933AC02091EF013091F001232B41F465
:100CF00020910201309103013093F0012093EF0124
:100D000020910001309101012115310541F42DB7E9
:100D10003EB74091040150910501241B350BE09131
:100D2000EF01F091F001E217F307A0F42E1B3F0B47
:100D30002817390778F0AC014E5F5F4F241735074D
:100D400048F04E0F5F1F5093F0014093EF018193E5
:100D5000919302C0E0E0F0E0CF01DF91CF910895E0
:100D60000F931F93CF93DF93009709F48CC0FC017E
:100D70003297138212820091F1011091F201011554
:100D8000110581F420813181820F931F2091EF01A1
:100D90003091F0012817390779F5F093F001E093CD
:100DA000EF0171C0D80140E050E0AE17BF0750F42A
:100DB00012962D913C911397AD012115310509F142
:100DC000D901F3CF9D01DA013383228360817181E0
:100DD000860F971F8217930769F4EC0128813981E8
:100DE000260F371F2E5F3F4F318320838A819B81DF
:100DF00093838283452B29F4F093F201E093F10170
:100E000042C01396FC93EE931297ED0149915991CC
:100E10009E01240F351FE217F30771F48081918141
:100E2000840F951F029611969C938E9382819381D5
:100E300013969C938E931297E0E0F0E0D8011296FF
:100E40008D919C911397009719F0F8018C01F6CFC2
:100E50008D919C9198012E5F3F4F820F931F20919F
:100E6000EF013091F0012817390769F4309729F420
:100E70001092F2011092F10102C0138212821093BB
:100E8000F0010093EF01DF91CF911F910F91089531
:100E9000A0E0B0E0EEE4F7E00C942B08EC01009742
:100EA00021F4CB010E941B06B8C0FC01E60FF71F1E
:100EB0009C0122503109E217F30708F4ACC0D901B4
:100EC0000D911C91119706171707B0F00530110509
:100ED00008F49FC0C80104978617970708F499C0C3
:100EE00002501109061B170B019311936D937C930C
:100EF000CF010E94B0068DC05B01A01AB10A4C015F
:100F0000800E911EA091F101B091F20140E050E0FD
:100F1000E12CF12C109709F44AC0A815B905D1F5B8
:100F20006D907C901197630182E0C80ED11CCA14A9
:100F3000DB0480F1A3014A195B096A0182E0C80E53
:100F4000D11C1296BC9012971396AC91B5E0CB16BB
:100F5000D10440F0B282A38351834083D9016D93C1
:100F60007C930AC00E5F1F4FC301800F911FF901D0
:100F700091838083EB2DFA2FE114F10431F0D70136
:100F80001396FC93EE93129744C0F093F201E09312
:100F9000F1013FC08D919C9111974817590708F4B2
:100FA000AC017D0112960D90BC91A02DB3CF809124
:100FB000EF019091F00188159905E1F44617570764
:100FC000C8F48091000190910101009741F48DB720
:100FD0009EB74091040150910501841B950BE817C1
:100FE000F907C8F4F093F001E093EF01F901718380
:100FF00060830FC0CB010E941B067C01009759F053
:10100000A801BE010E941708CE010E94B006C701C8
:1010100004C0CE0102C080E090E0CDB7DEB7EEE0C4
:101020000C94470881E090E0F8940C945E08FB0172
:10103000DC0102C001900D9241505040D8F7089554
:10104000FB01DC0101900D920020E1F708952F9241
:101050003F924F925F926F927F928F929F92AF9248
:10106000BF92CF92DF92EF92FF920F931F93CF9395
:10107000DF93CDB7DEB7CA1BDB0B0FB6F894DEBF2C
:101080000FBECDBF09942A88398848885F846E8452
:101090007D848C849B84AA84B984C884DF80EE809C
:1010A000FD800C811B81AA81B981CE0FD11D0FB6A5
:1010B000F894DEBF0FBECDBFED01089510E0CDE581
:1010C000D0E004C0FE010E9415062196CE35D1075E
:0610D000C9F7F894FFCF00
:1010D6000000F301800000004000140054000000EE
:1010E60000001001E000F302BA00D800C900BB00FE
:1010F600000000001602C702F302F202303132335A
:0611060000312D2D300028
:00000001FF
