:100000000C9462000C948A000C948A000C948A0070
:100010000C948A000C948A000C948A000C948A0038
:100020000C948A000C948A000C948A000C948A0028
:100030000C948A000C948A000C948A000C948A0018
:100040000C94AC0E0C948A000C9493030C946D03E6
:100050000C948A000C948A000C948A000C948A00F8
:100060000C9410040C948A00000000002400270067
:100070002A0000000000250028002B0000000000DE
:1000800023002600290004040404040404040202DA
:100090000202020203030303030301020408102007
:1000A0004080010204081020010204081020000012
:1000B0000008000201000003040700000000000027
:1000C0000000DC1711241FBECFEFD8E0DEBFCDBF8C
:1000D00012E0A0E0B1E0E0EFF9E302C005900D927C
:1000E000A43CB107D9F724E0A4ECB2E001C01D9212
:1000F000AC33B207E1F710E0C2E6D0E004C02197CC
:10010000FE010E945B18C136D107C9F70E94F60EA6
:100110000C94F61C0C940000CF92DF92EF92FF92A9
:100120000F931F93CF93DF936C017A018B01C0E093
:10013000D0E0CE15DF0589F0D8016D918D01D60193
:10014000ED91FC910190F081E02DC6010995892B7C
:1001500011F47E0102C02196ECCFC701DF91CF914F
:100160001F910F91FF90EF90DF90CF900895FC01C9
:10017000538D448D252F30E0842F90E0821B930B0C
:10018000541710F0CF96089501970895FC01918DB2
:10019000828D981761F0828DDF01A80FB11D5D96E9
:1001A0008C91928D9F5F9F73928F90E008958FEF57
:1001B0009FEF0895FC01918D828D981731F0828D0B
:1001C000E80FF11D858D90E008958FEF9FEF089562
:1001D000FC01918D228D892F90E0805C9F4F821BC6
:1001E00091098F739927089587E793E00E94E800AB
:1001F00021E0892B09F420E0822F0895FC01848DF1
:10020000DF01A80FB11DA35ABF4F2C91848D90E040
:1002100001968F739927848FA689B7892C93A0891B
:10022000B1898C9180648C93938D848D981306C0D2
:100230000288F389E02D80818F7D80830895EF927D
:10024000FF920F931F93CF93DF93EC0181E0888F90
:100250009B8D8C8D981305C0E889F989808185FD77
:1002600024C0F62E0B8D10E00F5F1F4F0F73112768
:10027000E02E8C8DE8120CC00FB607FCFACFE8898F
:10028000F989808185FFF5CFCE010E94FE00F1CF74
:100290008B8DFE01E80FF11DE35AFF4FF0820B8FAB
:1002A000EA89FB898081806207C0EE89FF896083CB
:1002B000E889F98980818064808381E090E0DF9122
:1002C000CF911F910F91FF90EF900895CF93DF93FF
:1002D000EC01888D8823C9F0EA89FB89808185FD3E
:1002E00005C0A889B9898C9186FD0FC00FB607FC9F
:1002F000F5CF808185FFF2CFA889B9898C9185FFE0
:10030000EDCFCE010E94FE00E7CFDF91CF9108959F
:1003100080E090E0892B29F00E94F40081110C9478
:100320000000089585ED8093BC008091BC0084FDA1
:10033000FCCF1092530308954091E602262F30E03F
:10034000240F311D21323105DCF420915303243078
:10035000C9F4FC0180E090E0861758F43091E60281
:100360002191DC01AC53BD4FA30FB11D2C9301961D
:10037000F3CF8091E602680F6093E60280E0089573
:1003800081E0089582E008950895E0910C03809142
:100390000B03E81730F4F0E0E35FFC4F808190E05E
:1003A00008958FEF9FEF089590910C0380910B03B8
:1003B000981750F4E92FF0E0E35FFC4F208130E024
:1003C0009F5F90930C0302C02FEF3FEFC901089588
:1003D00080910B0390E020910C03821B91090895FA
:1003E000CF92DF92EF92FF920F931F93CF93DF9301
:1003F0007C01262F972F8A0180915403882391F046
:10040000C62FD72F6E01C40ED51ECC15DD0571F099
:100410006991D701ED91FC910190F081E02DC70128
:100420000995F3CF642F822F0E949C01C801DF91B0
:10043000CF911F910F91FF90EF90DF90CF90089593
:10044000CF93DF931F92CDB7DEB76983209154031A
:100450002223D1F020917603203240F021E030E0D9
:10046000FC013383228380E090E015C08091550326
:10047000E82FF0E0EA5AFC4F998190838F5F8093D8
:1004800055038093760305C061E0CE0101960E947A
:100490009C0181E090E00F90DF91CF910895089545
:1004A00080E090E008950E94001B0F931F93CF936C
:1004B000DF93EC0188819981009729F02A813B81A3
:1004C0002617370788F48B016F5F7F4F0E94361A1B
:1004D000009761F0998388831B830A832C813D8177
:1004E000232B11F4FC01108281E001C080E0DF9138
:1004F000CF911F910F910895CF93DF93EC018881E5
:100500009981009711F00E949E19198218821D820C
:100510001C821B821A82DF91CF910895EF92FF9285
:100520000F931F93CF93DF93EC01FB01848195819F
:10053000E080F1800C811D81E114F104B1F000979D
:10054000B9F0080F191FB801CE010E945502882387
:1005500061F0288139818C819D81B701820F931FC1
:100560000E940E1B1D830C8303C0CE010E947C02DF
:10057000CE01DF91CF911F910F91FF90EF900895E1
:10058000EF92FF920F931F93CF93DF93EC017B01C8
:100590008A01BA010E945502811104C0CE010E9455
:1005A0007C0207C01D830C83B701888199810E945A
:1005B0000E1BCE01DF91CF911F910F91FF90EF9015
:1005C0000895CF93DF93EC01FB018617970761F045
:1005D000608171816115710529F0448155810E9406
:1005E000C00202C00E947C02CE01DF91CF9108952B
:1005F000FC0111821082138212821582148261150D
:10060000710551F0FB0101900020E9F73197AF012E
:10061000461B570B0C94C00208956115710579F0C3
:10062000FB0101900020E9F73197AF01461B570B02
:10063000DC01ED91FC910280F381E02D099480E0D2
:1006400090E008954F925F926F927F92EF92FF92A7
:100650000F931F93CF93DF93CDB7DEB7A1970FB65C
:10066000F894DEBF0FBECDBF7C01FA01CB0119A209
:10067000223008F42AE08E010F5D1F4F422E512CCC
:10068000612C712CBF01A30192010E943918F9015C
:10069000CA01015011096A3014F4605D01C0695C3F
:1006A000D8016C93232B242B252B61F7B801C701AC
:1006B0000E940D03A1960FB6F894DEBF0FBECDBF0A
:1006C000DF91CF911F910F91FF90EF907F906F90EE
:1006D0005F904F9008950C940D031F920F920FB6E8
:1006E0000F9211242F933F934F935F936F937F93B8
:1006F0008F939F93AF93BF93EF93FF9387E793E01D
:100700000E94FE00FF91EF91BF91AF919F918F9159
:100710007F916F915F914F913F912F910F900FBEFD
:100720000F901F9018951F920F920FB60F921124E1
:100730002F938F939F93EF93FF93E0918703F09113
:1007400088038081E0918D03F0918E0382FD12C0B9
:100750009081809190038F5F8F7320919103821716
:1007600051F0E0919003F0E0E958FC4F958F8093B1
:10077000900301C08081FF91EF919F918F912F9104
:100780000F900FBE0F901F9018950F931F93CF934C
:10079000DF931F92CDB7DEB78C01FC0184816983A2
:1007A0000E942E0BF80183856981862B90E00E94C0
:1007B000CC0A0F90DF91CF911F910F910C94D10A29
:1007C0000F931F93CF938C01C62F0E94C5036C2FEC
:1007D0006460C8010E94C5036C2F6B7FC8010E9432
:1007E000C50383EC90E00197F1F7CF911F910F9132
:1007F00008950F931F93CF938C01C62F607F616084
:100800000E94E00380E1C89FB00111246160C8012B
:100810000E94E00380E090E0CF911F910F91089536
:100820001F920F920FB60F9211242F933F934F9365
:100830005F936F937F938F939F93AF93BF93EF9348
:10084000FF938091B900887F803609F49CC068F5D9
:10085000883209F45BC090F4803109F454C038F454
:10086000882309F4F6C0883009F44DC0F6C08831F9
:1008700009F44CC0803209F45DC0EFC0803409F443
:1008800068C048F4803309F455C0883309F0E5C0E6
:1008900080935103D8C0803509F44FC0883509F4DE
:1008A0005DC0883409F0D9C0D6C0883909F4C7C002
:1008B000A8F4883709F467C038F4883609F463C0AF
:1008C000803709F460C0C9C0883809F4B8C08039DD
:1008D00009F45FC0803809F0C0C05BC0803B09F4F8
:1008E00086C038F4803A09F466C0883A09F47FC0BB
:1008F000B4C0803C09F4A7C0883C09F4A4C0883B7C
:1009000009F48AC0AAC080912E0310C090915003B0
:1009100080914F03981770F5E091500381E08E0F9E
:1009200080935003F0E0E15DFC4F80818093BB0039
:1009300085EC86C0809351038EC0E091500381E026
:100940008E0F809350038091BB00F0E0E15DFC4F7F
:1009500080839091500380914F036EC0E0915003CB
:1009600081E08E0F809350038091BB00F0E0E15D49
:10097000FC4F80838091520381116DC081E0809390
:100980002D0384EA61C083E08093530310920A032D
:10099000CFCF80910A03803208F051C0E0910A0362
:1009A00081E08E0F80930A038091BB00F0E0E65156
:1009B000FD4F8083BDCF85EC8093BC001092530324
:1009C00080910A03803230F4E0910A03F0E0E651AE
:1009D000FD4F108260910A0370E0E091E802F0910F
:1009E000E9028AEE92E0099510920A0336C084E08B
:1009F000809353031092E7021092E602E091E40222
:100A0000F091E50209958091E602811105C081E02F
:100A10008093E6021092C402E091E70281E08E0F1B
:100A20008093E702F0E0EC53FD4F80818093BB00A0
:100A30009091E7028091E602981708F479CF85E853
:100A40008093BC000AC085EC8093BC0010925303D5
:100A500004C0109251030E949201FF91EF91BF9147
:100A6000AF919F918F917F916F915F914F913F9146
:100A70002F910F900FBE0F901F9018951092530357
:100A800081E08093520310922D0361E082E10E9485
:100A9000E10D61E083E10E94E10DE9EBF0E080818E
:100AA0008E7F808380818D7F808388E48093B800EF
:100AB00085E48093BC0008950C94B11C0C94A91C8F
:100AC000AF92BF92DF92EF92FF920F931F93CF935B
:100AD000DF931F92CDB7DEB7D62EFC010190002028
:100AE000E9F78F01081B190B025011095C01E12C79
:100AF000F12C0E151F0584F0642F8D2D8E0D49836A
:100B00000E94540BF50181915F010E94380BFFEFA9
:100B1000EF1AFF0A4981EDCF0F90DF91CF911F911E
:100B20000F91FF90EF90DF90BF90AF900895CF931B
:100B3000DF93CDB7DEB761970FB6F894DEBF0FBE77
:100B4000CDBF0E94910B81E1EDE6F2E0DE0111964E
:100B500001900D928A95E1F740E050E060E070E08E
:100B6000CE0101960E9460050E94B90C61960FB6F5
:100B7000F894DEBF0FBECDBFDF91CF910895EF9205
:100B8000FF921F93CF93DF9388E00E94B80D892BCB
:100B900019F418E0D1E002C010E0D0E0C0E089E034
:100BA0000E94B80D892B39F4EE24E394F12C19E05E
:100BB000D2E0C0E002C0ED2EFC2E8AE00E94B80D0B
:100BC000892B31F4EE24E394F12C1AE0D4E0C0E058
:100BD0008BE00E94B80D892B21F0EA94EF2881F474
:100BE00003C01BE0D8E0C0E0812F0E94B80D019740
:100BF00039F064E670E080E090E00E94720EF4CF7D
:100C00008D2F9C2FDF91CF911F91FF90EF90089532
:100C10006F927F928F929F92AF92BF92CF92DF920C
:100C2000EF92FF920F931F93CF93DF93CDB7DEB771
:100C3000CB55D1090FB6F894DEBF0FBECDBF6C0106
:100C4000F62E81E1EEE7F2E0DE01AA5BBF4F0190F4
:100C50000D928A95E1F781E1EFE8F2E0DE01D596A9
:100C600001900D928A95E1F78AE18E01055E1F4F92
:100C7000F801982F11929A95E9F7E6E4F1E0DE0188
:100C8000119601900D928A95E1F76C962FAF6C97B3
:100C90006B963FAF6B9769964FAF69976A965FAF58
:100CA0006A9768967FAF68970E94910B61E080E039
:100CB0000E94540B87E00E94380B61E082E00E94A2
:100CC000540B85E00E94380B61E084E00E94540BD5
:100CD00086E00E94380B61E086E00E94540B84E0BD
:100CE0000E94380B6C962FAD6C976B963FAD6B974F
:100CF00069964FAD69976A965FAD6A9768967FADC2
:100D00006897E1E0CE16D104A9F4EF2DF72FD801B2
:100D1000CE01C596219131912D933D93A817B90726
:100D2000C9F788248394912CA12CB12CEAE0EE2EF3
:100D3000F12C6EC0F2E0CF16D10461F4FA01D801B3
:100D4000CE01C596219131912D933D93A817B907F6
:100D5000C9F7E7CF83E0C816D10419F7F901D80124
:100D6000CE01C596219131912D933D93A817B907D6
:100D7000C9F7D7CF40E050E060E070E0CE018A5B79
:100D80009F4F0E94600560E087E00E94540BC601FF
:100D90000E94990BCE014D967C012AE060E0822FE3
:100DA0006C962FAF6C970E94540BF7018191919133
:100DB0007F010E94990B6C962FAD6C972F5F2031AD
:100DC00069F70E94880B60E08AE00E94540BAA2415
:100DD000A394B12C4AE0E42EF12C0E94BF053C0103
:100DE00066E970E080E090E00E94720EF2E06F161B
:100DF000710409F44FC00CF044C06A94672869F785
:100E00008FEF881A980A94E08916910409F48FC02C
:100E100091E08916910409F4ADCFE2E08E169104B9
:100E2000E1F640E050E060E070E0CE01C5960E943F
:100E3000600560E087E00E94540BC6010E94990B98
:100E4000CE0189967C012AE060E0822F6C962FAF5C
:100E50006C970E94540BF701819191917F010E9440
:100E6000990B6C962FAD6C972F5F203169F70E941C
:100E7000880B60E08AE00E94540B57E0A52EB12C4D
:100E8000A9CFE4E06E167104D9F0F8E06F16710492
:100E9000C1F1A3CFC501880F991FE1E0F0E0EC0F8D
:100EA000FD1FE80FF91F228D338D21503109338F3B
:100EB000228F37FF1BC020813181338F228F16C0D4
:100EC000C501880F991FE1E0F0E0EC0FFD1FE80F6E
:100ED000F91F228D338D2F5F3F4F338F228F40813B
:100EE00051814217530714F4138E128EE1E0F0E0A3
:100EF000EC0FFD1FE80FF91F828D938D0E94990B57
:100F000011C08FEFE81AF80A90E1E916F10424F411
:100F1000EFEFAE1ABE0A06C0AA24A394B12C9AE041
:100F2000E92EF12C60E08E2D0E94540B56CFF1E09B
:100F3000CF16D10491F4780100E010E0F701608150
:100F4000F2E0EF0EF11CC80140960E945C050F5FB5
:100F50001F4F0D30110591F72BC082E0C816D10448
:100F600091F4780100E010E0F7016081F2E0EF0E0B
:100F7000F11CC80180960E945C050F5F1F4F0D3069
:100F8000110591F715C083E0C816D10489F47801E2
:100F900000E010E0F7016081F2E0EF0EF11CC80103
:100FA000C0960E945C050F5F1F4F0D30110591F731
:100FB000C55ADF4F0FB6F894DEBF0FBECDBFDF912D
:100FC000CF911F910F91FF90EF90DF90CF90BF9046
:100FD000AF909F908F907F906F9008958F929F9287
:100FE000AF92BF92CF92DF92EF92FF920F931F9337
:100FF000CF93DF93CDB7DEB7CF57D1090FB6F894B3
:10100000DEBF0FBECDBF4C01CE0101965C0188E270
:10101000F50111928A95E9F782E090E09C838B8339
:1010200029E030E03E832D8385E090E098878F8330
:101030003A8729879C878B873E872D8783E090E0BE
:10104000988F8F8B3A8F298F81E090E09C8F8B8FC8
:101050003E8F2D8F38A32F8F3AA329A381E1E0EA99
:10106000F2E0DE01AF5ABF4F01900D928A95E1F791
:1010700089E0E7E9F2E0DE01AE59BF4F01900D9241
:101080008A95E1F787E0E1EBF2E0DE01AE58BF4F71
:1010900001900D928A95E1F787E0E8EBF2E0DE013E
:1010A000A559BF4F01900D928A95E1F7CE0187585F
:1010B0009F4F6C01FE01E658FF4F7F018E010558DE
:1010C0001F4F9E0124583F4FAE0143585F4FBE0152
:1010D00062587F4F06960E94220CEE968FADEE97D7
:1010E000482F50E08A3028F41CA61BA65EA74DA707
:1010F00011C06AE00E942D18282F30E03CA72BA7D2
:1011000066EF6203C001639F900D1124840F951F49
:101110009EA78DA7EF968FADEF97482F50E08A30AE
:1011200028F418AA1FA65AAB49AB11C06AE00E9466
:101130002D18282F30E038AB2FA766EF6203C001CF
:10114000639F900D1124840F951F9AAB89ABC158F2
:10115000DF4F8881CF57D040482F50E08A3028F4A5
:101160001CAA1BAA5EAB4DAB11C06AE00E942D18F1
:10117000282F30E03CAB2BAB66EF6203C001639FCE
:10118000900D1124840F951F9EAB8DABEC968FAD07
:10119000EC97482F50E08A3048F421961FAE1EAEDF
:1011A000219723965FAF4EAF239715C06AE00E9448
:1011B0002D18282F30E021963FAF2EAF219766EFF4
:1011C0006203C001639F900D1124840F951F239625
:1011D0009FAF8EAF2397EB968FADEB97482F50E0E4
:1011E0008A3048F425961FAE1EAE259727965FAF2E
:1011F0004EAF279715C06AE00E942D18282F30E0C7
:1012000025963FAF2EAF259766EF6203C001639F1F
:10121000900D1124840F951F27969FAF8EAF2797AF
:10122000EA964FADEA97842F6AE00E942D18282F86
:1012300030E029963FAF2EAF299756EF5203C001F9
:10124000539F900D1124840F911D2B969FAF8EAF4D
:101250002B970E94910B61E080E00E94540B87E085
:101260000E94380B61E082E00E94540B85E00E94EE
:10127000380B61E084E00E94540B86E00E94380B3A
:1012800061E086E00E94540B84E00E94380B40E04D
:1012900050E060E070E0CE018F5A9F4F0E946005E1
:1012A000F1E08F16910469F441E050E06AE070E0EB
:1012B000CE018E589F4F0E946005EE24E394F12CDE
:1012C00015C022E08216910479F441E050E06AE012
:1012D00070E0CE0185599F4F0E9460055BE0E52ECE
:1012E000F12C0AE010E004C0E12CF12C00E010E049
:1012F00060E08AE00E94540B000F111FC12CD12C1A
:10130000F601E00FF11F89E290E08C0F9D1FE80FBE
:10131000F91F828193810E94990B92E0C90ED11C22
:10132000EEE0CE16D10461F70E94880B60E08AE0FF
:101330000E94540B0AE010E00E94BF056C016AEFA6
:1013400070E080E090E00E94720EF2E0CF16D104CF
:1013500009F4B8C00CF0ADC0CA94CD2869F728963E
:101360008FAD28972A960FAD2A97FAE08F9F000D30
:10137000112424968FAD24972696FFAC26972AE059
:10138000829FF00C11248FAD2296EFAC22979AE049
:10139000899FE00C11248BA5DDA4EAE08E9FD00C80
:1013A00011248FA5C9A8FAE08F9FC00C11248BA926
:1013B000BDA82AE0829FB00C112488E60E942E0B63
:1013C00080E090E00E94CC0A1AE08B2D612F0E94F1
:1013D0002D18692FE0E18E9F600D112484E194E0C7
:1013E0000E9420028C2D612F0E942D18692FF0E1A0
:1013F0008F9F600D112484E194E00E9420028D2DC6
:10140000612F0E942D18692F20E1829F600D112409
:1014100084E194E00E94200261E084E194E00E9473
:1014200020028E2D612F0E942D18692FE0E18E9FE2
:10143000600D112484E194E00E9420028F2D612F21
:101440000E942D18692FF0E18F9F600D112484E117
:1014500094E00E942002802F612F0E942D18692F96
:1014600020E1829F600D112484E194E00E9420021B
:101470000E94D10A0E94800B41E050E06AE070E0D7
:10148000CE018E599F4F0E946005C158DF4F0FB6A5
:10149000F894DEBF0FBECDBFDF91CF911F910F91AA
:1014A000FF90EF90DF90CF90BF90AF909F908F9084
:1014B000089594E0C916D104C1F0E8E0CE16D10435
:1014C00079F13ACFC701880F991FF501E80FF91F8D
:1014D00020A531A52150310931A720A737FF18C019
:1014E0002081318131A720A713C0C701880F991F20
:1014F000F501E80FF91F20A531A52F5F3F4F31A758
:1015000020A7408151814217530714F411A610A659
:10151000F501E80FF91F80A591A50E94990B0EC057
:101520000F5F1F4F0031110524F48FEFE81AF80AFE
:1015300005C0EE24E394F12C0AE010E060E0802F77
:101540000E94540BF9CE833081F028F4813099F059
:101550008230A1F008958730A9F08830B9F0843046
:10156000D1F4809180008F7D03C0809180008F77BF
:1015700080938000089584B58F7702C084B58F7DF5
:1015800084BD08958091B0008F7703C08091B00032
:101590008F7D8093B0000895682F84E194E00C94CF
:1015A00020022091760390912E04213208F04AC047
:1015B000809153038111FCCF32E03093530331E02B
:1015C000309352033FEF3093510310925003209316
:1015D0004F03A6E5B3E04FE253E0FA013E2F341B80
:1015E000321718F43D913193F9CF10922E032091C8
:1015F0002E03990F922B90932E0390912D039130EF
:1016000061F410922D0390912E039093BB00909162
:10161000BC0093FDF8CF95EC01C095EE9093BC0013
:10162000909153039230E1F3909151039F3F79F0F1
:1016300080915103803241F080915103803331F029
:1016400084E005C081E003C082E001C083E0109225
:1016500055031092760310925403089591E09093ED
:10166000540380932E04109255031092760308952C
:10167000E0912204F09123040190F081E02D682F85
:1016800082E294E00994CF93C82F682F607F82E2B2
:1016900094E00E94E00380E1C89FB001112482E23F
:1016A00094E0CF910C94E003CF93DF93CDB7DEB7F6
:1016B00028970FB6F894DEBF0FBECDBF98E0E0E6E6
:1016C000F1E0DE01119601900D929A95E1F790916B
:1016D0002A04961710F46FEF690FFE013196E60F9A
:1016E000F11DE60FF11D9081890F806828960FB6D5
:1016F000F894DEBF0FBECDBFDF91CF910C94430BAA
:10170000E2E2F4E086818E7F868388600C94430B4E
:10171000E2E2F4E08681982F9160968389600C94D0
:10172000430B81E00E94430B8BE39FE10197F1F7AC
:1017300008950F931F93CF93DF9300D000D0CDB7C0
:10174000DEB7AC01990F660B770B77FF23C08DE2F4
:1017500049835A836B837C830E94380B8C014981B7
:101760005A816B817C8170956095509541955F4F52
:101770006F4F7F4F2AE082E294E00E942203800FA5
:10178000911F0F900F900F900F90DF91CF911F91AD
:101790000F9108952AE082E294E00F900F900F904D
:1017A0000F90DF91CF911F910F910C942203909194
:1017B00053039111FCCF613208F060E291E0909305
:1017C0005303909352032FEF209351031092500331
:1017D000260F20934F0390932E0390912E03880F92
:1017E000892B80932E0380912D03813061F4109218
:1017F0002D0380912E038093BB008091BC0083FD5C
:10180000F8CF85EC01C085EE8093BC008091530336
:101810008130E1F380915003861710F460915003FA
:10182000AFE2B3E02DE033E0F9018E2F821B861783
:1018300018F48D918193F9CF10920C0360930B03F0
:10184000862F08956F927F928F929F92AF92BF9250
:10185000CF92DF92EF92FF920F931F93CF93DF937C
:101860004C015B01EA01390188E60E942E0B80E001
:1018700090E00E94CC0A0E94D10A67E070E088E6FE
:1018800090E00E94D70B84E194E00E94D401982F4D
:101890009695969596959E70292F220F220F920F5E
:1018A0008F70890FF401808384E194E00E94D40159
:1018B000982F92959F708F70FAE09F9F800D112452
:1018C000F501808384E194E00E94D401982F9695DD
:1018D000969596959670292F220F220F920F8F7052
:1018E000890F888384E194E00E94D401982F929517
:1018F0009F708F70FAE09F9F800D1124F301808309
:1019000084E194E00E94D401982F92959F708F708B
:10191000FAE09F9F800D1124F801808384E194E018
:101920000E94D401982F92959F708F70FAE09F9F2C
:10193000800D1124F701808384E194E00E94D4019A
:10194000982F92959F708F70FAE09F9F800D1124C1
:10195000F6018083DF91CF911F910F91FF90EF905F
:10196000DF90CF90BF90AF909F908F907F906F90BF
:101970000895CF92DF92EF92FF920F931F93CF9330
:10198000DF93CDB7DEB727970FB6F894DEBF0FBE53
:10199000CDBFCE0101966C0101967C018E010D5FD9
:1019A0001F4F9E012C5F3F4FAE014B5F5F4FBE014B
:1019B0006A5F7F4F05960E94220C61E087E00E94DB
:1019C000540B81E00E94380B61E08AE00E94540BC6
:1019D0006FEB72E082E294E00E946B0361E08DE0C5
:1019E0000E94540B6FEB72E082E294E00E946B0362
:1019F00061E088E00E94540B8D818A3080F461ECB4
:101A000072E082E294E00E946B034D8150E060E05E
:101A100070E02AE082E294E00E94220315C01AE0FE
:101A2000612F0E942D1890E00E94990B2D81822F2A
:101A3000612F0E942D18382F46EF4303C001112457
:101A4000820F911D0E94990B61E08BE00E94540B64
:101A50008E818A3080F461EC72E082E294E00E9430
:101A60006B034E8150E060E070E02AE082E294E097
:101A70000E94220315C01AE0612F0E942D1890E0E9
:101A80000E94990B2E81822F612F0E942D18382FD2
:101A900046EF4303C0011124820F911D0E94990B50
:101AA00061E08EE00E94540B8F818A3080F461ECFB
:101AB00072E082E294E00E946B034F8150E060E0AC
:101AC00070E02AE082E294E00E94220315C01AE04E
:101AD000612F0E942D1890E00E94990B2F81822F78
:101AE000612F0E942D18382F46EF4303C0011124A7
:101AF000820F911D0E94990B27960FB6F894DEBFB6
:101B00000FBECDBFDF91CF911F910F91FF90EF904E
:101B1000DF90CF900895EF92FF920F931F93CF9392
:101B2000DF9300D0CDB7DEB7877028E0829FC00179
:101B30001124806469837A830E94430B6981E62EB5
:101B40007A81F72E8701085F1F4FF70161917F01AE
:101B500082E294E00E94F903E016F106B1F70F90DB
:101B60000F90DF91CF911F910F91FF90EF9008950B
:101B7000CF93DF93282F30E0F901E255FF4F849196
:101B8000F901E656FF4FD491F901EA57FF4FC4918E
:101B9000CC2391F081110E94A30AEC2FF0E0EE0F0C
:101BA000FF1FE458FF4FA591B491EC91ED2381E024
:101BB00090E021F480E002C080E090E0DF91CF91DE
:101BC00008951F93CF93DF93282F30E0F901E2555A
:101BD000FF4F8491F901E656FF4FD491F901EA577E
:101BE000FF4FC491CC23C9F0162F81110E94A30A84
:101BF000EC2FF0E0EE0FFF1FEE58FF4FA591B491D0
:101C00008FB7F894111105C09C91ED2FE095E92351
:101C100002C0EC91ED2BEC938FBFDF91CF911F9120
:101C20000895CF93DF9390E0FC01E656FF4F249197
:101C3000FC01EA57FF4F8491882361F190E0880FFF
:101C4000991FFC01E859FF4FC591D491FC01EE5852
:101C5000FF4FA591B491611109C09FB7F894888195
:101C6000209582238883EC912E230BC0623061F48F
:101C70009FB7F8943881822F809583238883EC91D5
:101C80002E2B2C939FBF06C08FB7F894E8812E2B84
:101C900028838FBFDF91CF9108953FB7F89480914B
:101CA000340490913504A0913604B091370426B5E0
:101CB000A89B05C02F3F19F00196A11DB11D3FBF84
:101CC000BA2FA92F982F8827820F911DA11DB11D12
:101CD000BC01CD0142E0660F771F881F991F4A950E
:101CE000D1F708958F929F92AF92BF92CF92DF92D9
:101CF000EF92FF926B017C010E944D0E4B015C0143
:101D0000C114D104E104F104F1F00E944D0EDC0194
:101D1000CB0188199909AA09BB09883E9340A105FE
:101D2000B10570F321E0C21AD108E108F10888EE8C
:101D3000880E83E0981EA11CB11CC114D104E104DB
:101D4000F10419F7DDCFFF90EF90DF90CF90BF90B7
:101D5000AF909F908F9008951F920F920FB60F92A1
:101D600011242F933F938F939F93AF93BF938091B1
:101D7000300490913104A0913204B0913304309139
:101D80002F0423E0230F2D3720F40196A11DB11D50
:101D900005C026E8230F0296A11DB11D20932F0434
:101DA0008093300490933104A0933204B0933304B1
:101DB0008091340490913504A0913604B091370499
:101DC0000196A11DB11D8093340490933504A09316
:101DD0003604B0933704BF91AF919F918F913F919B
:101DE0002F910F900FBE0F901F901895CF93DF93F8
:101DF000CDB7DEB7C85BD1090FB6F894DEBF0FBE12
:101E0000CDBF789484B5826084BD84B5816084BD83
:101E100085B5826085BD85B5816085BD80916E0088
:101E2000816080936E0010928100809181008260B9
:101E300080938100809181008160809381008091F6
:101E400080008160809380008091B10084608093E5
:101E5000B1008091B00081608093B00080917A00E1
:101E6000846080937A0080917A00826080937A0007
:101E700080917A00816080937A0080917A008068F6
:101E800080937A001092C10010920C0310920B0301
:101E900010925503109276030E943E0581E1E1EC19
:101EA000F1E09E012F5F3F4F5901D90101900D9242
:101EB0008A95E1F740E050E060E070E0C9010E94DF
:101EC0006005E0918703F091880382E08083E091D0
:101ED0008303F09184031082E0918503F0918603DF
:101EE0008FEC808310928F03E0918B03F0918C0331
:101EF00086E08083E0918903F0918A03808180618C
:101F00008083E0918903F0918A03808188608083D7
:101F1000E0918903F0918A03808180688083E09159
:101F20008903F0918A0380818F7D808310920C0356
:101F300010920B0310925503109276030E943E05F7
:101F40001092270480912C04823018F098E090932E
:101F5000270480932A0462E370E080E090E00E940E
:101F6000720E60912D0482E294E00E94C50368EE37
:101F700073E080E090E00E94720E60E382E294E001
:101F80000E94E0030BE416E4C8010197F1F760E357
:101F900082E294E00E94E003C8010197F1F760E358
:101FA00082E294E00E94E00383E592E00197F1F77A
:101FB00060E282E294E00E94E00380912704806264
:101FC0000E94430B84E0809328048CE00E94430B22
:101FD0000E94910B82E08093290486E00E94430BCB
:101FE00082E00E94430B8BE39FE10197F1F761E0F0
:101FF00085E00E94110E61E086E00E94110E61E012
:1020000087E00E94110E60E088E00E94110E60E0FF
:1020100089E00E94110E60E08AE00E94110E60E0EB
:102020008BE00E94110E61E08CE00E94110E60E0D6
:1020300080E10E94110E68E371E080E00E948B0D48
:1020400060E371E081E00E948B0D68E271E082E064
:102050000E948B0D60E271E083E00E948B0D68E1CD
:1020600071E084E00E948B0D60E171E085E00E94E8
:102070008B0D68E071E086E00E948B0D60E071E0FE
:1020800087E00E948B0D88E60E942E0B87E090E08F
:102090000E94CC0A80E890E00E94CC0A80E890E0A0
:1020A0000E94CC0A80E890E00E94CC0A80E890E090
:1020B0000E94CC0A80E090E00E94CC0A80E090E090
:1020C0000E94CC0A80E090E00E94CC0A0E94D10AD3
:1020D00088E60E942E0B8EE090E00E94CC0A61E020
:1020E00070E088E690E00E94D70B90910B038091FE
:1020F0000C03981771F084E194E00E94D40121E070
:10210000892B09F420E0822F90E005960E94CC0AEA
:10211000ECCF0E94D10A68EE73E080E090E00E946C
:10212000720E0E94970587E50E942E0B80E090E0DA
:102130000E94CC0A81E090E00E94CC0A8FE190E0FE
:102140000E94CC0A0E94D10ACE018396CB54DF4F65
:1021500099838883C55BD040FE01FD96C954DF4F4B
:10216000F983E883C75BD0404E01F7E58F0E911CE1
:102170009C016C014A967C0184012B5B3F4FAE01B0
:1021800047585F4FBE0166577F4F825A9F4F0E944C
:10219000220CEA968FADEA97E82EF12C8A3018F4DB
:1021A000412C512C09C06AE00E942D18482E9AE05B
:1021B000899FE018F1081124C657DF4F8881CA585B
:1021C000D040C82ED12C8A3018F400E010E00AC0AC
:1021D0006AE00E942D18082F10E0EAE08E9FC018D8
:1021E000D1081124C556DF4F8881CB59D040682EC5
:1021F000712C8A3018F4212C312C09C06AE00E941D
:102200002D18282EFAE08F9F601871081124642D74
:1022100081E190E00E945C05642D81E290E00E94E3
:102220005C05642D81E390E00E945C05642D87E1EC
:1022300090E00E945C05642D87E290E00E945C05BE
:10224000642D87E390E00E945C05622D85E190E0BB
:102250000E945C05622D85E290E00E945C05622D83
:1022600085E390E00E945C05622D8BE190E00E9486
:102270005C05622D8BE290E00E945C05622D8BE391
:1022800090E00E945C05662D86E190E00E945C056E
:10229000662D86E290E00E945C05662D86E390E064
:1022A0000E945C05662D8CE190E00E945C05662D25
:1022B0008CE290E00E945C05662D8CE390E00E9429
:1022C0005C05260122E0420E511C3AE043165104FF
:1022D0004CF0260188E0481A510838019FEF691A2E
:1022E000790A01C03801E6E06E1671043CF0F5E0B1
:1022F0006F1A7108B7016F5F7F4F01C0B70182E1AC
:1023000090E00E945C05662D83E190E00E945C05F0
:10231000642D84E190E00E945C05360124E0620EA9
:10232000711C3AE06316710474F0160186E0281AF5
:10233000310828019FEF491A590AE6E04E16510468
:102340000CF426C605C00630110574F113012801EE
:10235000B7016F5F7F4F88E190E00E945C05B2019A
:102360006550710989E190E00E945C05622D8AE167
:1023700090E00E945C05FAE06F1671044CF03601A3
:1023800026E0621A710828013FEF431A530A01C080
:10239000280186E048165104BCF095E0491A51081E
:1023A000B7016F5F7F4F11C06E2D88E190E00E94F2
:1023B0005C05602F89E190E00E945C05662D8AE152
:1023C00090E00E945C052801B70182E290E00E9443
:1023D0005C05642D83E290E00E945C05662D84E23A
:1023E00090E00E945C052601E6E04E0E511CFAE0EA
:1023F0004F1651044CF0260124E0421A51083801CE
:102400003FEF631A730A01C0380186E06816710451
:102410003CF095E0691A7108B7016F5F7F4F01C00A
:10242000B70188E290E00E945C05662D89E290E0A9
:102430000E945C05642D8AE290E00E945C05260102
:10244000E5E04E0E511CFAE04F1651044CF0260107
:1024500025E0421A510838013FEF631A730A01C0A0
:10246000380186E0681671043CF095E0691A71083D
:10247000B7016F5F7F4F01C0B70182E390E00E9418
:102480005C05662D83E390E00E945C05642D84E387
:1024900090E00E945C053601E7E06E0E711CFAE0E8
:1024A0006F16710434F0360123E0621A71080F5F71
:1024B0001F4F063011052CF0055011093FEFE31AAC
:1024C000F30A6E2D88E390E00E945C05602F89E39B
:1024D00090E00E945C05662D8AE390E00E945C0516
:1024E00061E085E00E94E10D61E086E00E94E10D7F
:1024F00061E087E00E94E10D60E273E080E090E03F
:102500000E94720E60E085E00E94E10D60E273E0DF
:1025100080E090E00E94720E60E086E00E94E10D93
:1025200060E273E080E090E00E94720E60E087E07D
:102530000E94E10D68E971E087E793E00E946B0378
:1025400087E50E942E0B80E090E00E94CC0A81E09B
:1025500090E00E94CC0A0E94D10A61E070E087E519
:1025600090E00E94D70B90910B0380910C03981779
:1025700029F084E194E00E94D40101C08FEF482F3C
:1025800050E060E070E02AE087E793E00E942203D9
:1025900060EB71E087E793E00E940D030E94BF05A6
:1025A000892B09F458C30E94910B61E080E00E94DE
:1025B000540B87E00E94380B61E082E00E94540BCC
:1025C00063EB71E082E294E00E946B0361E084E0DF
:1025D0000E94540B63EB71E082E294E00E946B0373
:1025E00061E086E00E94540B84E00E94380B81E198
:1025F000E2EDF1E0DE01A556BF4F01900D928A9504
:10260000E1F740E050E060E070E0CE0185569F4F7A
:102610000E9460050E94BF050097E1F3019721F435
:1026200081E090E00E94EE0781E1E3EEF1E0DE015F
:10263000A657BF4F01900D928A95E1F740E050E018
:1026400060E070E0CE0186579F4F0E9460050E94B7
:10265000BF050097E1F3019721F482E090E00E942A
:10266000EE0781E1E4EFF1E0DE01A758BF4F0190F2
:102670000D928A95E1F740E050E060E070E0CE0115
:1026800087589F4F0E9460050E94BF050097E1F3A5
:10269000019709F020C188E0F40111928A95E9F7C9
:1026A00081E1E5E0F2E0D50101900D928A95E1F734
:1026B00089E0E6E1F2E0DE01DD9601900D928A9577
:1026C000E1F789E0E7E9F2E0DE01939601900D92EF
:1026D0008A95E1F780E190E00E945E05C82ED12C3A
:1026E000F401D382C28280E290E00E945E05E82E6F
:1026F000F12CF401F582E48280E390E00E945E0513
:10270000082F10E0F401178306830E94910B61E00B
:1027100080E00E94540B87E00E94380B61E082E069
:102720000E94540B82E00E94380B61E084E00E941A
:10273000540B63EB71E082E294E00E946B0361E072
:1027400086E00E94540B84E00E94380B40E050E089
:1027500060E070E0C5010E94600541E050E068E083
:1027600070E0CE01CD960E94600560E08DE00E9491
:10277000540BCD2839F465EB71E082E294E00E94BD
:102780006B0303C083E00E94380BEF2839F465EB3C
:1027900071E082E294E00E946B0303C083E00E9438
:1027A000380B012B39F465EB71E082E294E00E9472
:1027B0006B0303C083E00E94380B60E08DE00E9451
:1027C000540B0E94880BEE24E394F12C0DE010E0F2
:1027D00066246394712C0E94BF056C016AEF70E05F
:1027E00080E090E00E94720EF4E0CF16D104E1F197
:1027F00028E0C216D10409F45BC0CA94CD2859F769
:102800006A966FAD6A9780E190E00E945C056C96D5
:102810006FAD6C9780E290E00E945C056E966FADA4
:102820006E9780E390E00E945C050E94800B41E07F
:1028300050E068E070E0CE0183960E94600561E0A0
:1028400082E00E94540B63EB71E082E294E00E940C
:102850006B0361E084E00E94540B63EB71E082E261
:1028600094E00E946B0337C0C701880F991FF401E1
:10287000E80FF91F20813181232B19F471826082C6
:1028800002C011821082E7E5F0E0EC0FFD1FE80FB7
:10289000F91F80819181892B39F465EB71E082E227
:1028A00094E00E946B0312C083E00E94380B0EC0BC
:1028B0000F5F1F4F0031110524F48FEFE81AF80A5B
:1028C00005C0EE24E394F12C0DE010E060E0802FD1
:1028D0000E94540B80CF81E1EFE1F2E0DE01A859C4
:1028E000BF4F01900D928A95E1F740E050E060E023
:1028F00070E0CE0188599F4F0E9460050E94BF057D
:102900000097E1F3019709F0CEC089E0E7E9F2E032
:10291000DE01A455BF4F01900D928A95E1F78AE13F
:10292000C954DF4FE881F981C75BD040282F11924D
:102930002A95E9F7CB54DF4FE881F981C55BD04098
:10294000282F11922A95E9F7F50111928A95E9F756
:102950009E01215C3F4F79018E010B5D1F4FCE011F
:1029600003963C0131E1C32ED12CC6010E945E05C5
:1029700090E0F701819391937F01C60140960E94F8
:102980005E0590E0F801819391938F01C6018096D6
:102990000E945E0590E0F301819391933F01FFEF68
:1029A000CF1ADF0A2DE1C216D104F9F60E94910B6D
:1029B00061E080E00E94540B67EB71E082E294E0FA
:1029C0000E946B0361E082E00E94540B69EB71E0AE
:1029D00082E294E00E946B0361E084E00E94540B69
:1029E0006DE172E082E294E00E946B0361E086E0B8
:1029F0000E94540B84E00E94380B81E1E0E3F2E096
:102A0000D40101900D928A95E1F740E050E060E03A
:102A100070E0C4010E9460050E94BF058C016AEF4E
:102A200070E080E090E00E94720E0230110511F11A
:102A30007CF40130110581F70E94800B41E050E0E9
:102A40006AE070E0CE0184559F4F0E9460052BC064
:102A500004301105D9F008301105F1F69E012F5F01
:102A60003F4FAE014D5D5F4FBE01635C7F4F81E024
:102A700090E017C09E012F5F3F4FAE014D5D5F4F4D
:102A8000BE01635C7F4F83E090E00BC09E012F5F2F
:102A90003F4FAE014D5D5F4FBE01635C7F4F82E0F3
:102AA00090E00E94080681E1E1E4F2E0DE01939605
:102AB00001900D928A95E1F740E050E060E070E00F
:102AC000CE0183960E9460050E94BF050097E1F346
:102AD000019709F0BEC081E1E2E5F2E0DE01119666
:102AE00001900D928A95E1F785E0E3E6F2E0DE01E0
:102AF000A455BF4F01900D928A95E1F785E0E8E675
:102B0000F2E0D40101900D928A95E1F789E0E7E9BE
:102B1000F2E0DE01DD9601900D928A95E1F781E009
:102B200090E00E945E05082F10E00E94910B61E08A
:102B300080E00E94540B63EB71E082E294E00E941B
:102B40006B0361E082E00E94540B82E00E94380B2C
:102B500061E084E00E94540B63EB71E082E294E058
:102B60000E946B0361E086E00E94540B84E00E94A7
:102B7000380B40E050E060E070E0CE0101960E942A
:102B8000600541E050E06BE070E00130110521F498
:102B9000CE0184559F4F01C0C4010E94600560E0D2
:102BA0008BE00E94540B0E94880B0E94BF057C01A1
:102BB0006AEF70E080E090E00E94720E31E0E31670
:102BC000F10429F084E0E816F10449F1EECF109306
:102BD000210400932004602F81E090E00E945C05B6
:102BE0000E94800B41E050E068E070E0CE01CD969D
:102BF0000E94600561E082E00E94540B63EB71E08B
:102C000082E294E00E946B0361E084E00E94540B36
:102C100063EB71E082E294E00E946B031AC041E032
:102C200050E06BE070E0CE010130110539F4895AB3
:102C30009F4F0E94600500E010E006C084559F4F42
:102C40000E94600501E010E061E08CE00E94540BFE
:102C5000ACCF0E9497050E94B90C6AEF70E080E04B
:102C600090E00E94720E88E60E942E0B8FE090E0AA
:102C70000E94CC0A61E070E088E690E00E94D70BE9
:102C800000E010E090910B0380910C03981749F03D
:102C900084E194E00E94D401892BA1F301E010E0CB
:102CA000F1CF0E94D10A0130110509F06EC161E037
:102CB0008CE00E94E10D88E60E942E0B8FE090E0F0
:102CC0000E94CC0A61E070E088E690E00E94D70B99
:102CD00090910B0380910C03981771F084E194E0BC
:102CE0000E94D40121E030E0811102C020E030E0F8
:102CF000C9010E94CC0AECCF0E94D10A68EC70E0B6
:102D000080E090E00E94720E60E08CE00E94E10D95
:102D100061E080E00E94540B80E00E94380B88E65E
:102D20000E942E0B81E190E00E94CC0A0E94D10A01
:102D300062E070E088E690E00E94D70B84E194E0C6
:102D40000E94D401182F84E194E00E94D40126E06F
:102D5000959587952A95E1F7682F70E080E090E0DF
:102D60000E948C1B20E030E040E85EE30E94EB1BF9
:102D70006B017C01612F110F770B880B990B0E945F
:102D80008C1B9B01AC01C701B6010E9462186B014C
:102D90007C012DB63EB662EB71E0C4010E94F802E0
:102DA000C701B6010E94CE182B013C011EAE1DAE1C
:102DB00021961FAE1EAE219723961FAE1EAE2397FF
:102DC000072E000C880B990B0E948C1B9B01AC01F9
:102DD000C701B6010E94611820E030E04AE754E4E0
:102DE0000E94EB1B0E94CE1897FF07C0909580951C
:102DF000709561957F4F8F4F9F4F2AE0A5010E94EC
:102E00002F1BF50101900020E9F73197AF014A1916
:102E10005B09B501CE01CD960E94C0021CA21BA287
:102E20001EA21DA218A61FA24AE0B501C2010E945F
:102E3000241BF50101900020E9F73197AF014A19F1
:102E40005B09B501CE0183960E94C0021A821982E5
:102E50001C821B821E821D82BE016D5D7F4FC501DB
:102E60000E94E1020D811E810F5F1F4FB801C50155
:102E70000E945502882309F49BC029813A818D81E3
:102E80009E816BEB71E0820F931F0E940E1B1E83CD
:102E90000D83BE01635C7F4FC5010E948E02BC01A1
:102EA000C4010E94E10289819A810E949E198BA12E
:102EB0009CA10E949E198DAD9EAD0E949E19F401A9
:102EC0008481958101962DB73EB7281B390B0FB62B
:102ED000F8943EBF0FBE2DBF0DB71EB70F5F1F4F3B
:102EE00020E030E0A901C701B6010E94041987FD66
:102EF00003C06DEB71E002C06FEB71E0C5010E9491
:102F0000F802B401C5010E948E02BC01C4010E94F6
:102F1000E10289819A810E949E19F4018481958140
:102F200081309105D1F001151105B9F0009711F428
:102F3000F80112C07C01F2E0EF1AF1088E159F052E
:102F400008F47C01F40160817181A701C8010E942D
:102F5000151BF801EE0DFF1D108241E050E061E00D
:102F600070E0C8010E946005F401808191810E9497
:102F70009E190FB6F8943EBE0FBE2DBE61E087E0ED
:102F80000E94540B81E00E94380B0E94880106CBFE
:102F90006E2D88E190E00E945C05642D89E190E04F
:102FA0000E945C05622D8AE190E00E945C05E7C901
:102FB000C5010E947C026DCFE7E7F3E01382128225
:102FC00088EE93E0A0E0B0E084839583A683B78386
:102FD0002CE631E03183208325EC30E035872487EF
:102FE00024EC30E03787268720EC30E0318B208BD3
:102FF00021EC30E0338B228B22EC30E0358B248BBC
:1030000026EC30E0378B268B118E128E138E148EA9
:10301000E4E1F4E01382128284839583A683B7836C
:103020008EE791E091838083E2E2F4E013821282E2
:1030300080E991E09183808383E2848380E18187CA
:1030400082E08287138681E090E00E945E0590E036
:1030500090932104809320040895991B79E004C083
:10306000991F961708F0961B881F7A95C9F78095C7
:103070000895A1E21A2EAA1BBB1BFD010DC0AA1FB9
:10308000BB1FEE1FFF1FA217B307E407F50720F0D1
:10309000A21BB30BE40BF50B661F771F881F991F4C
:1030A0001A9469F760957095809590959B01AC0195
:1030B000BD01CF010895EE0FFF1F0590F491E02DA3
:1030C00009945058BB27AA270E9479180C946F1CAA
:1030D0000E94611C38F00E94681C20F039F49F3F68
:1030E00019F426F40C945E1C0EF4E095E7FB0C94A6
:1030F000581CE92F0E94801C58F3BA176207730707
:103100008407950720F079F4A6F50C94A21C0EF420
:10311000E0950B2EBA2FA02D0B01B90190010C01E7
:10312000CA01A0011124FF27591B99F0593F50F4FF
:10313000503E68F11A16F040A22F232F342F442757
:10314000585FF3CF469537952795A795F04053954F
:10315000C9F77EF41F16BA0B620B730B840BBAF01F
:103160009150A1F0FF0FBB1F661F771F881FC2F78A
:103170000EC0BA0F621F731F841F48F4879577959E
:103180006795B795F7959E3F08F0B0CF9395880F58
:1031900008F09927EE0F9795879508950E94D51806
:1031A0006894B1110C94A31C08950E94881C88F0A7
:1031B0009F5798F0B92F9927B751B0F0E1F0660FFB
:1031C000771F881F991F1AF0BA95C9F714C0B1303C
:1031D00091F00E94A21CB1E008950C94A21C672FEC
:1031E000782F8827B85F39F0B93FCCF3869577956B
:1031F0006795B395D9F73EF4909580957095619554
:103200007F4F8F4F9F4F08950E94C71B08F48FEF89
:103210000895CF93DF938230910510F482E090E01F
:10322000E0913A04F0913B0420E030E0C0E0D0E0CF
:10323000309711F14081518148175907C0F0481764
:10324000590761F482819381209719F09B838A83C7
:103250002BC090933B0480933A0426C0211531057E
:1032600019F04217530718F49A01BE01DF01EF016C
:103270000280F381E02DDCCF2115310509F1281BF7
:10328000390B2430310590F412968D919C9113974F
:103290006115710521F0FB019383828304C0909333
:1032A0003B0480933A04FD01329644C0FD01E20FD5
:1032B000F31F81939193225031092D933C933AC08F
:1032C0002091380430913904232B41F4209142019C
:1032D0003091430130933904209338042091400108
:1032E000309141012115310541F42DB73EB7409190
:1032F000440150914501241B350BE0913804F091B5
:103300003904E217F307A0F42E1B3F0B28173907E7
:1033100078F0AC014E5F5F4F2417350748F04E0F31
:103320005F1F50933904409338048193919302C0F6
:10333000E0E0F0E0CF01DF91CF9108950F931F936C
:10334000CF93DF93009709F48CC0FC01329713826E
:10335000128200913A0410913B040115110581F489
:1033600020813181820F931F2091380430913904DC
:103370002817390779F5F0933904E093380471C0C0
:10338000D80140E050E0AE17BF0750F412962D91DF
:103390003C911397AD012115310509F1D901F3CF06
:1033A0009D01DA013383228360817181860F971F2B
:1033B0008217930769F4EC0128813981260F371FA2
:1033C0002E5F3F4F318320838A819B819383828349
:1033D000452B29F4F0933B04E0933A0442C0139642
:1033E000FC93EE931297ED01499159919E01240FA0
:1033F000351FE217F30771F480819181840F951FC7
:10340000029611969C938E938281938113969C933E
:103410008E931297E0E0F0E0D80112968D919C9186
:103420001397009719F0F8018C01F6CF8D919C91BC
:1034300098012E5F3F4F820F931F209138043091E7
:1034400039042817390769F4309729F410923B049E
:1034500010923A0402C0138212821093390400932E
:103460003804DF91CF911F910F910895A0E0B0E053
:10347000ECE3FAE10C94C31CEC01009721F4CB01BE
:103480000E940919B8C0FC01E60FF71F9C012250E9
:103490003109E217F30708F4ACC0D9010D911C9172
:1034A000119706171707B0F00530110508F49FC0F3
:1034B000C80104978617970708F499C002501109AC
:1034C000061B170B019311936D937C93CF010E9400
:1034D0009E198DC05B01A01AB10A4C01800E911E8D
:1034E000A0913A04B0913B0440E050E0E12CF12C73
:1034F000109709F44AC0A815B905D1F56D907C90D4
:103500001197630182E0C80ED11CCA14DB0480F15C
:10351000A3014A195B096A0182E0C80ED11C129608
:10352000BC9012971396AC91B5E0CB16D10440F045
:10353000B282A38351834083D9016D937C930AC0E7
:103540000E5F1F4FC301800F911FF901918380838C
:10355000EB2DFA2FE114F10431F0D7011396FC930F
:10356000EE93129744C0F0933B04E0933A043FC0BB
:103570008D919C9111974817590708F4AC017D0172
:1035800012960D90BC91A02DB3CF809138049091EC
:10359000390488159905E1F446175707C8F4809156
:1035A000400190914101009741F48DB79EB7409141
:1035B000440150914501841B950BE817F907C8F4A5
:1035C000F0933904E0933804F901718360830FC0EC
:1035D000CB010E9409197C01009759F0A801BE0196
:1035E0000E94051BCE010E949E19C70104C0CE0196
:1035F00002C080E090E0CDB7DEB7EEE00C94DF1CB7
:1036000081E090E0F8940C94F61CFB01DC0102C010
:1036100001900D9241505040D8F70895FB01DC0114
:1036200001900D920020E1F70895FB01DC0141506B
:10363000504048F001900D920020C9F701C01D9242
:1036400041505040E0F70895BB274A3031F49923A8
:1036500022F4BDE2909581959F4F0C94611BBB278E
:103660002A3051F4992342F4BDE2909580957095EB
:1036700061957F4F8F4F9F4F0C943F1BBB27FA01E3
:10368000A62F6217710581059105330B30FB66F09B
:10369000AA27660F771F881F991FAA1FA21710F06D
:1036A000A21B63953850A9F7A05DAA3308F0A95D65
:1036B000A19336F7B111B1931082CA010C947A1B11
:1036C000BB27FB015527AA27880F991FAA1FA417FC
:1036D00010F0A41B83955051B9F7A05DAA3308F0F0
:1036E000A95DA193009779F7B111B1931192CB0124
:1036F0000C947A1BDC01FC01672F71917723E1F7B1
:10370000329704C07C916D9370836291AE17BF07AE
:10371000C8F30895E89409C097FB3EF4909580950E
:10372000709561957F4F8F4F9F4F9923A9F0F92F87
:1037300096E9BB279395F695879577956795B79505
:10374000F111F8CFFAF4BB0F11F460FF1BC06F5FEB
:103750007F4F8F4F9F4F16C0882311F096E911C0FD
:10376000772321F09EE8872F762F05C0662371F01E
:1037700096E8862F70E060E02AF09A95660F771F32
:10378000881FDAF7880F9695879597F90895990F0E
:103790000008550FAA0BE0E8FEEF16161706E8071B
:1037A000F907C0F012161306E407F50798F0621B3C
:1037B000730B840B950B39F40A2661F0232B242B11
:1037C000252B21F408950A2609F4A140A6958FEF30
:1037D000811D811D08950E94FE1B0C946F1C0E9488
:1037E000611C38F00E94681C20F0952311F00C94A5
:1037F000581C0C945E1C11240C94A31C0E94801C69
:1038000070F3959FC1F3950F50E0551F629FF00133
:10381000729FBB27F00DB11D639FAA27F00DB11D4C
:10382000AA1F649F6627B00DA11D661F829F2227D5
:10383000B00DA11D621F739FB00DA11D621F839F5C
:10384000A00D611D221F749F3327A00D611D231F32
:10385000849F600D211D822F762F6A2F11249F5780
:1038600050409AF0F1F088234AF0EE0FFF1FBB1F83
:10387000661F771F881F91505040A9F79E3F510542
:1038800080F00C94581C0C94A31C5F3FE4F3983E0A
:10389000D4F3869577956795B795F795E7959F5FEC
:1038A000C1F7FE2B880F911D9695879597F908957E
:1038B00097F99F6780E870E060E008959FEF80ECE3
:1038C000089500240A941616170618060906089586
:1038D00000240A9412161306140605060895092EEC
:1038E0000394000C11F4882352F0BB0F40F4BF2B5B
:1038F00011F460FF04C06F5F7F4F8F4F9F4F08959B
:1039000057FD9058440F551F59F05F3F71F0479590
:10391000880F97FB991F61F09F3F79F08795089575
:10392000121613061406551FF2CF4695F1DF08C094
:10393000161617061806991FF1CF869571056105B1
:1039400008940895E894BB2766277727CB0197F959
:103950000895F999FECF92BD81BDF89A992780B557
:103960000895262FF999FECF1FBA92BD81BD20BDC3
:103970000FB6F894FA9AF99A0FBE019608952F920D
:103980003F924F925F926F927F928F929F92AF92EF
:10399000BF92CF92DF92EF92FF920F931F93CF933C
:1039A000DF93CDB7DEB7CA1BDB0B0FB6F894DEBFD3
:1039B0000FBECDBF09942A88398848885F846E84F9
:1039C0007D848C849B84AA84B984C884DF80EE8043
:1039D000FD800C811B81AA81B981CE0FD11D0FB64C
:1039E000F894DEBF0FBECDBFED010895F894FFCF70
:1039F0000004021F02040000000404150E0400006D
:103A000000040E1504040000010105091F0804004C
:103A1000000103161C080000021F1200091F080005
:103A2000000E1517110E00000C0C07080807000007
:103A300000003C04800000000200090005000900AD
:103A40000500090002000900050009000500090041
:103A50000000400014005400000000001F018C0012
:103A6000B7006601E800C600DA000000000020028E
:103A7000F0015002C401E801D401C50100000000BA
:103A8000F9038C0050024F02212121212121212103
:103A900020656570726F6D2064612044533A200088
:103AA0000D0A005F007800310032002E002B002D3F
:103AB000004972726967617A696F6E6520563132AA
:103AC00038004D6F64696669636120206F72612000
:103AD0002020004D6F646966696361202064617411
:103AE00061202000456E612F4469736120706F6D05
:103AF0007065202000456E612F44697361204E720D
:103B00002E202020200072656C6520313233004366
:103B1000616D626961206F726120706F6D70650008
:103B200043616D626961206F726120706F6D7061B9
:103B3000005573612073656E736F72652048324F54
:103B40003F0055736F2073656E736F726520483246
:103B50004F3F002053692000204E6F2000507265B7
:103B60006D6920756E20746173746F20200053742A
:103B700061727420507820202020202020200053C3
:103B8000746F7020205078202020202020202000DA
:103B900043616D626961202D3E202020202020207D
:103BA0000068686D6D73730067676D6D6161003AE1
:043BB00000300000E1
:00000001FF
