:100000000C9462000C948A000C948A000C948A0070
:100010000C948A000C948A000C948A000C948A0038
:100020000C948A000C948A000C948A000C948A0028
:100030000C948A000C948A000C948A000C948A0018
:100040000C944E0B0C948A000C94E2040C94BC04A7
:100050000C948A000C948A000C948A000C948A00F8
:100060000C9451090C948A00000000002400270021
:100070002A0000000000250028002B0000000000DE
:1000800023002600290004040404040404040202DA
:100090000202020203030303030301020408102007
:1000A0004080010204081020010204081020000012
:1000B0000008000201000003040700000000000027
:1000C0000000C60F11241FBECFEFD8E0DEBFCDBFAA
:1000D00012E0A0E0B1E0E6E8F9E202C005900D927E
:1000E000AC38B107D9F724E0ACE8B2E001C01D920A
:1000F000AE30B207E1F710E0C2E6D0E004C02197CD
:10010000FE010E943C10C136D107C9F70E94980B2E
:100110000C94C1140C940000CF92DF92EF92FF92E6
:100120000F931F93CF93DF936C017A018B01C0E093
:10013000D0E0CE15DF0589F0D8016D918D01D60193
:10014000ED91FC910190F081E02DC6010995892B7C
:1001500011F47E0102C02196ECCFC701DF91CF914F
:100160001F910F91FF90EF90DF90CF900895089529
:1001700080E090E00895FC01538D448D252F30E000
:10018000842F90E0821B930B541710F0CF960895A4
:1001900001970895FC01918D828D981761F0828DF1
:1001A000DF01A80FB11D5D968C91928D9F5F9F73AB
:1001B000928F90E008958FEF9FEF0895FC01918D4D
:1001C000828D981731F0828DE80FF11D858D90E0BA
:1001D00008958FEF9FEF0895FC01918D228D892F57
:1001E00090E0805C9F4F821B91098F73992708953F
:1001F00081E193E00E94EC0021E0892B09F420E0EA
:10020000822F0895FC01848DDF01A80FB11DA35A30
:10021000BF4F2C91848D90E001968F739927848F26
:10022000A689B7892C93A089B1898C9180648C931D
:10023000938D848D981306C00288F389E02D808108
:100240008F7D80830895EF92FF920F931F93CF933A
:10025000DF93EC0181E0888F9B8D8C8D981305C016
:10026000E889F989808185FD24C0F62E0B8D10E088
:100270000F5F1F4F0F731127E02E8C8DE8120CC0FB
:100280000FB607FCFACFE889F989808185FFF5CFA1
:10029000CE010E940201F1CF8B8DFE01E80FF11D0E
:1002A000E35AFF4FF0820B8FEA89FB8980818062DD
:1002B00007C0EE89FF896083E889F98980818064BD
:1002C000808381E090E0DF91CF911F910F91FF90AB
:1002D000EF900895CF93DF93EC01888D8823C9F0C8
:1002E000EA89FB89808185FD05C0A889B9898C913F
:1002F00086FD0FC00FB607FCF5CF808185FFF2CFDA
:10030000A889B9898C9185FFEDCFCE010E940201A9
:10031000E7CFDF91CF91089580E090E0892B29F01D
:100320000E94F80081110C9400000895CF93DF9390
:10033000EC0188819981009711F00E947F11198248
:1003400018821D821C821B821A82DF91CF91089530
:100350000E94E1120F931F93CF93DF93EC018881EA
:100360009981009729F02A813B812617370788F465
:100370008B016F5F7F4F0E941712009761F0998386
:1003800088831B830A832C813D81232B11F4FC017C
:10039000108281E001C080E0DF91CF911F910F9129
:1003A0000895EF92FF920F931F93CF93DF93FC0179
:1003B000248135816115710511F480E019C0411562
:1003C0005105A9F07B01EC018A01020F131FB8014E
:1003D0000E94AA01882389F3288139818C819D811B
:1003E000B701820F931F0E94EF121D830C8381E0DF
:1003F000DF91CF911F910F91FF90EF900895EF92B1
:10040000FF920F931F93CF93DF93EC017B018A013F
:10041000BA010E94AA01811104C0CE010E94960176
:1004200007C01D830C83B701888199810E94EF1258
:10043000CE01DF91CF911F910F91FF90EF90089522
:10044000CF93DF93EC01FB018617970761F0608182
:1004500071816115710529F0448155810E94FF0168
:1004600002C00E949601CE01DF91CF910895EF92D4
:10047000FF921F93CF93DF9388E00E947F0A892B1E
:1004800019F418E0D1E002C010E0D0E0C0E089E04B
:100490000E947F0A892B39F4EE24E394F12C19E0B1
:1004A000D2E0C0E002C0ED2EFC2E8AE00E947F0A5E
:1004B000892B31F4EE24E394F12C1AE0D4E0C0E06F
:1004C0008BE00E947F0A892B21F0EA94EF2881F4C7
:1004D00003C01BE0D8E0C0E0812F0E947F0A019793
:1004E00039F064E670E080E090E00E94140BF4CFF5
:1004F0008D2F9C2FDF91CF911F91FF90EF9008954A
:10050000DC01ED91FC910190F081E02D0994CF92F6
:10051000DF92FF920F931F93CF93DF931F92CDB77C
:10052000DEB78C01F62EFC0101900020E9F79F0157
:10053000281B390B2250310930938F0220938E02F1
:1005400010928D0210928C02C0908C02D0908D027D
:1005500080918E0290918F028C159D05CCF0642FB6
:100560008C2D8F0D49830E941707F601E00FF11FB4
:1005700060818EEA93E00E94800280918C029091CB
:100580008D02019690938D0280938C024981DCCF7D
:100590000F90DF91CF911F910F91FF90DF90CF903F
:1005A00008956115710579F0FB0101900020E9F7CC
:1005B0003197AF01461B570BDC01ED91FC91028096
:1005C000F381E02D099480E090E008954F925F92CE
:1005D0006F927F92EF92FF920F931F93CF93DF93CF
:1005E000CDB7DEB7A1970FB6F894DEBF0FBECDBF73
:1005F0007C01FA01CB0119A2223008F42AE08E0115
:100600000F5D1F4F422E512C612C712CBF01A30195
:1006100092010E941A10F901CA01015011096A30B1
:1006200014F4605D01C0695CD8016C93232B242B0A
:10063000252B61F7B801C7010E94D102A1960FB620
:10064000F894DEBF0FBECDBFDF91CF911F910F9108
:10065000FF90EF907F906F905F904F9008956F9212
:100660007F928F929F92AF92BF92CF92DF92EF9242
:10067000FF920F931F93CF93DF93CDB7DEB72797EA
:100680000FB6F894DEBF0FBECDBF5C01CE01019660
:100690006C0101967C018E010D5F1F4F9E012C5F46
:1006A0003F4FAE014B5F5F4FBE016A5F7F4F0596C4
:1006B0000E94BF050E94FA0761E080E00E941707D0
:1006C00067E08EEA93E00E94800261E082E00E948F
:1006D000170765E08EEA93E00E94800261E084E003
:1006E0000E94170766E08EEA93E00E94800261E0B4
:1006F00086E00E94170764E08EEA93E00E94800281
:1007000040E050E060E070E087E091E00E94870206
:10071000AA94AB2829F01092910210929002B7C0CF
:1007200041E050E06AE070E080E091E00E948702E2
:100730008D81C82ED12C8A3018F4A12CB12C0AC07E
:100740006AE00E940E10A82EB12C9AE0899FC01872
:10075000D10811248E81E82EF12C8A3018F4812CD6
:10076000912C0AC06AE00E940E10882E912C9AE00B
:10077000899FE018F10811248F81082F10E08A303A
:1007800018F4612C712C0AC06AE00E940E10682EC9
:10079000712C9AE0899F00191109112460E08AE008
:1007A0000E941707C5010E94A706C6010E94A7065E
:1007B000C4010E94A706C7010E94A706C3010E94A8
:1007C000A706C8010E94A7068091B403982F9160E4
:1007D0009093B40389600E94060760E08AE00E945B
:1007E00017076BEE71E081E193E00E94D10280E097
:1007F00090E00E946E06109291021092900200E02A
:1008000010E08091900290919102892BE1F50E9475
:100810003702909391028093900263EF71E081E13F
:1008200093E00E94D10280919002909191020E94E7
:100830006E066AEF70E080E090E00E94140B8091F9
:1008400090029091910282309105A9F04CF40197A9
:10085000A9F48EE192E00E945B0603E610E0D1CF9E
:100860008430910529F0089749F480E092E008C0AF
:100870008AE092E005C084E192E002C088E292E062
:100880000E945B06BECF012B09F4ABCF44CF809111
:10089000900290919102892B39F40E943702909333
:1008A000910280939002F3CF68EB7BE080E090E0D0
:1008B0000E94140B8091B4038E7F8093B4038860F0
:1008C0000E94060727960FB6F894DEBF0FBECDBF75
:1008D000DF91CF911F910F91FF90EF90DF90CF901C
:1008E000BF90AF909F908F907F906F900895CF931F
:1008F000DF93CDB7DEB761970FB6F894DEBF0FBEBA
:10090000CDBF0E94FA0781E1EAE3F2E0DE01119631
:1009100001900D928A95E1F740E050E060E070E0D0
:10092000CE0101960E94870261E087E00E941707CE
:1009300061E08EEA93E00E94800261E08AE00E941A
:10094000170761EF71E08EEA93E00E94D10261E047
:100950008DE00E94170761EF71E08EEA93E00E943C
:10096000D1020E94430761960FB6F894DEBF0FBE16
:10097000CDBFDF91CF9108951F920F920FB60F92C6
:1009800011242F933F934F935F936F937F938F9394
:100990009F93AF93BF93EF93FF9381E193E00E9406
:1009A0000201FF91EF91BF91AF919F918F917F9144
:1009B0006F915F914F913F912F910F900FBE0F90CC
:1009C0001F9018951F920F920FB60F9211242F931C
:1009D0008F939F93EF93FF93E0912103F091220374
:1009E0008081E0912703F091280382FD12C090815D
:1009F00080912A038F5F8F7320912B03821751F010
:100A0000E0912A03F0E0EF5EFC4F958F80932A037C
:100A100001C08081FF91EF919F918F912F910F9055
:100A20000FBE0F901F901895682F85E093E00C94EF
:100A3000BD082091040390910303213208F04AC0BD
:100A40008091E0028111FCCF32E03093E00231E08E
:100A50003093DF023FEF3093DE021092DD022093ED
:100A6000DC02A3EEB2E04CEB52E0FA013E2F341B65
:100A7000321718F43D913193F9CF1092BB022091B7
:100A8000BB02990F922B9093BB029091BA029130C6
:100A900061F41092BA029091BB029093BB009091C6
:100AA000BC0093FDF8CF95EC01C095EE9093BC008F
:100AB0009091E0029230E1F39091DE029F3F79F055
:100AC0008091DE02803241F08091DE02803331F08D
:100AD00084E005C081E003C082E001C083E01092A1
:100AE000E202109204031092E10208959091E00254
:100AF0009111FCCF813208F080E291E09093E00206
:100B00009093DF022FEF2093DE021092DD02280F78
:100B10002093DC029093BB029091BB02906D909366
:100B2000BB029091BA02913061F41092BA02909196
:100B3000BB029093BB009091BC0093FDF8CF95EC65
:100B400001C095EE9093BC009091E0029130E1F3EA
:100B50009091DD02981710F48091DD02ACEBB2E0C9
:100B60002AE932E0F9019E2F921B981718F49D9103
:100B70009193F9CF109299028093980208956F9201
:100B80007F928F929F92AF92BF92CF92DF92EF921D
:100B9000FF920F931F93CF93DF934C015B01EA0108
:100BA000390181E08093E10288E68093030310928B
:100BB000E2021092040380E090E00E9414050E947B
:100BC000190587E090E00E94760585E093E00E9499
:100BD0007108982F9695969596959E70292F220FBD
:100BE000220F920F8F70890FF401808385E093E0CC
:100BF0000E947108982F92959F708F70FAE09F9FC6
:100C0000800D1124F501808385E093E00E94710836
:100C1000982F9695969596959670292F220F220FCC
:100C2000920F8F70890F888385E093E00E9471088E
:100C3000982F92959F708F70FAE09F9F800D1124DE
:100C4000F301808385E093E00E947108982F9295CC
:100C50009F708F70FAE09F9F800D1124F8018083B0
:100C600085E093E00E947108982F92959F708F7095
:100C7000FAE09F9F800D1124F701808385E093E0C7
:100C80000E947108982F92959F708F70FAE09F9F35
:100C9000800D1124F6018083DF91CF911F910F9178
:100CA000FF90EF90DF90CF90BF90AF909F908F908C
:100CB0007F906F900895CF93DF93BC0181E193E023
:100CC0000E94D102EC0167E872E081E193E00E94AA
:100CD000D1028C0F9D1FDF91CF910895CF92DF92AB
:100CE000EF92FF92CF93DF936C01990FEE08FF080C
:100CF000F7FE16C06DE281E193E00E948002EC01F4
:100D000044275527BA014C195D096E097F092AE06D
:100D100081E193E00E94E6027C01EC0EFD1E08C01A
:100D20002AE0B701A60181E193E00E94E6027C017E
:100D300067E872E081E193E00E94D1028E0D9F1D71
:100D4000DF91CF91FF90EF90DF90CF900895CF92F9
:100D5000DF92EF92FF92CF93DF936C01990FEE0831
:100D6000FF08F7FE1BC06DE28EEA93E00E9480024E
:100D7000EC0144275527BA014C195D096E097F091A
:100D80002AE08EEA93E00E94E6028C0F9D1FDF911D
:100D9000CF91FF90EF90DF90CF9008952AE0B701B8
:100DA000A6018EEA93E0DF91CF91FF90EF90DF9064
:100DB000CF900C94E602FC01848191E09093E102D3
:100DC000809303031092E202109204038385862B22
:100DD00090E00E9414050C9419050F931F93CF9374
:100DE0008C01C62F0E94DB066C2F6460C8010E9434
:100DF000DB066C2F6B7FC8010E94DB0683EC90E062
:100E00000197F1F7CF911F910F910895CF93C82FBC
:100E1000682F607F8EEA93E00E94ED0680E1C89F14
:100E2000B00111248EEA93E0CF910C94ED06CF939C
:100E3000DF93CDB7DEB728970FB6F894DEBF0FBEAD
:100E4000CDBF98E0E3EBF1E0DE01119601900D9249
:100E50009A95E1F79091B603961710F46FEF690F2A
:100E6000FE013196E60FF11DE60FF11D9081890F0D
:100E7000806828960FB6F894DEBF0FBECDBFDF9115
:100E8000CF910C940607CF92DF92EF92FF920F93CF
:100E90001F93CF93DF93CDB7DEB727970FB6F894A4
:100EA000DEBF0FBECDBFCE0101966C0101967C0165
:100EB0008E010D5F1F4F9E012C5F3F4FAE014B5FB8
:100EC0005F4FBE016A5F7F4F05960E94BF0561E0DC
:100ED00088E00E9417078D818A3080F46AE872E00A
:100EE0008EEA93E00E94D1024D8150E060E070E014
:100EF0002AE08EEA93E00E94E60215C01AE0612F14
:100F00000E940E1090E00E94A7062D81822F612F73
:100F10000E940E10382F46EF4303C0011124820FA8
:100F2000911D0E94A70661E08BE00E9417078E8149
:100F30008A3080F46AE872E08EEA93E00E94D1027F
:100F40004E8150E060E070E02AE08EEA93E00E947B
:100F5000E60215C01AE0612F0E940E1090E00E9478
:100F6000A7062E81822F612F0E940E10382F46EF88
:100F70004303C0011124820F911D0E94A70661E066
:100F80008EE00E9417078F818A3080F46AE872E051
:100F90008EEA93E00E94D1024F8150E060E070E061
:100FA0002AE08EEA93E00E94E60215C01AE0612F63
:100FB0000E940E1090E00E94A7062F81822F612FC1
:100FC0000E940E10382F46EF4303C0011124820FF8
:100FD000911D0E94A70627960FB6F894DEBF0FBE9C
:100FE000CDBFDF91CF911F910F91FF90EF90DF90D8
:100FF000CF90089581E00E9406078BE39FE101975F
:10100000F1F70895EF92FF920F931F93CF93DF9321
:1010100000D0CDB7DEB7877028E0829FC0011124D1
:10102000806469837A830E9406076981E62E7A814B
:10103000F72E8701085F1F4FF70161917F018EEA4C
:1010400093E00E943A09E016F106B1F70F900F9075
:10105000DF91CF911F910F91FF90EF90089585ED53
:101060008093BC008091BC0084FDFCCF1092E00214
:1010700008954091E503262F30E0240F311D2132E1
:101080003105DCF42091E0022430C9F4FC0180E059
:1010900090E0861758F43091E5032191DC01AD53BF
:1010A000BC4FA30FB11D2C930196F3CF8091E503A4
:1010B000680F6093E50380E0089581E0089582E081
:1010C00008950895E091990280919802E81730F40C
:1010D000F0E0E656FD4F808190E008958FEF9FEF9E
:1010E00008959091990280919802981750F4E92FF1
:1010F000F0E0E656FD4F208130E09F5F909399022B
:1011000002C02FEF3FEFC90108958091980290E04F
:1011100020919902821B91090895CF92DF92EF925C
:10112000FF920F931F93CF93DF937C01262F972F6E
:101130008A018091E102882391F0C62FD72F6E019A
:10114000C40ED51ECC15DD0571F06991D701ED9166
:10115000FC910190F081E02DC7010995F3CF642F38
:10116000822F0E943908C801DF91CF911F910F9102
:10117000FF90EF90DF90CF900895CF93DF931F9271
:10118000CDB7DEB769832091E1022223D1F020910F
:101190000403203240F021E030E0FC01338322835D
:1011A00080E090E015C08091E202E82FF0E0ED5180
:1011B000FD4F998190838F5F8093E20280930403B7
:1011C00005C061E0CE0101960E94390881E090E0FF
:1011D0000F90DF91CF910895833081F028F4813012
:1011E00099F08230A1F008958730A9F08830B9F0E5
:1011F0008430D1F4809180008F7D03C08091800085
:101200008F7780938000089584B58F7702C084B56E
:101210008F7D84BD08958091B0008F7703C0809149
:10122000B0008F7D8093B00008953FB7F89480910F
:10123000BF039091C003A091C103B091C20326B532
:10124000A89B05C02F3F19F00196A11DB11D3FBFFE
:10125000BA2FA92F982F8827820F911DA11DB11D8C
:10126000BC01CD0142E0660F771F881F991F4A9588
:10127000D1F708950F931F93CF938C01C62F607FF2
:1012800061600E94ED0680E1C89FB0011124616099
:10129000C8010E94ED0680E090E0CF911F910F9170
:1012A00008951F920F920FB60F9211242F933F9320
:1012B0004F935F936F937F938F939F93AF93BF935E
:1012C000EF93FF938091B900887F803609F49CC02A
:1012D00068F5883209F45BC090F4803109F454C099
:1012E00038F4882309F4F6C0883009F44DC0F6C0FC
:1012F000883109F44CC0803209F45DC0EFC08034FD
:1013000009F468C048F4803309F455C0883309F003
:10131000E5C08093DE02D8C0803509F44FC088351F
:1013200009F45DC0883409F0D9C0D6C0883909F401
:10133000C7C0A8F4883709F467C038F4883609F4C0
:1013400063C0803709F460C0C9C0883809F4B8C0E8
:10135000803909F45FC0803809F0C0C05BC0803BB1
:1013600009F486C038F4803A09F466C0883A09F472
:101370007FC0B4C0803C09F4A7C0883C09F4A4C075
:10138000883B09F48AC0AAC08091BB0210C090912A
:10139000DD028091DC02981770F5E091DD0281E0BA
:1013A0008E0F8093DD02F0E0E454FD4F8081809346
:1013B000BB0085EC86C08093DE028EC0E091DD022A
:1013C00081E08E0F8093DD028091BB00F0E0E45459
:1013D000FD4F80839091DD028091DC026EC0E09130
:1013E000DD0281E08E0F8093DD028091BB00F0E092
:1013F000E454FD4F80838091DF0281116DC081E054
:101400008093BA0284EA61C083E08093E002109284
:101410000904CFCF80910904803208F051C0E091D7
:10142000090481E08E0F809309048091BB00F0E0F5
:10143000E751FC4F8083BDCF85EC8093BC001092B8
:10144000E00280910904803230F4E0910904F0E078
:10145000E751FC4F10826091090470E0E091E703CE
:10146000F091E80389EE93E009951092090436C0E3
:1014700084E08093E0021092E6031092E503E0918D
:10148000E303F091E40309958091E503811105C020
:1014900081E08093E5031092C303E091E60381E0CD
:1014A0008E0F8093E603F0E0ED53FC4F8081809334
:1014B000BB009091E6038091E503981708F479CF7B
:1014C00085E88093BC000AC085EC8093BC00109234
:1014D000E00204C01092DE020E942F08FF91EF91FB
:1014E000BF91AF919F918F917F916F915F914F913C
:1014F0003F912F910F900FBE0F901F901895CF9393
:10150000DF93282F30E0F901E255FF4F8491F90174
:10151000E656FF4FD491F901EA57FF4FC491CC230F
:1015200091F081110E94EC08EC2FF0E0EE0FFF1F0C
:10153000E458FF4FA591B491EC91ED2381E090E048
:1015400021F480E002C080E090E0DF91CF91089527
:101550001F93CF93DF93282F30E0F901E255FF4F1F
:101560008491F901E656FF4FD491F901EA57FF4FF4
:10157000C491CC23C9F0162F81110E94EC08EC2FE6
:10158000F0E0EE0FFF1FEE58FF4FA591B4918FB71B
:10159000F894111105C09C91ED2FE095E92302C04C
:1015A000EC91ED2BEC938FBFDF91CF911F910895BC
:1015B000CF93DF9390E0FC01E656FF4F2491FC01AE
:1015C000EA57FF4F8491882361F190E0880F991FBB
:1015D000FC01E859FF4FC591D491FC01EE58FF4F33
:1015E000A591B491611109C09FB7F89488812095A5
:1015F00082238883EC912E230BC0623061F49FB765
:10160000F8943881822F809583238883EC912E2B48
:101610002C939FBF06C08FB7F894E8812E2B2883A8
:101620008FBFDF91CF9108958F929F92AF92BF921B
:10163000CF92DF92EF92FF926B017C010E9415091D
:101640004B015C01C114D104E104F104F1F00E94EA
:101650001509DC01CB0188199909AA09BB09883E43
:101660009340A105B10570F321E0C21AD108E10849
:10167000F10888EE880E83E0981EA11CB11CC114ED
:10168000D104E104F10419F7DDCFFF90EF90DF9072
:10169000CF90BF90AF909F908F9008951F920F9220
:1016A0000FB60F9211242F933F938F939F93AF9375
:1016B000BF938091BB039091BC03A091BD03B091F7
:1016C000BE033091BA0323E0230F2D3720F4019697
:1016D000A11DB11D05C026E8230F0296A11DB11D55
:1016E0002093BA038093BB039093BC03A093BD03E4
:1016F000B093BE038091BF039091C003A091C1033A
:10170000B091C2030196A11DB11D8093BF039093B8
:10171000C003A093C103B093C203BF91AF919F9147
:101720008F913F912F910F900FBE0F901F901895A2
:10173000CF93DF93CDB7DEB7E4970FB6F894DEBF53
:101740000FBECDBF789484B5826084BD84B58160BE
:1017500084BD85B5826085BD85B5816085BD80917C
:101760006E00816080936E001092810080918100F4
:1017700082608093810080918100816080938100EC
:10178000809180008160809380008091B1008460AE
:101790008093B1008091B00081608093B00080910F
:1017A0007A00846080937A0080917A0082608093CE
:1017B0007A0080917A00816080937A0080917A002B
:1017C000806880937A001092C100E0912103F0912B
:1017D000220382E08083E0911D03F0911E031082BA
:1017E000E0911F03F09120038FEC80831092290376
:1017F000E0912503F091260386E08083E0912303A6
:10180000F0912403808180618083E0912303F09133
:101810002403808188608083E0912303F091240376
:10182000808180688083E0912303F091240380818C
:101830008F7D808310929902109298021092E2029A
:10184000109204031092E00281E08093DF02109274
:10185000BA0261E082E10E94A80A61E083E10E948D
:10186000A80A8091B9008E7F8093B9008091B90059
:101870008D7F8093B90088E48093B80085E48093DD
:10188000BC001092B3038091B803823018F098E046
:101890009093B3038093B60362E370E080E090E03E
:1018A0000E94140B6091B9038EEA93E00E94DB065C
:1018B00068EE73E080E090E00E94140B60E38EEA33
:1018C00093E00E94ED060BE416E4C8010197F1F7DE
:1018D00060E38EEA93E00E94ED06C8010197F1F7FC
:1018E00060E38EEA93E00E94ED0683E592E00197C3
:1018F000F1F760E28EEA93E00E94ED068091B30377
:1019000080620E94060784E08093B4038CE00E940A
:1019100006070E94FA0782E08093B50386E00E94E2
:10192000060782E00E9406078BE39FE10197F1F72B
:1019300060E088E00E94D80A60E089E00E94D80A4E
:1019400060E08AE00E94D80A60E08BE00E94D80A3A
:1019500061E08CE00E94D80A61E671E080E00E94BC
:10196000020869E571E081E00E94020861E571E02A
:1019700082E00E94020869E471E083E00E940208AC
:1019800061E471E084E00E94020869E371E085E0AF
:101990000E94020861E371E086E00E94020869E2A9
:1019A00071E087E00E94020801E00093E10218E67E
:1019B000109303031092E2021092040387E090E078
:1019C0000E94140580E890E00E94140580E890E0F1
:1019D0000E94140580E890E00E94140580E890E0E1
:1019E0000E94140580E090E00E94140580E090E0E1
:1019F0000E94140580E090E00E9414050E941905E1
:101A00000093E102109303031092E2021092040388
:101A10008EE090E00E94140581E090E00E9476053F
:101A20009091980280919902981771F085E093E067
:101A30000E94710821E0892B09F420E0822F90E0B8
:101A400005960E941405ECCF0E94190540E050E075
:101A500060E070E088E191E00E94870268EE73E048
:101A600080E090E00E94140B0E94770448E6742EF8
:101A70008E010F5F1F4F0E943702892B09F49AC015
:101A80000E94FA0761E080E00E94170767E08EEA93
:101A900093E00E94800261E086E00E94170764E004
:101AA0008EEA93E00E94800240E050E060E070E047
:101AB0008CE991E00E9487021092910210929002AC
:101AC0008091900290919102009739F40E94370220
:101AD0009093910280939002F3CF019741F48BE4AD
:101AE00092E00E945B0681E090E00E942F0340E0BC
:101AF00050E060E070E08BE891E00E948702109275
:101B00009102109290028091900290919102009720
:101B100039F40E9437029093910280939002F3CFA0
:101B2000019741F489E592E00E945B0682E090E033
:101B30000E942F0340E050E060E070E08AE791E00F
:101B40000E9487021092910210929002809190025E
:101B500090919102009739F40E943702909391027C
:101B600080939002F3CF019721F487E692E00E94E0
:101B70005B0640E050E060E070E089E691E00E94A2
:101B8000870210929102109290028091900290919F
:101B90009102009739F40E9437029093910280934A
:101BA0009002F3CF019721F485E792E00E945B0653
:101BB0000E9477040E9443076AEF70E080E090E0A3
:101BC0000E94140B81E08093E10270920303109253
:101BD000E202109204038FE090E00E94140581E07D
:101BE00090E00E947605E12CF12C90919802809172
:101BF0009902981751F085E093E00E947108892BB3
:101C0000A1F3EE24E394F12CF0CF0E941905F09299
:101C10009702E0929602EA94EF2809F0B0C161E0E1
:101C20008CE00E94A80A109297021092960281E01E
:101C30008093E102709203031092E2021092040377
:101C40008FE090E00E94140581E090E00E9476050C
:101C50009091980280919902981771F085E093E035
:101C60000E94710821E030E0811102C020E030E0E4
:101C7000C9010E941405ECCF0E94190568EC70E0C0
:101C800080E090E00E94140B60E08CE00E94A80AC3
:101C900081E08093E102709203031092E2021092BD
:101CA000040381E190E00E9414050E94190582E07E
:101CB00090E00E94760585E093E00E947108F82E7E
:101CC00085E093E00E94710826E0959587952A9516
:101CD000E1F7682F70E080E090E00E946D1320E053
:101CE00030E040E85EE30E94CC134B015C016F2DB5
:101CF000FF0C770B880B990B0E946D139B01AC01B5
:101D0000C501B4010E944310609392027093930244
:101D1000809394029093950261E080E00E941707FF
:101D200060E08EEA93E00E948002809092029090A0
:101D30009302A0909402B0909502CDB6DEB618AA98
:101D40001FA61AAA19AA1CAA1BAA40E050E069E81B
:101D500072E0CE018F960E94FF01C501B4010E947E
:101D6000AF101B012C01072E000C880B990B0E9451
:101D70006D139B01AC01C501B4010E94421020E02B
:101D800030E04AE754E40E94CC130E94AF101616CC
:101D900017061806190684F061157105810591056D
:101DA00041F090958095709561957F4F8F4F9F4F33
:101DB00003C060E070E0CB011CA21BA21EA21DA20A
:101DC00018A61FA22AE0A8010E941013F801019092
:101DD0000020E9F73197AF01401B510BB801CE014C
:101DE00083960E94FF011AA619A61CA61BA61EA672
:101DF0001DA64AE0B801C1010E940513F801019037
:101E00000020E9F73197AF01401B510BB801CE011B
:101E100089960E94FF011A8219821C821B821E82EF
:101E20001D82BE01675D7F4FC8010E942002ED80C8
:101E3000FE803FEFE31AF30AB701C8010E94AA012E
:101E4000882309F49FC029813A818D819E8163E8AE
:101E500072E0820F931F0E94EF12FE82ED824FA16B
:101E600058A56BA17CA1C8010E94D101811103C0BA
:101E7000C8010E949601B801CE018F960E942002EF
:101E800089819A810E947F1189A59AA50E947F115C
:101E90008BA19CA10E947F118BA99CA90196EDB7F3
:101EA000FEB7E81BF90B0FB6F894FEBF0FBEEDBFEF
:101EB0002DB73EB72F5F3F4F790120E030E0A901F9
:101EC000C501B4010E94E51087FD22C01A82198263
:101ED0001C821B821E821D8241E050E065E872E098
:101EE000C8010E94FF014BA95CA96FA578A9C80190
:101EF0000E94D101811103C0C8010E949601B8015E
:101F0000CE018F960E94200289819A810E947F11C2
:101F10008BA99CA981309105C9F0E114F104B1F0BD
:101F2000009711F4F70111C05C01F2E0AF1AB1089B
:101F30008A159B0508F45C016FA578A9A501C70166
:101F40000E94F612F701EA0DFB1D108241E050E0FD
:101F500061E070E0C7010E9487028FA598A90E94E6
:101F60007F110FB6F894DEBE0FBECDBE61E087E0F4
:101F70000E94170761E08EEA93E00E9480020E94AF
:101F80008C0179CDC8010E94960169CFE5E0F3E0AC
:101F90001382128288EE93E0A0E0B0E08483958300
:101FA000A683B7832FEB31E031832083E1E1F3E0B7
:101FB0001382128284839583A683B78381ED91E097
:101FC0009183808385EC90E09587848784EC90E012
:101FD0009787868780EC90E0918B808B81EC90E0F6
:101FE000938B828B82EC90E0958B848B86EC90E0D7
:101FF000978B868B118E128E138E148EEEEAF3E081
:102000001382128283EE91E09183808383E2848342
:1020100080E1818782E0828713860895991B79E0A9
:1020200004C0991F961708F0961B881F7A95C9F768
:1020300080950895A1E21A2EAA1BBB1BFD010DC0BD
:10204000AA1FBB1FEE1FFF1FA217B307E407F50768
:1020500020F0A21BB30BE40BF50B661F771F881F44
:10206000991F1A9469F760957095809590959B01DA
:10207000AC01BD01CF010895EE0FFF1F0590F49153
:10208000E02D09945058BB27AA270E945A100C949F
:1020900050140E94421438F00E94491420F039F480
:1020A0009F3F19F426F40C943F140EF4E095E7FBDF
:1020B0000C943914E92F0E94611458F3BA1762077F
:1020C00073078407950720F079F4A6F50C94831420
:1020D0000EF4E0950B2EBA2FA02D0B01B901900143
:1020E0000C01CA01A0011124FF27591B99F0593F87
:1020F00050F4503E68F11A16F040A22F232F342FCF
:102100004427585FF3CF469537952795A795F0401C
:102110005395C9F77EF41F16BA0B620B730B840B31
:10212000BAF09150A1F0FF0FBB1F661F771F881FE9
:10213000C2F70EC0BA0F621F731F841F48F4879541
:1021400077956795B795F7959E3F08F0B0CF939533
:10215000880F08F09927EE0F9795879508950E94AC
:10216000B6106894B1110C94841408950E946914F7
:1021700088F09F5798F0B92F9927B751B0F0E1F048
:10218000660F771F881F991F1AF0BA95C9F714C0F8
:10219000B13091F00E948314B1E008950C9483143F
:1021A000672F782F8827B85F39F0B93FCCF3869531
:1021B00077956795B395D9F73EF49095809570958E
:1021C00061957F4F8F4F9F4F08950E94A81308F489
:1021D0008FEF0895CF93DF938230910510F482E062
:1021E00090E0E0910C04F0910D0420E030E0C0E0BC
:1021F000D0E0309711F14081518148175907C0F064
:102200004817590761F482819381209719F09B83C5
:102210008A832BC090930D0480930C0426C0211553
:10222000310519F04217530718F49A01BE01DF0176
:10223000EF010280F381E02DDCCF2115310509F19A
:10224000281B390B2430310590F412968D919C9106
:1022500013976115710521F0FB019383828304C0FC
:1022600090930D0480930C04FD01329644C0FD014F
:10227000E20FF31F81939193225031092D933C93E8
:102280003AC020910A0430910B04232B41F4209191
:10229000AF013091B00130930B0420930A042091D8
:1022A000AD013091AE012115310541F42DB73EB796
:1022B0004091B1015091B201241B350BE0910A0409
:1022C000F0910B04E217F307A0F42E1B3F0B281725
:1022D000390778F0AC014E5F5F4F2417350748F09F
:1022E0004E0F5F1F50930B0440930A048193919308
:1022F00002C0E0E0F0E0CF01DF91CF9108950F93AD
:102300001F93CF93DF93009709F48CC0FC013297A1
:102310001382128200910C0410910D040115110515
:1023200081F420813181820F931F20910A04309122
:102330000B042817390779F5F0930B04E0930A048E
:1023400071C0D80140E050E0AE17BF0750F41296BC
:102350002D913C911397AD012115310509F1D9015A
:10236000F3CF9D01DA013383228360817181860F6F
:10237000971F8217930769F4EC0128813981260F92
:10238000371F2E5F3F4F318320838A819B81938348
:102390008283452B29F4F0930D04E0930C0442C092
:1023A0001396FC93EE931297ED01499159919E017A
:1023B000240F351FE217F30771F480819181840F98
:1023C000951F029611969C938E938281938113960A
:1023D0009C938E931297E0E0F0E0D80112968D91D5
:1023E0009C911397009719F0F8018C01F6CF8D910D
:1023F0009C9198012E5F3F4F820F931F20910A04FA
:1024000030910B042817390769F4309729F410929A
:102410000D0410920C0402C01382128210930B045C
:1024200000930A04DF91CF911F910F910895A0E0CE
:10243000B0E0EDE1F2E10C948E14EC01009721F490
:10244000CB010E94EA10B8C0FC01E60FF71F9C0107
:1024500022503109E217F30708F4ACC0D9010D91FD
:102460001C91119706171707B0F00530110508F4F5
:102470009FC0C80104978617970708F499C00250B7
:102480001109061B170B019311936D937C93CF01D8
:102490000E947F118DC05B01A01AB10A4C01800E11
:1024A000911EA0910C04B0910D0440E050E0E12C8D
:1024B000F12C109709F44AC0A815B905D1F56D9013
:1024C0007C901197630182E0C80ED11CCA14DB0412
:1024D00080F1A3014A195B096A0182E0C80ED11C90
:1024E0001296BC9012971396AC91B5E0CB16D1041E
:1024F00040F0B282A38351834083D9016D937C93D2
:102500000AC00E5F1F4FC301800F911FF901918315
:102510008083EB2DFA2FE114F10431F0D7011396EB
:10252000FC93EE93129744C0F0930D04E0930C04D7
:102530003FC08D919C9111974817590708F4AC0141
:102540007D0112960D90BC91A02DB3CF80910A040D
:1025500090910B0488159905E1F446175707C8F4C4
:102560008091AD019091AE01009741F48DB79EB777
:102570004091B1015091B201841B950BE817F90706
:10258000C8F4F0930B04E0930A04F90171836083AB
:102590000FC0CB010E94EA107C01009759F0A801FE
:1025A000BE010E94E612CE010E947F11C70104C045
:1025B000CE0102C080E090E0CDB7DEB7EEE00C9433
:1025C000AA1481E090E0F8940C94C114FB01DC01A2
:1025D00002C001900D9241505040D8F70895FB0180
:1025E000DC0101900D920020E1F70895FB01DC0170
:1025F0004150504048F001900D920020C9F701C0B1
:102600001D9241505040E0F70895BB274A3031F405
:10261000992322F4BDE2909581959F4F0C9442132B
:10262000BB272A3051F4992342F4BDE2909580955E
:10263000709561957F4F8F4F9F4F0C942013BB2750
:10264000FA01A62F6217710581059105330B30FB46
:1026500066F0AA27660F771F881F991FAA1FA21767
:1026600010F0A21B63953850A9F7A05DAA3308F0BB
:10267000A95DA19336F7B111B1931082CA010C94F0
:102680005B13BB27FB015527AA27880F991FAA1F99
:10269000A41710F0A41B83955051B9F7A05DAA337D
:1026A00008F0A95DA193009779F7B111B193119248
:1026B000CB010C945B13DC01FC01672F7191772334
:1026C000E1F7329704C07C916D9370836291AE17ED
:1026D000BF07C8F30895E89409C097FB3EF49095AE
:1026E0008095709561957F4F8F4F9F4F9923A9F0EB
:1026F000F92F96E9BB279395F6958795779567957A
:10270000B795F111F8CFFAF4BB0F11F460FF1BC0BD
:102710006F5F7F4F8F4F9F4F16C0882311F096E950
:1027200011C0772321F09EE8872F762F05C06623FE
:1027300071F096E8862F70E060E02AF09A95660FB7
:10274000771F881FDAF7880F9695879597F9089570
:10275000990F0008550FAA0BE0E8FEEF16161706B2
:10276000E807F907C0F012161306E407F50798F01A
:10277000621B730B840B950B39F40A2661F0232B33
:10278000242B252B21F408950A2609F4A140A695AF
:102790008FEF811D811D08950E94DF130C9450144A
:1027A0000E94421438F00E94491420F0952311F041
:1027B0000C9439140C943F1411240C9484140E942A
:1027C000611470F3959FC1F3950F50E0551F629F00
:1027D000F001729FBB27F00DB11D639FAA27F00D7A
:1027E000B11DAA1F649F6627B00DA11D661F829FA1
:1027F0002227B00DA11D621F739FB00DA11D621F86
:10280000839FA00D611D221F749F3327A00D611DA2
:10281000231F849F600D211D822F762F6A2F112484
:102820009F5750409AF0F1F088234AF0EE0FFF1FB7
:10283000BB1F661F771F881F91505040A9F79E3F0E
:10284000510580F00C9439140C9484145F3FE4F328
:10285000983ED4F3869577956795B795F795E79564
:102860009F5FC1F7FE2B880F911D9695879597F96D
:10287000089597F99F6780E870E060E008959FEF02
:1028800080EC089500240A94161617061806090607
:10289000089500240A9412161306140605060895D6
:1028A000092E0394000C11F4882352F0BB0F40F45E
:1028B000BF2B11F460FF04C06F5F7F4F8F4F9F4F9E
:1028C000089557FD9058440F551F59F05F3F71F020
:1028D0004795880F97FB991F61F09F3F79F0879587
:1028E0000895121613061406551FF2CF4695F1DF10
:1028F00008C0161617061806991FF1CF86957105A0
:10290000610508940895E894BB2766277727CB01D3
:1029100097F908952F923F924F925F926F927F9214
:102920008F929F92AF92BF92CF92DF92EF92FF92DF
:102930000F931F93CF93DF93CDB7DEB7CA1BDB0B8B
:102940000FB6F894DEBF0FBECDBF09942A88398830
:1029500048885F846E847D848C849B84AA84B98437
:10296000C884DF80EE80FD800C811B81AA81B98143
:10297000CE0FD11D0FB6F894DEBF0FBECDBFED0157
:062980000895F894FFCF5A
:1029860068686D6D73730043616D626961202D3EE9
:1029960020202020202020004972726967617A6910
:1029A6006F6E652056313132000004021F020400AA
:1029B60000000404150E04000000040E15040400B3
:1029C60000010105091F080400000103161C080088
:1029D60000000A1F1F0E040000000E1517110E003E
:1029E600000C0C07080807000043616D626961204E
:1029F6006F726120706F6D706500456E612F44695E
:102A060073612072656C65272020004D6F646966CE
:102A16006963612020646174612020004D6F6469E0
:102A26006669636120206F72612020200000000E1D
:102A3600048000000040001400540000000000BDA7
:102A4600088D08B800610885087108620800000052
:102A56000023018C00BB006A01EC00CA00DE000006
:102A66000000003A098C00B800B70066756F7269FD
:102A7600203A004B65795F5072657373203A2000E7
:102A86007072656D75746F2038007072656D75743F
:102A96006F2034007072656D75746F20320070722D
:102AA600656D75746F2031007072656D75746F2079
:102AB6004B65795F7072657373005072656D69203E
:102AC600756E20746173746F2020007072656D7569
:102AD600746F20736B697031007072656D75746FF9
:102AE60020736B697032007072656D75746F207338
:102AF6006B697033007072656D75746F20736B69E6
:0C2B06007034002E002B000D0A0030007F
:00000001FF
