:100000000C9458000C9480000C9480000C94800098
:100010000C9480000C9480000C9480000C94800060
:100020000C9480000C9480000C9480000C94800050
:100030000C9480000C9480000C9480000C94800040
:100040000C943F040C9480000C94AF040C9489042D
:100050000C9480000C9480000C9480000C94800020
:100060000C9411030C94800000000000250028006F
:100070002B00040404040404040402020202020229
:10008000030303030303010204081020408001025C
:1000900004081020010204081020000000080002DB
:1000A0000100000304070000000000000000E1045C
:1000B00011241FBECFEFD8E0DEBFCDBF11E0A0E01E
:1000C000B1E0EAE7FDE002C005900D92AE39B1075C
:1000D000D9F722E0AEE9B1E001C01D92A43EB2071B
:1000E000E1F710E0C8E5D0E004C02197FE010E94CE
:1000F000B006C735D107C9F70E941A050C94BB0694
:100100000C94000090E0FC01E656FF4F2491FC01A6
:10011000EA57FF4F3491FC01EE58FF4FE491EE2374
:10012000B1F1222339F1233091F038F42130A9F0D4
:10013000223001F584B58F7D12C0273091F0283030
:10014000A1F02430B9F4809180008F7D03C08091AC
:1001500080008F77809380000DC084B58F7784BD39
:1001600009C08091B0008F7703C08091B0008F7D6F
:100170008093B000F0E0EE0FFF1FE859FF4FA5910C
:10018000B4918FB7F894EC913E2B3C938FBF0895B8
:1001900085ED8093BC008091BC0084FDFCCF109263
:1001A000150208954091EF01262F30E0240F311DF4
:1001B00021323105DCF4209115022430C9F4FC0110
:1001C00080E090E0861758F43091EF012191DC0136
:1001D000A353BE4FA30FB11D2C930196F3CF809173
:1001E000EF01680F6093EF0180E0089581E00895CA
:1001F00082E00895089581E090E03091CC01209153
:10020000CB01321710F480E090E09195819591092F
:1002100008958091CC019091CB01891730F48F5FC4
:100220008093CC0180E090E008958FEF9FEF0895D8
:100230008091CB0190E02091CC01821B910908951F
:10024000CF92DF92EF92FF920F931F93CF93DF93A2
:100250007C01262F972F8A018091CA01882391F073
:10026000C62FD72F6E01C40ED51ECC15DD0571F03B
:100270006991D701ED91FC910190F081E02DC701CA
:100280000995F3CF642F822F0E94D200C801DF911D
:10029000CF911F910F91FF90EF90DF90CF90089535
:1002A000CF93DF931F92CDB7DEB769832091CA0148
:1002B0002223D1F02091C901203240F021E030E02A
:1002C000FC013383228380E090E015C08091C80157
:1002D000E82FF0E0E855FE4F998190838F5F80937F
:1002E000C8018093C90105C061E0CE0101960E945A
:1002F000D20081E090E00F90DF91CF9108953FB759
:10030000F8948091A4019091A501A091A601B091CB
:10031000A70126B5A89B05C02F3F19F00196A11D86
:10032000B11D3FBFBA2FA92F982F8827820F911D8B
:10033000A11DB11DBC01CD0142E0660F771F881FD2
:10034000991F4A95D1F70895CF92DF92EF92FF92CD
:100350000F931F93CF93DF936C017A018B01C0E061
:10036000D0E0CE15DF0589F0D8016D918D01D60161
:10037000ED91FC910190F081E02DC6010995892B4A
:1003800011F47E0102C02196ECCFC701DF91CF911D
:100390001F910F91FF90EF90DF90CF9008950895F7
:1003A00080E090E00895FC01538D448D252F30E0CE
:1003B000842F90E0821B930B541710F0CF96089572
:1003C00001970895FC01918D828D981761F0828DBF
:1003D000DF01A80FB11D5D968C91928D9F5F9F7379
:1003E000928F90E008958FEF9FEF0895FC01918D1B
:1003F000828D981731F0828DE80FF11D858D90E088
:1004000008958FEF9FEF0895FC01918D228D892F24
:1004100090E0805C9F4F821B91098F73992708950C
:1004200087E492E00E94040221E0892B09F420E095
:10043000822F0895FC01848DDF01A80FB11DA35AFE
:10044000BF4F2C91848D90E001968F739927848FF4
:10045000A689B7892C93A089B1898C9180648C93EB
:10046000938D848D981306C00288F389E02D8081D6
:100470008F7D80830895EF92FF920F931F93CF9308
:10048000DF93EC0181E0888F9B8D8C8D981305C0E4
:10049000E889F989808185FD24C0F62E0B8D10E056
:1004A0000F5F1F4F0F731127E02E8C8DE8120CC0C9
:1004B0000FB607FCFACFE889F989808185FFF5CF6F
:1004C000CE010E941A02F1CF8B8DFE01E80FF11DC3
:1004D000E35AFF4FF0820B8FEA89FB8980818062AB
:1004E00007C0EE89FF896083E889F989808180648B
:1004F000808381E090E0DF91CF911F910F91FF9079
:10050000EF900895CF93DF93EC01888D8823C9F095
:10051000EA89FB89808185FD05C0A889B9898C910C
:1005200086FD0FC00FB607FCF5CF808185FFF2CFA7
:10053000A889B9898C9185FFEDCFCE010E941A025E
:10054000E7CFDF91CF91089580E090E0892B29F0EB
:100550000E94100281110C9400000895009769F028
:10056000FC0101900020E9F73197AF01481B590BBE
:10057000BC0187E492E00C94A40180E090E008952F
:10058000CF93DF930E94AE02EC0184E291E00E94DF
:10059000AE028C0F9D1FDF91CF9108958F929F9295
:1005A000AF92BF920F931F93CF93DF93CDB7DEB778
:1005B000A1970FB6F894DEBF0FBECDBF19A242308F
:1005C00008F44AE08E010F5D1F4F842E912CA12C60
:1005D000B12CA50194010E948E06E62FB901CA0133
:1005E00001501109EA3014F4E05D01C0E95CD80162
:1005F000EC93232B242B252B61F7C8010E94AE021C
:10060000A1960FB6F894DEBF0FBECDBFDF91CF919C
:100610001F910F91BF90AF909F908F9008950E946F
:10062000B6061F920F920FB60F9211242F933F938D
:100630004F935F936F937F938F939F93AF93BF93EA
:10064000EF93FF938091B900887F803609F49CC0B6
:1006500068F5883209F45BC090F4803109F454C025
:1006600038F4882309F4F6C0883009F44DC0F6C088
:10067000883109F44CC0803209F45DC0EFC0803489
:1006800009F468C048F4803309F455C0883309F090
:10069000E5C080931402D8C0803509F44FC0883576
:1006A00009F45DC0883409F0D9C0D6C0883909F48E
:1006B000C7C0A8F4883709F467C038F4883609F44D
:1006C00063C0803709F460C0C9C0883809F4B8C075
:1006D000803909F45FC0803809F0C0C05BC0803B3E
:1006E00009F486C038F4803A09F466C0883A09F4FF
:1006F0007FC0B4C0803C09F4A7C0883C09F4A4C002
:10070000883B09F48AC0AAC080913A0210C0909137
:10071000390280913802981770F5E091390281E032
:100720008E0F80933902F0E0E85EFD4F8081809368
:10073000BB0085EC86C0809314028EC0E091390224
:1007400081E08E0F809339028091BB00F0E0E85E7B
:10075000FD4F808390913902809138026EC0E09104
:10076000390281E08E0F809339028091BB00F0E066
:10077000E85EFD4F80838091170281116DC081E09A
:100780008093160284EA61C083E080931502109280
:100790001302CFCF80911302803208F051C0E09154
:1007A000130281E08E0F809313028091BB00F0E072
:1007B000ED50FE4F8083BDCF85EC8093BC0010923E
:1007C000150280911302803230F4E0911302F0E0C0
:1007D000ED50FE4F10826091130270E0E091F10144
:1007E000F091F20183EF91E009951092130236C067
:1007F00084E0809315021092F0011092EF01E091D5
:10080000ED01F091EE0109958091EF01811105C094
:1008100081E08093EF011092CD01E091F00181E041
:100820008E0F8093F001F0E0E353FE4F80818093C0
:10083000BB009091F0018091EF01981708F479CFF7
:1008400085E88093BC000AC085EC8093BC001092C0
:10085000150204C0109214020E94C800FF91EF918B
:10086000BF91AF919F918F917F916F915F914F91C8
:100870003F912F910F900FBE0F901F9018951F92D0
:100880000F920FB60F9211242F933F938F939F9344
:10089000AF93BF938091A0019091A101A091A2017B
:1008A000B091A30130919F0123E0230F2D3720F455
:1008B0000196A11DB11D05C026E8230F0296A11DBA
:1008C000B11D20939F018093A0019093A101A0935B
:1008D000A201B093A3018091A4019091A501A091E0
:1008E000A601B091A7010196A11DB11D8093A4019D
:1008F0009093A501A093A601B093A701BF91AF91DA
:100900009F918F913F912F910F900FBE0F901F904D
:1009100018951F920F920FB60F9211242F933F93A9
:100920004F935F936F937F938F939F93AF93BF93F7
:10093000EF93FF9387E492E00E941A02FF91EF91F8
:10094000BF91AF919F918F917F916F915F914F91E7
:100950003F912F910F900FBE0F901F9018951F92EF
:100960000F920FB60F9211242F938F939F93EF93B3
:10097000FF93E0915702F09158028081E0915D026F
:10098000F0915E0282FD12C09081809160028F5FC3
:100990008F7320916102821751F0E0916002F0E0C4
:1009A000E95BFD4F958F8093600201C08081FF91CC
:1009B000EF919F918F912F910F900FBE0F901F90ED
:1009C0001895EBE3F2E01382128288EE93E0A0E048
:1009D000B0E084839583A683B78324E031E031833C
:1009E0002083E7E4F2E01382128284839583A68356
:1009F000B78386E191E09183808385EC90E09587D1
:100A0000848784EC90E09787868780EC90E0918BD8
:100A1000808B81EC90E0938B828B82EC90E0958BC5
:100A2000848B86EC90E0978B868B118E128E138EC2
:100A3000148E0895789484B5826084BD84B58160F5
:100A400084BD85B5826085BD85B5816085BD809199
:100A50006E00816080936E00109281008091810011
:100A60008260809381008091810081608093810009
:100A7000809180008160809380008091B1008460CB
:100A80008093B1008091B00081608093B00080912C
:100A90007A00846080937A0080917A0082608093EB
:100AA0007A0080917A00816080937A0080917A0048
:100AB000806880937A001092C1001092CC0110924D
:100AC000CB011092C8011092C9011092150281E069
:100AD000809317021092160282E10E94820083E145
:100AE0000E9482008091B9008E7F8093B90080912E
:100AF000B9008D7F8093B90088E48093B80085E4C5
:100B00008093BC00E0915702F091580282E080830C
:100B1000E0915302F09154021082E0915502F0915D
:100B200056028FEC808310925F02E0915B02F0919D
:100B30005C0286E08083E0915902F0915A02808144
:100B400080618083E0915902F0915A02808188602F
:100B50008083E0915902F0915A02808180688083FD
:100B6000E0915902F0915A0280818F7D808387E263
:100B700091E00E94C00205EE65ECB62E11E072E035
:100B8000A72E99249A9484E391E00E94C002C12C7C
:100B9000D12C7601C394C0E0D0E01093CA01C0927A
:100BA0009E011092C8011092C90180911502811115
:100BB000FCCFA0921502109317029092140210928B
:100BC00039021092380210923A0290913A0296013C
:100BD000220F331F292B20933A0290911602913055
:100BE00069F41092160290913A029093BB00909192
:100BF000BC0093FDF8CFB092BC0002C00093BC00D3
:100C0000909115029230E1F3909114029F3F69F0A8
:100C100080911402803231F080911402803321F0EF
:100C200084E003C082E001C083E01092C80110920A
:100C3000C9011092CA01811119C080E491E00E949B
:100C4000AE0220E1C216D104E104F10420F48FE5E4
:100C500091E00E94AE0240E1C701B6010E94CE02BF
:100C600081E691E00E94C002219619C08430B9F457
:100C700085E691E00E94AE0280E1C816D104E1044D
:100C8000F10420F48FE591E00E94AE0240E1C7013B
:100C9000B6010E94CE0284E291E00E94AE022FEFE4
:100CA000C21AD20AE20AF20A8FE7C816D104E10496
:100CB000F10409F072CFCD2B19F481E891E002C064
:100CC00087E991E00E94C0020E947F012B013C0154
:100CD00084ECC82E89E0D82EE12CF12C0E947F01F3
:100CE000DC01CB0184199509A609B709883E934018
:100CF000A105B10558F021E0C21AD108E108F108B8
:100D000088EE480E83E0581E611C711CC114D1048A
:100D1000E104F10419F70E94A40235CFA1E21A2ED2
:100D2000AA1BBB1BFD010DC0AA1FBB1FEE1FFF1F8F
:100D3000A217B307E407F50720F0A21BB30BE40BDF
:100D4000F50B661F771F881F991F1A9469F7609526
:100D50007095809590959B01AC01BD01CF010895E0
:100D6000EE0FFF1F0590F491E02D099481E090E0D3
:0A0D7000F8940C94BB06F894FFCF32
:100D7A000000000050012001D001FA001801090109
:100D8A00FB00000000003B02A401D301820204021E
:100D9A00E201F6010D0A000A493243205363616EEB
:100DAA006E6572005363616E6E696E672E2E2E0039
:100DBA004932432064657669636520666F756E649F
:100DCA002061742061646472657373203078003026
:100DDA000020202100556E6B6E6F776E206572724F
:100DEA006F72206174206164647265737320307855
:100DFA00004E6F204932432064657669636573202B
:0E0E0A00666F756E640A00646F6E652E0A00D6
:00000001FF
