:100000000C9458000C9480000C9480000C94800098
:100010000C9480000C9480000C9480000C94800060
:100020000C9480000C9480000C9480000C94800050
:100030000C9480000C9480000C9480000C94800040
:100040000C9411030C9480000C9481030C945B03BA
:100050000C9480000C9480000C9480000C94800020
:100060000C94B3030C9480000000000025002800CD
:100070002B00040404040404040402020202020229
:10008000030303030303010204081020408001025C
:1000900004081020010204081020000000080002DB
:1000A0000100000304070000000000000000E1045C
:1000B00011241FBECFEFD8E0DEBFCDBF11E0A0E01E
:1000C000B1E0EAE7FDE002C005900D92AE39B1075C
:1000D000D9F722E0AEE9B1E001C01D92A43EB2071B
:1000E000E1F710E0C8E5D0E004C02197FE010E94CE
:1000F000B006C735D107C9F70E941A050C94BB0694
:100100000C94000090E0FC01E656FF4F2491FC01A6
:10011000EA57FF4F3491FC01EE58FF4FE491EE2374
:10012000B1F1222339F1233091F038F42130A9F0D4
:10013000223001F584B58F7D12C0273091F0283030
:10014000A1F02430B9F4809180008F7D03C08091AC
:1001500080008F77809380000DC084B58F7784BD39
:1001600009C08091B0008F7703C08091B0008F7D6F
:100170008093B000F0E0EE0FFF1FE859FF4FA5910C
:10018000B4918FB7F894EC913E2B3C938FBF0895B8
:100190003FB7F8948091370290913802A0913902CC
:1001A000B0913A0226B5A89B05C02F3F19F00196E1
:1001B000A11DB11D3FBFBA2FA92F982F8827820FED
:1001C000911DA11DB11DBC01CD0142E0660F771F3D
:1001D000881F991F4A95D1F70895CF92DF92EF9229
:1001E000FF920F931F93CF93DF936C017A018B01E2
:1001F000C0E0D0E0CE15DF0589F0D8016D918D010A
:10020000D601ED91FC910190F081E02DC601099598
:10021000892B11F47E0102C02196ECCFC701DF913A
:10022000CF911F910F91FF90EF90DF90CF900895A5
:10023000FC01538D448D252F30E0842F90E0821BEC
:10024000930B541710F0CF96089501970895FC0171
:10025000918D828D981761F0828DDF01A80FB11DFD
:100260005D968C91928D9F5F9F73928F90E0089521
:100270008FEF9FEF0895FC01918D828D981731F0DB
:10028000828DE80FF11D858D90E008958FEF9FEF2F
:100290000895FC01918D228D892F90E0805C9F4F05
:1002A000821B91098F73992708958BE392E00E9436
:1002B000490121E0892B09F420E0822F0895FC01F7
:1002C000848DDF01A80FB11DA35ABF4F2C91848DDF
:1002D00090E001968F739927848FA689B7892C9314
:1002E000A089B1898C9180648C93938D848D9813AF
:1002F00006C00288F389E02D80818F7D8083089578
:10030000EF92FF920F931F93CF93DF93EC0181E065
:10031000888F9B8D8C8D981305C0E889F989808121
:1003200085FD24C0F62E0B8D10E00F5F1F4F0F735D
:100330001127E02E8C8DE8120CC00FB607FCFACF07
:10034000E889F989808185FFF5CFCE010E945F01A0
:10035000F1CF8B8DFE01E80FF11DE35AFF4FF082C4
:100360000B8FEA89FB898081806207C0EE89FF8953
:100370006083E889F98980818064808381E090E0EE
:10038000DF91CF911F910F91FF90EF900895CF9340
:10039000DF93EC01888D8823C9F0EA89FB8980818D
:1003A00085FD05C0A889B9898C9186FD0FC00FB65F
:1003B00007FCF5CF808185FFF2CFA889B9898C91A0
:1003C00085FFEDCFCE010E945F01E7CFDF91CF9196
:1003D000089580E090E0892B29F00E945501811159
:1003E0000C940000089585ED8093BC008091BC00C2
:1003F00084FDFCCF10920D0208954091C001262F7C
:1004000030E0240F311D21323105DCF420910D0242
:100410002430C9F4FC0180E090E0861758F4309154
:10042000C0012191DC01A256BE4FA30FB11D2C9338
:100430000196F3CF8091C001680F6093C00180E006
:10044000089581E0089582E00895089581E090E0A4
:100450003091E6012091E501321710F480E090E040
:1004600091958195910908958091E6019091E5011A
:10047000891730F48F5F8093E60180E090E0089563
:100480008FEF9FEF08958091E50190E02091E601C4
:10049000821B91090895CF92DF92EF92FF920F9302
:1004A0001F93CF93DF937C01262F972F8A01809192
:1004B0000E02882391F0C62FD72F6E01C40ED51ED1
:1004C000CC15DD0571F06991D701ED91FC9101909A
:1004D000F081E02DC7010995F3CF642F822F0E9490
:1004E000FD01C801DF91CF911F910F91FF90EF9017
:1004F000DF90CF900895CF93DF931F92CDB7DEB7F3
:10050000698320910E022223D1F020913102203202
:1005100040F021E030E0FC013383228380E090E072
:1005200015C080910F02E82FF0E0E05FFD4F998148
:1005300090838F5F80930F028093310205C061E04A
:10054000CE0101960E94FD0181E090E00F90DF91C5
:10055000CF910895089580E090E00895009769F0A4
:10056000FC0101900020E9F73197AF01481B590BBE
:10057000BC018BE392E00C94ED0080E090E00895E4
:10058000CF93DF930E94AE02EC0184E291E00E94DF
:10059000AE028C0F9D1FDF91CF9108958F929F9295
:1005A000AF92BF920F931F93CF93DF93CDB7DEB778
:1005B000A1970FB6F894DEBF0FBECDBF19A242308F
:1005C00008F44AE08E010F5D1F4F842E912CA12C60
:1005D000B12CA50194010E948E06E62FB901CA0133
:1005E00001501109EA3014F4E05D01C0E95CD80162
:1005F000EC93232B242B252B61F7C8010E94AE021C
:10060000A1960FB6F894DEBF0FBECDBFDF91CF919C
:100610001F910F91BF90AF909F908F9008950E946F
:10062000B6061F920F920FB60F9211242F933F938D
:100630008F939F93AF93BF93809133029091340235
:10064000A0913502B09136023091320223E0230F9F
:100650002D3720F40196A11DB11D05C026E8230FFA
:100660000296A11DB11D2093320280933302909314
:100670003402A0933502B0933602809137029091F4
:100680003802A0913902B0913A020196A11DB11D24
:100690008093370290933802A0933902B0933A02C4
:1006A000BF91AF919F918F913F912F910F900FBE6E
:1006B0000F901F9018951F920F920FB60F92112452
:1006C0002F933F934F935F936F937F938F939F935A
:1006D000AF93BF93EF93FF938BE392E00E945F0190
:1006E000FF91EF91BF91AF919F918F917F916F910A
:1006F0005F914F913F912F910F900FBE0F901F90E0
:1007000018951F920F920FB60F9211242F938F936B
:100710009F93EF93FF93E0914B02F0914C02808105
:10072000E0915102F091520282FD12C090818091BD
:1007300054028F5F8F7320915502821751F0E09120
:100740005402F0E0E55CFD4F958F8093540201C0A8
:100750008081FF91EF919F918F912F910F900FBE0C
:100760000F901F9018951F920F920FB60F921124A1
:100770002F933F934F935F936F937F938F939F93A9
:10078000AF93BF93EF93FF938091B900887F80363A
:1007900009F49CC068F5883209F45BC090F480319C
:1007A00009F454C038F4882309F4F6C0883009F4F9
:1007B0004DC0F6C0883109F44CC0803209F45DC0E8
:1007C000EFC0803409F468C048F4803309F455C0A0
:1007D000883309F0E5C080930B02D8C0803509F456
:1007E0004FC0883509F45DC0883409F0D9C0D6C03F
:1007F000883909F4C7C0A8F4883709F467C038F409
:10080000883609F463C0803709F460C0C9C08838ED
:1008100009F4B8C0803909F45FC0803809F0C0C05D
:100820005BC0803B09F486C038F4803A09F466C0A6
:10083000883A09F47FC0B4C0803C09F4A7C0883C62
:1008400009F4A4C0883B09F48AC0AAC08091E801D9
:1008500010C090910A0280910902981770F5E091FA
:100860000A0281E08E0F80930A02F0E0E751FE4F0A
:1008700080818093BB0085EC86C080930B028EC084
:10088000E0910A0281E08E0F80930A028091BB0002
:10089000F0E0E751FE4F808390910A0280910902B7
:1008A0006EC0E0910A0281E08E0F80930A0280916F
:1008B000BB00F0E0E751FE4F808380910C02811174
:1008C0006DC081E08093E70184EA61C083E080939A
:1008D0000D021092E401CFCF8091E401803208F044
:1008E00051C0E091E40181E08E0F8093E40180919A
:1008F000BB00F0E0EC53FE4F8083BDCF85EC8093CE
:10090000BC0010920D028091E401803230F4E0913D
:10091000E401F0E0EC53FE4F10826091E40170E0DE
:10092000E091C201F091C30184EC91E0099510922D
:10093000E40136C084E080930D021092C101109250
:10094000C001E091BE01F091BF0109958091C00105
:10095000811105C081E08093C00110929E01E09159
:10096000C10181E08E0F8093C101F0E0E256FE4F9D
:1009700080818093BB009091C1018091C001981744
:1009800008F479CF85E88093BC000AC085EC809399
:10099000BC0010920D0204C010920B020E94F301E1
:1009A000FF91EF91BF91AF919F918F917F916F9147
:1009B0005F914F913F912F910F900FBE0F901F901D
:1009C0001895EBE3F2E01382128288EE93E0A0E048
:1009D000B0E084839583A683B78324E031E031833C
:1009E000208325EC30E03587248724EC30E03787FE
:1009F000268720EC30E0318B208B21EC30E0338BEC
:100A0000228B22EC30E0358B248B26EC30E0378BC8
:100A1000268B118E128E138E148EE8EDF2E0138267
:100A2000128284839583A683B78386E191E09183C4
:100A300080830895789484B5826084BD84B5816094
:100A400084BD85B5826085BD85B5816085BD809199
:100A50006E00816080936E00109281008091810011
:100A60008260809381008091810081608093810009
:100A7000809180008160809380008091B1008460CB
:100A80008093B1008091B00081608093B00080912C
:100A90007A00846080937A0080917A0082608093EB
:100AA0007A0080917A00816080937A0080917A0048
:100AB000806880937A001092C1001092E601109233
:100AC000E50110920F021092310210920D0281E0A6
:100AD00080930C021092E70182E10E94820083E180
:100AE0000E9482008091B9008E7F8093B90080912E
:100AF000B9008D7F8093B90088E48093B80085E4C5
:100B00008093BC00E0914B02F0914C0282E0808324
:100B1000E0914702F09148021082E0914902F09181
:100B20004A028FEC808310925302E0914F02F091C1
:100B3000500286E08083E0914D02F0914E02808168
:100B400080618083E0914D02F0914E028081886047
:100B50008083E0914D02F0914E0280818068808315
:100B6000E0914D02F0914E0280818F7D808387E27B
:100B700091E00E94C00205EE65ECB62E11E072E035
:100B8000A72E99249A9484E391E00E94C002C12C7C
:100B9000D12C7601C394C0E0D0E010930E02C09235
:100BA000300210920F021092310280910D028111D9
:100BB000FCCFA0920D0210930C0290920B021092A7
:100BC0000A02109209021092E8019091E801960140
:100BD000220F331F292B2093E8019091E7019130D8
:100BE00069F41092E7019091E8019093BB00909115
:100BF000BC0093FDF8CFB092BC0002C00093BC00D3
:100C000090910D029230E1F390910B029F3F69F0B9
:100C100080910B02803231F080910B02803321F001
:100C200084E003C082E001C083E010920F021092C2
:100C3000310210920E02811119C080E491E00E94ED
:100C4000AE0220E1C216D104E104F10420F48FE5E4
:100C500091E00E94AE0240E1C701B6010E94CE02BF
:100C600081E691E00E94C002219619C08430B9F457
:100C700085E691E00E94AE0280E1C816D104E1044D
:100C8000F10420F48FE591E00E94AE0240E1C7013B
:100C9000B6010E94CE0284E291E00E94AE022FEFE4
:100CA000C21AD20AE20AF20A8FE7C816D104E10496
:100CB000F10409F072CFCD2B19F481E891E002C064
:100CC00087E991E00E94C0020E94C8002B013C010C
:100CD00084ECC82E89E0D82EE12CF12C0E94C800AB
:100CE000DC01CB0184199509A609B709883E934018
:100CF000A105B10558F021E0C21AD108E108F108B8
:100D000088EE480E83E0581E611C711CC114D1048A
:100D1000E104F10419F70E94E90135CFA1E21A2E8E
:100D2000AA1BBB1BFD010DC0AA1FBB1FEE1FFF1F8F
:100D3000A217B307E407F50720F0A21BB30BE40BDF
:100D4000F50B661F771F881F991F1A9469F7609526
:100D50007095809590959B01AC01BD01CF010895E0
:100D6000EE0FFF1F0590F491E02D099481E090E0D3
:0A0D7000F8940C94BB06F894FFCF32
:100D7A00000000008001ED001801C70149012701A8
:100D8A003B01000000007B024B02AB02250243023A
:100D9A00340226020D0A000A493243205363616E67
:100DAA006E6572005363616E6E696E672E2E2E0039
:100DBA004932432064657669636520666F756E649F
:100DCA002061742061646472657373203078003026
:100DDA000020202100556E6B6E6F776E206572724F
:100DEA006F72206174206164647265737320307855
:100DFA00004E6F204932432064657669636573202B
:0E0E0A00666F756E640A00646F6E652E0A00D6
:00000001FF
