:100000000C9435000C945D000C945D000C945D0024
:100010000C945D000C945D000C945D000C945D00EC
:100020000C945D000C945D000C945D000C945D00DC
:100030000C945D000C945D000C945D000C945D00CC
:100040000C94F6010C945D000C9466020C94400232
:100050000C945D000C945D000C945D000C945D00AC
:100060000C945D000C945D00800311241FBECFEF43
:10007000D8E0DEBFCDBF11E0A0E0B1E0E8EBF7E0F3
:1000800002C005900D92AA32B107D9F721E0AAE289
:10009000B1E001C01D92A03DB207E1F710E0C5E359
:1000A000D0E004C02197FE010E94CF03C433D107E2
:1000B000C9F70E9498020C94DA030C940000CF92C6
:1000C000DF92EF92FF920F931F93CF93DF936C0118
:1000D0007A018B01C0E0D0E0CE15DF0589F0D801B0
:1000E0006D918D01D601ED91FC910190F081E02D93
:1000F000C6010995892B11F47E0102C02196ECCF2F
:10010000C701DF91CF911F910F91FF90EF90DF908A
:10011000CF900895089580E090E00895FC01538DFC
:10012000448D252F30E0842F90E0821B930B5417D1
:1001300010F0CF96089501970895FC01918D828D5E
:10014000981761F0828DDF01A80FB11D5D968C912B
:10015000928D9F5F9F73928F90E008958FEF9FEF36
:100160000895FC01918D828D981731F0828DE80FF2
:10017000F11D858D90E008958FEF9FEF0895FC01AC
:10018000918D228D892F90E0805C9F4F821B910979
:100190008F739927089583E391E00E94BF0021E0C7
:1001A000892B09F420E0822F0895FC01848DDF0162
:1001B000A80FB11DA35ABF4F2C91848D90E00196DA
:1001C0008F739927848FA689B7892C93A089B189C9
:1001D0008C9180648C93938D848D981306C00288D3
:1001E000F389E02D80818F7D80830895EF92FF92C7
:1001F0000F931F93CF93DF93EC0181E0888F9B8D4A
:100200008C8D981305C0E889F989808185FD24C00B
:10021000F62E0B8D10E00F5F1F4F0F731127E02E8E
:100220008C8DE8120CC00FB607FCFACFE889F9896B
:10023000808185FFF5CFCE010E94D500F1CF8B8D57
:10024000FE01E80FF11DE35AFF4FF0820B8FEA89A0
:10025000FB898081806207C0EE89FF896083E8891D
:10026000F98980818064808381E090E0DF91CF9183
:100270001F910F91FF90EF900895CF93DF93EC01C2
:10028000888D8823C9F0EA89FB89808185FD05C0B6
:10029000A889B9898C9186FD0FC00FB607FCF5CFF0
:1002A000808185FFF2CFA889B9898C9185FFEDCF38
:1002B000CE010E94D500E7CFDF91CF91089580E075
:1002C00090E0892B29F00E94CB0081110C94000052
:1002D0000895009769F0FC0101900020E9F731973B
:1002E000AF01481B590BBC0183E391E00C945F0004
:1002F00080E090E008958F929F92AF92BF92CF924C
:10030000DF92EF92FF920F931F93CF93DF93CDB7BE
:10031000DEB7A1970FB6F894DEBF0FBECDBF6B015D
:100320007C0197FF31C0E0913301F09134010190DD
:10033000F081E02D6DE283E391E009958C012227A5
:100340003327A9012C193D094E095F0919A2CE01D5
:1003500081967C019AE0892E912CA12CB12CCA01A6
:10036000B901A50194010E94AD03605DF70162939C
:100370007F01211531054105510589F7CF010E9403
:100380006901800F911F1DC09B01AC0119A28E0154
:100390000F5D1F4F8AE0C82ED12CE12CF12CCA0131
:1003A000B901A70196010E94AD03605DF801629357
:1003B0008F01211531054105510589F7CF010E94B3
:1003C0006901A1960FB6F894DEBF0FBECDBFDF91D5
:1003D000CF911F910F91FF90EF90DF90CF90BF9042
:1003E000AF909F908F9008950E94D5031F920F9217
:1003F0000FB60F9211242F933F938F939F93AF9338
:10040000BF9380912F0190913001A0913101B09163
:10041000320130912E0123E0230F2D3720F4019675
:10042000A11DB11D05C026E8230F0296A11DB11D17
:1004300020932E0180932F0190933001A0933101DE
:10044000B093320180912A0190912B01A0912C014F
:10045000B0912D010196A11DB11D80932A019093A9
:100460002B01A0932C01B0932D01BF91AF919F91CF
:100470008F913F912F910F900FBE0F901F90189565
:100480001F920F920FB60F9211242F933F934F9309
:100490005F936F937F938F939F93AF93BF93EF93EC
:1004A000FF9383E391E00E94D500FF91EF91BF910C
:1004B000AF919F918F917F916F915F914F913F91FC
:1004C0002F910F900FBE0F901F9018951F920F92B3
:1004D0000FB60F9211242F938F939F93EF93FF9357
:1004E000E0914301F09144018081E0914901F09154
:1004F0004A0182FD12C0908180914C018F5F8F7301
:1005000020914D01821751F0E0914C01F0E0ED5C3B
:10051000FE4F958F80934C0101C08081FF91EF9138
:100520009F918F912F910F900FBE0F901F90189554
:10053000CF93DF93CDB7DEB72C970FB6F894DEBF1D
:100540000FBECDBF789484B5826084BD84B58160D0
:1005500084BD85B5826085BD85B5816085BD80918E
:100560006E00816080936E00109281008091810006
:1005700082608093810080918100816080938100FE
:10058000809180008160809380008091B1008460C0
:100590008093B1008091B00081608093B000809121
:1005A0007A00846080937A0080917A0082608093E0
:1005B0007A0080917A00816080937A0080917A003D
:1005C000806880937A001092C100E0914301F0911D
:1005D000440182E08083E0913F01F091400110826C
:1005E000E0914101F09142018FEC808310924B0128
:1005F000E0914701F091480186E08083E091450158
:10060000F0914601808180618083E0914501F09105
:100610004601808188608083E0914501F091460128
:10062000808180688083E0914501F091460180815E
:100630008F7D808390E9292E3324339484E690E0E3
:100640009C838B83E8ECF0E0FE83ED838CE291E009
:1006500098878F833A862986E4EFF1E0FC87EB8761
:1006600088E592E09E878D8782E191E00E94690192
:1006700085E191E00E9469018E010D5F1F4FC12C41
:10068000D12C7601C394412C512C320188E191E0A8
:100690000E946901C701B6010E947B018EE191E0D1
:1006A0000E946901F801219131918F014901330FB5
:1006B000AA08BB08C501B4010E947B0185E191E055
:1006C0000E946901480C591C6A1C7B1CFFEFCF1A61
:1006D000DF0AEF0AFF0A87E0C816D104E104F1043B
:1006E000A9F685E191E00E946901C301B2010E946F
:1006F0007B0185E191E00E9469010E945F019ECF2C
:10070000E3E3F1E01382128288EE93E0A0E0B0E030
:1007100084839583A683B78384E091E0918380836B
:1007200085EC90E09587848784EC90E097878687B6
:1007300080EC90E0918B808B81EC90E0938B828BAE
:1007400082EC90E0958B848B86EC90E0978B868B87
:10075000118E128E138E148E0895A1E21A2EAA1BEA
:10076000BB1BFD010DC0AA1FBB1FEE1FFF1FA21761
:10077000B307E407F50720F0A21BB30BE40BF50B5E
:10078000661F771F881F991F1A9469F760957095E7
:10079000809590959B01AC01BD01CF010895EE0FAE
:1007A000FF1F0590F491E02D099481E090E0F8940A
:0807B0000C94DA03F894FFCF6A
:1007B80000000000F6005F008E003D01BF009D00B4
:1007C800B1002D2D000D0A00206E722E3A00202057
:0A07D8002020636F6E742E3A20009B
:00000001FF
