:100000000C9463000C948B000C948B000C94F00304
:100010000C94F0030C94F0030C948B000C948B0064
:100020000C948B000C948B000C948B000C948B0024
:100030000C948B000C948B000C948B000C948B0014
:100040000C944E030C948B000C94BE030C949803F8
:100050000C948B000C948B000C948B000C948B00F4
:100060000C948B000C948B000000000024002700EF
:100070002A0000000008000201000003040700003D
:1000800000000000000000000000250028002B00F8
:1000900000000000230026002900040404040404D6
:1000A0000404020202020202030303030303010227
:1000B00004081020408001020408102001020408F6
:1000C00010206A04B80611241FBECFEFD8E0DEBFAF
:1000D000CDBF11E0A0E0B1E0E8E4FEE002C0059091
:1000E0000D92AA34B107D9F722E0AAE4B1E001C029
:1000F0001D92A335B207E1F710E0C2E6D0E004C0DC
:100100002197FE010E940C07C136D107C9F70E9452
:1001100015050C9417070C94000090E0FC01EE58B4
:10012000FF4F3491FC01E255FF4F2491FC01E6564C
:10013000FF4FE491EE2309F43BC0332339F1333010
:1001400091F038F43130A9F0323001F584B58F7D6B
:1001500012C0373091F03830A1F03430B9F48091CA
:1001600080008F7D03C0809180008F778093800016
:100170000DC084B58F7784BD09C08091B0008F77A2
:1001800003C08091B0008F7D8093B000F0E0EE0F4F
:10019000FF1FEA57FF4FA591B4918FB7F894EC91E8
:1001A000611103C020952E2301C02E2B2C938FBFED
:1001B0000895CF93DF9390E0FC01E255FF4F249127
:1001C000FC01E656FF4F8491882361F190E0880F8F
:1001D000991FFC01E859FF4FC591D491FC01EA57E2
:1001E000FF4FA591B491611109C09FB7F894888120
:1001F000209582238883EC912E230BC0623061F41A
:100200009FB7F8943881822F809583238883EC915F
:100210002E2B2C939FBF06C08FB7F894E8812E2B0E
:1002200028838FBFDF91CF9108953FB7F8948091D5
:10023000930190919401A0919501B091960126B5FA
:10024000A89B05C02F3F19F00196A11DB11D3FBF0E
:10025000BA2FA92F982F8827820F911DA11DB11D9C
:10026000BC01CD0142E0660F771F881F991F4A9598
:10027000D1F708958F929F92AF92BF92CF92DF9263
:10028000EF92FF926B017C010E9415014B015C0112
:10029000C114D104E104F104F1F00E941501DC0164
:1002A000CB0188199909AA09BB09883E9340A10589
:1002B000B10570F321E0C21AD108E108F10888EE17
:1002C000880E83E0981EA11CB11CC114D104E10466
:1002D000F10419F7DDCFFF90EF90DF90CF90BF9042
:1002E000AF909F908F900895CF92DF92EF92FF9200
:1002F0000F931F93CF93DF936C017A018B01C0E0C2
:10030000D0E0CE15DF0589F0D8016D918D01D601C1
:10031000ED91FC910190F081E02DC6010995892BAA
:1003200011F47E0102C02196ECCFC701DF91CF917D
:100330001F910F91FF90EF90DF90CF900895FC01F7
:10034000538D448D252F30E0842F90E0821B930B3A
:10035000541710F0CF96089501970895FC01918DE0
:10036000828D981761F0828DDF01A80FB11D5D9617
:100370008C91928D9F5F9F73928F90E008958FEF85
:100380009FEF0895FC01918D828D981731F0828D39
:10039000E80FF11D858D90E008958FEF9FEF089590
:1003A000FC01918D228D892F90E0805C9F4F821BF4
:1003B00091098F739927089587E991E00E94D001F0
:1003C00021E0892B09F420E0822F0895FC01848D1F
:1003D000DF01A80FB11DA35ABF4F2C91848D90E06F
:1003E00001968F739927848FA689B7892C93A0894A
:1003F000B1898C9180648C93938D848D981306C001
:100400000288F389E02D80818F7D80830895EF92AB
:10041000FF920F931F93CF93DF93EC0181E0888FBE
:100420009B8D8C8D981305C0E889F989808185FDA5
:1004300024C0F62E0B8D10E00F5F1F4F0F73112796
:10044000E02E8C8DE8120CC00FB607FCFACFE889BD
:10045000F989808185FFF5CFCE010E94E601F1CFB9
:100460008B8DFE01E80FF11DE35AFF4FF0820B8FD9
:10047000EA89FB898081806207C0EE89FF896083F9
:10048000E889F98980818064808381E090E0DF9150
:10049000CF911F910F91FF90EF900895CF93DF932D
:1004A000EC01888D8823C9F0EA89FB89808185FD6C
:1004B00005C0A889B9898C9186FD0FC00FB607FCCD
:1004C000F5CF808185FFF2CFA889B9898C9185FF0E
:1004D000EDCFCE010E94E601E7CFDF91CF910895E5
:1004E00080E090E0892B29F00E94DC0181110C94BE
:1004F0000000089520918C0130918D012817390753
:1005000071F490918A0180918B01981741F0E091EC
:100510008A01F0E0E65BFE4F808190E008958FEF66
:100520009FEF089508951F93CF93DF93DC015C96AE
:100530002D913C915D972115310539F481E090E0D2
:1005400013969C938E9312973DC05196ED91FC911A
:10055000529750969C915097892F80951FB75E9621
:100560004C915E9741FB772770F941FD6095F894B7
:100570004081772311F0492B01C048234083E901D2
:100580002197F1F748E0508160FF02C0592B01C06C
:1005900058235083E9012197F1F76695415099F767
:1005A000772321F090818923808303C08081982B59
:1005B00090831FBF5C968D919C915D970197F1F799
:1005C00021E030E0C901DF91CF911F910895209182
:1005D0008C0130918D012817390771F480918B01BE
:1005E00020918A0190E0805C9F4F821B910960E41A
:1005F00070E00E94C206089580E090E00895209186
:100600008C0130918D0128173907B9F490918A0136
:1006100080918B01981789F0E0918A01F0E0E65B08
:10062000FE4F808120918A0130E02F5F3F4F2F7372
:10063000332720938A0190E008958FEF9FEF08956C
:10064000E0918C01F0918D01E817F90769F4A38915
:10065000B4899C918589809589238C9310928D0112
:1006600010928C0181E0089580E00895089580E063
:1006700090E00895009769F0FC0101900020E9F7EF
:100680003197AF01481B590BBC0187E991E00C94ED
:10069000740180E090E008950E9412071F920F926B
:1006A0000FB60F9211242F933F938F939F93AF9385
:1006B000BF9380918F0190919001A0919101B09191
:1006C000920130918E0123E0230F2D3720F4019603
:1006D000A11DB11D05C026E8230F0296A11DB11D65
:1006E00020938E0180938F0190939001A0939101AC
:1006F000B09392018091930190919401A091950102
:10070000B09196010196A11DB11D80939301909324
:100710009401A0939501B0939601BF91AF919F91E1
:100720008F913F912F910F900FBE0F901F901895B2
:100730001F920F920FB60F9211242F933F934F9356
:100740005F936F937F938F939F93AF93BF93EF9339
:10075000FF9387E991E00E94E601FF91EF91BF913D
:10076000AF919F918F917F916F915F914F913F9149
:100770002F910F900FBE0F901F9018951F920F9200
:100780000FB60F9211242F938F939F93EF93FF93A4
:10079000E091A701F091A8018081E091AD01F09175
:1007A000AE0182FD12C090818091B0018F5F8F7386
:1007B0002091B101821751F0E091B001F0E0E956CB
:1007C000FE4F958F8093B00101C08081FF91EF9122
:1007D0009F918F912F910F900FBE0F901F901895A2
:1007E0001F920F920FB60F9211242F933F934F93A6
:1007F0005F936F937F938F939F93AF93BF93EF9389
:10080000FF93E0918C01F0918D01309709F451C074
:10081000968DA685B785858591FF04C09C91892317
:1008200029F447C09C91892309F043C0A389B48966
:100830009C918589809589238C93868997890197D6
:10084000F1F7608D718DA685B785558538E020E07C
:10085000CB010197F1F7822F90E095958795282F8E
:100860004C91452309F02068315091F7868D81FD28
:10087000209580918B0190E001968F73992730919C
:100880008A01381749F0A0918B01B0E0A65BBE4FFA
:100890002C9380938B0103C0868D8160868F828D1F
:1008A000938D0197F1F7A389B4899C918589892B50
:1008B0008C93FF91EF91BF91AF919F918F917F9119
:1008C0006F915F914F913F912F910F900FBE0F90BD
:1008D0001F90189510929A011092990188EE93E05A
:1008E000A0E0B0E080939B0190939C01A0939D01B8
:1008F000B0939E0124E031E030939801209397015A
:1009000025EC30E03093A4012093A30124EC30E0E7
:100910003093A6012093A50120EC30E03093A8018C
:100920002093A70121EC30E03093AA012093A90184
:1009300022EC30E03093AC012093AB0126EC30E0A8
:100940003093AE012093AD011092B0011092B1012D
:100950001092B2011092B301109237021092360237
:100960008093380290933902A0933A02B0933B02ED
:1009700086E191E0909335028093340210924B020D
:1009800010924A0210924D0210924C0210924F02A5
:1009900010924E0210925102109250026091520237
:1009A0006E7F6D7F609352026695617081E068276B
:1009B0008BE00E948D0061E08BE00E94D900E9EBA2
:1009C000F0E0E491E0934402E5EAF0E0E491F0E045
:1009D000EE0FFF1FEA57FF4F8591949190934602C7
:1009E0008093450260E08AE00E94D9008091520223
:1009F00081FD04C061E08AE00E948D008AE080935E
:100A00004002E8EBF0E0E491E0934102E4EAF0E038
:100A1000E491F0E0EE0FFF1FE057FF4F85919491B6
:100A200090934302809342020895CF93DF93CDB712
:100A3000DEB7A1970FB6F894DEBF0FBECDBF789496
:100A400084B5826084BD84B5816084BD85B58260D3
:100A500085BD85B5816085BD80916E008160809384
:100A60006E001092810080918100826080938100ED
:100A700080918100816080938100809180008160FD
:100A8000809380008091B10084608093B100809158
:100A9000B00081608093B00080917A008460809380
:100AA0007A0080917A00826080937A0080917A0047
:100AB000816080937A0080917A00806880937A00C8
:100AC0001092C100E091A701F091A80182E080831B
:100AD000E091A301F091A4011082E091A501F091B1
:100AE000A6018FEC80831092AF01E091AB01F091F1
:100AF000AC0186E08083E091A901F091AA01808198
:100B000080618083E091A901F091AA0180818860D1
:100B10008083E091A901F091AA018081806880839F
:100B2000E091A901F091AA0180818F7D808384E208
:100B300091E00E943A0381E391E00E943A0361E070
:100B40008DE00E94D90061E083E00E94D90060E05E
:100B500083E00E948D0010924F0210924E0210927C
:100B60004D0210924C0210924B0210924A028EE3F8
:100B700093E09093510280935002909140029631FD
:100B800008F057C02DE831E030934B0220934A0221
:100B90002CE333E030934D0220934C0224E632E004
:100BA00030934F0220934E0220916800983050F00D
:100BB00031E09E3008F430E081E001C0880F3A95C2
:100BC000EAF701C084E0822B80936800983038F007
:100BD0009E3040F0963148F020E030E008C02DE62D
:100BE00030E005C02BE630E002C02CE630E0309368
:100BF000480220934702983030F481E001C0880F0A
:100C00009A95EAF70EC0292F30E09E3018F428504C
:100C1000310902C02E50310981E001C0880F2A95A8
:100C2000EAF7809349028091500290915102019716
:100C3000F1F780914E0290914F02892B21F1809122
:100C40008C0190918D0122E084339207E1F00097AE
:100C500011F00E942003809152028E7F80935202F5
:100C600010928B0110928A0184E392E090938D019F
:100C700080938C01E0914702F0914802908180912D
:100C80004902892B80838AE0882E912CA12CB12CDB
:100C900084E392E00E94E702181619060CF05FC088
:100CA00084E392E00E94FF026C0184E391E00E94E1
:100CB0003A030D2C000CEE08FF08F7FE26C0E09169
:100CC0009701F09198010190F081E02D6DE287E9A4
:100CD00091E0099522273327A9012C193D094E09D6
:100CE0005F0919A28E010F5D1F4FCA01B901A5014D
:100CF00094010E94D606605DF80162938F01211570
:100D000031054105510589F715C0A701960119A2C2
:100D10008E010F5D1F4FCA01B901A50194010E9408
:100D2000D606605DF80162938F01211531054105FA
:100D3000510589F7C8010E943A0381E391E00E94BE
:100D40003A0361E08DE00E948D0062E370E080E094
:100D500090E00E943A0160E08DE00E948D0064E620
:100D600070E080E090E00E943A010E94700290CF13
:100D700086E191E0909335028093340284E392E01F
:100D80000C94200397FB072E16F4009407D077FDF0
:100D900009D00E94F80607FC05D03EF49095819595
:100DA0009F4F0895709561957F4F0895A1E21A2E87
:100DB000AA1BBB1BFD010DC0AA1FBB1FEE1FFF1FFF
:100DC000A217B307E407F50720F0A21BB30BE40B4F
:100DD000F50B661F771F881F991F1A9469F7609596
:100DE0007095809590959B01AC01BD01CF01089550
:100DF000AA1BBB1B51E107C0AA1FBB1FA617B70741
:100E000010F0A61BB70B881F991F5A95A9F780955C
:100E10009095BC01CD010895EE0FFF1F0590F49150
:100E2000E02D099481E090E0F8940C94170710E00D
:100E3000C2E6D0E004C0FE010E940C072196C33632
:080E4000D107C9F7F894FFCFB8
:100E480000000000070274019F014E02D001AE01AC
:100E5800C201000000009302740137039202E70206
:100E6800FF027A0253657269616C52656D6F746531
:100E7800000D0A00696E7465726365747461746F3D
:0A0E8800206461746F203A2000001E
:00000001FF
