:100000000C9458000C9480000C9480000C94800098
:100010000C9480000C9480000C9480000C94800060
:100020000C9480000C9480000C9480000C94800050
:100030000C9480000C9480000C9480000C94800040
:100040000C94C4040C9480000C9434050C940E059C
:100050000C9480000C9480000C9480000C94800020
:100060000C9496030C9480000000000025002800EA
:100070002B00040404040404040402020202020229
:10008000030303030303010204081020408001025C
:1000900004081020010204081020000000080002DB
:1000A00001000003040700000000000000006605D6
:1000B00011241FBECFEFD8E0DEBFCDBF11E0A0E01E
:1000C000B1E0E2EDFDE002C005900D92A839B10764
:1000D000D9F723E0A8E9B1E001C01D92A330B2072F
:1000E000E1F710E0C8E5D0E004C02197FE010E94CE
:1000F000DC06C735D107C9F70E94C8050C94E7068E
:100100000C94000090E0FC01E656FF4F2491FC01A6
:10011000EA57FF4F3491FC01EE58FF4FE491EE2374
:10012000B1F1222339F1233091F038F42130A9F0D4
:10013000223001F584B58F7D12C0273091F0283030
:10014000A1F02430B9F4809180008F7D03C08091AC
:1001500080008F77809380000DC084B58F7784BD39
:1001600009C08091B0008F7703C08091B0008F7D6F
:100170008093B000F0E0EE0FFF1FE859FF4FA5910C
:10018000B4918FB7F894EC913E2B3C938FBF0895B8
:1001900085ED8093BC008091BC0084FDFCCF109263
:1001A000ED0208954091C301262F30E0240F311D48
:1001B00021323105DCF42091ED022430C9F4FC0138
:1001C00080E090E0861758F43091C3012191DC0162
:1001D000AF55BE4FA30FB11D2C930196F3CF809165
:1001E000C301680F6093C30180E0089581E0089522
:1001F00082E008950895E091F1028091F002E817FD
:1002000030F4F0E0E45DFD4F808190E008958FEFE1
:100210009FEF08959091F1028091F002981750F4A9
:10022000E92FF0E0E45DFD4F208130E09F5F909387
:10023000F10202C02FEF3FEFC90108958091F00253
:1002400090E02091F102821B91090895CF92DF92F4
:10025000EF92FF920F931F93CF93DF937C01262F92
:10026000972F8A0180914D02882391F0C62FD72FB6
:100270006E01C40ED51ECC15DD0571F06991D70154
:10028000ED91FC910190F081E02DC7010995F3CF2C
:10029000642F822F0E94D200C801DF91CF911F915D
:1002A0000F91FF90EF90DF90CF900895CF93DF9361
:1002B0001F92CDB7DEB7698320914D022223D1F082
:1002C0002091EE02203240F021E030E0FC01338347
:1002D000228380E090E015C08091EF02E82FF0E0EB
:1002E000E851FE4F998190838F5F8093EF02809356
:1002F000EE0205C061E0CE0101960E94D20081E0CD
:1003000090E00F90DF91CF9108953FB7F8948091DE
:100310009D0190919E01A0919F01B091A00126B5F1
:10032000A89B05C02F3F19F00196A11DB11D3FBF2D
:10033000BA2FA92F982F8827820F911DA11DB11DBB
:10034000BC01CD0142E0660F771F881F991F4A95B7
:10035000D1F70895CF92DF92EF92FF920F931F9300
:10036000CF93DF936C017A018B01C0E0D0E0CE1512
:10037000DF0589F0D8016D918D01D601ED91FC91D9
:100380000190F081E02DC6010995892B11F47E01C1
:1003900002C02196ECCFC701DF91CF911F910F9141
:1003A000FF90EF90DF90CF900895089580E090E067
:1003B0000895FC01538D448D252F30E0842F90E06B
:1003C000821B930B541710F0CF9608950197089550
:1003D000FC01918D828D981761F0828DDF01A80F4D
:1003E000B11D5D968C91928D9F5F9F73928F90E06F
:1003F00008958FEF9FEF0895FC01918D828D9817DE
:1004000031F0828DE80FF11D858D90E008958FEF1A
:100410009FEF0895FC01918D228D892F90E0805CE3
:100420009F4F821B91098F73992708958EE492E064
:100430000E940A0221E0892B09F420E0822F08950E
:10044000FC01848DDF01A80FB11DA35ABF4F2C9171
:10045000848D90E001968F739927848FA689B78940
:100460002C93A089B1898C9180648C93938D848D19
:10047000981306C00288F389E02D80818F7D8083E8
:100480000895EF92FF920F931F93CF93DF93EC01A8
:1004900081E0888F9B8D8C8D981305C0E889F98940
:1004A000808185FD24C0F62E0B8D10E00F5F1F4F5D
:1004B0000F731127E02E8C8DE8120CC00FB607FCCD
:1004C000FACFE889F989808185FFF5CFCE010E94B6
:1004D0002002F1CF8B8DFE01E80FF11DE35AFF4F93
:1004E000F0820B8FEA89FB898081806207C0EE89E8
:1004F000FF896083E889F98980818064808381E055
:1005000090E0DF91CF911F910F91FF90EF900895B0
:10051000CF93DF93EC01888D8823C9F0EA89FB89AA
:10052000808185FD05C0A889B9898C9186FD0FC0A1
:100530000FB607FCF5CF808185FFF2CFA889B98976
:100540008C9185FFEDCFCE010E942002E7CFDF9195
:10055000CF91089580E090E0892B29F00E94160247
:1005600081110C9400000895CF93DF938091FE02D7
:1005700091E090934D0280934C021092EF02109202
:10058000EE029091ED029111FCCF91E09093ED027B
:100590009093EC022FEF20932B0210922A021092DC
:1005A00029029093280290912802880F892B80932A
:1005B00028028091EB02813061F41092EB0280916D
:1005C00028028093BB008091BC0083FDF8CF85ECAE
:1005D00001C085EE8093BC008091ED028130E1F393
:1005E00080912A02811103C080912A0201C081E01A
:1005F000C8E0D2E02CE232E0F901DE019E2F921B2E
:10060000981718F49D919193F9CF1092F10280936D
:10061000F00282EF92E00E940A0180930003209191
:10062000EE0290914C02213208F049C08091ED0217
:100630008111FCCF32E03093ED0231E03093EC02D7
:100640003FEF30932B0210922A0220932902A8EE4A
:10065000B1E0E8E0F2E03E2F3C1B321718F43D9188
:100660003193F9CF1092280220912802990F922BF2
:10067000909328029091EB02913061F41092EB027A
:10068000909128029093BB009091BC0093FDF8CF0D
:1006900095EC01C095EE9093BC009091ED029230E4
:1006A000E1F390912B029F3F79F080912B028032F1
:1006B00041F080912B02803331F084E005C081E06D
:1006C00003C082E001C083E01092EF021092EE02BC
:1006D00010924D0290E09093020380930103809169
:1006E0000003DF91CF910895009769F0FC0101901C
:1006F0000020E9F73197AF01481B590BBC018EE48C
:1007000092E00C94AA0180E090E00895CF93DF93EB
:100710000E947403EC0184E291E00E9474038C0F48
:100720009D1FDF91CF9108950E94E2061F920F92C4
:100730000FB60F9211242F933F934F935F936F93B4
:100740007F938F939F93AF93BF93EF93FF9380918A
:10075000B900887F803609F49CC068F5883209F4B6
:100760005BC090F4803109F454C038F4882309F454
:10077000F6C0883009F44DC0F6C0883109F44CC089
:10078000803209F45DC0EFC0803409F468C048F4D9
:10079000803309F455C0883309F0E5C080932B02FB
:1007A000D8C0803509F44FC0883509F45DC088345D
:1007B00009F0D9C0D6C0883909F4C7C0A8F4883771
:1007C00009F467C038F4883609F463C0803709F447
:1007D00060C0C9C0883809F4B8C0803909F45FC066
:1007E000803809F0C0C05BC0803B09F486C038F493
:1007F000803A09F466C0883A09F47FC0B4C0803CEE
:1008000009F4A7C0883C09F4A4C0883B09F48AC055
:10081000AAC08091280210C090912A0280912902DA
:10082000981770F5E0912A0281E08E0F80932A02DA
:10083000F0E0E85FFD4F80818093BB0085EC86C0CF
:1008400080932B028EC0E0912A0281E08E0F80936C
:100850002A028091BB00F0E0E85FFD4F8083909119
:100860002A02809129026EC0E0912A0281E08E0F57
:1008700080932A028091BB00F0E0E85FFD4F808307
:100880008091EC0281116DC081E08093EB0284EADB
:1008900061C083E08093ED021092E701CFCF809199
:1008A000E701803208F051C0E091E70181E08E0F4E
:1008B0008093E7018091BB00F0E0E953FE4F808315
:1008C000BDCF85EC8093BC001092ED028091E701D2
:1008D000803230F4E091E701F0E0E953FE4F1082FE
:1008E0006091E70170E0E091C501F091C60187ECED
:1008F00091E009951092E70136C084E08093ED0203
:100900001092C4011092C301E091C101F091C201A3
:1009100009958091C301811105C081E08093C301D5
:100920001092A101E091C40181E08E0F8093C40177
:10093000F0E0EF55FE4F80818093BB009091C401A1
:100940008091C301981708F479CF85E88093BC00A3
:100950000AC085EC8093BC001092ED0204C0109296
:100960002B020E94C800FF91EF91BF91AF919F9120
:100970008F917F916F915F914F913F912F910F9048
:100980000FBE0F901F9018951F920F920FB60F92E7
:1009900011242F933F938F939F93AF93BF93809195
:1009A000990190919A01A0919B01B0919C01309185
:1009B000980123E0230F2D3720F40196A11DB11DCE
:1009C00005C026E8230F0296A11DB11D20939801B2
:1009D0008093990190939A01A0939B01B0939C01FD
:1009E00080919D0190919E01A0919F01B091A001E5
:1009F0000196A11DB11D80939D0190939E01A0932E
:100A00009F01B093A001BF91AF919F918F913F91B2
:100A10002F910F900FBE0F901F9018951F920F925D
:100A20000FB60F9211242F933F934F935F936F93C1
:100A30007F938F939F93AF93BF93EF93FF938EE436
:100A400092E00E942002FF91EF91BF91AF919F91A0
:100A50008F917F916F915F914F913F912F910F9067
:100A60000FBE0F901F9018951F920F920FB60F9206
:100A700011242F938F939F93EF93FF93E0915E0246
:100A8000F0915F028081E0916402F091650282FD45
:100A900012C09081809167028F5F8F7320916802EE
:100AA000821751F0E0916702F0E0E25BFD4F958F15
:100AB0008093670201C08081FF91EF919F918F9198
:100AC0002F910F900FBE0F901F901895E2EFF2E05C
:100AD0001382128288EE93E0A0E0B0E084839583D5
:100AE000A683B78324E031E031832083EEE4F2E093
:100AF0001382128284839583A683B78386E191E073
:100B00009183808385EC90E09587848784EC90E0E6
:100B10009787868780EC90E0918B808B81EC90E0CA
:100B2000938B828B82EC90E0958B848B86EC90E0AB
:100B3000978B868B118E128E138E148E85E290E029
:100B40009093FF028093FE021092F1021092F00245
:100B50001092EF021092EE021092ED0281E080936B
:100B6000EC021092EB0282E10E94820083E10E947B
:100B70008200E9EBF0E080818E7F808380818D7F31
:100B8000808388E48093B80085E48093BC00089556
:100B9000CF93DF93CDB7DEB7A1970FB6F894DEBF42
:100BA0000FBECDBF789484B5826084BD84B581606A
:100BB00084BD85B5826085BD85B5816085BD809128
:100BC0006E00816080936E001092810080918100A0
:100BD0008260809381008091810081608093810098
:100BE000809180008160809380008091B10084605A
:100BF0008093B1008091B00081608093B0008091BB
:100C00007A00846080937A0080917A008260809379
:100C10007A0080917A00816080937A0080917A00D6
:100C2000806880937A001092C100E0915E02F0919A
:100C30005F0282E08083E0915A02F0915B021082B1
:100C4000E0915C02F0915D028FEC8083109266026D
:100C5000E0916202F091630286E08083E09160029D
:100C6000F0916102808180618083E0916002F09167
:100C70006102808188608083E0916002F09161026E
:100C8000808180688083E0916002F09161028081C0
:100C90008F7D808387E291E00E9486030E94B402E8
:100CA0009AE0492E512C612C712C0E94B402182F0D
:100CB00086E391E00E947403212F30E040E050E091
:100CC00019A2CE0181967C01CA01B901A30192014A
:100CD0000E94BA06605DF70162937F01211531051C
:100CE0004105510589F7CF010E94740384E291E028
:100CF0000E9474031B3F81F028F4173F89F484E8B5
:100D000091E00CC01D3F29F01E3F51F48BE491E0AF
:100D100005C08EE591E002C081E791E00E94860364
:100D20000E9485014B015C0184EFC82EDD24D39421
:100D3000E12CF12C0E948501DC01CB018819990975
:100D4000AA09BB09883E9340A105B10558F0F1E01E
:100D5000CF1AD108E108F10828EE820E23E0921E96
:100D6000A11CB11CC114D104E104F10419F70E94C3
:100D7000AA029BCFA1E21A2EAA1BBB1BFD010DC02C
:100D8000AA1FBB1FEE1FFF1FA217B307E407F5073B
:100D900020F0A21BB30BE40BF50B661F771F881F17
:100DA000991F1A9469F760957095809590959B01AD
:100DB000AC01BD01CF010895EE0FFF1F0590F49126
:100DC000E02D099481E090E0F8940C94E706F89403
:020DD000FFCF53
:100DD2000000000056012601D601FA001E010A0198
:100DE200FB00000000004102AA01D90188020A02A8
:100DF200E801FC010D0A000A5445535420504346B1
:100E0200383537340A0072696C657661746F20690F
:100E12006C2076616C6F72653A20007072656D7538
:100E2200746F20696C20746173746F20310070726A
:100E3200656D75746F20696C20746173746F2032F4
:100E4200007072656D75746F20696C2074617374C3
:100E52006F2034007072656D75746F20696C207438
:080E62006173746F2038000079
:00000001FF
