:100000000C945F000C9487000C9487000C9487007C
:100010000C9487000C9487000C9487000C94870044
:100020000C9487000C9487000C9487000C94870034
:100030000C9487000C9487000C9487000C94870024
:100040000C94AC1C0C9487000C94DA1F0C941620B2
:100050000C9487000C9487000C9487000C94870004
:100060000C94E31A0C9487000000000700020100C2
:100070000003040600000000000000000102040864
:100080001020408001020408102001020408102002
:10009000040404040404040402020202020203032E
:1000A0000303030300000000250028002B000000CC
:1000B0000000240027002A002119001AD120112451
:1000C0001FBECFEFD8E0DEBFCDBF11E0A0E0B1E0B2
:1000D000EAE6F7E402C005900D92AA36B107D9F717
:1000E00012E0AAE6B1E001C01D92A43EB107E1F71B
:1000F00010E0CEEBD0E004C02297FE010E94A123C5
:10010000C83BD107C9F70E9421210C94B3230C945A
:100110000000CF93DF93EC01BC0184E791E00E94E3
:10012000E81960E084E791E00E94811961E084E7CA
:1001300091E00E94EA1942E050E0BE0184E791E0BC
:100140000E94DB1984E791E00E942E19D82F80E0ED
:10015000C82F84E791E00E942E19C82BD92BCE011D
:10016000DF91CF910895BC0184E791E00E94E819E6
:1001700061E084E791E00E94811964E684E791E000
:100180000E94811961E084E791E00C94EA19809162
:1001900008019091090190937101809370010E9470
:1001A000B30080910A0190910B01909371018093AB
:1001B00070010C94B3001F93CF93DF93C82FD0E04E
:1001C00080FD02C060E001C061E088E00E94751C13
:1001D000D695C795C0FD02C060E001C061E089E02E
:1001E0000E94751CD695C79560E08FE00E94751C33
:1001F00012E0C0FF02C061E001C060E0812F0E94F8
:10020000751CD695C7951F5F183099F761E08FE090
:10021000DF91CF911F910C94751CCF93C82F60E094
:1002200081E10E94751C61E080E10E94751C8C2FA9
:100230000E94DB0061E081E10E94751C61E080E1C9
:10024000CF910C94751CCF93C82F60E081E10E9480
:10025000751C60E080E10E94751C8C2F0E94DB0001
:1002600061E081E10E94751C61E080E1CF910C9416
:10027000751C61E08EE00E94751C65E070E080E016
:1002800090E00E94201D60E08EE00E94751C6FE0EF
:1002900070E080E090E00E94201D61E08EE00E940E
:1002A000751C6FE070E080E090E00E94201D80EF00
:1002B0000E9423018AE50E940D018AE50E940D013A
:1002C0008CEF0E9423018AE50E940D018AE50E94BD
:1002D0000D018DEF0E94230180E00E940D0180E05E
:1002E0000E940D0180E10E940D0184E10E940D0138
:1002F00082E10E940D0180E00E940D0184E00E94D5
:100300000D0188E40E940D0180E40E940D0186E148
:100310000E940D0186E10E940D0185E30E942301E8
:1003200086E30E94230188E20E940D018AE30E9475
:10033000230185E50E940D0182EF0E94230188E2DE
:100340000E940D018BE50E940D018FE70E940D01B7
:1003500088E00E940D0188E00E940D0180E00E946B
:100360000D0180E00E940D0185E10E940D0188E4ED
:100370000E940D0184E00E940D0187E00E940D01A2
:1003800081E00E940D0180E00E940D0180E00E944A
:100390000D0183E60E940D0188E00E940D0188E0B6
:1003A0000E940D0187EF0E94230181E00E940D0150
:1003B00080E00E940D0180E10E940D0180E00E941A
:1003C0000D0188EF0E94230183E30E940D0180E06C
:1003D0000E940D0180E00E940D0186EF0E94230122
:1003E00081E00E940D0181E00E940D0187E00E94E2
:1003F0000D0180E00E940D0181E00E940D018CE062
:100400000E940D0183E00E940D018CE00E940D010D
:1004100083E00E940D0185EF0E94230180E00E948D
:100420000D018EE20E940D0180E40E940D0180E02A
:100430000E940D0180E00E940D0181E00E940D01EB
:1004400080E00E940D0180E00E940D018DE00E947D
:100450000D018DE00E940D0180E00E940D0180E001
:100460000E940D0184EF0E94230187E00E940D018C
:1004700080E00E940D0180E00E940D0180E00E945A
:100480000D0182E20E940D0184E60E940D0181E0CF
:100490000E940D0182E00E940D018AE20E940D017E
:1004A0008DE40E940D0186E00E940D018AE20E9407
:1004B0000D0180E00E940D0186E00E940D0180E0A8
:1004C0000E940D0180E00E940D0180E00E940D015C
:1004D00080E00E940D0180E00E940D0180E00E94FA
:1004E0000D0183EF0E94230181E00E940D0189EF3D
:1004F0000E94230184E00E940D018AEF0E942301E3
:100500008AE00E940D0184E00E940D018CE00E94AF
:100510000D0189E10E940D0185E20E940D0183E336
:100520000E940D018DE20E940D0187E20E940D01E3
:1005300082E20E940D018EE10E940D018AE10E947B
:100540000D0180E00E940D018BEF0E9423018CE0E1
:100550000E940D0184E00E940D0189E10E940D01BD
:100560008EE10E940D0180E20E940D0183E20E9453
:100570000D0188E10E940D018DE30E940D0185E2CD
:100580000E940D0189E10E940D018BE00E940D0186
:1005900080E00E940D0189EF0E94230182E00E9409
:1005A0000D018AEF0E9423018AE00E940D0184E080
:1005B0000E940D018CE00E940D0189E10E940D0155
:1005C00085E20E940D0183E30E940D018DE20E94ED
:1005D0000D0187E20E940D0182E20E940D018EE171
:1005E0000E940D018AE10E940D0180E00E940D0130
:1005F0008BEF0E9423018CE00E940D0184E00E9499
:100600000D0189E10E940D018EE10E940D0180E241
:100610000E940D0183E20E940D0188E10E940D01FC
:100620008DE30E940D0185E20E940D0189E10E9487
:100630000D018BE00E940D0180E00E940D0189EF09
:100640000E94230181E00E940D018AEF0E94230194
:100650008AE00E940D0184E00E940D018CE00E945E
:100660000D0189E10E940D0185E20E940D0183E3E5
:100670000E940D018DE20E940D0187E20E940D0192
:1006800082E20E940D018EE10E940D018AE10E942A
:100690000D0180E00E940D018BEF0E9423018CE090
:1006A0000E940D0184E00E940D0189E10E940D016C
:1006B0008EE10E940D0180E20E940D0183E20E9402
:1006C0000D0188E10E940D018DE30E940D0185E27C
:1006D0000E940D0189E10E940D018BE00E940D0135
:1006E00080E00E940D0181E10E94230164E670E038
:1006F00080E090E00E94201D80EF0E94230185EAA7
:100700000E940D0185EA0E940D018CEF0E942301D9
:1007100085EA0E940D0185EA0E940D018AE20E948D
:10072000230180E00E940D0180E00E940D0181E024
:100730000E940D018FE30E940D018BE20E942301B4
:1007400080E00E940D0180E00E940D0180E00E9487
:100750000D018FEE0E940D0189E20E9423018CE2BF
:100760000C9423011F93CF93DF93CDB7DEB7279768
:100770000FB6F894DEBF0FBECDBF182F8AE22F83CD
:100780003E834B835A836D837C8399830E9423012C
:100790009981892F0E940D01812F0E940D015A819C
:1007A000852F0E940D014B81842F0E940D018BE249
:1007B0000E9423017C81872F0E940D016D81862F6D
:1007C0000E940D013E81832F0E940D012F81822FF7
:1007D0000E940D018CE227960FB6F894DEBF0FBE83
:1007E000CDBFDF91CF911F910C942301EF92FF9227
:1007F0000F931F93CF93DF93EA01F22EE32EC60FE0
:10080000D71F9E01AC010E94B203CC0FDD1F01E097
:1008100010E008C08E2D0E940D018F2D0E940D0149
:100820000F5F1F4FC017D107A8F7DF91CF911F911E
:100830000F91FF90EF900895EF92FF920F931F9307
:10084000CF93DF93EA01F22EE32EC80FD91F9B014D
:10085000AE010E94B203CC0FDD1F01E010E008C022
:100860008E2D0E940D018F2D0E940D010F5F1F4FD5
:10087000C017D107A8F7DF91CF911F910F91FF907B
:10088000EF9008952F923F924F925F926F927F92D6
:100890008F929F92AF92BF92CF92DF92EF92FF9290
:1008A0000F931F93CF93DF93CDB7DEB728970FB683
:1008B000F894DEBF0FBECDBF7B0158874F830097F2
:1008C00009F415C18130910509F418C182309105F0
:1008D00051F083309105C1F08430910519F18530D4
:1008E000910569F10AC0390109831A83522E432EFA
:1008F00019014801B22EA32E69018630910541F1FC
:100900008730910579F10AC0390109831A83502E85
:10091000412E19014901B22EA32E6901883091059B
:1009200061F10AC0390129833A83502E412E180102
:100930004901B22EA32E6801099729F12EC0390171
:1009400029837A82502E412E19014901520124C077
:10095000390129837A82522E472C19014901B02E80
:10096000A12E1AC0380109837A82502E472C180113
:100970004901B22EA92C690110C0390129837A825C
:10098000522E472C05C0390129837A82502E412EE0
:1009900013014301B62CA72C630187010E5F1F4F83
:1009A000960147E050E06F817885C8010E941C04E1
:1009B0006F8178856F5F7F4F960147E050E0C801F7
:1009C0000E941C04CF80D88482E0C80ED11CF7019D
:1009D0003A96FC83EB832B2D3A2D47E050E0B6018D
:1009E000CF010E94F603C7010B969E838D832B2DAA
:1009F0003A2D47E050E0B6010E94F603AF80B8847C
:100A00009CE0A90EB11C940147E050E0B5018B8138
:100A10009C810E94F603940147E050E0B5018D816E
:100A20009E810E94F6036F8178856C5E7F4F9101F5
:100A300047E050E0C8010E941C046F8178856B5E1E
:100A40007F4F910147E050E0C8010E941C04252D12
:100A5000342D47E050E0B501C7010E94F60347017D
:100A6000EFEF8E1A9E0A252D342D47E050E0B50198
:100A7000C4010E94F60329813A8147E050E0B601A3
:100A8000C7010E94F60329813A8147E050E0B60190
:100A9000C4010E94F6036F817885665F7F4F9301E2
:100AA00047E050E0C8010E941C046F817885655FB3
:100AB0007F4F930147E050E0C80128960FB6F894A5
:100AC000DEBF0FBECDBFDF91CF911F910F91FF9081
:100AD000EF90DF90CF90BF90AF909F908F907F90DE
:100AE0006F905F904F903F902F900C941C0429833F
:100AF0003A83522E432E1901690106C009831A83D5
:100B0000502E412E1801680138014901B22EA32E42
:100B1000E6CE8F929F92AF92BF92CF92DF92EF92EA
:100B2000FF920F931F93CF93DF935C016B014A01F8
:100B30007901E60EF71EEB010DC09801A401B60184
:100B4000C5010E941C049801A401BE01C5010E94B8
:100B50001C042196CE15DF0581F7DF91CF911F91FF
:100B60000F91FF90EF90DF90CF90BF90AF909F904C
:100B70008F900895AF92BF92CF92DF92EF92FF9243
:100B80000F931F93CF93DF93EC017B016A0159010F
:100B900098010E941C04B5016E0D7F1D9801A601ED
:100BA000CE010E941C049801A501B701CE010E944C
:100BB000F6039801A501B701C6018C0F9D1FDF91B7
:100BC000CF911F910F91FF90EF90DF90CF90BF904A
:100BD000AF900C94F603CF92DF92EF92FF920F93B7
:100BE0001F93CF93DF938C017B01EA016B018CE0B3
:100BF000C80ED11C9A014EE050E0B601C80109961A
:100C00000E94F6039E014EE050E0B601C8010A962C
:100C10000E94F6039E014EE050E0B601C8010B961B
:100C20000E94F6039E014EE050E0B601C8010C960A
:100C30000E94F6030D5F1F4FB7016E5E7F4F9E014E
:100C40004EE050E0C8010E941C04B7016D5E7F4F6A
:100C50009E014EE050E0C8010E941C04B7016C5E8A
:100C60007F4F9E014EE050E0C801DF91CF911F9170
:100C70000F91FF90EF90DF90CF900C941C04AF92F7
:100C8000BF92CF92DF92EF92FF920F931F93CF9379
:100C9000DF93EC018B015A0169017B018CE0E80EC6
:100CA000F11C4EE050E0B701CE0109960E94F60318
:100CB00096014EE050E0B701CE010A960E94F6037D
:100CC00096014EE050E0B701CE010B960E94F6036C
:100CD00096014EE050E0B701CE010C960E94F6035B
:100CE0002396B8016E5E7F4F95014EE050E0CE0135
:100CF0000E941C04B8016D5E7F4F95014EE050E0EC
:100D0000CE010E941C04B8016C5E7F4F95014EE03D
:100D100050E0CE01DF91CF911F910F91FF90EF90A6
:100D2000DF90CF90BF90AF900C941C042F923F9215
:100D30004F925F926F927F928F929F92AF92BF92EB
:100D4000CF92DF92EF92FF920F931F93CF93DF9397
:100D5000CDB7DEB72A970FB6F894DEBF0FBECDBF72
:100D60007A8369835A874987009709F46DC1813076
:100D7000910509F472C18230910551F083309105DB
:100D8000C9F08430910529F18530910581F10BC0BE
:100D90005901702E612E922E832E522E432E7801F1
:100DA0001901D22EC32E8630910561F1873091054D
:100DB00099F10BC05901702E612E902E812E522E6A
:100DC000432E79011901D22EC32E8830910581F16D
:100DD0000BC05901722E632E902E812E502E412E63
:100DE00079011901D02EC12E099741F132C0590164
:100DF000722E6B2C902E812E522E4B2C7901202E90
:100E0000312E25C05901722E6B2C922E8B2C522E16
:100E10004B2C790118011BC05801702E6B2C902EA1
:100E20008B2C502E4B2C79011901D22ECF2C11C0B6
:100E30005901722E6B2C922E8B2C05C05901722EEB
:100E40006B2C902E812E5A2C4B2C75011501DA2C0F
:100E5000CB2C09811A810D5F1F4F2D2D3C2D4EE0AB
:100E600050E069857A85C8010E941C0469857A85ED
:100E70006F5F7F4F2D2D3C2D4EE050E0C8010E944A
:100E80001C0469857A856E5F7F4F2D2D3C2D4EE0C9
:100E900050E0C8010E941C04C984DA8483E0C80EB3
:100EA000D11CE981FA817296FC83EB8391014EE0BB
:100EB00050E0B601CF010E94F60389819A814396E2
:100EC0009E838D8391014EE050E0B6010E94F603AF
:100ED000E981FA817496F887EF8391014EE050E042
:100EE000B601CF010E94F60329843A84F6E12F0E61
:100EF000311C97014EE050E0B1018B819C810E9432
:100F0000F60397014EE050E0B1018D819E810E9471
:100F1000F60397014EE050E0B1018F8198850E9461
:100F2000F60369857A856B5D7F4F252D342D4EE064
:100F300050E0C8010E941C0469857A856A5D7F4F74
:100F4000252D342D4EE050E0C8010E941C04698517
:100F50007A85695D7F4F252D342D4EE050E0C80124
:100F60000E941C04292D382D4EE050E0B1018981EA
:100F70009A810E94F60349805A808FEF481A580AD6
:100F8000292D382D4EE050E0B101C2010E94F60338
:100F9000E980FA8092E0E90EF11C292D382D4EE00F
:100FA00050E0B101C7010E94F603272D362D4EE017
:100FB00050E0B60189819A810E94F603272D362DD3
:100FC0004EE050E0B601C2010E94F603272D362DF7
:100FD0004EE050E0B601C7010E94F60369857A85AC
:100FE0006E5E7F4F95014EE050E0C8010E941C04E8
:100FF00069857A856D5E7F4F95014EE050E0C801AE
:101000000E941C0469857A856C5E7F4F95014EE0D5
:1010100050E0C8012A960FB6F894DEBF0FBECDBFD0
:10102000DF91CF911F910F91FF90EF90DF90CF90C4
:10103000BF90AF909F908F907F906F905F904F90F8
:101040003F902F900C941C04722E632E922E832EB0
:10105000522E432ED22EC32E08C0702E612E902EFB
:10106000812E502E412ED02EC12E5801790119010A
:101070008BCE8F929F92AF92BF92CF92DF92EF92E0
:10108000FF920F931F93CF93DF93EA0120E030E0AC
:1010900040E251E40E94E6220E94FF21FB0124E687
:1010A00030E0CB01B9010E945523AF01481B590B19
:1010B000CA01B9010E9455235B014CE94603900126
:1010C000479F300D11242E0F3F1FEAE0F0E0C901C9
:1010D000BF010E945523B901681B790BCB01BF01E9
:1010E0000E9455236B0146EF46037001479FF00CA9
:1010F0001124E20EF31E229731F0C2E3D0E08824DF
:101100008A94982C05C0CEEBD0E0812C58EF952E18
:1011100071E0A716B10449F400E010E094014FE03B
:1011200050E0BE0181E090E00CC082E0A816B1045E
:1011300059F400E010E094014FE050E0BE0182E07D
:1011400090E00E9496062DC043E0A416B10459F425
:1011500000E010E094014FE050E0BE0183E090E039
:101160000E9496062BC054E0A516B10459F400E085
:1011700010E094014FE050E0BE0184E090E00E9456
:10118000960636C065E0A616B10459F400E010E0FA
:1011900094014FE050E0BE0185E090E00E94960689
:1011A00034C076E0A716B10449F400E010E09401E1
:1011B0004FE050E0BE0186E090E032C087E0A81624
:1011C000B10449F400E010E094014FE050E0BE01AA
:1011D00087E090E025C048E0A416B10449F400E09F
:1011E00010E094014FE050E0BE0188E090E018C0AC
:1011F00059E0A516B10449F400E010E094014FE075
:1012000050E0BE0189E090E00BC0AB2859F400E04B
:1012100010E020E030E04FE050E0BE0180E090E0E0
:101220000E94960661E0C616D10459F4BE01625EC2
:101230007F4F00E010E094014FE050E081E090E04B
:101240000EC072E0C716D10469F4BE01625E7F4F22
:1012500000E010E094014FE050E082E090E00E9456
:10126000960633C083E0C816D10469F4BE01625EFD
:101270007F4F00E010E094014FE050E083E090E009
:101280000E94960631C044E0C416D10469F4BE0140
:10129000625E7F4F00E010E094014FE050E084E098
:1012A00090E00E9496063EC055E0C516D10469F450
:1012B000BE01625E7F4F00E010E094014FE050E01D
:1012C00085E090E00E9496063CC066E0C616D10418
:1012D00059F4BE01625E7F4F00E010E094014FE0E0
:1012E00050E086E090E039C077E0C716D10459F4A9
:1012F000BE01625E7F4F00E010E094014FE050E0DD
:1013000087E090E02AC088E0C816D10459F4BE01F5
:10131000625E7F4F00E010E094014FE050E088E013
:1013200090E01BC049E0C416D10459F4BE01625ECE
:101330007F4F00E010E094014FE050E089E090E042
:101340000CC0CD2861F4BE01625E7F4F00E010E06A
:1013500094014FE050E080E090E00E94960651E05A
:10136000E516F10459F4BE01645C7F4F00E010E023
:1013700094014FE050E081E090E00EC062E0E6169C
:10138000F10469F4BE01645C7F4F00E010E0940159
:101390004FE050E082E090E00E94960633C073E098
:1013A000E716F10469F4BE01645C7F4F00E010E0D1
:1013B00094014FE050E083E090E00E94960631C037
:1013C00084E0E816F10469F4BE01645C7F4F00E03C
:1013D00010E094014FE050E084E090E00E94960617
:1013E0003EC045E0E416F10469F4BE01645C7F4F41
:1013F00000E010E094014FE050E085E090E00E94B2
:1014000096063CC056E0E516F10459F4BE01645C52
:101410007F4F00E010E094014FE050E086E090E064
:1014200039C067E0E616F10459F4BE01645C7F4FF1
:1014300000E010E094014FE050E087E090E02AC027
:1014400078E0E716F10459F4BE01645C7F4F00E0D8
:1014500010E094014FE050E088E090E01BC089E08C
:10146000E816F10459F4BE01645C7F4F00E010E01F
:1014700094014FE050E089E090E00CC0EF2861F467
:10148000BE01645C7F4F00E010E094014FE050E04B
:1014900080E090E00E949606DF91CF911F910F911E
:1014A000FF90EF90DF90CF90BF90AF909F908F9084
:1014B00008950F931F93CF93DF9300E010E020E097
:1014C00038EF4CEC50E06EE670E084E090E00E9473
:1014D000420480910801909109010E94890074E002
:1014E000969587957A95E1F7BC0180E090E00E949F
:1014F000302220E030E040E85DE30E94E6228B01EC
:10150000D82FC92F20E030E0A901FE01712F8F2FC5
:101510009E2F0E94E22220E030E04FEF5FEF6CE16F
:1015200070E087FD07C081E190E00E94EB056CE070
:1015300071E006C081E190E00E943F0669E171E040
:101540008DE392E00E94B91D9E01602F712F832FC1
:101550009C2F0E94FF2160936E0166E271E08DE393
:1015600092E00E94B91D22E030E0CE01402F512FC1
:10157000692F7C2F8DE392E00E943C1F68E371E0AD
:101580008DE392E00E94B91D60916E018DE392E0BF
:101590000E94D81D41E050E09E01602F712F832FE3
:1015A0009C2F0E94390880910A0190910B010E94A2
:1015B000890064E0969587956A95E1F7BC0180E023
:1015C00090E00E94302220E030E040E85DE30E949D
:1015D000E6228B01D82FC92F20E030E0A901FE01BF
:1015E000712F8F2F9E2F0E94E22220E030E040E0FA
:1015F00058EF6CE170E087FD07C08CE990E00E9435
:10160000EB056CE071E006C08CE990E00E943F06BB
:1016100069E171E08DE392E00E94B91D9E01602FA7
:10162000712F832F9C2F0E94FF2160936D0142E058
:1016300050E09E01602F712F832F9C2FDF91CF915F
:101640001F910F910C9439080F931F9300EE17E030
:101650002EEE30E04EE351E060E070E080E090E09C
:101660000E94BA050FE110E024E330E04FE251E0C0
:101670006AE070E088E090E00E94BA0529E830E076
:101680004FE251E06FE370E088E090E00E94BA051D
:101690002DE130E04FE251E069EC70E088E090E04D
:1016A0000E94BA052FEF3FEF41E050E060E170E0AB
:1016B00083E190E00E941C042FEF3FEF41E050E0F7
:1016C00061E170E083E190E00E941C042FEF3FEFA6
:1016D0004AE050E064E170E083E190E00E94F603AC
:1016E0002FEF3FEF4AE050E064E170E084E190E0EA
:1016F0000E94F6032FEF3FEF4AE050E064E170E014
:1017000088E190E00E94F6032FEF3FEF4AE050E0BF
:1017100064E170E089E190E00E94F6032FEF3FEF73
:1017200041E050E064E170E08AE190E00E941C0436
:101730002FEF3FEF41E050E065E170E08AE190E09B
:101740000E941C042FEF3FEF4AE050E064E170E09C
:101750008CE190E00E94F6032FEF3FEF4AE050E06B
:1017600064E170E08DE190E00E94F6032FEF3FEF1F
:1017700042E050E065E170E083E290E00E94F60311
:101780002FEF3FEF42E050E065E170E084E290E04F
:101790000E94F6032FEF3FEF42E050E065E170E07A
:1017A00085E290E00E94F6032FEF3FEF42E050E029
:1017B0006CE170E083E290E00E94F6032FEF3FEFD0
:1017C00042E050E06CE170E084E290E00E94F603B9
:1017D0002FEF3FEF42E050E06CE170E085E290E0F7
:1017E0000E94F6032FEF3FEF45E050E064E370E026
:1017F00088E690E00E94F6032FEF3FEF45E050E0CF
:1018000064E370E089E690E00E94F6032FEF3FEF7B
:1018100045E050E064E370E08AE690E00E94F60361
:1018200020E038EF4AE050E064E170E086E990E0C3
:101830000E94F60320E038EF4AE050E064E170E0F7
:1018400087E990E00E94F60320E038EF41E050E0A5
:1018500064E170E088E990E00E94F60320E038EF50
:1018600041E050E064E170E089E990E00E94F60315
:1018700020E038EF4AE050E064E170E08AE990E06F
:101880000E94F60320E038EF4AE050E064E170E0A7
:101890008BE990E00E94F60320E038EF41E050E051
:1018A0006DE170E088E990E00E94F60320E038EFF7
:1018B00041E050E06DE170E089E990E00E94F603BC
:1018C00020E038EF4AE050E064E170E08FE990E01A
:1018D0000E94F60320E038EF4AE050E064E170E057
:1018E00080EA90E00E94F60320E038EF4AE050E002
:1018F00064E170E083EA90E00E94F60320E038EFB4
:101900004AE050E064E170E084EA90E00E94F6036F
:1019100020E038EF41E050E06DE170E081EA90E0D6
:101920000E94F60320E038EF41E050E06DE170E006
:1019300082EA90E00E94F60320E038EF40E150E0B8
:101940006EE070E089EA90E00E94F60320E038EF54
:1019500040E150E06EE070E08AEA90E00E94F60319
:1019600020E038EF44E050E060E170E088EA90E089
:101970000E941C0420E038EF44E050E061E170E098
:1019800088EA90E00E941C0420E038EF42E050E03A
:101990006DE170E08BEA90E00E941C0420E038EFDB
:1019A00042E050E06EE170E08BEA90E00E941C049F
:1019B00020E038EF42E050E065E170E081EB90E03C
:1019C0000E94F60320E038EF42E050E065E170E06D
:1019D00082EB90E00E94F60320E038EF42E050E016
:1019E00065E170E083EB90E00E94F60320E038EFC1
:1019F00042E050E06CE170E081EB90E00E94F60381
:101A000020E038EF42E050E06CE170E082EB90E0E3
:101A10000E94F60320E038EF42E050E06CE170E015
:101A200083EB90E00E94F60320E038EF45E050E0C1
:101A300064E370E085EF90E00E94F60320E038EF69
:101A400045E050E064E370E086EF90E00E94F6032A
:101A500020E038EF45E050E064E370E087EF90E08D
:101A60000E94F6032FE130E044E050E063E270E0D2
:101A70008CE191E00E94F6032FE130E044E050E079
:101A800063E270E08DE191E00E94F6032FE130E027
:101A900044E050E063E270E08EE191E00E94F603E2
:101AA0002FE130E044E050E063E270E08FE191E04C
:101AB0000E94F6032FE130E049E050E063E270E07D
:101AC00087E291E00E941C042FE130E04AE050E000
:101AD00064E270E086E291E00E941C042FE130E0B5
:101AE0004AE050E065E270E086E291E00E94F60391
:101AF0002FE130E04AE050E065E270E087E291E0FB
:101B00000E94F6032FE130E04AE050E060E370E02D
:101B100086E291E00E941C042FE130E049E050E0B1
:101B200061E370E087E291E00E941C042CEB31EB52
:101B300048E750E06BE470E082E390E00E94F60337
:101B40002CEB31EB4FEE50E065EA70E082E390E081
:101B50000E941C0420E335E74FEE50E065E570E09D
:101B600083E390E00E941C0420E335E74FEE50E051
:101B700069E670E083E390E00E941C0420E335E70F
:101B80004FEE50E06DE770E083E390E00E941C04AC
:101B900020E335E74FEE50E061E970E083E390E049
:101BA0000E941C0420E335E74FEE50E066EA70E047
:101BB00083E390E00E941C0420E335E74FEE50E001
:101BC00069EB70E083E390E00E941C0420E335E7BA
:101BD00048E750E06BE470E086E490E00E94F60392
:101BE00020E335E748E750E06BE470E08AE590E0F9
:101BF0000E94F60320E335E748E750E06BE470E02D
:101C00008EE690E00E94F60320E335E748E750E0D7
:101C10006BE470E082E890E00E94F60320E335E791
:101C200048E750E06BE470E086E990E00E94F6033C
:101C300020E335E748E750E06BE470E08AEA90E0A3
:101C40000E94F60320E335E748E750E06BE470E0DC
:101C50008EEB90E00E94F60320E335E748E750E082
:101C60006BE470E082ED90E00E94F60320E335E73C
:101C700048E750E06BE470E086EE90E00E94F603E7
:101C800020E335E748E750E06BE470E08AEF90E04E
:101C90000E94F60320E335E748E750E06BE470E08C
:101CA0008EE091E00E94F60320E335E748E750E03C
:101CB0006BE470E082E291E00E94F6032FEF3FEFC9
:101CC00040E050E065EA70E082E390E00E94F603B5
:101CD0002FEF3FEF40E050E065EA70E08CE390E0EA
:101CE0000E94F6032FEF3FEF40E050E065EA70E01E
:101CF00086E490E00E94F6032FEF3FEF40E050E0D3
:101D000065EA70E080E590E00E94F6032FEF3FEF78
:101D100040E050E065EA70E08AE590E00E94F6035A
:101D20002FEF3FEF40E050E065EA70E084E690E09E
:101D30000E94F6032FEF3FEF40E050E065EA70E0CD
:101D40008EE690E00E94F6032FEF3FEF40E050E078
:101D500065EA70E088E790E00E94F6032FEF3FEF1E
:101D600040E050E065EA70E082E890E00E94F6030F
:101D70002FEF3FEF40E050E065EA70E08CE890E044
:101D80000E94F6032FEF3FEF40E050E065EA70E07D
:101D900086E990E00E94F6032FEF3FEF40E050E02D
:101DA00065EA70E080EA90E00E94F6032FEF3FEFD3
:101DB00040E050E065EA70E08AEA90E00E94F603B5
:101DC0002FEF3FEF40E050E065EA70E084EB90E0F9
:101DD0000E94F6032FEF3FEF40E050E065EA70E02D
:101DE0008EEB90E00E94F6032FEF3FEF40E050E0D3
:101DF00065EA70E088EC90E00E94F6032FEF3FEF79
:101E000040E050E065EA70E082ED90E00E94F60369
:101E10002FEF3FEF40E050E065EA70E08CED90E09E
:101E20000E94F6032FEF3FEF40E050E065EA70E0DC
:101E300086EE90E00E94F6032FEF3FEF40E050E087
:101E400065EA70E080EF90E00E94F6032FEF3FEF2D
:101E500040E050E065EA70E08AEF90E00E94F6030F
:101E60002FEF3FEF40E050E065EA70E084E091E062
:101E70000E94F6032FEF3FEF40E050E065EA70E08C
:101E80008EE091E00E94F6032FEF3FEF40E050E03C
:101E900065EA70E088E191E00E94F6032FEF3FEFE2
:101EA00040E050E065EA70E082E291E00E94F603D3
:101EB0002FEF3FEF40E050E065E570E082E390E017
:101EC0000E94F6032FEF3FEF40E050E069E670E03C
:101ED00082E390E00E94F6032FEF3FEF40E050E0F6
:101EE0006DE770E082E390E00E94F6032FEF3FEF92
:101EF00040E050E061E970E082E390E00E94F60388
:101F00002FEF3FEF40E050E065EA70E082E390E0C1
:101F10000E94F6032FEF3FEF40E050E069EB70E0E6
:101F200082E390E00E94F60320EE37E044E050E0C8
:101F300063E570E08FE190E00E94F60320EE37E069
:101F400044E050E065E570E08DE190E00E941C0403
:101F500020EE37E044E050E062E570E083E290E09C
:101F60000E94F60320EE37E043E050E066E570E0C3
:101F700084E290E00E941C0420EE37E047E050E04D
:101F800062E570E087E290E00E94F60320EE37E021
:101F900047E050E062E570E08AE290E00E94F603DC
:101FA00020EE37E047E050E062E570E08EE290E03E
:101FB0000E94F60320EE37E043E050E062E570E077
:101FC0008BE290E00E941C0420EE37E043E050E0FA
:101FD00069E570E08BE290E00E941C0420EE37E09F
:101FE00044E050E067E670E08FE190E00E94F60385
:101FF00020EE37E044E050E069E670E08DE190E0EB
:102000000E941C0420EE37E044E050E066E670E0F9
:1020100083E290E00E941C0420EE37E042E050E0B2
:1020200069E670E085E290E00E941C0420EE37E053
:1020300044E050E06DE670E083E290E00E941C0412
:1020400020EE37E047E050E066E670E087E290E09F
:102050000E94F60320EE37E047E050E066E670E0CD
:102060008AE290E00E94F60320EE37E047E050E07D
:1020700066E670E08EE290E00E94F60320EE37E024
:1020800043E050E066E670E08BE290E00E941C04C2
:1020900020EE37E043E050E06DE670E08BE290E048
:1020A0000E941C0420EE37E044E050E06BE770E053
:1020B0008FE190E00E94F60320EE37E044E050E02C
:1020C0006DE770E08DE190E00E941C0420EE37E0A7
:1020D00044E050E06AE770E083E290E00E941C0474
:1020E00020EE37E043E050E06BE770E087E290E0FD
:1020F0000E94F60320EE37E044E050E06EE770E027
:1021000083E290E00E941C0420EE37E042E050E0C1
:102110006FE770E083E290E00E94F60320EE37E084
:1021200043E050E061E870E084E290E00E941C042B
:1021300020EE37E047E050E06AE770E08AE290E0A6
:102140000E94F60320EE37E047E050E06AE770E0D7
:102150008EE290E00E94F60320EE37E043E050E08C
:102160006AE770E08BE290E00E941C0420EE37E00A
:1021700043E050E061E870E08BE290E00E941C04D4
:1021800020EE37E044E050E06FE870E08FE190E04F
:102190000E94F60320EE37E044E050E061E970E091
:1021A0008DE190E00E941C0420EE37E047E050E013
:1021B0006EE870E087E290E00E94F60320EE37E0E0
:1021C00047E050E06EE870E08AE290E00E94F6039B
:1021D00020EE37E047E050E06EE870E08EE290E0FD
:1021E0000E94F60320EE37E043E050E06EE870E036
:1021F0008BE290E00E941C0420EE37E043E050E0C8
:1022000065E970E08BE290E00E941C0420EE37E06C
:1022100047E050E062EA70E08AE290E00E94F60354
:1022200020EE37E047E050E062EA70E08EE290E0B6
:102230000E94F60320EE37E043E050E062EA70E0EF
:102240008BE290E00E941C0420EE37E043E050E077
:1022500069EA70E08BE290E00E941C0420EE37E017
:1022600044E050E069EB70E08DE190E00E941C04D6
:1022700020EE37E047E050E066EB70E087E290E068
:102280000E94F60320EE37E047E050E066EB70E096
:102290008AE290E00E94F60320EE37E047E050E04B
:1022A00066EB70E08EE290E00E94F60320EE37E0ED
:1022B00043E050E066EB70E08BE290E00E941C048B
:1022C00020EE37E043E050E06DEB70E08BE290E011
:1022D0000E941C0420EE3FEF42E050E063E470E017
:1022E00085E190E00E941C0420EE3FEF42E050E0C8
:1022F00064E470E084E190E00E94F60320EE3FEF9A
:1023000042E050E067E470E085E190E00E941C0448
:1023100020EE3FEF42E050E064E470E088E190E0BE
:102320000E94F60320EE3FEF44E050E063E470E0EB
:102330008BE190E00E94F60320EE3FEF40E050E09A
:1023400064E470E08CE190E00E941C0420EE3FEF1A
:1023500041E050E063E470E08DE190E00E941C04F5
:1023600020EE3FEF40E050E064E470E08FE190E069
:102370000E941C0420EE3FEF42E050E064E470E075
:1023800082E290E00E94F60320EE3FEF42E050E050
:1023900063E470E083E290E00E941C0420EE3FEFD3
:1023A00042E050E065E470E083E290E00E941C04AB
:1023B00020EE3FEF42E050E067E470E083E290E01F
:1023C0000E941C0420EE3FEF41E050E064E470E026
:1023D00086E290E00E94F60320EE3FEF44E050E0FA
:1023E00061E470E080E390E00E941C0420EE3FEF87
:1023F00044E050E067E470E080E390E00E941C0459
:1024000020EE3FEF44E050E062E470E080E390E0D3
:102410000E94F60320EE3FEF44E050E062E470E0FB
:1024200084E390E00E94F60320EE3FEF43E050E0AB
:1024300061E470E088E590E00E94F60320EE3FEF53
:1024400042E050E064E470E089E590E00E941C0402
:1024500020EE3FEF46E050E061E470E08CE590E074
:102460000E94F60320EE3FEF46E050E061E470E0AA
:1024700080E890E00E94F60320EE3FEF42E050E05B
:1024800061E470E081E890E00E941C0420EE3FEFE0
:1024900042E050E064E470E081E890E00E941C04B7
:1024A00020EE3FEF42E050E067E470E081E890E02A
:1024B0000E941C0420EE3FEF46E050E061E470E033
:1024C00084E890E00E94F60320EE3FEF46E050E003
:1024D00061E470E087EA90E00E94F60320EE3FEFAF
:1024E00044E050E061E470E08BEA90E00E941C045C
:1024F00020EE3FEF44E050E064E470E08BEA90E0CF
:102500000E941C0420EE3FEF44E050E067E470E0DE
:102510008BEA90E00E941C0420EE3FEF43E050E085
:1025200061E470E08FEA90E00E94F60320EE3FEF56
:1025300041E050E065E470E08BEA90E00E94F60331
:1025400020EE3FEF46E050E061E470E08FEC90E079
:102550000E94F60320EE3FEF46E050E061E470E0B9
:1025600083ED90E00E94F60320EE3FEF43E050E061
:1025700061E470E084ED90E00E941C0420EE3FEFE7
:1025800043E050E064E470E084ED90E00E941C04BD
:1025900020EE3FEF43E050E067E470E084ED90E030
:1025A0000E941C0420EE3FEF41E050E065E470E043
:1025B00087ED90E00E94F60320EE3FEF44E050E00C
:1025C00061E470E085EF90E00E941C0420EE3FEF94
:1025D00044E050E064E470E085EF90E00E941C0469
:1025E00020EE3FEF44E050E067E470E085EF90E0DC
:1025F0000E941C0420EE3FEF43E050E061E470E0F5
:1026000089EF90E00E94F60320EE3FEF41E050E0BA
:1026100065E470E085EF90E00E94F60320EE3FEF66
:1026200044E050E061E470E08BEF90E00E941C0415
:1026300020EE3FEF44E050E067E470E08BEF90E085
:102640000E941C0420EE3FEF44E050E062E470E0A2
:102650008BEF90E00E94F60320EE3FEF44E050E065
:1026600062E470E08FEF90E00E94F60320EE3FEF0F
:1026700044E050E061E470E08DE191E00E941C04D0
:1026800020EE3FEF44E050E064E470E08DE191E043
:102690000E941C0420EE3FEF44E050E067E470E04D
:1026A0008DE191E00E941C0420EE3FEF43E050E0FA
:1026B00061E470E081E291E00E94F60320EE3FEFDA
:1026C00041E050E065E470E08DE191E00E94F603A6
:1026D00020EE3FEF43E050E061E470E083E291E000
:1026E0000E94F60320EE3FEF42E050E064E470E029
:1026F00084E291E00E941C0420EE3FEF46E050E0AF
:1027000061E470E087E291E00E94F60320EE3FEF83
:1027100043E150E06AE470E082E390E00E941C0430
:1027200000EE1FEF24E030E044E150E064EC70E0A4
:1027300082E390E00E9489051F910F910895EF9226
:10274000FF920F931F93CF93DF93EC0100E010E013
:1027500020E038EF4CEC50E06EE670E083E090E073
:102760000E9442047E018FEFE81AF80A28E730E061
:1027700044E150E06BE470E0C7010E9489058E01DE
:102780000C5E1F4F20E335E748E750E06BE470E054
:10279000C8010E94F6032CEB31EB44E150E065EAFE
:1027A00070E0C7010E941C042FEF3FEF40E050E0B3
:1027B00065EA70E0CE010A960E94F6032FEF3FEF24
:1027C00040E050E065EA70E0C8010E94F60320E3B3
:1027D00035E744E150E065E570E0C7010E941C0464
:1027E00020E335E744E150E069E670E0C7010E946C
:1027F0001C0420E335E744E150E06DE770E0C701D9
:102800000E941C0420E335E744E150E061E970E0F8
:10281000C7010E941C0420E335E744E150E066EA6A
:1028200070E0C7010E941C0420E335E744E150E05A
:1028300069EB70E0C7010E941C0420EE3FEF43E10A
:1028400050E06AE470E0CE010E941C047E0184E145
:10285000E81AF10820E030E043E150E06AE470E07B
:10286000C7010E941C0400EE1FEF24E030E044E1A9
:1028700050E064EC70E0CE010E94890500E010E0B9
:1028800024E030E044E150E064EC70E0C7010E94D5
:102890008905DF91CF911F910F91FF90EF900895DF
:1028A0000F931F930E94590A80916A0190916B01C6
:1028B000019690936B0180936A0180916F018F5F05
:1028C00080936F018E3179F510926F0180916C01C8
:1028D0008F5F80936C01803331F510926C01109200
:1028E0006B0110926A0100E010E024E030E044E166
:1028F00050E064EC70E080910601909107010E9425
:10290000890583E390E0909307018093060181E0BD
:1029100090E0909305018093040181EF90E0909303
:1029200003018093020180916A0190916B010697E7
:1029300009F0B3C010926B0110926A0160916E01B0
:102940002EEF6202B00111246B557F4F2FEF3FEF46
:1029500040E050E080910601909107010E941C0424
:1029600060916D018EEF6802B00111246B557F4FAD
:1029700020E038EF40E050E080910601909107019F
:102980000E941C04809106019091070186349105F4
:10299000F9F08A359105E1F08E369105C9F082385B
:1029A0009105B1F08639910599F08A3A910581F047
:1029B0008E3B910569F0823D910551F0863E91056F
:1029C00039F08A3F910521F08E3021E0920711F411
:1029D0000E949F138091060190910701C39711F502
:1029E00082E390E00E949F13809100019091010189
:1029F00000E010E024E030E044E150E064EC70E0FE
:102A0000835F9E4F0E948905809100019091010192
:102A100020E030E043E150E06AE470E0835F9E4FE5
:102A20000E941C04809106019091070101969093E9
:102A300007018093060100E010E020E038EF4CEC45
:102A400050E06EE670E082E090E00E944204609107
:102A500004017091050140916E0182E791E00E94AE
:102A6000C617609102017091030140916D0182E7E8
:102A700091E00E94C6178091040190910501019692
:102A800090930501809304018091020190910301CC
:102A9000019690930301809302011F910F91089575
:102AA000EF92FF920F931F93CF93DF93F82EE92EAF
:102AB0002FEE30E04FE351E060E070E080E090E026
:102AC0000E94B20300E411E00BC08E2D0E940D01A4
:102AD0008F2D0E940D012197C1F70150110919F0A6
:102AE000C0EFD0E0F2CFDF91CF911F910F91FF9017
:102AF000EF900895982F92959F708F702AE0929F83
:102B0000800D112408954F925F926F927F928F9261
:102B10009F92AF92BF92CF92DF92EF92FF920F936C
:102B20001F93CF93DF933C014B015A01E901280128
:102B300000E010E020E038EF4CEC50E06EE670E092
:102B400085E090E00E94420468E670E084E791E04E
:102B50000E94E819E0917401F09175010190F081F3
:102B6000E02D60E084E791E0099584E791E00E9420
:102B7000FD1947E050E068E670E084E791E00E94CC
:102B8000DB1984E791E00E942E198F770E947A1555
:102B9000F301808384E791E00E942E190E947A1548
:102BA000F401808384E791E00E942E198F730E94C4
:102BB0007A15F501808384E791E00E942E190E9426
:102BC0007A15888384E791E00E942E190E947A1575
:102BD000F201808384E791E00E942E190E947A1509
:102BE000F701808384E791E00E942E190E947A15F4
:102BF000F6018083DF91CF911F910F91FF90EF90AD
:102C0000DF90CF90BF90AF909F908F907F906F900C
:102C10005F904F900895CF92DF92EF92FF920F93C3
:102C20001F93CF93DF93CDB7DEB727970FB6F894F6
:102C3000DEBF0FBECDBF00E010E020E038EF4CEC6F
:102C400050E06EE670E086E090E00E944204CC2402
:102C5000C394D12CCC0EDD1EF2E0EF2EF12CEC0E45
:102C6000FD1E8E010D5F1F4F9E012C5F3F4FAE0179
:102C70004B5F5F4FBE016A5F7F4FCE0107960E9498
:102C800083158D81AAE0EA2E6E2D0E944923D82E4D
:102C900000E010E020EE3FEF4CEC50E061E170E02E
:102CA00090E00E944204B6EFFB2E8D8120EE3FEFB4
:102CB0004CEC50E060E270E0DF9C800D112490E06D
:102CC0000E94420420EE3FEF42E050E062ED70E0EF
:102CD00081E390E00E94F60320EE3FEF42E050E0F7
:102CE00062ED70E082E390E00E94F60320EE3FEF99
:102CF00042E050E069ED70E081E390E00E94F6036D
:102D000020EE3FEF42E050E069ED70E082E390E0BA
:102D10000E94F6038E816E2D0E944923D82E20EE4C
:102D20003FEF4CEC50E067E370E090E00E9442041B
:102D30008E8120EE3FEF4CEC50E066E470E0DF9CCB
:102D4000800D112490E00E9442048B816E2D0E9420
:102D50004923D82E20EE3FEF4CEC50E06CE970E0B8
:102D600090E00E9442048B8120EE3FEF4CEC50E05B
:102D70006BEA70E0DF9C800D112490E00E94420419
:102D800020EE3FEF45E050E066ED70E08DEB90E027
:102D90000E941C0420EE3FEF45E050E067ED70E03C
:102DA0008DEB90E00E941C048A816E2D0E944923C5
:102DB000D82E20EE3FEF4CEC50E069EC70E090E054
:102DC0000E9442048A8120EE3FEF4CEC50E068ED17
:102DD00070E0DF9C800D112490E00E94420420EE00
:102DE0003FEF45E050E066ED70E08AEE90E00E9433
:102DF0001C0420EE3FEF45E050E067ED70E08AEE06
:102E000090E00E941C0420EE3FEF4CEC50E066EF97
:102E100070E082E090E00E944204898164E60E94B2
:102E20004923D82E20EE3FEF4CEC50E065E071E0F6
:102E300080E090E00E944204898194E6D99E801946
:102E4000112489836E2D0E944923E82E20EE3FEF46
:102E50004CEC50E064E171E090E00E944204898112
:102E6000EF9C800D1124898320EE3FEF4CEC50E065
:102E700063E271E090E00E94420427960FB6F89456
:102E8000DEBF0FBECDBFDF91CF911F910F91FF909D
:102E9000EF90DF90CF9008950F931F9362E083E748
:102EA00091E00E94D718882391F000E010E020E024
:102EB00038EF4CEC50E06EE670E081E090E00E946C
:102EC00042040E9450141F910F910C940B161F91F5
:102ED0000F910895EF920F93CF93C2E061E08C2F92
:102EE0000E943D1CCF5FCA30C9F761E08EE00E94AE
:102EF0003D1C61E08FE00E943D1C61E080E10E948A
:102F00003D1C61E081E10E943D1C61E08EE00E9479
:102F1000751C61E08FE00E94751C61E080E10E94F9
:102F2000751C61E081E10E94751C0E94390180E0FE
:102F300090E00E9450150E94240B0E940B1684E71B
:102F400091E00E94C1190E94C700E12C00E020E03E
:102F500040E06EE870E083E791E00E94521864E080
:102F600070E083E791E00E94F91841E062E083E7B6
:102F700091E00E94B31840E855E260E070E08DE314
:102F800092E0CF910F91EF900C945120CB01642FE0
:102F90000C94A523EF92FF920F931F93CF93DF938F
:102FA0001F92CDB7DEB7F62E142F022F68E670E021
:102FB00084E791E059830E94E8196F2D84E791E03E
:102FC0000E948119E12E5981F52E07C0F701619108
:102FD0007F0184E791E00E9481198E2D811B80176B
:102FE000A8F384E791E00F90DF91CF911F910F91AB
:102FF000FF90EF900C94FD19CF93DF931F92CDB704
:10300000DEB7498321E0AE014F5F5F4F0E94CA17D0
:103010000F90DF91CF910895EF92FF920F931F933E
:10302000CF93DF93C62FF42EE52E022F68E670E0D3
:1030300084E791E00E94E8196C2F84E791E00E94F8
:10304000811984E791E00E94FD19182F811112C0A7
:10305000402F68E684E791E00E94D819CF2DDE2D3D
:1030600005C084E791E00E942E1989938C2F8F1957
:103070008017B8F3812FDF91CF911F910F91FF90AF
:10308000EF900895CF93DF931F92CDB7DEB721E085
:10309000AE014F5F5F4F0E940C1889810F90DF9146
:1030A000CF910895CF92DF92EF92FF920F931F93EB
:1030B000CF93DF931F92CDB7DEB76C01562F342F1D
:1030C000EAE0842F6E2F0E944923482F440F480FB7
:1030D000440F430F822F0E944923382F330F380F9C
:1030E000330F320F802F0E944923182F110F180F12
:1030F000110F100F8E2D0E944923082F000F080F6B
:10310000000F0E0D50FD406851FD306852FD1068F3
:1031100054FD106453FD006857FD09C067E0C60107
:1031200039830E94FC1728E0F22E398102C09BE00F
:10313000F92E432F6F2DC6010E94FC176F2D6F5F74
:10314000412FC6010E94FC176F2D6E5F402FC601F4
:103150000F90DF91CF911F910F91FF90EF90DF9033
:10316000CF900C94FC170F931F93CF93DF93EC0138
:10317000162F042F6EE00E944218612F70E06150FC
:10318000710921E030E001C0220F6A95EAF70023BF
:1031900019F0482F422B03C0422F409548236EE080
:1031A000CE01DF91CF911F910F910C94FC171F93CB
:1031B000CF93DF93EC01162F6FE00E944218612F2E
:1031C00070E06150710941E050E001C0440F6A9520
:1031D000EAF7982F942341F0409548236FE0CE0101
:1031E0000E94FC1781E001C080E0DF91CF911F9128
:1031F0000895EF92FF921F93CF93DF931F92CDB765
:10320000DEB77C01162F6EE079830E944218212FD1
:103210007981372F482F2430310514F0446007C0DE
:10322000437E53E0220F331F5A95E1F7422B6EE0A5
:10323000C7010F90DF91CF911F91FF90EF900C94F9
:10324000FC1784E791E00C94C1192091A40130E0AF
:103250008091A501281B3109C90108958091A5011C
:103260009091A401891750F4E82FF0E0EA55FE4F41
:10327000208130E08F5F8093A50102C02FEF3FEFE8
:10328000C9010895E091A5018091A401E81730F4E7
:10329000F0E0EA55FE4F208130E002C02FEF3FEF13
:1032A000C90108950895CF92DF92EF92FF920F9394
:1032B0001F93CF93DF937C01CB018A012091800182
:1032C000222391F0EB016B01C40ED51E09C0699158
:1032D000D701ED91FC910190F081E02DC701099596
:1032E000CC15DD05A1F703C0642F0E94BA1AC801EE
:1032F000DF91CF911F910F91FF90EF90DF90CF90D2
:103300000895CF93DF931F92CDB7DEB769832091E5
:1033100080012223D1F020918101203240F021E070
:1033200030E0FC013383228320E030E015C080913F
:103330008201E82FF0E0ED57FE4F998190838F5F77
:10334000809382018093810105C061E0CE010196E6
:103350000E94BA1A21E030E0C9010F90DF91CF91AD
:103360000895FC011382128248EE53E060E070E0A1
:1033700044835583668377838CE491E091838083D3
:1033800008951092A5011092A4011092820110924A
:1033900081010C94041A862F413208F040E266EA5B
:1033A00071E00E94221A1092A5018093A401089551
:1033B00021E00C94CB1921E00C94CB1981E080938F
:1033C00080016093A30110928201109281010895FF
:1033D0000C94DE190F93062F21E04091810163E8E0
:1033E00071E08091A3010E94671A109282011092ED
:1033F0008101109280010F91089561E00C94EA1907
:1034000084E791E00C94B1191092CF0181E0809390
:10341000CD011092CC0161E082E10E94751C61E057
:1034200083E10E94751CE9EBF0E080818E7F808350
:1034300080818D7F808388E48093B80085E48093C9
:10344000BC000895413208F03FC09091CF01911126
:10345000FCCF91E09093CF012093CD012FEF2093EB
:10346000C6011092CB01242F21502093CA019093C2
:10347000CE019091CE01880F892B8093CE0180914F
:10348000CC01813041F41092CC018091CE01809327
:10349000BB0085EC01C085EE8093BC008091CF011C
:1034A0008130E1F38091CB01841710F44091CB017E
:1034B00020ED31E0FB01D90102C08D9181938A2F6B
:1034C000821B8417D0F301C040E0842F08950F932E
:1034D000413208F046C09091CF019111FCCF92E0AB
:1034E0009093CF010093CD019FEF9093C60110926E
:1034F000CB014093CA01FB0160ED71E0DB0102C02A
:1035000091919D939A2F961B9417D0F31092CE0110
:103510009091CE01880F892B8093CE018091CC01B0
:10352000813041F41092CC018091CE018093BB0098
:1035300085EC01C085EE8093BC00222321F08091B0
:10354000CF018230E1F38091C6018F3F61F080911D
:10355000C601803251F08091C601803341F483E08E
:1035600007C081E005C080E003C082E001C084E0C4
:103570000F910895613298F42091CF01243089F49D
:103580006093C801FC0180EF91E0DC0102C0219151
:103590002D932A2F281B2617D0F380E0089581E071
:1035A000089582E0089585ED8093BC008091BC0071
:1035B00084FDFCCF1092CF01089585EC8093BC0070
:1035C0001092CF0108951F920F920FB60F921124FF
:1035D0002F933F934F935F936F937F938F939F931B
:1035E000AF93BF93EF93FF938091B900887F8036AC
:1035F00009F49FC058F5883209F45BC090F480311B
:1036000009F452C038F4882309F4F8C0883009F06E
:10361000F9C04AC0883109F44CC0803209F0F2C0C8
:103620005CC0803409F46BC038F4803309F455C0B1
:10363000883309F0E7C054C0803509F454C0883598
:1036400009F462C0883409F0DDC0DAC0883909F4B1
:10365000CBC0A8F4883709F46CC038F4883609F474
:1036600068C0803709F0CEC064C0883809F4BCC097
:10367000803909F464C0803809F0C4C060C0803B60
:1036800009F48AC038F4803A09F46BC0883A09F02A
:10369000B9C082C0803C09F4ABC0883C09F4A8C022
:1036A000883B09F0AFC08DC08091CE018093BB00F4
:1036B00012C09091CB018091CA01981788F5809132
:1036C000CB01E82FF0E0E053FE4F90819093BB00D8
:1036D0008F5F8093CB0185EC88C08093C60190C03A
:1036E0008093C60156C08091CB019091BB00E82F1A
:1036F000F0E0E053FE4F90838F5F8093CB01909179
:10370000CB018091CA016DC08091CB019091BB002B
:10371000E82FF0E0E053FE4F90838F5F8093CB0162
:103720008091CD0181116CC081E08093CC0184EA4D
:1037300060C083E08093CF011092C701CCCF80910D
:10374000C701803208F050C08091C7019091BB0042
:10375000E82FF0E0EC5EFD4F90838F5F8093C70110
:10376000BACF8091C701803230F4E091C701F0E018
:10377000EC5EFD4F10820E94D31A6091C701E09168
:103780001002F091110270E084E192E0099510922C
:10379000C7010E94DD1A36C084E08093CF011092E9
:1037A000C9011092C801E0911202F091130209952B
:1037B0008091C801811105C081E08093C8011092F9
:1037C000F0018091C901E82FF0E0E051FE4F9081B7
:1037D0009093BB008F5F8093C9019091C901809144
:1037E000C801981708F477CF85E88093BC000AC019
:1037F00085EC8093BC001092CF0104C01092C601EA
:103800000E94D31AFF91EF91BF91AF919F918F9139
:103810007F916F915F914F913F912F910F900FBECC
:103820000F901F901895833069F028F48130A1F033
:10383000823011F514C08630B1F08730C1F0843089
:10384000D9F404C0809180008F7703C080918000FC
:103850008F7D80938000089584B58F7702C084B5F2
:103860008F7D84BD08958091B0008F7703C08091D3
:10387000B0008F7D8093B0000895CF93DF9390E0E8
:10388000FC01E458FF4F4491FC01E057FF4F849145
:10389000882341F190E0880F991FFC01E255FF4F0A
:1038A00025913491D9018C559F4FFC0185919491BC
:1038B000C82FD92F9FB7F8948C91611106C04095FD
:1038C00084238C938881842308C0623041F4242FA0
:1038D000209582238C938881842B888302C0842B3B
:1038E0008C939FBFDF91CF9108950F931F93CF9338
:1038F000DF931F92CDB7DEB7282F30E0F901E859EA
:10390000FF4F8491F901E458FF4F1491F901E057FA
:10391000FF4F04910023D1F0882321F069830E9496
:10392000131C6981E02FF0E0EE0FFF1FEC55FF4FF5
:1039300085919491DC019FB7F8948C91611103C03B
:103940001095812301C0812B8C939FBF0F90DF9135
:10395000CF911F910F9108951F920F920FB60F9262
:1039600011242F933F938F939F93AF93BF93809195
:10397000340290913502A0913602B0913702309115
:103980003C02232F2D5F2D3720F40196A11DB11D80
:1039900005C0232F2A570296A11DB11D20933C027A
:1039A0008093340290933502A0933602B09337028D
:1039B0008091380290913902A0913A02B0913B0275
:1039C0000196A11DB11D8093380290933902A093F6
:1039D0003A02B0933B02BF91AF919F918F913F917B
:1039E0002F910F900FBE0F901F9018950F931F935C
:1039F0009FB7F894009138021091390220913A0251
:103A000030913B0286B5A89B06C08F3F21F00F5F27
:103A10001F4F2F4F3F4F9FBF322F212F102F0027B7
:103A2000080F111D211D311D42E0000F111F221F23
:103A3000331F4A95D1F7B801C9011F910F9108951D
:103A4000CF92DF92EF92FF92CF93DF936B017C01D5
:103A50000E94F61CEB010EC00E94F61C6C1B7D0B35
:103A6000683E734038F081E0C81AD108E108F108D7
:103A7000C851DC4FC114D104E104F10469F7DF91AE
:103A8000CF91FF90EF90DF90CF900895789484B518
:103A9000826084BD84B5816084BD85B5826085BD4A
:103AA00085B5816085BDEEE6F0E080818160808330
:103AB000E1E8F0E010828081826080838081816013
:103AC0008083E0E8F0E0808181608083E1EBF0E0DA
:103AD000808184608083E0EBF0E08081816080837E
:103AE000EAE7F0E080818460808380818260808367
:103AF0008081816080838081806880831092C10092
:103B00000895CF92DF92EF92FF920F931F93CF937E
:103B1000DF936C01EB017A01E60EF71E00E010E086
:103B20000BC06991D601ED91FC910190F081E02DDF
:103B3000C6010995080F191FCE15DF0591F7C801B9
:103B4000DF91CF911F910F91FF90EF90DF90CF9079
:103B50000895DB010D900020E9F7AD0141505109B6
:103B6000461B570BDC01ED91FC910280F381E02DA7
:103B700009940C94A91DDC01ED91FC910190F08158
:103B8000E02D09940F931F93CF93DF93EC016DE029
:103B90000E94BB1D8C016AE0CE010E94BB1D9C01EE
:103BA000200F311FC901DF91CF911F910F9108950F
:103BB0000F931F93CF93DF93EC010E94BB1D8C01E9
:103BC000CE010E94C21D9C01200F311FC901DF914F
:103BD000CF911F910F9108954F925F926F927F92B4
:103BE0009F92AF92BF92CF92DF92EF92FF920F938C
:103BF0001F93CF93DF93CDB7DEB7A1970FB6F8949D
:103C0000DEBF0FBECDBF5C016A017B01922E19A2FF
:103C100081E0821710F08AE0982E8E010F5D1F4F11
:103C2000492C512C612C712CC701B601A3019201C2
:103C30000E9469238C2D929E801911240150110934
:103C40008A3014F4805D01C0895CF80180836901C9
:103C50007A01C114D104E104F10431F7B801C501BE
:103C60000E94A91DA1960FB6F894DEBF0FBECDBF6E
:103C7000DF91CF911F910F91FF90EF90DF90CF9048
:103C8000BF90AF909F907F906F905F904F900895FE
:103C9000CF92DF92EF92FF920F931F93CF93DF9318
:103CA000EC016A017B012115310579F4E881F98184
:103CB0000190F081E02D642FDF91CF911F910F9142
:103CC000FF90EF90DF90CF9009942A30310519F4DE
:103CD00077FD0EC02AE0B701A601CE01DF91CF919A
:103CE0001F910F91FF90EF90DF90CF900C94EC1DFF
:103CF0006DE20E94BB1D8C0144275527BA014C1967
:103D00005D096E097F092AE0CE010E94EC1D080FB3
:103D1000191FC801DF91CF911F910F91FF90EF9074
:103D2000DF90CF9008957F928F929F92AF92BF9233
:103D3000CF92DF92EF92FF920F931F93CF93DF9377
:103D40008C014A015B01F22E20E030E0A901C5019F
:103D5000B4010E94932187FF0AC06DE2C8010E944E
:103D6000BB1DEC01B7FAB094B7F8B09402C0C0E044
:103D7000D0E0E12C60E070E080E09FE307C020E04D
:103D800030E040E251E40E949721E394EF10F7CF36
:103D9000262F372F482F592FC501B4010E942F21FC
:103DA000762E872E982EA92E0E940422B62EC72E7C
:103DB000D82EE92E0E9430229B01AC01672D782D70
:103DC000892D9A2D0E942E21A62E972E882E792E8F
:103DD0002AE04B2D5C2D6D2D7E2DC8010E94EC1D1F
:103DE000C80FD91FFF20B9F168E571E0C8010E9432
:103DF000A91DC80FD91F2FC020E030E040E251E4D8
:103E00006A2D792D882D972D0E94E622762EC72EB9
:103E1000D82EE92E0E94FF214B01AA2497FCA094E2
:103E2000BA2C2AE030E0B501A401C8010E94481E66
:103E3000C80FD91FC501B4010E9432229B01AC01F9
:103E4000672D7C2D8D2D9E2D0E942E21A62E972E26
:103E5000882E792EFA94F110CFCFCE01DF91CF9139
:103E60001F910F91FF90EF90DF90CF90BF90AF9098
:103E70009F908F907F9008950C94931EFC018485F1
:103E80009585FC01E05CFF4F20813181FC01EE5BF8
:103E9000FF4F80819181281B390B2F733327C90174
:103EA0000895FC0184859585FC01E05CFF4F40810D
:103EB0005181FC01EE5BFF4F208131814217530796
:103EC00041F00190F081E02DE80FF91F208130E0F2
:103ED00002C02FEF3FEFC9010895FC01848595854D
:103EE000FC01E05CFF4F40815181FC01EE5BFF4F24
:103EF000208131814217530781F0A081B181A80F41
:103F0000B91F8C91208131812F5F3F4F2F73332751
:103F100031832083282F30E002C02FEF3FEFC9010B
:103F20000895FC0186859785FC01E05CFF4FDC016C
:103F3000AE5BBF4F408151812D913C91119742174B
:103F40005307C1F70895CF93DF93FC0186859785CA
:103F5000DC01A05CBF4F2D913C9111972F5F3F4F2B
:103F60002F733327EC01CE5BDF4F48815981241733
:103F70003507D9F30D90BC91A02DA80FB91F6C93F4
:103F8000A685B785A05CBF4F11963C932E93A6895A
:103F9000B7892C9181E090E0058C02C0880F991FB1
:103FA0000A94E2F7282B2C9381E090E0DF91CF91E7
:103FB000089508951F920F920FB60F9211242F9318
:103FC0003F934F938F939F93EF93FF934091C6003E
:103FD0008091E0029091E10201968F7399272091E0
:103FE000E2023091E3028217930759F0E091E00278
:103FF000F091E102E056FD4F40839093E1028093FF
:10400000E002FF91EF919F918F914F913F912F91FE
:104010000F900FBE0F901F9018958DE392E00E94B5
:104020003E1F892B11F00C94D91F08951F920F92F7
:104030000FB60F9211242F933F938F939F93EF937B
:10404000FF9320919C0230919D0280919E0290915D
:104050009F022817390731F48091C1008F7D80932A
:10406000C10014C0E0919E02F0919F02E45AFD4FFE
:10407000208180919E0290919F0201968F739927D3
:1040800090939F0280939E022093C600FF91EF9130
:104090009F918F913F912F910F900FBE0F901F9086
:1040A0001895CF92DF92EF92FF92CF93DF93EC01BE
:1040B0006A017B01411581EE580761057105F9F030
:1040C000EC89FD8981E090E00E8C02C0880F991F79
:1040D0000A94E2F7808360E079E08DE390E0A70145
:1040E00096010E94692321503109410951095695D1
:1040F000479537952795211580E1380798F0EC8989
:10410000FD89108260E874E88EE190E0A7019601D5
:104110000E9469232150310941095109569547955B
:1041200037952795E889F9893083EA89FB892083C7
:10413000EE89FF89408181E090E09C010A8C02C0F9
:10414000220F331F0A94E2F7422B4083EE89FF8946
:1041500040819C010B8C02C0220F331F0A94E2F7AE
:10416000422B4083EE89FF8940819C010C8C02C068
:10417000220F331F0A94E2F7422B4083EE89FF8916
:1041800020810D8C02C0880F991F0A94E2F7809558
:1041900082238083DF91CF91FF90EF90DF90CF90CB
:1041A00008951092400210923F0288EE93E0A0E042
:1041B000B0E08093410290934202A0934302B093F7
:1041C00044028EE591E090933E0280933D0280EAA6
:1041D00092E090934A02809349028CE592E090939A
:1041E0004C0280934B0285EC90E090934E028093BA
:1041F0004D0284EC90E09093500280934F0280EC4B
:1042000090E0909352028093510281EC90E0909361
:1042100054028093530286EC90E090935602809370
:10422000550284E08093570283E08093580287E030
:104230008093590285E080935A0281E080935B026B
:1042400008950E94461D0E946A17CDE0D0E20E94A8
:104250004C172097E1F30E940D20F9CF5058BB274F
:10426000AA270ED075C166D130F06BD120F031F4A1
:104270009F3F11F41EF45BC10EF4E095E7FB51C1C2
:10428000E92F77D180F3BA17620773078407950780
:1042900018F071F49EF58FC10EF4E0950B2EBA2F35
:1042A000A02D0B01B90190010C01CA01A00111243C
:1042B000FF27591B99F0593F50F4503E68F11A16E8
:1042C000F040A22F232F342F4427585FF3CF469579
:1042D00037952795A795F0405395C9F77EF41F169B
:1042E000BA0B620B730B840BBAF09150A1F0FF0F65
:1042F000BB1F661F771F881FC2F70EC0BA0F621F51
:10430000731F841F48F4879577956795B795F79540
:104310009E3F08F0B3CF9395880F08F09927EE0FD2
:10432000979587950895D9D008F481E008950CD029
:104330000FC107D140F0FED030F021F45F3F19F0FB
:10434000F0C0511139C1F3C014D198F39923C9F3C6
:104350005523B1F3951B550BBB27AA27621773078B
:10436000840738F09F5F5F4F220F331F441FAA1F3F
:10437000A9F333D00E2E3AF0E0E830D091505040FF
:10438000E695001CCAF729D0FE2F27D0660F771FAD
:10439000881FBB1F261737074807AB07B0E809F08F
:1043A000BB0B802DBF01FF2793585F4F2AF09E3F24
:1043B000510568F0B6C000C15F3FECF3983EDCF3F6
:1043C000869577956795B795F7959F5FC9F7880F9D
:1043D000911D9695879597F90895E1E0660F771FEF
:1043E000881FBB1F621773078407BA0720F0621B80
:1043F000730B840BBA0BEE1F88F7E095089504D079
:104400006894B111D9C00895BCD088F09F5790F03E
:10441000B92F9927B751A0F0D1F0660F771F881FE9
:10442000991F1AF0BA95C9F712C0B13081F0C3D004
:10443000B1E00895C0C0672F782F8827B85F39F0A2
:10444000B93FCCF3869577956795B395D9F73EF448
:1044500090958095709561957F4F8F4F9F4F0895F0
:10446000E89409C097FB3EF490958095709561950E
:104470007F4F8F4F9F4F9923A9F0F92F96E9BB27C4
:104480009395F695879577956795B795F111F8CF40
:10449000FAF4BB0F11F460FF1BC06F5F7F4F8F4FAB
:1044A0009F4F16C0882311F096E911C0772321F0A1
:1044B0009EE8872F762F05C0662371F096E8862F39
:1044C00070E060E02AF09A95660F771F881FDAF790
:1044D000880F9695879597F90895990F0008550FBD
:1044E000AA0BE0E8FEEF16161706E807F907C0F07A
:1044F00012161306E407F50798F0621B730B840B82
:10450000950B39F40A2661F0232B242B252B21F45B
:1045100008950A2609F4A140A6958FEF811D811DFB
:10452000089597F99F6780E870E060E008959FEF35
:1045300080EC089500240A9416161706180609063A
:10454000089500240A941216130614060506089509
:10455000092E0394000C11F4882352F0BB0F40F491
:10456000BF2B11F460FF04C06F5F7F4F8F4F9F4FD1
:10457000089557FD9058440F551F59F05F3F71F053
:104580004795880F97FB991F61F09F3F79F08795BA
:104590000895121613061406551FF2CF4695F1DF43
:1045A00008C0161617061806991FF1CF86957105D3
:1045B000610508940895E894BB2766277727CB0107
:1045C00097F908958ADF08F48FEF08950BD0C0CFD4
:1045D000B1DF28F0B6DF18F0952309F0A2CFA7CFFE
:1045E0001124EACFC6DFA0F3959FD1F3950F50E0D9
:1045F000551F629FF001729FBB27F00DB11D639F95
:10460000AA27F00DB11DAA1F649F6627B00DA11D3A
:10461000661F829F2227B00DA11D621F739FB00DE0
:10462000A11D621F839FA00D611D221F749F332750
:10463000A00D611D231F849F600D211D822F762FE9
:104640006A2F11249F5750408AF0E1F088234AF0E6
:10465000EE0FFF1FBB1F661F771F881F9150504032
:10466000A9F79E3F510570F05CCFA6CF5F3FECF3FA
:10467000983EDCF3869577956795B795F795E7951E
:104680009F5FC1F7FE2B880F911D9695879597F92F
:104690000895991B79E004C0991F961708F0961B9E
:1046A000881F7A95C9F78095089597FB072E16F411
:1046B000009407D077FD09D00E948B2307FC05D01A
:1046C0003EF4909581959F4F0895709561957F4F29
:1046D0000895A1E21A2EAA1BBB1BFD010DC0AA1F43
:1046E000BB1FEE1FFF1FA217B307E407F50720F05B
:1046F000A21BB30BE40BF50B661F771F881F991FD6
:104700001A9469F760957095809590959B01AC011E
:10471000BD01CF010895AA1BBB1B51E107C0AA1F11
:10472000BB1FA617B70710F0A61BB70B881F991F52
:104730005A95A9F780959095BC01CD010895EE0F8B
:10474000FF1F0590F491E02D0994262FF999FECFD3
:104750001FBA92BD81BD20BD0FB6F894FA9AF99A9E
:0A4760000FBE01960895F894FFCFF4
:10476A000100F1000100330048004B007365676ED9
:10477A006F3A202B20202020007365676E6F3A2045
:10478A002D202020200074656D7065726174757229
:10479A006520696E743A2000202020202076616C02
:1047AA006F5F696E743A2000000000008119531986
:1047BA0025192E19421952192E0000000000A31FB4
:0A47CA00811D3E1F6D1F511F911F3E
:00000001FF
